{
	"PracticeSimpleWallet.sol": {
		"sharedWallet": {
			"abi": [
				{
					"anonymous": false,
					"inputs": [
						{
							"indexed": true,
							"internalType": "address",
							"name": "previousOwner",
							"type": "address"
						},
						{
							"indexed": true,
							"internalType": "address",
							"name": "newOwner",
							"type": "address"
						}
					],
					"name": "OwnershipTransferred",
					"type": "event"
				},
				{
					"inputs": [
						{
							"internalType": "address",
							"name": "_who",
							"type": "address"
						},
						{
							"internalType": "uint256",
							"name": "amount",
							"type": "uint256"
						}
					],
					"name": "addAllowance",
					"outputs": [],
					"stateMutability": "nonpayable",
					"type": "function"
				},
				{
					"inputs": [
						{
							"internalType": "address",
							"name": "",
							"type": "address"
						}
					],
					"name": "allowance",
					"outputs": [
						{
							"internalType": "uint256",
							"name": "",
							"type": "uint256"
						}
					],
					"stateMutability": "view",
					"type": "function"
				},
				{
					"inputs": [],
					"name": "owner",
					"outputs": [
						{
							"internalType": "address",
							"name": "",
							"type": "address"
						}
					],
					"stateMutability": "view",
					"type": "function"
				},
				{
					"inputs": [],
					"name": "renounceOwnership",
					"outputs": [],
					"stateMutability": "nonpayable",
					"type": "function"
				},
				{
					"inputs": [
						{
							"internalType": "address",
							"name": "newOwner",
							"type": "address"
						}
					],
					"name": "transferOwnership",
					"outputs": [],
					"stateMutability": "nonpayable",
					"type": "function"
				},
				{
					"inputs": [
						{
							"internalType": "address payable",
							"name": "_to",
							"type": "address"
						},
						{
							"internalType": "uint256",
							"name": "amount",
							"type": "uint256"
						}
					],
					"name": "withdrawMoney",
					"outputs": [],
					"stateMutability": "nonpayable",
					"type": "function"
				},
				{
					"stateMutability": "payable",
					"type": "receive"
				}
			],
			"devdoc": {
				"kind": "dev",
				"methods": {
					"owner()": {
						"details": "Returns the address of the current owner."
					},
					"renounceOwnership()": {
						"details": "Leaves the contract without owner. It will not be possible to call `onlyOwner` functions anymore. Can only be called by the current owner. NOTE: Renouncing ownership will leave the contract without an owner, thereby removing any functionality that is only available to the owner."
					},
					"transferOwnership(address)": {
						"details": "Transfers ownership of the contract to a new account (`newOwner`). Can only be called by the current owner."
					}
				},
				"version": 1
			},
			"evm": {
				"assembly": "    /* \"PracticeSimpleWallet.sol\":146:1095  contract sharedWallet is Ownable{\r... */\n  mstore(0x40, 0x80)\n  callvalue\n  dup1\n  iszero\n  tag_1\n  jumpi\n  0x00\n  dup1\n  revert\ntag_1:\n  pop\n    /* \"https://github.com/OpenZeppelin/openzeppelin-contracts/blob/master/contracts/access/Ownable.sol\":936:968  _transferOwnership(_msgSender()) */\n  tag_4\n    /* \"https://github.com/OpenZeppelin/openzeppelin-contracts/blob/master/contracts/access/Ownable.sol\":955:967  _msgSender() */\n  tag_5\n    /* \"https://github.com/OpenZeppelin/openzeppelin-contracts/blob/master/contracts/access/Ownable.sol\":955:965  _msgSender */\n  shl(0x20, tag_6)\n    /* \"https://github.com/OpenZeppelin/openzeppelin-contracts/blob/master/contracts/access/Ownable.sol\":955:967  _msgSender() */\n  0x20\n  shr\n  jump\t// in\ntag_5:\n    /* \"https://github.com/OpenZeppelin/openzeppelin-contracts/blob/master/contracts/access/Ownable.sol\":936:954  _transferOwnership */\n  shl(0x20, tag_7)\n    /* \"https://github.com/OpenZeppelin/openzeppelin-contracts/blob/master/contracts/access/Ownable.sol\":936:968  _transferOwnership(_msgSender()) */\n  0x20\n  shr\n  jump\t// in\ntag_4:\n    /* \"PracticeSimpleWallet.sol\":146:1095  contract sharedWallet is Ownable{\r... */\n  jump(tag_8)\n    /* \"https://github.com/OpenZeppelin/openzeppelin-contracts/blob/master/contracts/utils/Context.sol\":640:736  function _msgSender() internal view virtual returns (address) {... */\ntag_6:\n    /* \"https://github.com/OpenZeppelin/openzeppelin-contracts/blob/master/contracts/utils/Context.sol\":693:700  address */\n  0x00\n    /* \"https://github.com/OpenZeppelin/openzeppelin-contracts/blob/master/contracts/utils/Context.sol\":719:729  msg.sender */\n  caller\n    /* \"https://github.com/OpenZeppelin/openzeppelin-contracts/blob/master/contracts/utils/Context.sol\":712:729  return msg.sender */\n  swap1\n  pop\n    /* \"https://github.com/OpenZeppelin/openzeppelin-contracts/blob/master/contracts/utils/Context.sol\":640:736  function _msgSender() internal view virtual returns (address) {... */\n  swap1\n  jump\t// out\n    /* \"https://github.com/OpenZeppelin/openzeppelin-contracts/blob/master/contracts/access/Ownable.sol\":2447:2634  function _transferOwnership(address newOwner) internal virtual {... */\ntag_7:\n    /* \"https://github.com/OpenZeppelin/openzeppelin-contracts/blob/master/contracts/access/Ownable.sol\":2520:2536  address oldOwner */\n  0x00\n    /* \"https://github.com/OpenZeppelin/openzeppelin-contracts/blob/master/contracts/access/Ownable.sol\":2539:2545  _owner */\n  dup1\n  0x00\n  swap1\n  sload\n  swap1\n  0x0100\n  exp\n  swap1\n  div\n  0xffffffffffffffffffffffffffffffffffffffff\n  and\n    /* \"https://github.com/OpenZeppelin/openzeppelin-contracts/blob/master/contracts/access/Ownable.sol\":2520:2545  address oldOwner = _owner */\n  swap1\n  pop\n    /* \"https://github.com/OpenZeppelin/openzeppelin-contracts/blob/master/contracts/access/Ownable.sol\":2564:2572  newOwner */\n  dup2\n    /* \"https://github.com/OpenZeppelin/openzeppelin-contracts/blob/master/contracts/access/Ownable.sol\":2555:2561  _owner */\n  0x00\n  dup1\n    /* \"https://github.com/OpenZeppelin/openzeppelin-contracts/blob/master/contracts/access/Ownable.sol\":2555:2572  _owner = newOwner */\n  0x0100\n  exp\n  dup2\n  sload\n  dup2\n  0xffffffffffffffffffffffffffffffffffffffff\n  mul\n  not\n  and\n  swap1\n  dup4\n  0xffffffffffffffffffffffffffffffffffffffff\n  and\n  mul\n  or\n  swap1\n  sstore\n  pop\n    /* \"https://github.com/OpenZeppelin/openzeppelin-contracts/blob/master/contracts/access/Ownable.sol\":2618:2626  newOwner */\n  dup2\n    /* \"https://github.com/OpenZeppelin/openzeppelin-contracts/blob/master/contracts/access/Ownable.sol\":2587:2627  OwnershipTransferred(oldOwner, newOwner) */\n  0xffffffffffffffffffffffffffffffffffffffff\n  and\n    /* \"https://github.com/OpenZeppelin/openzeppelin-contracts/blob/master/contracts/access/Ownable.sol\":2608:2616  oldOwner */\n  dup2\n    /* \"https://github.com/OpenZeppelin/openzeppelin-contracts/blob/master/contracts/access/Ownable.sol\":2587:2627  OwnershipTransferred(oldOwner, newOwner) */\n  0xffffffffffffffffffffffffffffffffffffffff\n  and\n  0x8be0079c531659141344cd1fd0a4f28419497f9722a3daafe3b4186f6b6457e0\n  mload(0x40)\n  mload(0x40)\n  dup1\n  swap2\n  sub\n  swap1\n  log3\n    /* \"https://github.com/OpenZeppelin/openzeppelin-contracts/blob/master/contracts/access/Ownable.sol\":2510:2634  {... */\n  pop\n    /* \"https://github.com/OpenZeppelin/openzeppelin-contracts/blob/master/contracts/access/Ownable.sol\":2447:2634  function _transferOwnership(address newOwner) internal virtual {... */\n  pop\n  jump\t// out\n    /* \"PracticeSimpleWallet.sol\":146:1095  contract sharedWallet is Ownable{\r... */\ntag_8:\n  dataSize(sub_0)\n  dup1\n  dataOffset(sub_0)\n  0x00\n  codecopy\n  0x00\n  return\nstop\n\nsub_0: assembly {\n        /* \"PracticeSimpleWallet.sol\":146:1095  contract sharedWallet is Ownable{\r... */\n      mstore(0x40, 0x80)\n      jumpi(tag_1, lt(calldatasize, 0x04))\n      shr(0xe0, calldataload(0x00))\n      dup1\n      0x3e5beab9\n      eq\n      tag_3\n      jumpi\n      dup1\n      0x715018a6\n      eq\n      tag_4\n      jumpi\n      dup1\n      0x8da5cb5b\n      eq\n      tag_5\n      jumpi\n      dup1\n      0xf274c897\n      eq\n      tag_6\n      jumpi\n      dup1\n      0xf2fde38b\n      eq\n      tag_7\n      jumpi\n      dup1\n      0xf3c40c4b\n      eq\n      tag_8\n      jumpi\n      jump(tag_2)\n    tag_1:\n      jumpi(tag_2, calldatasize)\n      stop\n    tag_2:\n      0x00\n      dup1\n      revert\n        /* \"PracticeSimpleWallet.sol\":185:225  mapping(address =>uint) public allowance */\n    tag_3:\n      callvalue\n      dup1\n      iszero\n      tag_11\n      jumpi\n      0x00\n      dup1\n      revert\n    tag_11:\n      pop\n      tag_12\n      0x04\n      dup1\n      calldatasize\n      sub\n      dup2\n      add\n      swap1\n      tag_13\n      swap2\n      swap1\n      tag_14\n      jump\t// in\n    tag_13:\n      tag_15\n      jump\t// in\n    tag_12:\n      mload(0x40)\n      tag_16\n      swap2\n      swap1\n      tag_17\n      jump\t// in\n    tag_16:\n      mload(0x40)\n      dup1\n      swap2\n      sub\n      swap1\n      return\n        /* \"https://github.com/OpenZeppelin/openzeppelin-contracts/blob/master/contracts/access/Ownable.sol\":1845:1946  function renounceOwnership() public virtual onlyOwner {... */\n    tag_4:\n      callvalue\n      dup1\n      iszero\n      tag_18\n      jumpi\n      0x00\n      dup1\n      revert\n    tag_18:\n      pop\n      tag_19\n      tag_20\n      jump\t// in\n    tag_19:\n      stop\n        /* \"https://github.com/OpenZeppelin/openzeppelin-contracts/blob/master/contracts/access/Ownable.sol\":1201:1286  function owner() public view virtual returns (address) {... */\n    tag_5:\n      callvalue\n      dup1\n      iszero\n      tag_21\n      jumpi\n      0x00\n      dup1\n      revert\n    tag_21:\n      pop\n      tag_22\n      tag_23\n      jump\t// in\n    tag_22:\n      mload(0x40)\n      tag_24\n      swap2\n      swap1\n      tag_25\n      jump\t// in\n    tag_24:\n      mload(0x40)\n      dup1\n      swap2\n      sub\n      swap1\n      return\n        /* \"PracticeSimpleWallet.sol\":732:1047  function withdrawMoney( address payable _to, uint amount) public ownerOrAllowed(amount){\r... */\n    tag_6:\n      callvalue\n      dup1\n      iszero\n      tag_26\n      jumpi\n      0x00\n      dup1\n      revert\n    tag_26:\n      pop\n      tag_27\n      0x04\n      dup1\n      calldatasize\n      sub\n      dup2\n      add\n      swap1\n      tag_28\n      swap2\n      swap1\n      tag_29\n      jump\t// in\n    tag_28:\n      tag_30\n      jump\t// in\n    tag_27:\n      stop\n        /* \"https://github.com/OpenZeppelin/openzeppelin-contracts/blob/master/contracts/access/Ownable.sol\":2095:2293  function transferOwnership(address newOwner) public virtual onlyOwner {... */\n    tag_7:\n      callvalue\n      dup1\n      iszero\n      tag_31\n      jumpi\n      0x00\n      dup1\n      revert\n    tag_31:\n      pop\n      tag_32\n      0x04\n      dup1\n      calldatasize\n      sub\n      dup2\n      add\n      swap1\n      tag_33\n      swap2\n      swap1\n      tag_14\n      jump\t// in\n    tag_33:\n      tag_34\n      jump\t// in\n    tag_32:\n      stop\n        /* \"PracticeSimpleWallet.sol\":333:439  function addAllowance(address _who, uint amount) public onlyOwner{\r... */\n    tag_8:\n      callvalue\n      dup1\n      iszero\n      tag_35\n      jumpi\n      0x00\n      dup1\n      revert\n    tag_35:\n      pop\n      tag_36\n      0x04\n      dup1\n      calldatasize\n      sub\n      dup2\n      add\n      swap1\n      tag_37\n      swap2\n      swap1\n      tag_38\n      jump\t// in\n    tag_37:\n      tag_39\n      jump\t// in\n    tag_36:\n      stop\n        /* \"PracticeSimpleWallet.sol\":185:225  mapping(address =>uint) public allowance */\n    tag_15:\n      mstore(0x20, 0x01)\n      dup1\n      0x00\n      mstore\n      keccak256(0x00, 0x40)\n      0x00\n      swap2\n      pop\n      swap1\n      pop\n      sload\n      dup2\n      jump\t// out\n        /* \"https://github.com/OpenZeppelin/openzeppelin-contracts/blob/master/contracts/access/Ownable.sol\":1845:1946  function renounceOwnership() public virtual onlyOwner {... */\n    tag_20:\n        /* \"https://github.com/OpenZeppelin/openzeppelin-contracts/blob/master/contracts/access/Ownable.sol\":1094:1107  _checkOwner() */\n      tag_41\n        /* \"https://github.com/OpenZeppelin/openzeppelin-contracts/blob/master/contracts/access/Ownable.sol\":1094:1105  _checkOwner */\n      tag_42\n        /* \"https://github.com/OpenZeppelin/openzeppelin-contracts/blob/master/contracts/access/Ownable.sol\":1094:1107  _checkOwner() */\n      jump\t// in\n    tag_41:\n      pop\n        /* \"https://github.com/OpenZeppelin/openzeppelin-contracts/blob/master/contracts/access/Ownable.sol\":1909:1939  _transferOwnership(address(0)) */\n      tag_44\n        /* \"https://github.com/OpenZeppelin/openzeppelin-contracts/blob/master/contracts/access/Ownable.sol\":1936:1937  0 */\n      0x00\n        /* \"https://github.com/OpenZeppelin/openzeppelin-contracts/blob/master/contracts/access/Ownable.sol\":1909:1927  _transferOwnership */\n      tag_45\n        /* \"https://github.com/OpenZeppelin/openzeppelin-contracts/blob/master/contracts/access/Ownable.sol\":1909:1939  _transferOwnership(address(0)) */\n      jump\t// in\n    tag_44:\n        /* \"https://github.com/OpenZeppelin/openzeppelin-contracts/blob/master/contracts/access/Ownable.sol\":1845:1946  function renounceOwnership() public virtual onlyOwner {... */\n      jump\t// out\n        /* \"https://github.com/OpenZeppelin/openzeppelin-contracts/blob/master/contracts/access/Ownable.sol\":1201:1286  function owner() public view virtual returns (address) {... */\n    tag_23:\n        /* \"https://github.com/OpenZeppelin/openzeppelin-contracts/blob/master/contracts/access/Ownable.sol\":1247:1254  address */\n      0x00\n        /* \"https://github.com/OpenZeppelin/openzeppelin-contracts/blob/master/contracts/access/Ownable.sol\":1273:1279  _owner */\n      dup1\n      0x00\n      swap1\n      sload\n      swap1\n      0x0100\n      exp\n      swap1\n      div\n      0xffffffffffffffffffffffffffffffffffffffff\n      and\n        /* \"https://github.com/OpenZeppelin/openzeppelin-contracts/blob/master/contracts/access/Ownable.sol\":1266:1279  return _owner */\n      swap1\n      pop\n        /* \"https://github.com/OpenZeppelin/openzeppelin-contracts/blob/master/contracts/access/Ownable.sol\":1201:1286  function owner() public view virtual returns (address) {... */\n      swap1\n      jump\t// out\n        /* \"PracticeSimpleWallet.sol\":732:1047  function withdrawMoney( address payable _to, uint amount) public ownerOrAllowed(amount){\r... */\n    tag_30:\n        /* \"PracticeSimpleWallet.sol\":812:818  amount */\n      dup1\n        /* \"PracticeSimpleWallet.sol\":502:511  isOwner() */\n      tag_48\n        /* \"PracticeSimpleWallet.sol\":502:509  isOwner */\n      tag_49\n        /* \"PracticeSimpleWallet.sol\":502:511  isOwner() */\n      jump\t// in\n    tag_48:\n        /* \"PracticeSimpleWallet.sol\":502:544  isOwner() || allowance[msg.sender]>=amount */\n      dup1\n      tag_50\n      jumpi\n      pop\n        /* \"PracticeSimpleWallet.sol\":538:544  amount */\n      dup1\n        /* \"PracticeSimpleWallet.sol\":515:524  allowance */\n      0x01\n        /* \"PracticeSimpleWallet.sol\":515:536  allowance[msg.sender] */\n      0x00\n        /* \"PracticeSimpleWallet.sol\":525:535  msg.sender */\n      caller\n        /* \"PracticeSimpleWallet.sol\":515:536  allowance[msg.sender] */\n      0xffffffffffffffffffffffffffffffffffffffff\n      and\n      0xffffffffffffffffffffffffffffffffffffffff\n      and\n      dup2\n      mstore\n      0x20\n      add\n      swap1\n      dup2\n      mstore\n      0x20\n      add\n      0x00\n      keccak256\n      sload\n        /* \"PracticeSimpleWallet.sol\":515:544  allowance[msg.sender]>=amount */\n      lt\n      iszero\n        /* \"PracticeSimpleWallet.sol\":502:544  isOwner() || allowance[msg.sender]>=amount */\n    tag_50:\n        /* \"PracticeSimpleWallet.sol\":494:567  require(isOwner() || allowance[msg.sender]>=amount,\"You are not allowed\") */\n      tag_51\n      jumpi\n      mload(0x40)\n      0x08c379a000000000000000000000000000000000000000000000000000000000\n      dup2\n      mstore\n      0x04\n      add\n      tag_52\n      swap1\n      tag_53\n      jump\t// in\n    tag_52:\n      mload(0x40)\n      dup1\n      swap2\n      sub\n      swap1\n      revert\n    tag_51:\n        /* \"PracticeSimpleWallet.sol\":850:871  address(this).balance */\n      selfbalance\n        /* \"PracticeSimpleWallet.sol\":842:848  amount */\n      dup3\n        /* \"PracticeSimpleWallet.sol\":842:871  amount<=address(this).balance */\n      gt\n      iszero\n        /* \"PracticeSimpleWallet.sol\":834:911  require(amount<=address(this).balance,\"Contract does not have enough amount\") */\n      tag_55\n      jumpi\n      mload(0x40)\n      0x08c379a000000000000000000000000000000000000000000000000000000000\n      dup2\n      mstore\n      0x04\n      add\n      tag_56\n      swap1\n      tag_57\n      jump\t// in\n    tag_56:\n      mload(0x40)\n      dup1\n      swap2\n      sub\n      swap1\n      revert\n    tag_55:\n        /* \"PracticeSimpleWallet.sol\":930:939  isOwner() */\n      tag_58\n        /* \"PracticeSimpleWallet.sol\":930:937  isOwner */\n      tag_49\n        /* \"PracticeSimpleWallet.sol\":930:939  isOwner() */\n      jump\t// in\n    tag_58:\n        /* \"PracticeSimpleWallet.sol\":926:1009  if(!isOwner()){\r... */\n      tag_59\n      jumpi\n        /* \"PracticeSimpleWallet.sol\":959:993  reduceAllowance(msg.sender,amount) */\n      tag_60\n        /* \"PracticeSimpleWallet.sol\":975:985  msg.sender */\n      caller\n        /* \"PracticeSimpleWallet.sol\":986:992  amount */\n      dup4\n        /* \"PracticeSimpleWallet.sol\":959:974  reduceAllowance */\n      tag_61\n        /* \"PracticeSimpleWallet.sol\":959:993  reduceAllowance(msg.sender,amount) */\n      jump\t// in\n    tag_60:\n        /* \"PracticeSimpleWallet.sol\":926:1009  if(!isOwner()){\r... */\n    tag_59:\n        /* \"PracticeSimpleWallet.sol\":1019:1022  _to */\n      dup3\n        /* \"PracticeSimpleWallet.sol\":1019:1031  _to.transfer */\n      0xffffffffffffffffffffffffffffffffffffffff\n      and\n        /* \"PracticeSimpleWallet.sol\":1019:1039  _to.transfer(amount) */\n      0x08fc\n        /* \"PracticeSimpleWallet.sol\":1032:1038  amount */\n      dup4\n        /* \"PracticeSimpleWallet.sol\":1019:1039  _to.transfer(amount) */\n      swap1\n      dup2\n      iszero\n      mul\n      swap1\n      mload(0x40)\n      0x00\n      mload(0x40)\n      dup1\n      dup4\n      sub\n      dup2\n      dup6\n      dup9\n      dup9\n      call\n      swap4\n      pop\n      pop\n      pop\n      pop\n      iszero\n      dup1\n      iszero\n      tag_63\n      jumpi\n      returndatasize\n      0x00\n      dup1\n      returndatacopy\n      revert(0x00, returndatasize)\n    tag_63:\n      pop\n        /* \"PracticeSimpleWallet.sol\":732:1047  function withdrawMoney( address payable _to, uint amount) public ownerOrAllowed(amount){\r... */\n      pop\n      pop\n      pop\n      jump\t// out\n        /* \"https://github.com/OpenZeppelin/openzeppelin-contracts/blob/master/contracts/access/Ownable.sol\":2095:2293  function transferOwnership(address newOwner) public virtual onlyOwner {... */\n    tag_34:\n        /* \"https://github.com/OpenZeppelin/openzeppelin-contracts/blob/master/contracts/access/Ownable.sol\":1094:1107  _checkOwner() */\n      tag_65\n        /* \"https://github.com/OpenZeppelin/openzeppelin-contracts/blob/master/contracts/access/Ownable.sol\":1094:1105  _checkOwner */\n      tag_42\n        /* \"https://github.com/OpenZeppelin/openzeppelin-contracts/blob/master/contracts/access/Ownable.sol\":1094:1107  _checkOwner() */\n      jump\t// in\n    tag_65:\n      pop\n        /* \"https://github.com/OpenZeppelin/openzeppelin-contracts/blob/master/contracts/access/Ownable.sol\":2203:2204  0 */\n      0x00\n        /* \"https://github.com/OpenZeppelin/openzeppelin-contracts/blob/master/contracts/access/Ownable.sol\":2183:2205  newOwner != address(0) */\n      0xffffffffffffffffffffffffffffffffffffffff\n      and\n        /* \"https://github.com/OpenZeppelin/openzeppelin-contracts/blob/master/contracts/access/Ownable.sol\":2183:2191  newOwner */\n      dup2\n        /* \"https://github.com/OpenZeppelin/openzeppelin-contracts/blob/master/contracts/access/Ownable.sol\":2183:2205  newOwner != address(0) */\n      0xffffffffffffffffffffffffffffffffffffffff\n      and\n      eq\n      iszero\n        /* \"https://github.com/OpenZeppelin/openzeppelin-contracts/blob/master/contracts/access/Ownable.sol\":2175:2248  require(newOwner != address(0), \"Ownable: new owner is the zero address\") */\n      tag_67\n      jumpi\n      mload(0x40)\n      0x08c379a000000000000000000000000000000000000000000000000000000000\n      dup2\n      mstore\n      0x04\n      add\n      tag_68\n      swap1\n      tag_69\n      jump\t// in\n    tag_68:\n      mload(0x40)\n      dup1\n      swap2\n      sub\n      swap1\n      revert\n    tag_67:\n        /* \"https://github.com/OpenZeppelin/openzeppelin-contracts/blob/master/contracts/access/Ownable.sol\":2258:2286  _transferOwnership(newOwner) */\n      tag_70\n        /* \"https://github.com/OpenZeppelin/openzeppelin-contracts/blob/master/contracts/access/Ownable.sol\":2277:2285  newOwner */\n      dup2\n        /* \"https://github.com/OpenZeppelin/openzeppelin-contracts/blob/master/contracts/access/Ownable.sol\":2258:2276  _transferOwnership */\n      tag_45\n        /* \"https://github.com/OpenZeppelin/openzeppelin-contracts/blob/master/contracts/access/Ownable.sol\":2258:2286  _transferOwnership(newOwner) */\n      jump\t// in\n    tag_70:\n        /* \"https://github.com/OpenZeppelin/openzeppelin-contracts/blob/master/contracts/access/Ownable.sol\":2095:2293  function transferOwnership(address newOwner) public virtual onlyOwner {... */\n      pop\n      jump\t// out\n        /* \"PracticeSimpleWallet.sol\":333:439  function addAllowance(address _who, uint amount) public onlyOwner{\r... */\n    tag_39:\n        /* \"https://github.com/OpenZeppelin/openzeppelin-contracts/blob/master/contracts/access/Ownable.sol\":1094:1107  _checkOwner() */\n      tag_72\n        /* \"https://github.com/OpenZeppelin/openzeppelin-contracts/blob/master/contracts/access/Ownable.sol\":1094:1105  _checkOwner */\n      tag_42\n        /* \"https://github.com/OpenZeppelin/openzeppelin-contracts/blob/master/contracts/access/Ownable.sol\":1094:1107  _checkOwner() */\n      jump\t// in\n    tag_72:\n      pop\n        /* \"PracticeSimpleWallet.sol\":425:431  amount */\n      dup1\n        /* \"PracticeSimpleWallet.sol\":409:418  allowance */\n      0x01\n        /* \"PracticeSimpleWallet.sol\":409:424  allowance[_who] */\n      0x00\n        /* \"PracticeSimpleWallet.sol\":419:423  _who */\n      dup5\n        /* \"PracticeSimpleWallet.sol\":409:424  allowance[_who] */\n      0xffffffffffffffffffffffffffffffffffffffff\n      and\n      0xffffffffffffffffffffffffffffffffffffffff\n      and\n      dup2\n      mstore\n      0x20\n      add\n      swap1\n      dup2\n      mstore\n      0x20\n      add\n      0x00\n      keccak256\n        /* \"PracticeSimpleWallet.sol\":409:431  allowance[_who]=amount */\n      dup2\n      swap1\n      sstore\n      pop\n        /* \"PracticeSimpleWallet.sol\":333:439  function addAllowance(address _who, uint amount) public onlyOwner{\r... */\n      pop\n      pop\n      jump\t// out\n        /* \"https://github.com/OpenZeppelin/openzeppelin-contracts/blob/master/contracts/access/Ownable.sol\":1359:1503  function _checkOwner() internal view virtual returns(uint) {... */\n    tag_42:\n        /* \"https://github.com/OpenZeppelin/openzeppelin-contracts/blob/master/contracts/access/Ownable.sol\":1412:1416  uint */\n      0x00\n        /* \"https://github.com/OpenZeppelin/openzeppelin-contracts/blob/master/contracts/access/Ownable.sol\":1447:1459  _msgSender() */\n      tag_75\n        /* \"https://github.com/OpenZeppelin/openzeppelin-contracts/blob/master/contracts/access/Ownable.sol\":1447:1457  _msgSender */\n      tag_76\n        /* \"https://github.com/OpenZeppelin/openzeppelin-contracts/blob/master/contracts/access/Ownable.sol\":1447:1459  _msgSender() */\n      jump\t// in\n    tag_75:\n        /* \"https://github.com/OpenZeppelin/openzeppelin-contracts/blob/master/contracts/access/Ownable.sol\":1436:1459  owner() == _msgSender() */\n      0xffffffffffffffffffffffffffffffffffffffff\n      and\n        /* \"https://github.com/OpenZeppelin/openzeppelin-contracts/blob/master/contracts/access/Ownable.sol\":1436:1443  owner() */\n      tag_77\n        /* \"https://github.com/OpenZeppelin/openzeppelin-contracts/blob/master/contracts/access/Ownable.sol\":1436:1441  owner */\n      tag_23\n        /* \"https://github.com/OpenZeppelin/openzeppelin-contracts/blob/master/contracts/access/Ownable.sol\":1436:1443  owner() */\n      jump\t// in\n    tag_77:\n        /* \"https://github.com/OpenZeppelin/openzeppelin-contracts/blob/master/contracts/access/Ownable.sol\":1436:1459  owner() == _msgSender() */\n      0xffffffffffffffffffffffffffffffffffffffff\n      and\n      eq\n        /* \"https://github.com/OpenZeppelin/openzeppelin-contracts/blob/master/contracts/access/Ownable.sol\":1428:1496  require(owner() == _msgSender(), \"Ownable: caller is not the owner\") */\n      tag_78\n      jumpi\n      mload(0x40)\n      0x08c379a000000000000000000000000000000000000000000000000000000000\n      dup2\n      mstore\n      0x04\n      add\n      tag_79\n      swap1\n      tag_80\n      jump\t// in\n    tag_79:\n      mload(0x40)\n      dup1\n      swap2\n      sub\n      swap1\n      revert\n    tag_78:\n        /* \"https://github.com/OpenZeppelin/openzeppelin-contracts/blob/master/contracts/access/Ownable.sol\":1359:1503  function _checkOwner() internal view virtual returns(uint) {... */\n      swap1\n      jump\t// out\n        /* \"https://github.com/OpenZeppelin/openzeppelin-contracts/blob/master/contracts/access/Ownable.sol\":2447:2634  function _transferOwnership(address newOwner) internal virtual {... */\n    tag_45:\n        /* \"https://github.com/OpenZeppelin/openzeppelin-contracts/blob/master/contracts/access/Ownable.sol\":2520:2536  address oldOwner */\n      0x00\n        /* \"https://github.com/OpenZeppelin/openzeppelin-contracts/blob/master/contracts/access/Ownable.sol\":2539:2545  _owner */\n      dup1\n      0x00\n      swap1\n      sload\n      swap1\n      0x0100\n      exp\n      swap1\n      div\n      0xffffffffffffffffffffffffffffffffffffffff\n      and\n        /* \"https://github.com/OpenZeppelin/openzeppelin-contracts/blob/master/contracts/access/Ownable.sol\":2520:2545  address oldOwner = _owner */\n      swap1\n      pop\n        /* \"https://github.com/OpenZeppelin/openzeppelin-contracts/blob/master/contracts/access/Ownable.sol\":2564:2572  newOwner */\n      dup2\n        /* \"https://github.com/OpenZeppelin/openzeppelin-contracts/blob/master/contracts/access/Ownable.sol\":2555:2561  _owner */\n      0x00\n      dup1\n        /* \"https://github.com/OpenZeppelin/openzeppelin-contracts/blob/master/contracts/access/Ownable.sol\":2555:2572  _owner = newOwner */\n      0x0100\n      exp\n      dup2\n      sload\n      dup2\n      0xffffffffffffffffffffffffffffffffffffffff\n      mul\n      not\n      and\n      swap1\n      dup4\n      0xffffffffffffffffffffffffffffffffffffffff\n      and\n      mul\n      or\n      swap1\n      sstore\n      pop\n        /* \"https://github.com/OpenZeppelin/openzeppelin-contracts/blob/master/contracts/access/Ownable.sol\":2618:2626  newOwner */\n      dup2\n        /* \"https://github.com/OpenZeppelin/openzeppelin-contracts/blob/master/contracts/access/Ownable.sol\":2587:2627  OwnershipTransferred(oldOwner, newOwner) */\n      0xffffffffffffffffffffffffffffffffffffffff\n      and\n        /* \"https://github.com/OpenZeppelin/openzeppelin-contracts/blob/master/contracts/access/Ownable.sol\":2608:2616  oldOwner */\n      dup2\n        /* \"https://github.com/OpenZeppelin/openzeppelin-contracts/blob/master/contracts/access/Ownable.sol\":2587:2627  OwnershipTransferred(oldOwner, newOwner) */\n      0xffffffffffffffffffffffffffffffffffffffff\n      and\n      0x8be0079c531659141344cd1fd0a4f28419497f9722a3daafe3b4186f6b6457e0\n      mload(0x40)\n      mload(0x40)\n      dup1\n      swap2\n      sub\n      swap1\n      log3\n        /* \"https://github.com/OpenZeppelin/openzeppelin-contracts/blob/master/contracts/access/Ownable.sol\":2510:2634  {... */\n      pop\n        /* \"https://github.com/OpenZeppelin/openzeppelin-contracts/blob/master/contracts/access/Ownable.sol\":2447:2634  function _transferOwnership(address newOwner) internal virtual {... */\n      pop\n      jump\t// out\n        /* \"PracticeSimpleWallet.sol\":234:325  function isOwner() internal view returns(bool){\r... */\n    tag_49:\n        /* \"PracticeSimpleWallet.sol\":275:279  bool */\n      0x00\n        /* \"PracticeSimpleWallet.sol\":307:317  msg.sender */\n      caller\n        /* \"PracticeSimpleWallet.sol\":298:317  owner()==msg.sender */\n      0xffffffffffffffffffffffffffffffffffffffff\n      and\n        /* \"PracticeSimpleWallet.sol\":298:305  owner() */\n      tag_83\n        /* \"PracticeSimpleWallet.sol\":298:303  owner */\n      tag_23\n        /* \"PracticeSimpleWallet.sol\":298:305  owner() */\n      jump\t// in\n    tag_83:\n        /* \"PracticeSimpleWallet.sol\":298:317  owner()==msg.sender */\n      0xffffffffffffffffffffffffffffffffffffffff\n      and\n      eq\n        /* \"PracticeSimpleWallet.sol\":291:317  return owner()==msg.sender */\n      swap1\n      pop\n        /* \"PracticeSimpleWallet.sol\":234:325  function isOwner() internal view returns(bool){\r... */\n      swap1\n      jump\t// out\n        /* \"PracticeSimpleWallet.sol\":595:720  function reduceAllowance(address _who,uint amount) internal ownerOrAllowed(amount) {\r... */\n    tag_61:\n        /* \"PracticeSimpleWallet.sol\":670:676  amount */\n      dup1\n        /* \"PracticeSimpleWallet.sol\":502:511  isOwner() */\n      tag_85\n        /* \"PracticeSimpleWallet.sol\":502:509  isOwner */\n      tag_49\n        /* \"PracticeSimpleWallet.sol\":502:511  isOwner() */\n      jump\t// in\n    tag_85:\n        /* \"PracticeSimpleWallet.sol\":502:544  isOwner() || allowance[msg.sender]>=amount */\n      dup1\n      tag_86\n      jumpi\n      pop\n        /* \"PracticeSimpleWallet.sol\":538:544  amount */\n      dup1\n        /* \"PracticeSimpleWallet.sol\":515:524  allowance */\n      0x01\n        /* \"PracticeSimpleWallet.sol\":515:536  allowance[msg.sender] */\n      0x00\n        /* \"PracticeSimpleWallet.sol\":525:535  msg.sender */\n      caller\n        /* \"PracticeSimpleWallet.sol\":515:536  allowance[msg.sender] */\n      0xffffffffffffffffffffffffffffffffffffffff\n      and\n      0xffffffffffffffffffffffffffffffffffffffff\n      and\n      dup2\n      mstore\n      0x20\n      add\n      swap1\n      dup2\n      mstore\n      0x20\n      add\n      0x00\n      keccak256\n      sload\n        /* \"PracticeSimpleWallet.sol\":515:544  allowance[msg.sender]>=amount */\n      lt\n      iszero\n        /* \"PracticeSimpleWallet.sol\":502:544  isOwner() || allowance[msg.sender]>=amount */\n    tag_86:\n        /* \"PracticeSimpleWallet.sol\":494:567  require(isOwner() || allowance[msg.sender]>=amount,\"You are not allowed\") */\n      tag_87\n      jumpi\n      mload(0x40)\n      0x08c379a000000000000000000000000000000000000000000000000000000000\n      dup2\n      mstore\n      0x04\n      add\n      tag_88\n      swap1\n      tag_53\n      jump\t// in\n    tag_88:\n      mload(0x40)\n      dup1\n      swap2\n      sub\n      swap1\n      revert\n    tag_87:\n        /* \"PracticeSimpleWallet.sol\":706:712  amount */\n      dup2\n        /* \"PracticeSimpleWallet.sol\":689:698  allowance */\n      0x01\n        /* \"PracticeSimpleWallet.sol\":689:704  allowance[_who] */\n      0x00\n        /* \"PracticeSimpleWallet.sol\":699:703  _who */\n      dup6\n        /* \"PracticeSimpleWallet.sol\":689:704  allowance[_who] */\n      0xffffffffffffffffffffffffffffffffffffffff\n      and\n      0xffffffffffffffffffffffffffffffffffffffff\n      and\n      dup2\n      mstore\n      0x20\n      add\n      swap1\n      dup2\n      mstore\n      0x20\n      add\n      0x00\n      keccak256\n      0x00\n        /* \"PracticeSimpleWallet.sol\":689:712  allowance[_who]-=amount */\n      dup3\n      dup3\n      sload\n      tag_90\n      swap2\n      swap1\n      tag_91\n      jump\t// in\n    tag_90:\n      swap3\n      pop\n      pop\n      dup2\n      swap1\n      sstore\n      pop\n        /* \"PracticeSimpleWallet.sol\":595:720  function reduceAllowance(address _who,uint amount) internal ownerOrAllowed(amount) {\r... */\n      pop\n      pop\n      pop\n      jump\t// out\n        /* \"https://github.com/OpenZeppelin/openzeppelin-contracts/blob/master/contracts/utils/Context.sol\":640:736  function _msgSender() internal view virtual returns (address) {... */\n    tag_76:\n        /* \"https://github.com/OpenZeppelin/openzeppelin-contracts/blob/master/contracts/utils/Context.sol\":693:700  address */\n      0x00\n        /* \"https://github.com/OpenZeppelin/openzeppelin-contracts/blob/master/contracts/utils/Context.sol\":719:729  msg.sender */\n      caller\n        /* \"https://github.com/OpenZeppelin/openzeppelin-contracts/blob/master/contracts/utils/Context.sol\":712:729  return msg.sender */\n      swap1\n      pop\n        /* \"https://github.com/OpenZeppelin/openzeppelin-contracts/blob/master/contracts/utils/Context.sol\":640:736  function _msgSender() internal view virtual returns (address) {... */\n      swap1\n      jump\t// out\n        /* \"#utility.yul\":7:146   */\n    tag_94:\n        /* \"#utility.yul\":53:58   */\n      0x00\n        /* \"#utility.yul\":91:97   */\n      dup2\n        /* \"#utility.yul\":78:98   */\n      calldataload\n        /* \"#utility.yul\":69:98   */\n      swap1\n      pop\n        /* \"#utility.yul\":107:140   */\n      tag_96\n        /* \"#utility.yul\":134:139   */\n      dup2\n        /* \"#utility.yul\":107:140   */\n      tag_97\n      jump\t// in\n    tag_96:\n        /* \"#utility.yul\":7:146   */\n      swap3\n      swap2\n      pop\n      pop\n      jump\t// out\n        /* \"#utility.yul\":152:307   */\n    tag_98:\n        /* \"#utility.yul\":206:211   */\n      0x00\n        /* \"#utility.yul\":244:250   */\n      dup2\n        /* \"#utility.yul\":231:251   */\n      calldataload\n        /* \"#utility.yul\":222:251   */\n      swap1\n      pop\n        /* \"#utility.yul\":260:301   */\n      tag_100\n        /* \"#utility.yul\":295:300   */\n      dup2\n        /* \"#utility.yul\":260:301   */\n      tag_101\n      jump\t// in\n    tag_100:\n        /* \"#utility.yul\":152:307   */\n      swap3\n      swap2\n      pop\n      pop\n      jump\t// out\n        /* \"#utility.yul\":313:452   */\n    tag_102:\n        /* \"#utility.yul\":359:364   */\n      0x00\n        /* \"#utility.yul\":397:403   */\n      dup2\n        /* \"#utility.yul\":384:404   */\n      calldataload\n        /* \"#utility.yul\":375:404   */\n      swap1\n      pop\n        /* \"#utility.yul\":413:446   */\n      tag_104\n        /* \"#utility.yul\":440:445   */\n      dup2\n        /* \"#utility.yul\":413:446   */\n      tag_105\n      jump\t// in\n    tag_104:\n        /* \"#utility.yul\":313:452   */\n      swap3\n      swap2\n      pop\n      pop\n      jump\t// out\n        /* \"#utility.yul\":458:787   */\n    tag_14:\n        /* \"#utility.yul\":517:523   */\n      0x00\n        /* \"#utility.yul\":566:568   */\n      0x20\n        /* \"#utility.yul\":554:563   */\n      dup3\n        /* \"#utility.yul\":545:552   */\n      dup5\n        /* \"#utility.yul\":541:564   */\n      sub\n        /* \"#utility.yul\":537:569   */\n      slt\n        /* \"#utility.yul\":534:653   */\n      iszero\n      tag_107\n      jumpi\n        /* \"#utility.yul\":572:651   */\n      tag_108\n      tag_109\n      jump\t// in\n    tag_108:\n        /* \"#utility.yul\":534:653   */\n    tag_107:\n        /* \"#utility.yul\":692:693   */\n      0x00\n        /* \"#utility.yul\":717:770   */\n      tag_110\n        /* \"#utility.yul\":762:769   */\n      dup5\n        /* \"#utility.yul\":753:759   */\n      dup3\n        /* \"#utility.yul\":742:751   */\n      dup6\n        /* \"#utility.yul\":738:760   */\n      add\n        /* \"#utility.yul\":717:770   */\n      tag_94\n      jump\t// in\n    tag_110:\n        /* \"#utility.yul\":707:770   */\n      swap2\n      pop\n        /* \"#utility.yul\":663:780   */\n      pop\n        /* \"#utility.yul\":458:787   */\n      swap3\n      swap2\n      pop\n      pop\n      jump\t// out\n        /* \"#utility.yul\":793:1283   */\n    tag_29:\n        /* \"#utility.yul\":869:875   */\n      0x00\n        /* \"#utility.yul\":877:883   */\n      dup1\n        /* \"#utility.yul\":926:928   */\n      0x40\n        /* \"#utility.yul\":914:923   */\n      dup4\n        /* \"#utility.yul\":905:912   */\n      dup6\n        /* \"#utility.yul\":901:924   */\n      sub\n        /* \"#utility.yul\":897:929   */\n      slt\n        /* \"#utility.yul\":894:1013   */\n      iszero\n      tag_112\n      jumpi\n        /* \"#utility.yul\":932:1011   */\n      tag_113\n      tag_109\n      jump\t// in\n    tag_113:\n        /* \"#utility.yul\":894:1013   */\n    tag_112:\n        /* \"#utility.yul\":1052:1053   */\n      0x00\n        /* \"#utility.yul\":1077:1138   */\n      tag_114\n        /* \"#utility.yul\":1130:1137   */\n      dup6\n        /* \"#utility.yul\":1121:1127   */\n      dup3\n        /* \"#utility.yul\":1110:1119   */\n      dup7\n        /* \"#utility.yul\":1106:1128   */\n      add\n        /* \"#utility.yul\":1077:1138   */\n      tag_98\n      jump\t// in\n    tag_114:\n        /* \"#utility.yul\":1067:1138   */\n      swap3\n      pop\n        /* \"#utility.yul\":1023:1148   */\n      pop\n        /* \"#utility.yul\":1187:1189   */\n      0x20\n        /* \"#utility.yul\":1213:1266   */\n      tag_115\n        /* \"#utility.yul\":1258:1265   */\n      dup6\n        /* \"#utility.yul\":1249:1255   */\n      dup3\n        /* \"#utility.yul\":1238:1247   */\n      dup7\n        /* \"#utility.yul\":1234:1256   */\n      add\n        /* \"#utility.yul\":1213:1266   */\n      tag_102\n      jump\t// in\n    tag_115:\n        /* \"#utility.yul\":1203:1266   */\n      swap2\n      pop\n        /* \"#utility.yul\":1158:1276   */\n      pop\n        /* \"#utility.yul\":793:1283   */\n      swap3\n      pop\n      swap3\n      swap1\n      pop\n      jump\t// out\n        /* \"#utility.yul\":1289:1763   */\n    tag_38:\n        /* \"#utility.yul\":1357:1363   */\n      0x00\n        /* \"#utility.yul\":1365:1371   */\n      dup1\n        /* \"#utility.yul\":1414:1416   */\n      0x40\n        /* \"#utility.yul\":1402:1411   */\n      dup4\n        /* \"#utility.yul\":1393:1400   */\n      dup6\n        /* \"#utility.yul\":1389:1412   */\n      sub\n        /* \"#utility.yul\":1385:1417   */\n      slt\n        /* \"#utility.yul\":1382:1501   */\n      iszero\n      tag_117\n      jumpi\n        /* \"#utility.yul\":1420:1499   */\n      tag_118\n      tag_109\n      jump\t// in\n    tag_118:\n        /* \"#utility.yul\":1382:1501   */\n    tag_117:\n        /* \"#utility.yul\":1540:1541   */\n      0x00\n        /* \"#utility.yul\":1565:1618   */\n      tag_119\n        /* \"#utility.yul\":1610:1617   */\n      dup6\n        /* \"#utility.yul\":1601:1607   */\n      dup3\n        /* \"#utility.yul\":1590:1599   */\n      dup7\n        /* \"#utility.yul\":1586:1608   */\n      add\n        /* \"#utility.yul\":1565:1618   */\n      tag_94\n      jump\t// in\n    tag_119:\n        /* \"#utility.yul\":1555:1618   */\n      swap3\n      pop\n        /* \"#utility.yul\":1511:1628   */\n      pop\n        /* \"#utility.yul\":1667:1669   */\n      0x20\n        /* \"#utility.yul\":1693:1746   */\n      tag_120\n        /* \"#utility.yul\":1738:1745   */\n      dup6\n        /* \"#utility.yul\":1729:1735   */\n      dup3\n        /* \"#utility.yul\":1718:1727   */\n      dup7\n        /* \"#utility.yul\":1714:1736   */\n      add\n        /* \"#utility.yul\":1693:1746   */\n      tag_102\n      jump\t// in\n    tag_120:\n        /* \"#utility.yul\":1683:1746   */\n      swap2\n      pop\n        /* \"#utility.yul\":1638:1756   */\n      pop\n        /* \"#utility.yul\":1289:1763   */\n      swap3\n      pop\n      swap3\n      swap1\n      pop\n      jump\t// out\n        /* \"#utility.yul\":1769:1887   */\n    tag_121:\n        /* \"#utility.yul\":1856:1880   */\n      tag_123\n        /* \"#utility.yul\":1874:1879   */\n      dup2\n        /* \"#utility.yul\":1856:1880   */\n      tag_124\n      jump\t// in\n    tag_123:\n        /* \"#utility.yul\":1851:1854   */\n      dup3\n        /* \"#utility.yul\":1844:1881   */\n      mstore\n        /* \"#utility.yul\":1769:1887   */\n      pop\n      pop\n      jump\t// out\n        /* \"#utility.yul\":1893:2259   */\n    tag_125:\n        /* \"#utility.yul\":2035:2038   */\n      0x00\n        /* \"#utility.yul\":2056:2123   */\n      tag_127\n        /* \"#utility.yul\":2120:2122   */\n      0x26\n        /* \"#utility.yul\":2115:2118   */\n      dup4\n        /* \"#utility.yul\":2056:2123   */\n      tag_128\n      jump\t// in\n    tag_127:\n        /* \"#utility.yul\":2049:2123   */\n      swap2\n      pop\n        /* \"#utility.yul\":2132:2225   */\n      tag_129\n        /* \"#utility.yul\":2221:2224   */\n      dup3\n        /* \"#utility.yul\":2132:2225   */\n      tag_130\n      jump\t// in\n    tag_129:\n        /* \"#utility.yul\":2250:2252   */\n      0x40\n        /* \"#utility.yul\":2245:2248   */\n      dup3\n        /* \"#utility.yul\":2241:2253   */\n      add\n        /* \"#utility.yul\":2234:2253   */\n      swap1\n      pop\n        /* \"#utility.yul\":1893:2259   */\n      swap2\n      swap1\n      pop\n      jump\t// out\n        /* \"#utility.yul\":2265:2631   */\n    tag_131:\n        /* \"#utility.yul\":2407:2410   */\n      0x00\n        /* \"#utility.yul\":2428:2495   */\n      tag_133\n        /* \"#utility.yul\":2492:2494   */\n      0x13\n        /* \"#utility.yul\":2487:2490   */\n      dup4\n        /* \"#utility.yul\":2428:2495   */\n      tag_128\n      jump\t// in\n    tag_133:\n        /* \"#utility.yul\":2421:2495   */\n      swap2\n      pop\n        /* \"#utility.yul\":2504:2597   */\n      tag_134\n        /* \"#utility.yul\":2593:2596   */\n      dup3\n        /* \"#utility.yul\":2504:2597   */\n      tag_135\n      jump\t// in\n    tag_134:\n        /* \"#utility.yul\":2622:2624   */\n      0x20\n        /* \"#utility.yul\":2617:2620   */\n      dup3\n        /* \"#utility.yul\":2613:2625   */\n      add\n        /* \"#utility.yul\":2606:2625   */\n      swap1\n      pop\n        /* \"#utility.yul\":2265:2631   */\n      swap2\n      swap1\n      pop\n      jump\t// out\n        /* \"#utility.yul\":2637:3003   */\n    tag_136:\n        /* \"#utility.yul\":2779:2782   */\n      0x00\n        /* \"#utility.yul\":2800:2867   */\n      tag_138\n        /* \"#utility.yul\":2864:2866   */\n      0x20\n        /* \"#utility.yul\":2859:2862   */\n      dup4\n        /* \"#utility.yul\":2800:2867   */\n      tag_128\n      jump\t// in\n    tag_138:\n        /* \"#utility.yul\":2793:2867   */\n      swap2\n      pop\n        /* \"#utility.yul\":2876:2969   */\n      tag_139\n        /* \"#utility.yul\":2965:2968   */\n      dup3\n        /* \"#utility.yul\":2876:2969   */\n      tag_140\n      jump\t// in\n    tag_139:\n        /* \"#utility.yul\":2994:2996   */\n      0x20\n        /* \"#utility.yul\":2989:2992   */\n      dup3\n        /* \"#utility.yul\":2985:2997   */\n      add\n        /* \"#utility.yul\":2978:2997   */\n      swap1\n      pop\n        /* \"#utility.yul\":2637:3003   */\n      swap2\n      swap1\n      pop\n      jump\t// out\n        /* \"#utility.yul\":3009:3375   */\n    tag_141:\n        /* \"#utility.yul\":3151:3154   */\n      0x00\n        /* \"#utility.yul\":3172:3239   */\n      tag_143\n        /* \"#utility.yul\":3236:3238   */\n      0x24\n        /* \"#utility.yul\":3231:3234   */\n      dup4\n        /* \"#utility.yul\":3172:3239   */\n      tag_128\n      jump\t// in\n    tag_143:\n        /* \"#utility.yul\":3165:3239   */\n      swap2\n      pop\n        /* \"#utility.yul\":3248:3341   */\n      tag_144\n        /* \"#utility.yul\":3337:3340   */\n      dup3\n        /* \"#utility.yul\":3248:3341   */\n      tag_145\n      jump\t// in\n    tag_144:\n        /* \"#utility.yul\":3366:3368   */\n      0x40\n        /* \"#utility.yul\":3361:3364   */\n      dup3\n        /* \"#utility.yul\":3357:3369   */\n      add\n        /* \"#utility.yul\":3350:3369   */\n      swap1\n      pop\n        /* \"#utility.yul\":3009:3375   */\n      swap2\n      swap1\n      pop\n      jump\t// out\n        /* \"#utility.yul\":3381:3499   */\n    tag_146:\n        /* \"#utility.yul\":3468:3492   */\n      tag_148\n        /* \"#utility.yul\":3486:3491   */\n      dup2\n        /* \"#utility.yul\":3468:3492   */\n      tag_149\n      jump\t// in\n    tag_148:\n        /* \"#utility.yul\":3463:3466   */\n      dup3\n        /* \"#utility.yul\":3456:3493   */\n      mstore\n        /* \"#utility.yul\":3381:3499   */\n      pop\n      pop\n      jump\t// out\n        /* \"#utility.yul\":3505:3727   */\n    tag_25:\n        /* \"#utility.yul\":3598:3602   */\n      0x00\n        /* \"#utility.yul\":3636:3638   */\n      0x20\n        /* \"#utility.yul\":3625:3634   */\n      dup3\n        /* \"#utility.yul\":3621:3639   */\n      add\n        /* \"#utility.yul\":3613:3639   */\n      swap1\n      pop\n        /* \"#utility.yul\":3649:3720   */\n      tag_151\n        /* \"#utility.yul\":3717:3718   */\n      0x00\n        /* \"#utility.yul\":3706:3715   */\n      dup4\n        /* \"#utility.yul\":3702:3719   */\n      add\n        /* \"#utility.yul\":3693:3699   */\n      dup5\n        /* \"#utility.yul\":3649:3720   */\n      tag_121\n      jump\t// in\n    tag_151:\n        /* \"#utility.yul\":3505:3727   */\n      swap3\n      swap2\n      pop\n      pop\n      jump\t// out\n        /* \"#utility.yul\":3733:4152   */\n    tag_69:\n        /* \"#utility.yul\":3899:3903   */\n      0x00\n        /* \"#utility.yul\":3937:3939   */\n      0x20\n        /* \"#utility.yul\":3926:3935   */\n      dup3\n        /* \"#utility.yul\":3922:3940   */\n      add\n        /* \"#utility.yul\":3914:3940   */\n      swap1\n      pop\n        /* \"#utility.yul\":3986:3995   */\n      dup2\n        /* \"#utility.yul\":3980:3984   */\n      dup2\n        /* \"#utility.yul\":3976:3996   */\n      sub\n        /* \"#utility.yul\":3972:3973   */\n      0x00\n        /* \"#utility.yul\":3961:3970   */\n      dup4\n        /* \"#utility.yul\":3957:3974   */\n      add\n        /* \"#utility.yul\":3950:3997   */\n      mstore\n        /* \"#utility.yul\":4014:4145   */\n      tag_153\n        /* \"#utility.yul\":4140:4144   */\n      dup2\n        /* \"#utility.yul\":4014:4145   */\n      tag_125\n      jump\t// in\n    tag_153:\n        /* \"#utility.yul\":4006:4145   */\n      swap1\n      pop\n        /* \"#utility.yul\":3733:4152   */\n      swap2\n      swap1\n      pop\n      jump\t// out\n        /* \"#utility.yul\":4158:4577   */\n    tag_53:\n        /* \"#utility.yul\":4324:4328   */\n      0x00\n        /* \"#utility.yul\":4362:4364   */\n      0x20\n        /* \"#utility.yul\":4351:4360   */\n      dup3\n        /* \"#utility.yul\":4347:4365   */\n      add\n        /* \"#utility.yul\":4339:4365   */\n      swap1\n      pop\n        /* \"#utility.yul\":4411:4420   */\n      dup2\n        /* \"#utility.yul\":4405:4409   */\n      dup2\n        /* \"#utility.yul\":4401:4421   */\n      sub\n        /* \"#utility.yul\":4397:4398   */\n      0x00\n        /* \"#utility.yul\":4386:4395   */\n      dup4\n        /* \"#utility.yul\":4382:4399   */\n      add\n        /* \"#utility.yul\":4375:4422   */\n      mstore\n        /* \"#utility.yul\":4439:4570   */\n      tag_155\n        /* \"#utility.yul\":4565:4569   */\n      dup2\n        /* \"#utility.yul\":4439:4570   */\n      tag_131\n      jump\t// in\n    tag_155:\n        /* \"#utility.yul\":4431:4570   */\n      swap1\n      pop\n        /* \"#utility.yul\":4158:4577   */\n      swap2\n      swap1\n      pop\n      jump\t// out\n        /* \"#utility.yul\":4583:5002   */\n    tag_80:\n        /* \"#utility.yul\":4749:4753   */\n      0x00\n        /* \"#utility.yul\":4787:4789   */\n      0x20\n        /* \"#utility.yul\":4776:4785   */\n      dup3\n        /* \"#utility.yul\":4772:4790   */\n      add\n        /* \"#utility.yul\":4764:4790   */\n      swap1\n      pop\n        /* \"#utility.yul\":4836:4845   */\n      dup2\n        /* \"#utility.yul\":4830:4834   */\n      dup2\n        /* \"#utility.yul\":4826:4846   */\n      sub\n        /* \"#utility.yul\":4822:4823   */\n      0x00\n        /* \"#utility.yul\":4811:4820   */\n      dup4\n        /* \"#utility.yul\":4807:4824   */\n      add\n        /* \"#utility.yul\":4800:4847   */\n      mstore\n        /* \"#utility.yul\":4864:4995   */\n      tag_157\n        /* \"#utility.yul\":4990:4994   */\n      dup2\n        /* \"#utility.yul\":4864:4995   */\n      tag_136\n      jump\t// in\n    tag_157:\n        /* \"#utility.yul\":4856:4995   */\n      swap1\n      pop\n        /* \"#utility.yul\":4583:5002   */\n      swap2\n      swap1\n      pop\n      jump\t// out\n        /* \"#utility.yul\":5008:5427   */\n    tag_57:\n        /* \"#utility.yul\":5174:5178   */\n      0x00\n        /* \"#utility.yul\":5212:5214   */\n      0x20\n        /* \"#utility.yul\":5201:5210   */\n      dup3\n        /* \"#utility.yul\":5197:5215   */\n      add\n        /* \"#utility.yul\":5189:5215   */\n      swap1\n      pop\n        /* \"#utility.yul\":5261:5270   */\n      dup2\n        /* \"#utility.yul\":5255:5259   */\n      dup2\n        /* \"#utility.yul\":5251:5271   */\n      sub\n        /* \"#utility.yul\":5247:5248   */\n      0x00\n        /* \"#utility.yul\":5236:5245   */\n      dup4\n        /* \"#utility.yul\":5232:5249   */\n      add\n        /* \"#utility.yul\":5225:5272   */\n      mstore\n        /* \"#utility.yul\":5289:5420   */\n      tag_159\n        /* \"#utility.yul\":5415:5419   */\n      dup2\n        /* \"#utility.yul\":5289:5420   */\n      tag_141\n      jump\t// in\n    tag_159:\n        /* \"#utility.yul\":5281:5420   */\n      swap1\n      pop\n        /* \"#utility.yul\":5008:5427   */\n      swap2\n      swap1\n      pop\n      jump\t// out\n        /* \"#utility.yul\":5433:5655   */\n    tag_17:\n        /* \"#utility.yul\":5526:5530   */\n      0x00\n        /* \"#utility.yul\":5564:5566   */\n      0x20\n        /* \"#utility.yul\":5553:5562   */\n      dup3\n        /* \"#utility.yul\":5549:5567   */\n      add\n        /* \"#utility.yul\":5541:5567   */\n      swap1\n      pop\n        /* \"#utility.yul\":5577:5648   */\n      tag_161\n        /* \"#utility.yul\":5645:5646   */\n      0x00\n        /* \"#utility.yul\":5634:5643   */\n      dup4\n        /* \"#utility.yul\":5630:5647   */\n      add\n        /* \"#utility.yul\":5621:5627   */\n      dup5\n        /* \"#utility.yul\":5577:5648   */\n      tag_146\n      jump\t// in\n    tag_161:\n        /* \"#utility.yul\":5433:5655   */\n      swap3\n      swap2\n      pop\n      pop\n      jump\t// out\n        /* \"#utility.yul\":5742:5911   */\n    tag_128:\n        /* \"#utility.yul\":5826:5837   */\n      0x00\n        /* \"#utility.yul\":5860:5866   */\n      dup3\n        /* \"#utility.yul\":5855:5858   */\n      dup3\n        /* \"#utility.yul\":5848:5867   */\n      mstore\n        /* \"#utility.yul\":5900:5904   */\n      0x20\n        /* \"#utility.yul\":5895:5898   */\n      dup3\n        /* \"#utility.yul\":5891:5905   */\n      add\n        /* \"#utility.yul\":5876:5905   */\n      swap1\n      pop\n        /* \"#utility.yul\":5742:5911   */\n      swap3\n      swap2\n      pop\n      pop\n      jump\t// out\n        /* \"#utility.yul\":5917:6108   */\n    tag_91:\n        /* \"#utility.yul\":5957:5961   */\n      0x00\n        /* \"#utility.yul\":5977:5997   */\n      tag_166\n        /* \"#utility.yul\":5995:5996   */\n      dup3\n        /* \"#utility.yul\":5977:5997   */\n      tag_149\n      jump\t// in\n    tag_166:\n        /* \"#utility.yul\":5972:5997   */\n      swap2\n      pop\n        /* \"#utility.yul\":6011:6031   */\n      tag_167\n        /* \"#utility.yul\":6029:6030   */\n      dup4\n        /* \"#utility.yul\":6011:6031   */\n      tag_149\n      jump\t// in\n    tag_167:\n        /* \"#utility.yul\":6006:6031   */\n      swap3\n      pop\n        /* \"#utility.yul\":6050:6051   */\n      dup3\n        /* \"#utility.yul\":6047:6048   */\n      dup3\n        /* \"#utility.yul\":6044:6052   */\n      lt\n        /* \"#utility.yul\":6041:6075   */\n      iszero\n      tag_168\n      jumpi\n        /* \"#utility.yul\":6055:6073   */\n      tag_169\n      tag_170\n      jump\t// in\n    tag_169:\n        /* \"#utility.yul\":6041:6075   */\n    tag_168:\n        /* \"#utility.yul\":6100:6101   */\n      dup3\n        /* \"#utility.yul\":6097:6098   */\n      dup3\n        /* \"#utility.yul\":6093:6102   */\n      sub\n        /* \"#utility.yul\":6085:6102   */\n      swap1\n      pop\n        /* \"#utility.yul\":5917:6108   */\n      swap3\n      swap2\n      pop\n      pop\n      jump\t// out\n        /* \"#utility.yul\":6114:6210   */\n    tag_124:\n        /* \"#utility.yul\":6151:6158   */\n      0x00\n        /* \"#utility.yul\":6180:6204   */\n      tag_172\n        /* \"#utility.yul\":6198:6203   */\n      dup3\n        /* \"#utility.yul\":6180:6204   */\n      tag_173\n      jump\t// in\n    tag_172:\n        /* \"#utility.yul\":6169:6204   */\n      swap1\n      pop\n        /* \"#utility.yul\":6114:6210   */\n      swap2\n      swap1\n      pop\n      jump\t// out\n        /* \"#utility.yul\":6216:6320   */\n    tag_174:\n        /* \"#utility.yul\":6261:6268   */\n      0x00\n        /* \"#utility.yul\":6290:6314   */\n      tag_176\n        /* \"#utility.yul\":6308:6313   */\n      dup3\n        /* \"#utility.yul\":6290:6314   */\n      tag_173\n      jump\t// in\n    tag_176:\n        /* \"#utility.yul\":6279:6314   */\n      swap1\n      pop\n        /* \"#utility.yul\":6216:6320   */\n      swap2\n      swap1\n      pop\n      jump\t// out\n        /* \"#utility.yul\":6326:6452   */\n    tag_173:\n        /* \"#utility.yul\":6363:6370   */\n      0x00\n        /* \"#utility.yul\":6403:6445   */\n      0xffffffffffffffffffffffffffffffffffffffff\n        /* \"#utility.yul\":6396:6401   */\n      dup3\n        /* \"#utility.yul\":6392:6446   */\n      and\n        /* \"#utility.yul\":6381:6446   */\n      swap1\n      pop\n        /* \"#utility.yul\":6326:6452   */\n      swap2\n      swap1\n      pop\n      jump\t// out\n        /* \"#utility.yul\":6458:6535   */\n    tag_149:\n        /* \"#utility.yul\":6495:6502   */\n      0x00\n        /* \"#utility.yul\":6524:6529   */\n      dup2\n        /* \"#utility.yul\":6513:6529   */\n      swap1\n      pop\n        /* \"#utility.yul\":6458:6535   */\n      swap2\n      swap1\n      pop\n      jump\t// out\n        /* \"#utility.yul\":6541:6721   */\n    tag_170:\n        /* \"#utility.yul\":6589:6666   */\n      0x4e487b7100000000000000000000000000000000000000000000000000000000\n        /* \"#utility.yul\":6586:6587   */\n      0x00\n        /* \"#utility.yul\":6579:6667   */\n      mstore\n        /* \"#utility.yul\":6686:6690   */\n      0x11\n        /* \"#utility.yul\":6683:6684   */\n      0x04\n        /* \"#utility.yul\":6676:6691   */\n      mstore\n        /* \"#utility.yul\":6710:6714   */\n      0x24\n        /* \"#utility.yul\":6707:6708   */\n      0x00\n        /* \"#utility.yul\":6700:6715   */\n      revert\n        /* \"#utility.yul\":6850:6967   */\n    tag_109:\n        /* \"#utility.yul\":6959:6960   */\n      0x00\n        /* \"#utility.yul\":6956:6957   */\n      dup1\n        /* \"#utility.yul\":6949:6961   */\n      revert\n        /* \"#utility.yul\":6973:7198   */\n    tag_130:\n        /* \"#utility.yul\":7113:7147   */\n      0x4f776e61626c653a206e6577206f776e657220697320746865207a65726f2061\n        /* \"#utility.yul\":7109:7110   */\n      0x00\n        /* \"#utility.yul\":7101:7107   */\n      dup3\n        /* \"#utility.yul\":7097:7111   */\n      add\n        /* \"#utility.yul\":7090:7148   */\n      mstore\n        /* \"#utility.yul\":7182:7190   */\n      0x6464726573730000000000000000000000000000000000000000000000000000\n        /* \"#utility.yul\":7177:7179   */\n      0x20\n        /* \"#utility.yul\":7169:7175   */\n      dup3\n        /* \"#utility.yul\":7165:7180   */\n      add\n        /* \"#utility.yul\":7158:7191   */\n      mstore\n        /* \"#utility.yul\":6973:7198   */\n      pop\n      jump\t// out\n        /* \"#utility.yul\":7204:7373   */\n    tag_135:\n        /* \"#utility.yul\":7344:7365   */\n      0x596f7520617265206e6f7420616c6c6f77656400000000000000000000000000\n        /* \"#utility.yul\":7340:7341   */\n      0x00\n        /* \"#utility.yul\":7332:7338   */\n      dup3\n        /* \"#utility.yul\":7328:7342   */\n      add\n        /* \"#utility.yul\":7321:7366   */\n      mstore\n        /* \"#utility.yul\":7204:7373   */\n      pop\n      jump\t// out\n        /* \"#utility.yul\":7379:7561   */\n    tag_140:\n        /* \"#utility.yul\":7519:7553   */\n      0x4f776e61626c653a2063616c6c6572206973206e6f7420746865206f776e6572\n        /* \"#utility.yul\":7515:7516   */\n      0x00\n        /* \"#utility.yul\":7507:7513   */\n      dup3\n        /* \"#utility.yul\":7503:7517   */\n      add\n        /* \"#utility.yul\":7496:7554   */\n      mstore\n        /* \"#utility.yul\":7379:7561   */\n      pop\n      jump\t// out\n        /* \"#utility.yul\":7567:7790   */\n    tag_145:\n        /* \"#utility.yul\":7707:7741   */\n      0x436f6e747261637420646f6573206e6f74206861766520656e6f75676820616d\n        /* \"#utility.yul\":7703:7704   */\n      0x00\n        /* \"#utility.yul\":7695:7701   */\n      dup3\n        /* \"#utility.yul\":7691:7705   */\n      add\n        /* \"#utility.yul\":7684:7742   */\n      mstore\n        /* \"#utility.yul\":7776:7782   */\n      0x6f756e7400000000000000000000000000000000000000000000000000000000\n        /* \"#utility.yul\":7771:7773   */\n      0x20\n        /* \"#utility.yul\":7763:7769   */\n      dup3\n        /* \"#utility.yul\":7759:7774   */\n      add\n        /* \"#utility.yul\":7752:7783   */\n      mstore\n        /* \"#utility.yul\":7567:7790   */\n      pop\n      jump\t// out\n        /* \"#utility.yul\":7796:7918   */\n    tag_97:\n        /* \"#utility.yul\":7869:7893   */\n      tag_188\n        /* \"#utility.yul\":7887:7892   */\n      dup2\n        /* \"#utility.yul\":7869:7893   */\n      tag_124\n      jump\t// in\n    tag_188:\n        /* \"#utility.yul\":7862:7867   */\n      dup2\n        /* \"#utility.yul\":7859:7894   */\n      eq\n        /* \"#utility.yul\":7849:7912   */\n      tag_189\n      jumpi\n        /* \"#utility.yul\":7908:7909   */\n      0x00\n        /* \"#utility.yul\":7905:7906   */\n      dup1\n        /* \"#utility.yul\":7898:7910   */\n      revert\n        /* \"#utility.yul\":7849:7912   */\n    tag_189:\n        /* \"#utility.yul\":7796:7918   */\n      pop\n      jump\t// out\n        /* \"#utility.yul\":7924:8062   */\n    tag_101:\n        /* \"#utility.yul\":8005:8037   */\n      tag_191\n        /* \"#utility.yul\":8031:8036   */\n      dup2\n        /* \"#utility.yul\":8005:8037   */\n      tag_174\n      jump\t// in\n    tag_191:\n        /* \"#utility.yul\":7998:8003   */\n      dup2\n        /* \"#utility.yul\":7995:8038   */\n      eq\n        /* \"#utility.yul\":7985:8056   */\n      tag_192\n      jumpi\n        /* \"#utility.yul\":8052:8053   */\n      0x00\n        /* \"#utility.yul\":8049:8050   */\n      dup1\n        /* \"#utility.yul\":8042:8054   */\n      revert\n        /* \"#utility.yul\":7985:8056   */\n    tag_192:\n        /* \"#utility.yul\":7924:8062   */\n      pop\n      jump\t// out\n        /* \"#utility.yul\":8068:8190   */\n    tag_105:\n        /* \"#utility.yul\":8141:8165   */\n      tag_194\n        /* \"#utility.yul\":8159:8164   */\n      dup2\n        /* \"#utility.yul\":8141:8165   */\n      tag_149\n      jump\t// in\n    tag_194:\n        /* \"#utility.yul\":8134:8139   */\n      dup2\n        /* \"#utility.yul\":8131:8166   */\n      eq\n        /* \"#utility.yul\":8121:8184   */\n      tag_195\n      jumpi\n        /* \"#utility.yul\":8180:8181   */\n      0x00\n        /* \"#utility.yul\":8177:8178   */\n      dup1\n        /* \"#utility.yul\":8170:8182   */\n      revert\n        /* \"#utility.yul\":8121:8184   */\n    tag_195:\n        /* \"#utility.yul\":8068:8190   */\n      pop\n      jump\t// out\n\n    auxdata: 0xa2646970667358221220874842b262c2a3f11aafa66d1fdba36c922fdee7385da1a471aa3701b00f9ebd64736f6c63430008070033\n}\n",
				"bytecode": {
					"linkReferences": {},
					"object": "608060405234801561001057600080fd5b5061002d61002261003260201b60201c565b61003a60201b60201c565b6100fe565b600033905090565b60008060009054906101000a900473ffffffffffffffffffffffffffffffffffffffff169050816000806101000a81548173ffffffffffffffffffffffffffffffffffffffff021916908373ffffffffffffffffffffffffffffffffffffffff1602179055508173ffffffffffffffffffffffffffffffffffffffff168173ffffffffffffffffffffffffffffffffffffffff167f8be0079c531659141344cd1fd0a4f28419497f9722a3daafe3b4186f6b6457e060405160405180910390a35050565b610ab88061010d6000396000f3fe6080604052600436106100595760003560e01c80633e5beab914610065578063715018a6146100a25780638da5cb5b146100b9578063f274c897146100e4578063f2fde38b1461010d578063f3c40c4b1461013657610060565b3661006057005b600080fd5b34801561007157600080fd5b5061008c60048036038101906100879190610679565b61015f565b604051610099919061086b565b60405180910390f35b3480156100ae57600080fd5b506100b7610177565b005b3480156100c557600080fd5b506100ce61018c565b6040516100db91906107d0565b60405180910390f35b3480156100f057600080fd5b5061010b600480360381019061010691906106a6565b6101b5565b005b34801561011957600080fd5b50610134600480360381019061012f9190610679565b6102ed565b005b34801561014257600080fd5b5061015d600480360381019061015891906106e6565b610372565b005b60016020528060005260406000206000915090505481565b61017f6103c3565b5061018a6000610444565b565b60008060009054906101000a900473ffffffffffffffffffffffffffffffffffffffff16905090565b806101be610508565b80610208575080600160003373ffffffffffffffffffffffffffffffffffffffff1673ffffffffffffffffffffffffffffffffffffffff1681526020019081526020016000205410155b610247576040517f08c379a000000000000000000000000000000000000000000000000000000000815260040161023e9061080b565b60405180910390fd5b4782111561028a576040517f08c379a00000000000000000000000000000000000000000000000000000000081526004016102819061084b565b60405180910390fd5b610292610508565b6102a1576102a03383610545565b5b8273ffffffffffffffffffffffffffffffffffffffff166108fc839081150290604051600060405180830381858888f193505050501580156102e7573d6000803e3d6000fd5b50505050565b6102f56103c3565b50600073ffffffffffffffffffffffffffffffffffffffff168173ffffffffffffffffffffffffffffffffffffffff161415610366576040517f08c379a000000000000000000000000000000000000000000000000000000000815260040161035d906107eb565b60405180910390fd5b61036f81610444565b50565b61037a6103c3565b5080600160008473ffffffffffffffffffffffffffffffffffffffff1673ffffffffffffffffffffffffffffffffffffffff168152602001908152602001600020819055505050565b60006103cd610632565b73ffffffffffffffffffffffffffffffffffffffff166103eb61018c565b73ffffffffffffffffffffffffffffffffffffffff1614610441576040517f08c379a00000000000000000000000000000000000000000000000000000000081526004016104389061082b565b60405180910390fd5b90565b60008060009054906101000a900473ffffffffffffffffffffffffffffffffffffffff169050816000806101000a81548173ffffffffffffffffffffffffffffffffffffffff021916908373ffffffffffffffffffffffffffffffffffffffff1602179055508173ffffffffffffffffffffffffffffffffffffffff168173ffffffffffffffffffffffffffffffffffffffff167f8be0079c531659141344cd1fd0a4f28419497f9722a3daafe3b4186f6b6457e060405160405180910390a35050565b60003373ffffffffffffffffffffffffffffffffffffffff1661052961018c565b73ffffffffffffffffffffffffffffffffffffffff1614905090565b8061054e610508565b80610598575080600160003373ffffffffffffffffffffffffffffffffffffffff1673ffffffffffffffffffffffffffffffffffffffff1681526020019081526020016000205410155b6105d7576040517f08c379a00000000000000000000000000000000000000000000000000000000081526004016105ce9061080b565b60405180910390fd5b81600160008573ffffffffffffffffffffffffffffffffffffffff1673ffffffffffffffffffffffffffffffffffffffff16815260200190815260200160002060008282546106269190610897565b92505081905550505050565b600033905090565b60008135905061064981610a3d565b92915050565b60008135905061065e81610a54565b92915050565b60008135905061067381610a6b565b92915050565b60006020828403121561068f5761068e610948565b5b600061069d8482850161063a565b91505092915050565b600080604083850312156106bd576106bc610948565b5b60006106cb8582860161064f565b92505060206106dc85828601610664565b9150509250929050565b600080604083850312156106fd576106fc610948565b5b600061070b8582860161063a565b925050602061071c85828601610664565b9150509250929050565b61072f816108cb565b82525050565b6000610742602683610886565b915061074d8261094d565b604082019050919050565b6000610765601383610886565b91506107708261099c565b602082019050919050565b6000610788602083610886565b9150610793826109c5565b602082019050919050565b60006107ab602483610886565b91506107b6826109ee565b604082019050919050565b6107ca8161090f565b82525050565b60006020820190506107e56000830184610726565b92915050565b6000602082019050818103600083015261080481610735565b9050919050565b6000602082019050818103600083015261082481610758565b9050919050565b600060208201905081810360008301526108448161077b565b9050919050565b600060208201905081810360008301526108648161079e565b9050919050565b600060208201905061088060008301846107c1565b92915050565b600082825260208201905092915050565b60006108a28261090f565b91506108ad8361090f565b9250828210156108c0576108bf610919565b5b828203905092915050565b60006108d6826108ef565b9050919050565b60006108e8826108ef565b9050919050565b600073ffffffffffffffffffffffffffffffffffffffff82169050919050565b6000819050919050565b7f4e487b7100000000000000000000000000000000000000000000000000000000600052601160045260246000fd5b600080fd5b7f4f776e61626c653a206e6577206f776e657220697320746865207a65726f206160008201527f6464726573730000000000000000000000000000000000000000000000000000602082015250565b7f596f7520617265206e6f7420616c6c6f77656400000000000000000000000000600082015250565b7f4f776e61626c653a2063616c6c6572206973206e6f7420746865206f776e6572600082015250565b7f436f6e747261637420646f6573206e6f74206861766520656e6f75676820616d60008201527f6f756e7400000000000000000000000000000000000000000000000000000000602082015250565b610a46816108cb565b8114610a5157600080fd5b50565b610a5d816108dd565b8114610a6857600080fd5b50565b610a748161090f565b8114610a7f57600080fd5b5056fea2646970667358221220874842b262c2a3f11aafa66d1fdba36c922fdee7385da1a471aa3701b00f9ebd64736f6c63430008070033",
					"opcodes": "PUSH1 0x80 PUSH1 0x40 MSTORE CALLVALUE DUP1 ISZERO PUSH2 0x10 JUMPI PUSH1 0x0 DUP1 REVERT JUMPDEST POP PUSH2 0x2D PUSH2 0x22 PUSH2 0x32 PUSH1 0x20 SHL PUSH1 0x20 SHR JUMP JUMPDEST PUSH2 0x3A PUSH1 0x20 SHL PUSH1 0x20 SHR JUMP JUMPDEST PUSH2 0xFE JUMP JUMPDEST PUSH1 0x0 CALLER SWAP1 POP SWAP1 JUMP JUMPDEST PUSH1 0x0 DUP1 PUSH1 0x0 SWAP1 SLOAD SWAP1 PUSH2 0x100 EXP SWAP1 DIV PUSH20 0xFFFFFFFFFFFFFFFFFFFFFFFFFFFFFFFFFFFFFFFF AND SWAP1 POP DUP2 PUSH1 0x0 DUP1 PUSH2 0x100 EXP DUP2 SLOAD DUP2 PUSH20 0xFFFFFFFFFFFFFFFFFFFFFFFFFFFFFFFFFFFFFFFF MUL NOT AND SWAP1 DUP4 PUSH20 0xFFFFFFFFFFFFFFFFFFFFFFFFFFFFFFFFFFFFFFFF AND MUL OR SWAP1 SSTORE POP DUP2 PUSH20 0xFFFFFFFFFFFFFFFFFFFFFFFFFFFFFFFFFFFFFFFF AND DUP2 PUSH20 0xFFFFFFFFFFFFFFFFFFFFFFFFFFFFFFFFFFFFFFFF AND PUSH32 0x8BE0079C531659141344CD1FD0A4F28419497F9722A3DAAFE3B4186F6B6457E0 PUSH1 0x40 MLOAD PUSH1 0x40 MLOAD DUP1 SWAP2 SUB SWAP1 LOG3 POP POP JUMP JUMPDEST PUSH2 0xAB8 DUP1 PUSH2 0x10D PUSH1 0x0 CODECOPY PUSH1 0x0 RETURN INVALID PUSH1 0x80 PUSH1 0x40 MSTORE PUSH1 0x4 CALLDATASIZE LT PUSH2 0x59 JUMPI PUSH1 0x0 CALLDATALOAD PUSH1 0xE0 SHR DUP1 PUSH4 0x3E5BEAB9 EQ PUSH2 0x65 JUMPI DUP1 PUSH4 0x715018A6 EQ PUSH2 0xA2 JUMPI DUP1 PUSH4 0x8DA5CB5B EQ PUSH2 0xB9 JUMPI DUP1 PUSH4 0xF274C897 EQ PUSH2 0xE4 JUMPI DUP1 PUSH4 0xF2FDE38B EQ PUSH2 0x10D JUMPI DUP1 PUSH4 0xF3C40C4B EQ PUSH2 0x136 JUMPI PUSH2 0x60 JUMP JUMPDEST CALLDATASIZE PUSH2 0x60 JUMPI STOP JUMPDEST PUSH1 0x0 DUP1 REVERT JUMPDEST CALLVALUE DUP1 ISZERO PUSH2 0x71 JUMPI PUSH1 0x0 DUP1 REVERT JUMPDEST POP PUSH2 0x8C PUSH1 0x4 DUP1 CALLDATASIZE SUB DUP2 ADD SWAP1 PUSH2 0x87 SWAP2 SWAP1 PUSH2 0x679 JUMP JUMPDEST PUSH2 0x15F JUMP JUMPDEST PUSH1 0x40 MLOAD PUSH2 0x99 SWAP2 SWAP1 PUSH2 0x86B JUMP JUMPDEST PUSH1 0x40 MLOAD DUP1 SWAP2 SUB SWAP1 RETURN JUMPDEST CALLVALUE DUP1 ISZERO PUSH2 0xAE JUMPI PUSH1 0x0 DUP1 REVERT JUMPDEST POP PUSH2 0xB7 PUSH2 0x177 JUMP JUMPDEST STOP JUMPDEST CALLVALUE DUP1 ISZERO PUSH2 0xC5 JUMPI PUSH1 0x0 DUP1 REVERT JUMPDEST POP PUSH2 0xCE PUSH2 0x18C JUMP JUMPDEST PUSH1 0x40 MLOAD PUSH2 0xDB SWAP2 SWAP1 PUSH2 0x7D0 JUMP JUMPDEST PUSH1 0x40 MLOAD DUP1 SWAP2 SUB SWAP1 RETURN JUMPDEST CALLVALUE DUP1 ISZERO PUSH2 0xF0 JUMPI PUSH1 0x0 DUP1 REVERT JUMPDEST POP PUSH2 0x10B PUSH1 0x4 DUP1 CALLDATASIZE SUB DUP2 ADD SWAP1 PUSH2 0x106 SWAP2 SWAP1 PUSH2 0x6A6 JUMP JUMPDEST PUSH2 0x1B5 JUMP JUMPDEST STOP JUMPDEST CALLVALUE DUP1 ISZERO PUSH2 0x119 JUMPI PUSH1 0x0 DUP1 REVERT JUMPDEST POP PUSH2 0x134 PUSH1 0x4 DUP1 CALLDATASIZE SUB DUP2 ADD SWAP1 PUSH2 0x12F SWAP2 SWAP1 PUSH2 0x679 JUMP JUMPDEST PUSH2 0x2ED JUMP JUMPDEST STOP JUMPDEST CALLVALUE DUP1 ISZERO PUSH2 0x142 JUMPI PUSH1 0x0 DUP1 REVERT JUMPDEST POP PUSH2 0x15D PUSH1 0x4 DUP1 CALLDATASIZE SUB DUP2 ADD SWAP1 PUSH2 0x158 SWAP2 SWAP1 PUSH2 0x6E6 JUMP JUMPDEST PUSH2 0x372 JUMP JUMPDEST STOP JUMPDEST PUSH1 0x1 PUSH1 0x20 MSTORE DUP1 PUSH1 0x0 MSTORE PUSH1 0x40 PUSH1 0x0 KECCAK256 PUSH1 0x0 SWAP2 POP SWAP1 POP SLOAD DUP2 JUMP JUMPDEST PUSH2 0x17F PUSH2 0x3C3 JUMP JUMPDEST POP PUSH2 0x18A PUSH1 0x0 PUSH2 0x444 JUMP JUMPDEST JUMP JUMPDEST PUSH1 0x0 DUP1 PUSH1 0x0 SWAP1 SLOAD SWAP1 PUSH2 0x100 EXP SWAP1 DIV PUSH20 0xFFFFFFFFFFFFFFFFFFFFFFFFFFFFFFFFFFFFFFFF AND SWAP1 POP SWAP1 JUMP JUMPDEST DUP1 PUSH2 0x1BE PUSH2 0x508 JUMP JUMPDEST DUP1 PUSH2 0x208 JUMPI POP DUP1 PUSH1 0x1 PUSH1 0x0 CALLER PUSH20 0xFFFFFFFFFFFFFFFFFFFFFFFFFFFFFFFFFFFFFFFF AND PUSH20 0xFFFFFFFFFFFFFFFFFFFFFFFFFFFFFFFFFFFFFFFF AND DUP2 MSTORE PUSH1 0x20 ADD SWAP1 DUP2 MSTORE PUSH1 0x20 ADD PUSH1 0x0 KECCAK256 SLOAD LT ISZERO JUMPDEST PUSH2 0x247 JUMPI PUSH1 0x40 MLOAD PUSH32 0x8C379A000000000000000000000000000000000000000000000000000000000 DUP2 MSTORE PUSH1 0x4 ADD PUSH2 0x23E SWAP1 PUSH2 0x80B JUMP JUMPDEST PUSH1 0x40 MLOAD DUP1 SWAP2 SUB SWAP1 REVERT JUMPDEST SELFBALANCE DUP3 GT ISZERO PUSH2 0x28A JUMPI PUSH1 0x40 MLOAD PUSH32 0x8C379A000000000000000000000000000000000000000000000000000000000 DUP2 MSTORE PUSH1 0x4 ADD PUSH2 0x281 SWAP1 PUSH2 0x84B JUMP JUMPDEST PUSH1 0x40 MLOAD DUP1 SWAP2 SUB SWAP1 REVERT JUMPDEST PUSH2 0x292 PUSH2 0x508 JUMP JUMPDEST PUSH2 0x2A1 JUMPI PUSH2 0x2A0 CALLER DUP4 PUSH2 0x545 JUMP JUMPDEST JUMPDEST DUP3 PUSH20 0xFFFFFFFFFFFFFFFFFFFFFFFFFFFFFFFFFFFFFFFF AND PUSH2 0x8FC DUP4 SWAP1 DUP2 ISZERO MUL SWAP1 PUSH1 0x40 MLOAD PUSH1 0x0 PUSH1 0x40 MLOAD DUP1 DUP4 SUB DUP2 DUP6 DUP9 DUP9 CALL SWAP4 POP POP POP POP ISZERO DUP1 ISZERO PUSH2 0x2E7 JUMPI RETURNDATASIZE PUSH1 0x0 DUP1 RETURNDATACOPY RETURNDATASIZE PUSH1 0x0 REVERT JUMPDEST POP POP POP POP JUMP JUMPDEST PUSH2 0x2F5 PUSH2 0x3C3 JUMP JUMPDEST POP PUSH1 0x0 PUSH20 0xFFFFFFFFFFFFFFFFFFFFFFFFFFFFFFFFFFFFFFFF AND DUP2 PUSH20 0xFFFFFFFFFFFFFFFFFFFFFFFFFFFFFFFFFFFFFFFF AND EQ ISZERO PUSH2 0x366 JUMPI PUSH1 0x40 MLOAD PUSH32 0x8C379A000000000000000000000000000000000000000000000000000000000 DUP2 MSTORE PUSH1 0x4 ADD PUSH2 0x35D SWAP1 PUSH2 0x7EB JUMP JUMPDEST PUSH1 0x40 MLOAD DUP1 SWAP2 SUB SWAP1 REVERT JUMPDEST PUSH2 0x36F DUP2 PUSH2 0x444 JUMP JUMPDEST POP JUMP JUMPDEST PUSH2 0x37A PUSH2 0x3C3 JUMP JUMPDEST POP DUP1 PUSH1 0x1 PUSH1 0x0 DUP5 PUSH20 0xFFFFFFFFFFFFFFFFFFFFFFFFFFFFFFFFFFFFFFFF AND PUSH20 0xFFFFFFFFFFFFFFFFFFFFFFFFFFFFFFFFFFFFFFFF AND DUP2 MSTORE PUSH1 0x20 ADD SWAP1 DUP2 MSTORE PUSH1 0x20 ADD PUSH1 0x0 KECCAK256 DUP2 SWAP1 SSTORE POP POP POP JUMP JUMPDEST PUSH1 0x0 PUSH2 0x3CD PUSH2 0x632 JUMP JUMPDEST PUSH20 0xFFFFFFFFFFFFFFFFFFFFFFFFFFFFFFFFFFFFFFFF AND PUSH2 0x3EB PUSH2 0x18C JUMP JUMPDEST PUSH20 0xFFFFFFFFFFFFFFFFFFFFFFFFFFFFFFFFFFFFFFFF AND EQ PUSH2 0x441 JUMPI PUSH1 0x40 MLOAD PUSH32 0x8C379A000000000000000000000000000000000000000000000000000000000 DUP2 MSTORE PUSH1 0x4 ADD PUSH2 0x438 SWAP1 PUSH2 0x82B JUMP JUMPDEST PUSH1 0x40 MLOAD DUP1 SWAP2 SUB SWAP1 REVERT JUMPDEST SWAP1 JUMP JUMPDEST PUSH1 0x0 DUP1 PUSH1 0x0 SWAP1 SLOAD SWAP1 PUSH2 0x100 EXP SWAP1 DIV PUSH20 0xFFFFFFFFFFFFFFFFFFFFFFFFFFFFFFFFFFFFFFFF AND SWAP1 POP DUP2 PUSH1 0x0 DUP1 PUSH2 0x100 EXP DUP2 SLOAD DUP2 PUSH20 0xFFFFFFFFFFFFFFFFFFFFFFFFFFFFFFFFFFFFFFFF MUL NOT AND SWAP1 DUP4 PUSH20 0xFFFFFFFFFFFFFFFFFFFFFFFFFFFFFFFFFFFFFFFF AND MUL OR SWAP1 SSTORE POP DUP2 PUSH20 0xFFFFFFFFFFFFFFFFFFFFFFFFFFFFFFFFFFFFFFFF AND DUP2 PUSH20 0xFFFFFFFFFFFFFFFFFFFFFFFFFFFFFFFFFFFFFFFF AND PUSH32 0x8BE0079C531659141344CD1FD0A4F28419497F9722A3DAAFE3B4186F6B6457E0 PUSH1 0x40 MLOAD PUSH1 0x40 MLOAD DUP1 SWAP2 SUB SWAP1 LOG3 POP POP JUMP JUMPDEST PUSH1 0x0 CALLER PUSH20 0xFFFFFFFFFFFFFFFFFFFFFFFFFFFFFFFFFFFFFFFF AND PUSH2 0x529 PUSH2 0x18C JUMP JUMPDEST PUSH20 0xFFFFFFFFFFFFFFFFFFFFFFFFFFFFFFFFFFFFFFFF AND EQ SWAP1 POP SWAP1 JUMP JUMPDEST DUP1 PUSH2 0x54E PUSH2 0x508 JUMP JUMPDEST DUP1 PUSH2 0x598 JUMPI POP DUP1 PUSH1 0x1 PUSH1 0x0 CALLER PUSH20 0xFFFFFFFFFFFFFFFFFFFFFFFFFFFFFFFFFFFFFFFF AND PUSH20 0xFFFFFFFFFFFFFFFFFFFFFFFFFFFFFFFFFFFFFFFF AND DUP2 MSTORE PUSH1 0x20 ADD SWAP1 DUP2 MSTORE PUSH1 0x20 ADD PUSH1 0x0 KECCAK256 SLOAD LT ISZERO JUMPDEST PUSH2 0x5D7 JUMPI PUSH1 0x40 MLOAD PUSH32 0x8C379A000000000000000000000000000000000000000000000000000000000 DUP2 MSTORE PUSH1 0x4 ADD PUSH2 0x5CE SWAP1 PUSH2 0x80B JUMP JUMPDEST PUSH1 0x40 MLOAD DUP1 SWAP2 SUB SWAP1 REVERT JUMPDEST DUP2 PUSH1 0x1 PUSH1 0x0 DUP6 PUSH20 0xFFFFFFFFFFFFFFFFFFFFFFFFFFFFFFFFFFFFFFFF AND PUSH20 0xFFFFFFFFFFFFFFFFFFFFFFFFFFFFFFFFFFFFFFFF AND DUP2 MSTORE PUSH1 0x20 ADD SWAP1 DUP2 MSTORE PUSH1 0x20 ADD PUSH1 0x0 KECCAK256 PUSH1 0x0 DUP3 DUP3 SLOAD PUSH2 0x626 SWAP2 SWAP1 PUSH2 0x897 JUMP JUMPDEST SWAP3 POP POP DUP2 SWAP1 SSTORE POP POP POP POP JUMP JUMPDEST PUSH1 0x0 CALLER SWAP1 POP SWAP1 JUMP JUMPDEST PUSH1 0x0 DUP2 CALLDATALOAD SWAP1 POP PUSH2 0x649 DUP2 PUSH2 0xA3D JUMP JUMPDEST SWAP3 SWAP2 POP POP JUMP JUMPDEST PUSH1 0x0 DUP2 CALLDATALOAD SWAP1 POP PUSH2 0x65E DUP2 PUSH2 0xA54 JUMP JUMPDEST SWAP3 SWAP2 POP POP JUMP JUMPDEST PUSH1 0x0 DUP2 CALLDATALOAD SWAP1 POP PUSH2 0x673 DUP2 PUSH2 0xA6B JUMP JUMPDEST SWAP3 SWAP2 POP POP JUMP JUMPDEST PUSH1 0x0 PUSH1 0x20 DUP3 DUP5 SUB SLT ISZERO PUSH2 0x68F JUMPI PUSH2 0x68E PUSH2 0x948 JUMP JUMPDEST JUMPDEST PUSH1 0x0 PUSH2 0x69D DUP5 DUP3 DUP6 ADD PUSH2 0x63A JUMP JUMPDEST SWAP2 POP POP SWAP3 SWAP2 POP POP JUMP JUMPDEST PUSH1 0x0 DUP1 PUSH1 0x40 DUP4 DUP6 SUB SLT ISZERO PUSH2 0x6BD JUMPI PUSH2 0x6BC PUSH2 0x948 JUMP JUMPDEST JUMPDEST PUSH1 0x0 PUSH2 0x6CB DUP6 DUP3 DUP7 ADD PUSH2 0x64F JUMP JUMPDEST SWAP3 POP POP PUSH1 0x20 PUSH2 0x6DC DUP6 DUP3 DUP7 ADD PUSH2 0x664 JUMP JUMPDEST SWAP2 POP POP SWAP3 POP SWAP3 SWAP1 POP JUMP JUMPDEST PUSH1 0x0 DUP1 PUSH1 0x40 DUP4 DUP6 SUB SLT ISZERO PUSH2 0x6FD JUMPI PUSH2 0x6FC PUSH2 0x948 JUMP JUMPDEST JUMPDEST PUSH1 0x0 PUSH2 0x70B DUP6 DUP3 DUP7 ADD PUSH2 0x63A JUMP JUMPDEST SWAP3 POP POP PUSH1 0x20 PUSH2 0x71C DUP6 DUP3 DUP7 ADD PUSH2 0x664 JUMP JUMPDEST SWAP2 POP POP SWAP3 POP SWAP3 SWAP1 POP JUMP JUMPDEST PUSH2 0x72F DUP2 PUSH2 0x8CB JUMP JUMPDEST DUP3 MSTORE POP POP JUMP JUMPDEST PUSH1 0x0 PUSH2 0x742 PUSH1 0x26 DUP4 PUSH2 0x886 JUMP JUMPDEST SWAP2 POP PUSH2 0x74D DUP3 PUSH2 0x94D JUMP JUMPDEST PUSH1 0x40 DUP3 ADD SWAP1 POP SWAP2 SWAP1 POP JUMP JUMPDEST PUSH1 0x0 PUSH2 0x765 PUSH1 0x13 DUP4 PUSH2 0x886 JUMP JUMPDEST SWAP2 POP PUSH2 0x770 DUP3 PUSH2 0x99C JUMP JUMPDEST PUSH1 0x20 DUP3 ADD SWAP1 POP SWAP2 SWAP1 POP JUMP JUMPDEST PUSH1 0x0 PUSH2 0x788 PUSH1 0x20 DUP4 PUSH2 0x886 JUMP JUMPDEST SWAP2 POP PUSH2 0x793 DUP3 PUSH2 0x9C5 JUMP JUMPDEST PUSH1 0x20 DUP3 ADD SWAP1 POP SWAP2 SWAP1 POP JUMP JUMPDEST PUSH1 0x0 PUSH2 0x7AB PUSH1 0x24 DUP4 PUSH2 0x886 JUMP JUMPDEST SWAP2 POP PUSH2 0x7B6 DUP3 PUSH2 0x9EE JUMP JUMPDEST PUSH1 0x40 DUP3 ADD SWAP1 POP SWAP2 SWAP1 POP JUMP JUMPDEST PUSH2 0x7CA DUP2 PUSH2 0x90F JUMP JUMPDEST DUP3 MSTORE POP POP JUMP JUMPDEST PUSH1 0x0 PUSH1 0x20 DUP3 ADD SWAP1 POP PUSH2 0x7E5 PUSH1 0x0 DUP4 ADD DUP5 PUSH2 0x726 JUMP JUMPDEST SWAP3 SWAP2 POP POP JUMP JUMPDEST PUSH1 0x0 PUSH1 0x20 DUP3 ADD SWAP1 POP DUP2 DUP2 SUB PUSH1 0x0 DUP4 ADD MSTORE PUSH2 0x804 DUP2 PUSH2 0x735 JUMP JUMPDEST SWAP1 POP SWAP2 SWAP1 POP JUMP JUMPDEST PUSH1 0x0 PUSH1 0x20 DUP3 ADD SWAP1 POP DUP2 DUP2 SUB PUSH1 0x0 DUP4 ADD MSTORE PUSH2 0x824 DUP2 PUSH2 0x758 JUMP JUMPDEST SWAP1 POP SWAP2 SWAP1 POP JUMP JUMPDEST PUSH1 0x0 PUSH1 0x20 DUP3 ADD SWAP1 POP DUP2 DUP2 SUB PUSH1 0x0 DUP4 ADD MSTORE PUSH2 0x844 DUP2 PUSH2 0x77B JUMP JUMPDEST SWAP1 POP SWAP2 SWAP1 POP JUMP JUMPDEST PUSH1 0x0 PUSH1 0x20 DUP3 ADD SWAP1 POP DUP2 DUP2 SUB PUSH1 0x0 DUP4 ADD MSTORE PUSH2 0x864 DUP2 PUSH2 0x79E JUMP JUMPDEST SWAP1 POP SWAP2 SWAP1 POP JUMP JUMPDEST PUSH1 0x0 PUSH1 0x20 DUP3 ADD SWAP1 POP PUSH2 0x880 PUSH1 0x0 DUP4 ADD DUP5 PUSH2 0x7C1 JUMP JUMPDEST SWAP3 SWAP2 POP POP JUMP JUMPDEST PUSH1 0x0 DUP3 DUP3 MSTORE PUSH1 0x20 DUP3 ADD SWAP1 POP SWAP3 SWAP2 POP POP JUMP JUMPDEST PUSH1 0x0 PUSH2 0x8A2 DUP3 PUSH2 0x90F JUMP JUMPDEST SWAP2 POP PUSH2 0x8AD DUP4 PUSH2 0x90F JUMP JUMPDEST SWAP3 POP DUP3 DUP3 LT ISZERO PUSH2 0x8C0 JUMPI PUSH2 0x8BF PUSH2 0x919 JUMP JUMPDEST JUMPDEST DUP3 DUP3 SUB SWAP1 POP SWAP3 SWAP2 POP POP JUMP JUMPDEST PUSH1 0x0 PUSH2 0x8D6 DUP3 PUSH2 0x8EF JUMP JUMPDEST SWAP1 POP SWAP2 SWAP1 POP JUMP JUMPDEST PUSH1 0x0 PUSH2 0x8E8 DUP3 PUSH2 0x8EF JUMP JUMPDEST SWAP1 POP SWAP2 SWAP1 POP JUMP JUMPDEST PUSH1 0x0 PUSH20 0xFFFFFFFFFFFFFFFFFFFFFFFFFFFFFFFFFFFFFFFF DUP3 AND SWAP1 POP SWAP2 SWAP1 POP JUMP JUMPDEST PUSH1 0x0 DUP2 SWAP1 POP SWAP2 SWAP1 POP JUMP JUMPDEST PUSH32 0x4E487B7100000000000000000000000000000000000000000000000000000000 PUSH1 0x0 MSTORE PUSH1 0x11 PUSH1 0x4 MSTORE PUSH1 0x24 PUSH1 0x0 REVERT JUMPDEST PUSH1 0x0 DUP1 REVERT JUMPDEST PUSH32 0x4F776E61626C653A206E6577206F776E657220697320746865207A65726F2061 PUSH1 0x0 DUP3 ADD MSTORE PUSH32 0x6464726573730000000000000000000000000000000000000000000000000000 PUSH1 0x20 DUP3 ADD MSTORE POP JUMP JUMPDEST PUSH32 0x596F7520617265206E6F7420616C6C6F77656400000000000000000000000000 PUSH1 0x0 DUP3 ADD MSTORE POP JUMP JUMPDEST PUSH32 0x4F776E61626C653A2063616C6C6572206973206E6F7420746865206F776E6572 PUSH1 0x0 DUP3 ADD MSTORE POP JUMP JUMPDEST PUSH32 0x436F6E747261637420646F6573206E6F74206861766520656E6F75676820616D PUSH1 0x0 DUP3 ADD MSTORE PUSH32 0x6F756E7400000000000000000000000000000000000000000000000000000000 PUSH1 0x20 DUP3 ADD MSTORE POP JUMP JUMPDEST PUSH2 0xA46 DUP2 PUSH2 0x8CB JUMP JUMPDEST DUP2 EQ PUSH2 0xA51 JUMPI PUSH1 0x0 DUP1 REVERT JUMPDEST POP JUMP JUMPDEST PUSH2 0xA5D DUP2 PUSH2 0x8DD JUMP JUMPDEST DUP2 EQ PUSH2 0xA68 JUMPI PUSH1 0x0 DUP1 REVERT JUMPDEST POP JUMP JUMPDEST PUSH2 0xA74 DUP2 PUSH2 0x90F JUMP JUMPDEST DUP2 EQ PUSH2 0xA7F JUMPI PUSH1 0x0 DUP1 REVERT JUMPDEST POP JUMP INVALID LOG2 PUSH5 0x6970667358 0x22 SLT KECCAK256 DUP8 BASEFEE TIMESTAMP 0xB2 PUSH3 0xC2A3F1 BYTE 0xAF 0xA6 PUSH14 0x1FDBA36C922FDEE7385DA1A471AA CALLDATACOPY ADD 0xB0 0xF SWAP15 0xBD PUSH5 0x736F6C6343 STOP ADDMOD SMOD STOP CALLER "
				},
				"gasEstimates": {
					"creation": {
						"codeDepositCost": "548800",
						"executionCost": "infinite",
						"totalCost": "infinite"
					},
					"external": {
						"addAllowance(address,uint256)": "25192",
						"allowance(address)": "2792",
						"owner()": "2544",
						"renounceOwnership()": "30406",
						"transferOwnership(address)": "30821",
						"withdrawMoney(address,uint256)": "infinite"
					},
					"internal": {
						"isOwner()": "2211",
						"reduceAllowance(address,uint256)": "infinite"
					}
				},
				"methodIdentifiers": {
					"addAllowance(address,uint256)": "f3c40c4b",
					"allowance(address)": "3e5beab9",
					"owner()": "8da5cb5b",
					"renounceOwnership()": "715018a6",
					"transferOwnership(address)": "f2fde38b",
					"withdrawMoney(address,uint256)": "f274c897"
				}
			},
			"storageLayout": {
				"storage": [
					{
						"astId": 124,
						"contract": "PracticeSimpleWallet.sol:sharedWallet",
						"label": "_owner",
						"offset": 0,
						"slot": "0",
						"type": "t_address"
					},
					{
						"astId": 8,
						"contract": "PracticeSimpleWallet.sol:sharedWallet",
						"label": "allowance",
						"offset": 0,
						"slot": "1",
						"type": "t_mapping(t_address,t_uint256)"
					}
				],
				"types": {
					"t_address": {
						"encoding": "inplace",
						"label": "address",
						"numberOfBytes": "20"
					},
					"t_mapping(t_address,t_uint256)": {
						"encoding": "mapping",
						"key": "t_address",
						"label": "mapping(address => uint256)",
						"numberOfBytes": "32",
						"value": "t_uint256"
					},
					"t_uint256": {
						"encoding": "inplace",
						"label": "uint256",
						"numberOfBytes": "32"
					}
				}
			},
			"userdoc": {
				"kind": "user",
				"methods": {},
				"version": 1
			}
		}
	}
}