{
	"simpleWallet.sol": {
		"SimpleWallet": {
			"abi": [
				{
					"inputs": [],
					"stateMutability": "nonpayable",
					"type": "constructor"
				},
				{
					"inputs": [],
					"name": "ShowOwner",
					"outputs": [
						{
							"internalType": "address",
							"name": "",
							"type": "address"
						}
					],
					"stateMutability": "view",
					"type": "function"
				},
				{
					"inputs": [
						{
							"internalType": "address payable",
							"name": "_to",
							"type": "address"
						},
						{
							"internalType": "uint256",
							"name": "amount",
							"type": "uint256"
						}
					],
					"name": "withdrawMoney",
					"outputs": [],
					"stateMutability": "nonpayable",
					"type": "function"
				},
				{
					"stateMutability": "payable",
					"type": "receive"
				}
			],
			"devdoc": {
				"kind": "dev",
				"methods": {},
				"version": 1
			},
			"evm": {
				"assembly": "    /* \"simpleWallet.sol\":142:600  contract SimpleWallet{\r... */\n  mstore(0x40, 0x80)\n    /* \"simpleWallet.sol\":194:250  constructor () public{\r... */\n  callvalue\n  dup1\n  iszero\n  tag_1\n  jumpi\n  0x00\n  dup1\n  revert\ntag_1:\n  pop\n    /* \"simpleWallet.sol\":232:242  msg.sender */\n  caller\n    /* \"simpleWallet.sol\":226:231  owner */\n  0x00\n  dup1\n    /* \"simpleWallet.sol\":226:242  owner=msg.sender */\n  0x0100\n  exp\n  dup2\n  sload\n  dup2\n  0xffffffffffffffffffffffffffffffffffffffff\n  mul\n  not\n  and\n  swap1\n  dup4\n  0xffffffffffffffffffffffffffffffffffffffff\n  and\n  mul\n  or\n  swap1\n  sstore\n  pop\n    /* \"simpleWallet.sol\":142:600  contract SimpleWallet{\r... */\n  dataSize(sub_0)\n  dup1\n  dataOffset(sub_0)\n  0x00\n  codecopy\n  0x00\n  return\nstop\n\nsub_0: assembly {\n        /* \"simpleWallet.sol\":142:600  contract SimpleWallet{\r... */\n      mstore(0x40, 0x80)\n      jumpi(tag_1, lt(calldatasize, 0x04))\n      shr(0xe0, calldataload(0x00))\n      dup1\n      0x96ce267a\n      eq\n      tag_3\n      jumpi\n      dup1\n      0xf274c897\n      eq\n      tag_4\n      jumpi\n      jump(tag_2)\n    tag_1:\n      jumpi(tag_2, calldatasize)\n      stop\n    tag_2:\n      0x00\n      dup1\n      revert\n        /* \"simpleWallet.sol\":258:339  function ShowOwner() public view returns (address){\r... */\n    tag_3:\n      callvalue\n      dup1\n      iszero\n      tag_7\n      jumpi\n      0x00\n      dup1\n      revert\n    tag_7:\n      pop\n      tag_8\n      tag_9\n      jump\t// in\n    tag_8:\n      mload(0x40)\n      tag_10\n      swap2\n      swap1\n      tag_11\n      jump\t// in\n    tag_10:\n      mload(0x40)\n      dup1\n      swap2\n      sub\n      swap1\n      return\n        /* \"simpleWallet.sol\":345:446  function withdrawMoney(address payable _to, uint amount)public{\r... */\n    tag_4:\n      callvalue\n      dup1\n      iszero\n      tag_12\n      jumpi\n      0x00\n      dup1\n      revert\n    tag_12:\n      pop\n      tag_13\n      0x04\n      dup1\n      calldatasize\n      sub\n      dup2\n      add\n      swap1\n      tag_14\n      swap2\n      swap1\n      tag_15\n      jump\t// in\n    tag_14:\n      tag_16\n      jump\t// in\n    tag_13:\n      stop\n        /* \"simpleWallet.sol\":258:339  function ShowOwner() public view returns (address){\r... */\n    tag_9:\n        /* \"simpleWallet.sol\":300:307  address */\n      0x00\n        /* \"simpleWallet.sol\":326:331  owner */\n      dup1\n      0x00\n      swap1\n      sload\n      swap1\n      0x0100\n      exp\n      swap1\n      div\n      0xffffffffffffffffffffffffffffffffffffffff\n      and\n        /* \"simpleWallet.sol\":319:331  return owner */\n      swap1\n      pop\n        /* \"simpleWallet.sol\":258:339  function ShowOwner() public view returns (address){\r... */\n      swap1\n      jump\t// out\n        /* \"simpleWallet.sol\":345:446  function withdrawMoney(address payable _to, uint amount)public{\r... */\n    tag_16:\n        /* \"simpleWallet.sol\":418:421  _to */\n      dup2\n        /* \"simpleWallet.sol\":418:430  _to.transfer */\n      0xffffffffffffffffffffffffffffffffffffffff\n      and\n        /* \"simpleWallet.sol\":418:438  _to.transfer(amount) */\n      0x08fc\n        /* \"simpleWallet.sol\":431:437  amount */\n      dup3\n        /* \"simpleWallet.sol\":418:438  _to.transfer(amount) */\n      swap1\n      dup2\n      iszero\n      mul\n      swap1\n      mload(0x40)\n      0x00\n      mload(0x40)\n      dup1\n      dup4\n      sub\n      dup2\n      dup6\n      dup9\n      dup9\n      call\n      swap4\n      pop\n      pop\n      pop\n      pop\n      iszero\n      dup1\n      iszero\n      tag_20\n      jumpi\n      returndatasize\n      0x00\n      dup1\n      returndatacopy\n      revert(0x00, returndatasize)\n    tag_20:\n      pop\n        /* \"simpleWallet.sol\":345:446  function withdrawMoney(address payable _to, uint amount)public{\r... */\n      pop\n      pop\n      jump\t// out\n        /* \"#utility.yul\":7:162   */\n    tag_22:\n        /* \"#utility.yul\":61:66   */\n      0x00\n        /* \"#utility.yul\":99:105   */\n      dup2\n        /* \"#utility.yul\":86:106   */\n      calldataload\n        /* \"#utility.yul\":77:106   */\n      swap1\n      pop\n        /* \"#utility.yul\":115:156   */\n      tag_24\n        /* \"#utility.yul\":150:155   */\n      dup2\n        /* \"#utility.yul\":115:156   */\n      tag_25\n      jump\t// in\n    tag_24:\n        /* \"#utility.yul\":7:162   */\n      swap3\n      swap2\n      pop\n      pop\n      jump\t// out\n        /* \"#utility.yul\":168:307   */\n    tag_26:\n        /* \"#utility.yul\":214:219   */\n      0x00\n        /* \"#utility.yul\":252:258   */\n      dup2\n        /* \"#utility.yul\":239:259   */\n      calldataload\n        /* \"#utility.yul\":230:259   */\n      swap1\n      pop\n        /* \"#utility.yul\":268:301   */\n      tag_28\n        /* \"#utility.yul\":295:300   */\n      dup2\n        /* \"#utility.yul\":268:301   */\n      tag_29\n      jump\t// in\n    tag_28:\n        /* \"#utility.yul\":168:307   */\n      swap3\n      swap2\n      pop\n      pop\n      jump\t// out\n        /* \"#utility.yul\":313:803   */\n    tag_15:\n        /* \"#utility.yul\":389:395   */\n      0x00\n        /* \"#utility.yul\":397:403   */\n      dup1\n        /* \"#utility.yul\":446:448   */\n      0x40\n        /* \"#utility.yul\":434:443   */\n      dup4\n        /* \"#utility.yul\":425:432   */\n      dup6\n        /* \"#utility.yul\":421:444   */\n      sub\n        /* \"#utility.yul\":417:449   */\n      slt\n        /* \"#utility.yul\":414:533   */\n      iszero\n      tag_31\n      jumpi\n        /* \"#utility.yul\":452:531   */\n      tag_32\n      tag_33\n      jump\t// in\n    tag_32:\n        /* \"#utility.yul\":414:533   */\n    tag_31:\n        /* \"#utility.yul\":572:573   */\n      0x00\n        /* \"#utility.yul\":597:658   */\n      tag_34\n        /* \"#utility.yul\":650:657   */\n      dup6\n        /* \"#utility.yul\":641:647   */\n      dup3\n        /* \"#utility.yul\":630:639   */\n      dup7\n        /* \"#utility.yul\":626:648   */\n      add\n        /* \"#utility.yul\":597:658   */\n      tag_22\n      jump\t// in\n    tag_34:\n        /* \"#utility.yul\":587:658   */\n      swap3\n      pop\n        /* \"#utility.yul\":543:668   */\n      pop\n        /* \"#utility.yul\":707:709   */\n      0x20\n        /* \"#utility.yul\":733:786   */\n      tag_35\n        /* \"#utility.yul\":778:785   */\n      dup6\n        /* \"#utility.yul\":769:775   */\n      dup3\n        /* \"#utility.yul\":758:767   */\n      dup7\n        /* \"#utility.yul\":754:776   */\n      add\n        /* \"#utility.yul\":733:786   */\n      tag_26\n      jump\t// in\n    tag_35:\n        /* \"#utility.yul\":723:786   */\n      swap2\n      pop\n        /* \"#utility.yul\":678:796   */\n      pop\n        /* \"#utility.yul\":313:803   */\n      swap3\n      pop\n      swap3\n      swap1\n      pop\n      jump\t// out\n        /* \"#utility.yul\":809:927   */\n    tag_36:\n        /* \"#utility.yul\":896:920   */\n      tag_38\n        /* \"#utility.yul\":914:919   */\n      dup2\n        /* \"#utility.yul\":896:920   */\n      tag_39\n      jump\t// in\n    tag_38:\n        /* \"#utility.yul\":891:894   */\n      dup3\n        /* \"#utility.yul\":884:921   */\n      mstore\n        /* \"#utility.yul\":809:927   */\n      pop\n      pop\n      jump\t// out\n        /* \"#utility.yul\":933:1155   */\n    tag_11:\n        /* \"#utility.yul\":1026:1030   */\n      0x00\n        /* \"#utility.yul\":1064:1066   */\n      0x20\n        /* \"#utility.yul\":1053:1062   */\n      dup3\n        /* \"#utility.yul\":1049:1067   */\n      add\n        /* \"#utility.yul\":1041:1067   */\n      swap1\n      pop\n        /* \"#utility.yul\":1077:1148   */\n      tag_41\n        /* \"#utility.yul\":1145:1146   */\n      0x00\n        /* \"#utility.yul\":1134:1143   */\n      dup4\n        /* \"#utility.yul\":1130:1147   */\n      add\n        /* \"#utility.yul\":1121:1127   */\n      dup5\n        /* \"#utility.yul\":1077:1148   */\n      tag_36\n      jump\t// in\n    tag_41:\n        /* \"#utility.yul\":933:1155   */\n      swap3\n      swap2\n      pop\n      pop\n      jump\t// out\n        /* \"#utility.yul\":1242:1338   */\n    tag_39:\n        /* \"#utility.yul\":1279:1286   */\n      0x00\n        /* \"#utility.yul\":1308:1332   */\n      tag_45\n        /* \"#utility.yul\":1326:1331   */\n      dup3\n        /* \"#utility.yul\":1308:1332   */\n      tag_46\n      jump\t// in\n    tag_45:\n        /* \"#utility.yul\":1297:1332   */\n      swap1\n      pop\n        /* \"#utility.yul\":1242:1338   */\n      swap2\n      swap1\n      pop\n      jump\t// out\n        /* \"#utility.yul\":1344:1448   */\n    tag_47:\n        /* \"#utility.yul\":1389:1396   */\n      0x00\n        /* \"#utility.yul\":1418:1442   */\n      tag_49\n        /* \"#utility.yul\":1436:1441   */\n      dup3\n        /* \"#utility.yul\":1418:1442   */\n      tag_46\n      jump\t// in\n    tag_49:\n        /* \"#utility.yul\":1407:1442   */\n      swap1\n      pop\n        /* \"#utility.yul\":1344:1448   */\n      swap2\n      swap1\n      pop\n      jump\t// out\n        /* \"#utility.yul\":1454:1580   */\n    tag_46:\n        /* \"#utility.yul\":1491:1498   */\n      0x00\n        /* \"#utility.yul\":1531:1573   */\n      0xffffffffffffffffffffffffffffffffffffffff\n        /* \"#utility.yul\":1524:1529   */\n      dup3\n        /* \"#utility.yul\":1520:1574   */\n      and\n        /* \"#utility.yul\":1509:1574   */\n      swap1\n      pop\n        /* \"#utility.yul\":1454:1580   */\n      swap2\n      swap1\n      pop\n      jump\t// out\n        /* \"#utility.yul\":1586:1663   */\n    tag_51:\n        /* \"#utility.yul\":1623:1630   */\n      0x00\n        /* \"#utility.yul\":1652:1657   */\n      dup2\n        /* \"#utility.yul\":1641:1657   */\n      swap1\n      pop\n        /* \"#utility.yul\":1586:1663   */\n      swap2\n      swap1\n      pop\n      jump\t// out\n        /* \"#utility.yul\":1792:1909   */\n    tag_33:\n        /* \"#utility.yul\":1901:1902   */\n      0x00\n        /* \"#utility.yul\":1898:1899   */\n      dup1\n        /* \"#utility.yul\":1891:1903   */\n      revert\n        /* \"#utility.yul\":1915:2053   */\n    tag_25:\n        /* \"#utility.yul\":1996:2028   */\n      tag_57\n        /* \"#utility.yul\":2022:2027   */\n      dup2\n        /* \"#utility.yul\":1996:2028   */\n      tag_47\n      jump\t// in\n    tag_57:\n        /* \"#utility.yul\":1989:1994   */\n      dup2\n        /* \"#utility.yul\":1986:2029   */\n      eq\n        /* \"#utility.yul\":1976:2047   */\n      tag_58\n      jumpi\n        /* \"#utility.yul\":2043:2044   */\n      0x00\n        /* \"#utility.yul\":2040:2041   */\n      dup1\n        /* \"#utility.yul\":2033:2045   */\n      revert\n        /* \"#utility.yul\":1976:2047   */\n    tag_58:\n        /* \"#utility.yul\":1915:2053   */\n      pop\n      jump\t// out\n        /* \"#utility.yul\":2059:2181   */\n    tag_29:\n        /* \"#utility.yul\":2132:2156   */\n      tag_60\n        /* \"#utility.yul\":2150:2155   */\n      dup2\n        /* \"#utility.yul\":2132:2156   */\n      tag_51\n      jump\t// in\n    tag_60:\n        /* \"#utility.yul\":2125:2130   */\n      dup2\n        /* \"#utility.yul\":2122:2157   */\n      eq\n        /* \"#utility.yul\":2112:2175   */\n      tag_61\n      jumpi\n        /* \"#utility.yul\":2171:2172   */\n      0x00\n        /* \"#utility.yul\":2168:2169   */\n      dup1\n        /* \"#utility.yul\":2161:2173   */\n      revert\n        /* \"#utility.yul\":2112:2175   */\n    tag_61:\n        /* \"#utility.yul\":2059:2181   */\n      pop\n      jump\t// out\n\n    auxdata: 0xa264697066735822122070cd56f2e8908a2a037ed378348f8999fff5e4d318a6ef827b09b49068d23c0a64736f6c63430008070033\n}\n",
				"bytecode": {
					"linkReferences": {},
					"object": "608060405234801561001057600080fd5b50336000806101000a81548173ffffffffffffffffffffffffffffffffffffffff021916908373ffffffffffffffffffffffffffffffffffffffff16021790555061024c806100606000396000f3fe60806040526004361061002d5760003560e01c806396ce267a14610039578063f274c8971461006457610034565b3661003457005b600080fd5b34801561004557600080fd5b5061004e61008d565b60405161005b919061017a565b60405180910390f35b34801561007057600080fd5b5061008b6004803603810190610086919061012b565b6100b6565b005b60008060009054906101000a900473ffffffffffffffffffffffffffffffffffffffff16905090565b8173ffffffffffffffffffffffffffffffffffffffff166108fc829081150290604051600060405180830381858888f193505050501580156100fc573d6000803e3d6000fd5b505050565b600081359050610110816101e8565b92915050565b600081359050610125816101ff565b92915050565b60008060408385031215610142576101416101e3565b5b600061015085828601610101565b925050602061016185828601610116565b9150509250929050565b61017481610195565b82525050565b600060208201905061018f600083018461016b565b92915050565b60006101a0826101b9565b9050919050565b60006101b2826101b9565b9050919050565b600073ffffffffffffffffffffffffffffffffffffffff82169050919050565b6000819050919050565b600080fd5b6101f1816101a7565b81146101fc57600080fd5b50565b610208816101d9565b811461021357600080fd5b5056fea264697066735822122070cd56f2e8908a2a037ed378348f8999fff5e4d318a6ef827b09b49068d23c0a64736f6c63430008070033",
					"opcodes": "PUSH1 0x80 PUSH1 0x40 MSTORE CALLVALUE DUP1 ISZERO PUSH2 0x10 JUMPI PUSH1 0x0 DUP1 REVERT JUMPDEST POP CALLER PUSH1 0x0 DUP1 PUSH2 0x100 EXP DUP2 SLOAD DUP2 PUSH20 0xFFFFFFFFFFFFFFFFFFFFFFFFFFFFFFFFFFFFFFFF MUL NOT AND SWAP1 DUP4 PUSH20 0xFFFFFFFFFFFFFFFFFFFFFFFFFFFFFFFFFFFFFFFF AND MUL OR SWAP1 SSTORE POP PUSH2 0x24C DUP1 PUSH2 0x60 PUSH1 0x0 CODECOPY PUSH1 0x0 RETURN INVALID PUSH1 0x80 PUSH1 0x40 MSTORE PUSH1 0x4 CALLDATASIZE LT PUSH2 0x2D JUMPI PUSH1 0x0 CALLDATALOAD PUSH1 0xE0 SHR DUP1 PUSH4 0x96CE267A EQ PUSH2 0x39 JUMPI DUP1 PUSH4 0xF274C897 EQ PUSH2 0x64 JUMPI PUSH2 0x34 JUMP JUMPDEST CALLDATASIZE PUSH2 0x34 JUMPI STOP JUMPDEST PUSH1 0x0 DUP1 REVERT JUMPDEST CALLVALUE DUP1 ISZERO PUSH2 0x45 JUMPI PUSH1 0x0 DUP1 REVERT JUMPDEST POP PUSH2 0x4E PUSH2 0x8D JUMP JUMPDEST PUSH1 0x40 MLOAD PUSH2 0x5B SWAP2 SWAP1 PUSH2 0x17A JUMP JUMPDEST PUSH1 0x40 MLOAD DUP1 SWAP2 SUB SWAP1 RETURN JUMPDEST CALLVALUE DUP1 ISZERO PUSH2 0x70 JUMPI PUSH1 0x0 DUP1 REVERT JUMPDEST POP PUSH2 0x8B PUSH1 0x4 DUP1 CALLDATASIZE SUB DUP2 ADD SWAP1 PUSH2 0x86 SWAP2 SWAP1 PUSH2 0x12B JUMP JUMPDEST PUSH2 0xB6 JUMP JUMPDEST STOP JUMPDEST PUSH1 0x0 DUP1 PUSH1 0x0 SWAP1 SLOAD SWAP1 PUSH2 0x100 EXP SWAP1 DIV PUSH20 0xFFFFFFFFFFFFFFFFFFFFFFFFFFFFFFFFFFFFFFFF AND SWAP1 POP SWAP1 JUMP JUMPDEST DUP2 PUSH20 0xFFFFFFFFFFFFFFFFFFFFFFFFFFFFFFFFFFFFFFFF AND PUSH2 0x8FC DUP3 SWAP1 DUP2 ISZERO MUL SWAP1 PUSH1 0x40 MLOAD PUSH1 0x0 PUSH1 0x40 MLOAD DUP1 DUP4 SUB DUP2 DUP6 DUP9 DUP9 CALL SWAP4 POP POP POP POP ISZERO DUP1 ISZERO PUSH2 0xFC JUMPI RETURNDATASIZE PUSH1 0x0 DUP1 RETURNDATACOPY RETURNDATASIZE PUSH1 0x0 REVERT JUMPDEST POP POP POP JUMP JUMPDEST PUSH1 0x0 DUP2 CALLDATALOAD SWAP1 POP PUSH2 0x110 DUP2 PUSH2 0x1E8 JUMP JUMPDEST SWAP3 SWAP2 POP POP JUMP JUMPDEST PUSH1 0x0 DUP2 CALLDATALOAD SWAP1 POP PUSH2 0x125 DUP2 PUSH2 0x1FF JUMP JUMPDEST SWAP3 SWAP2 POP POP JUMP JUMPDEST PUSH1 0x0 DUP1 PUSH1 0x40 DUP4 DUP6 SUB SLT ISZERO PUSH2 0x142 JUMPI PUSH2 0x141 PUSH2 0x1E3 JUMP JUMPDEST JUMPDEST PUSH1 0x0 PUSH2 0x150 DUP6 DUP3 DUP7 ADD PUSH2 0x101 JUMP JUMPDEST SWAP3 POP POP PUSH1 0x20 PUSH2 0x161 DUP6 DUP3 DUP7 ADD PUSH2 0x116 JUMP JUMPDEST SWAP2 POP POP SWAP3 POP SWAP3 SWAP1 POP JUMP JUMPDEST PUSH2 0x174 DUP2 PUSH2 0x195 JUMP JUMPDEST DUP3 MSTORE POP POP JUMP JUMPDEST PUSH1 0x0 PUSH1 0x20 DUP3 ADD SWAP1 POP PUSH2 0x18F PUSH1 0x0 DUP4 ADD DUP5 PUSH2 0x16B JUMP JUMPDEST SWAP3 SWAP2 POP POP JUMP JUMPDEST PUSH1 0x0 PUSH2 0x1A0 DUP3 PUSH2 0x1B9 JUMP JUMPDEST SWAP1 POP SWAP2 SWAP1 POP JUMP JUMPDEST PUSH1 0x0 PUSH2 0x1B2 DUP3 PUSH2 0x1B9 JUMP JUMPDEST SWAP1 POP SWAP2 SWAP1 POP JUMP JUMPDEST PUSH1 0x0 PUSH20 0xFFFFFFFFFFFFFFFFFFFFFFFFFFFFFFFFFFFFFFFF DUP3 AND SWAP1 POP SWAP2 SWAP1 POP JUMP JUMPDEST PUSH1 0x0 DUP2 SWAP1 POP SWAP2 SWAP1 POP JUMP JUMPDEST PUSH1 0x0 DUP1 REVERT JUMPDEST PUSH2 0x1F1 DUP2 PUSH2 0x1A7 JUMP JUMPDEST DUP2 EQ PUSH2 0x1FC JUMPI PUSH1 0x0 DUP1 REVERT JUMPDEST POP JUMP JUMPDEST PUSH2 0x208 DUP2 PUSH2 0x1D9 JUMP JUMPDEST DUP2 EQ PUSH2 0x213 JUMPI PUSH1 0x0 DUP1 REVERT JUMPDEST POP JUMP INVALID LOG2 PUSH5 0x6970667358 0x22 SLT KECCAK256 PUSH17 0xCD56F2E8908A2A037ED378348F8999FFF5 0xE4 0xD3 XOR 0xA6 0xEF DUP3 PUSH28 0x9B49068D23C0A64736F6C6343000807003300000000000000000000 "
				},
				"gasEstimates": {
					"creation": {
						"codeDepositCost": "117600",
						"executionCost": "24431",
						"totalCost": "142031"
					},
					"external": {
						"ShowOwner()": "2500",
						"withdrawMoney(address,uint256)": "infinite"
					}
				},
				"methodIdentifiers": {
					"ShowOwner()": "96ce267a",
					"withdrawMoney(address,uint256)": "f274c897"
				}
			},
			"storageLayout": {
				"storage": [
					{
						"astId": 139,
						"contract": "simpleWallet.sol:SimpleWallet",
						"label": "owner",
						"offset": 0,
						"slot": "0",
						"type": "t_address"
					}
				],
				"types": {
					"t_address": {
						"encoding": "inplace",
						"label": "address",
						"numberOfBytes": "20"
					}
				}
			},
			"userdoc": {
				"kind": "user",
				"methods": {},
				"version": 1
			}
		}
	}
}