{
	"Mapping1.sol": {
		"MappingUsingStruct": {
			"abi": [
				{
					"inputs": [
						{
							"internalType": "address",
							"name": "",
							"type": "address"
						}
					],
					"name": "balanceReceived",
					"outputs": [
						{
							"internalType": "uint256",
							"name": "",
							"type": "uint256"
						}
					],
					"stateMutability": "view",
					"type": "function"
				},
				{
					"inputs": [],
					"name": "sendmoney",
					"outputs": [],
					"stateMutability": "payable",
					"type": "function"
				},
				{
					"inputs": [
						{
							"internalType": "address payable",
							"name": "_to",
							"type": "address"
						}
					],
					"name": "withdrawAllMoney",
					"outputs": [],
					"stateMutability": "nonpayable",
					"type": "function"
				}
			],
			"devdoc": {
				"kind": "dev",
				"methods": {},
				"version": 1
			},
			"evm": {
				"assembly": "    /* \"Mapping1.sol\":37:437  contract MappingUsingStruct{\r... */\n  mstore(0x40, 0x80)\n  callvalue\n  dup1\n  iszero\n  tag_1\n  jumpi\n  0x00\n  dup1\n  revert\ntag_1:\n  pop\n  dataSize(sub_0)\n  dup1\n  dataOffset(sub_0)\n  0x00\n  codecopy\n  0x00\n  return\nstop\n\nsub_0: assembly {\n        /* \"Mapping1.sol\":37:437  contract MappingUsingStruct{\r... */\n      mstore(0x40, 0x80)\n      jumpi(tag_1, lt(calldatasize, 0x04))\n      shr(0xe0, calldataload(0x00))\n      dup1\n      0x0adec93c\n      eq\n      tag_2\n      jumpi\n      dup1\n      0x740b08ae\n      eq\n      tag_3\n      jumpi\n      dup1\n      0xd18a42e1\n      eq\n      tag_4\n      jumpi\n    tag_1:\n      0x00\n      dup1\n      revert\n        /* \"Mapping1.sol\":238:434  function withdrawAllMoney(address payable _to) public{\r... */\n    tag_2:\n      callvalue\n      dup1\n      iszero\n      tag_5\n      jumpi\n      0x00\n      dup1\n      revert\n    tag_5:\n      pop\n      tag_6\n      0x04\n      dup1\n      calldatasize\n      sub\n      dup2\n      add\n      swap1\n      tag_7\n      swap2\n      swap1\n      tag_8\n      jump\t// in\n    tag_7:\n      tag_9\n      jump\t// in\n    tag_6:\n      stop\n        /* \"Mapping1.sol\":136:230  function sendmoney() public payable{\r... */\n    tag_3:\n      tag_10\n      tag_11\n      jump\t// in\n    tag_10:\n      stop\n        /* \"Mapping1.sol\":73:120  mapping(address => uint) public balanceReceived */\n    tag_4:\n      callvalue\n      dup1\n      iszero\n      tag_12\n      jumpi\n      0x00\n      dup1\n      revert\n    tag_12:\n      pop\n      tag_13\n      0x04\n      dup1\n      calldatasize\n      sub\n      dup2\n      add\n      swap1\n      tag_14\n      swap2\n      swap1\n      tag_15\n      jump\t// in\n    tag_14:\n      tag_16\n      jump\t// in\n    tag_13:\n      mload(0x40)\n      tag_17\n      swap2\n      swap1\n      tag_18\n      jump\t// in\n    tag_17:\n      mload(0x40)\n      dup1\n      swap2\n      sub\n      swap1\n      return\n        /* \"Mapping1.sol\":238:434  function withdrawAllMoney(address payable _to) public{\r... */\n    tag_9:\n        /* \"Mapping1.sol\":302:319  uint balaceToSend */\n      0x00\n        /* \"Mapping1.sol\":322:337  balanceReceived */\n      dup1\n        /* \"Mapping1.sol\":322:349  balanceReceived[msg.sender] */\n      0x00\n        /* \"Mapping1.sol\":338:348  msg.sender */\n      caller\n        /* \"Mapping1.sol\":322:349  balanceReceived[msg.sender] */\n      0xffffffffffffffffffffffffffffffffffffffff\n      and\n      0xffffffffffffffffffffffffffffffffffffffff\n      and\n      dup2\n      mstore\n      0x20\n      add\n      swap1\n      dup2\n      mstore\n      0x20\n      add\n      0x00\n      keccak256\n      sload\n        /* \"Mapping1.sol\":302:349  uint balaceToSend = balanceReceived[msg.sender] */\n      swap1\n      pop\n        /* \"Mapping1.sol\":388:389  0 */\n      0x00\n        /* \"Mapping1.sol\":360:375  balanceReceived */\n      dup1\n        /* \"Mapping1.sol\":360:387  balanceReceived[msg.sender] */\n      0x00\n        /* \"Mapping1.sol\":376:386  msg.sender */\n      caller\n        /* \"Mapping1.sol\":360:387  balanceReceived[msg.sender] */\n      0xffffffffffffffffffffffffffffffffffffffff\n      and\n      0xffffffffffffffffffffffffffffffffffffffff\n      and\n      dup2\n      mstore\n      0x20\n      add\n      swap1\n      dup2\n      mstore\n      0x20\n      add\n      0x00\n      keccak256\n        /* \"Mapping1.sol\":360:389  balanceReceived[msg.sender]=0 */\n      dup2\n      swap1\n      sstore\n      pop\n        /* \"Mapping1.sol\":400:403  _to */\n      dup2\n        /* \"Mapping1.sol\":400:412  _to.transfer */\n      0xffffffffffffffffffffffffffffffffffffffff\n      and\n        /* \"Mapping1.sol\":400:426  _to.transfer(balaceToSend) */\n      0x08fc\n        /* \"Mapping1.sol\":413:425  balaceToSend */\n      dup3\n        /* \"Mapping1.sol\":400:426  _to.transfer(balaceToSend) */\n      swap1\n      dup2\n      iszero\n      mul\n      swap1\n      mload(0x40)\n      0x00\n      mload(0x40)\n      dup1\n      dup4\n      sub\n      dup2\n      dup6\n      dup9\n      dup9\n      call\n      swap4\n      pop\n      pop\n      pop\n      pop\n      iszero\n      dup1\n      iszero\n      tag_21\n      jumpi\n      returndatasize\n      0x00\n      dup1\n      returndatacopy\n      revert(0x00, returndatasize)\n    tag_21:\n      pop\n        /* \"Mapping1.sol\":291:434  {\r... */\n      pop\n        /* \"Mapping1.sol\":238:434  function withdrawAllMoney(address payable _to) public{\r... */\n      pop\n      jump\t// out\n        /* \"Mapping1.sol\":136:230  function sendmoney() public payable{\r... */\n    tag_11:\n        /* \"Mapping1.sol\":211:220  msg.value */\n      callvalue\n        /* \"Mapping1.sol\":182:197  balanceReceived */\n      0x00\n        /* \"Mapping1.sol\":182:209  balanceReceived[msg.sender] */\n      dup1\n        /* \"Mapping1.sol\":198:208  msg.sender */\n      caller\n        /* \"Mapping1.sol\":182:209  balanceReceived[msg.sender] */\n      0xffffffffffffffffffffffffffffffffffffffff\n      and\n      0xffffffffffffffffffffffffffffffffffffffff\n      and\n      dup2\n      mstore\n      0x20\n      add\n      swap1\n      dup2\n      mstore\n      0x20\n      add\n      0x00\n      keccak256\n      0x00\n        /* \"Mapping1.sol\":182:220  balanceReceived[msg.sender]+=msg.value */\n      dup3\n      dup3\n      sload\n      tag_23\n      swap2\n      swap1\n      tag_24\n      jump\t// in\n    tag_23:\n      swap3\n      pop\n      pop\n      dup2\n      swap1\n      sstore\n      pop\n        /* \"Mapping1.sol\":136:230  function sendmoney() public payable{\r... */\n      jump\t// out\n        /* \"Mapping1.sol\":73:120  mapping(address => uint) public balanceReceived */\n    tag_16:\n      mstore(0x20, 0x00)\n      dup1\n      0x00\n      mstore\n      keccak256(0x00, 0x40)\n      0x00\n      swap2\n      pop\n      swap1\n      pop\n      sload\n      dup2\n      jump\t// out\n        /* \"#utility.yul\":7:146   */\n    tag_26:\n        /* \"#utility.yul\":53:58   */\n      0x00\n        /* \"#utility.yul\":91:97   */\n      dup2\n        /* \"#utility.yul\":78:98   */\n      calldataload\n        /* \"#utility.yul\":69:98   */\n      swap1\n      pop\n        /* \"#utility.yul\":107:140   */\n      tag_28\n        /* \"#utility.yul\":134:139   */\n      dup2\n        /* \"#utility.yul\":107:140   */\n      tag_29\n      jump\t// in\n    tag_28:\n        /* \"#utility.yul\":7:146   */\n      swap3\n      swap2\n      pop\n      pop\n      jump\t// out\n        /* \"#utility.yul\":152:307   */\n    tag_30:\n        /* \"#utility.yul\":206:211   */\n      0x00\n        /* \"#utility.yul\":244:250   */\n      dup2\n        /* \"#utility.yul\":231:251   */\n      calldataload\n        /* \"#utility.yul\":222:251   */\n      swap1\n      pop\n        /* \"#utility.yul\":260:301   */\n      tag_32\n        /* \"#utility.yul\":295:300   */\n      dup2\n        /* \"#utility.yul\":260:301   */\n      tag_33\n      jump\t// in\n    tag_32:\n        /* \"#utility.yul\":152:307   */\n      swap3\n      swap2\n      pop\n      pop\n      jump\t// out\n        /* \"#utility.yul\":313:642   */\n    tag_15:\n        /* \"#utility.yul\":372:378   */\n      0x00\n        /* \"#utility.yul\":421:423   */\n      0x20\n        /* \"#utility.yul\":409:418   */\n      dup3\n        /* \"#utility.yul\":400:407   */\n      dup5\n        /* \"#utility.yul\":396:419   */\n      sub\n        /* \"#utility.yul\":392:424   */\n      slt\n        /* \"#utility.yul\":389:508   */\n      iszero\n      tag_35\n      jumpi\n        /* \"#utility.yul\":427:506   */\n      tag_36\n      tag_37\n      jump\t// in\n    tag_36:\n        /* \"#utility.yul\":389:508   */\n    tag_35:\n        /* \"#utility.yul\":547:548   */\n      0x00\n        /* \"#utility.yul\":572:625   */\n      tag_38\n        /* \"#utility.yul\":617:624   */\n      dup5\n        /* \"#utility.yul\":608:614   */\n      dup3\n        /* \"#utility.yul\":597:606   */\n      dup6\n        /* \"#utility.yul\":593:615   */\n      add\n        /* \"#utility.yul\":572:625   */\n      tag_26\n      jump\t// in\n    tag_38:\n        /* \"#utility.yul\":562:625   */\n      swap2\n      pop\n        /* \"#utility.yul\":518:635   */\n      pop\n        /* \"#utility.yul\":313:642   */\n      swap3\n      swap2\n      pop\n      pop\n      jump\t// out\n        /* \"#utility.yul\":648:993   */\n    tag_8:\n        /* \"#utility.yul\":715:721   */\n      0x00\n        /* \"#utility.yul\":764:766   */\n      0x20\n        /* \"#utility.yul\":752:761   */\n      dup3\n        /* \"#utility.yul\":743:750   */\n      dup5\n        /* \"#utility.yul\":739:762   */\n      sub\n        /* \"#utility.yul\":735:767   */\n      slt\n        /* \"#utility.yul\":732:851   */\n      iszero\n      tag_40\n      jumpi\n        /* \"#utility.yul\":770:849   */\n      tag_41\n      tag_37\n      jump\t// in\n    tag_41:\n        /* \"#utility.yul\":732:851   */\n    tag_40:\n        /* \"#utility.yul\":890:891   */\n      0x00\n        /* \"#utility.yul\":915:976   */\n      tag_42\n        /* \"#utility.yul\":968:975   */\n      dup5\n        /* \"#utility.yul\":959:965   */\n      dup3\n        /* \"#utility.yul\":948:957   */\n      dup6\n        /* \"#utility.yul\":944:966   */\n      add\n        /* \"#utility.yul\":915:976   */\n      tag_30\n      jump\t// in\n    tag_42:\n        /* \"#utility.yul\":905:976   */\n      swap2\n      pop\n        /* \"#utility.yul\":861:986   */\n      pop\n        /* \"#utility.yul\":648:993   */\n      swap3\n      swap2\n      pop\n      pop\n      jump\t// out\n        /* \"#utility.yul\":999:1117   */\n    tag_43:\n        /* \"#utility.yul\":1086:1110   */\n      tag_45\n        /* \"#utility.yul\":1104:1109   */\n      dup2\n        /* \"#utility.yul\":1086:1110   */\n      tag_46\n      jump\t// in\n    tag_45:\n        /* \"#utility.yul\":1081:1084   */\n      dup3\n        /* \"#utility.yul\":1074:1111   */\n      mstore\n        /* \"#utility.yul\":999:1117   */\n      pop\n      pop\n      jump\t// out\n        /* \"#utility.yul\":1123:1345   */\n    tag_18:\n        /* \"#utility.yul\":1216:1220   */\n      0x00\n        /* \"#utility.yul\":1254:1256   */\n      0x20\n        /* \"#utility.yul\":1243:1252   */\n      dup3\n        /* \"#utility.yul\":1239:1257   */\n      add\n        /* \"#utility.yul\":1231:1257   */\n      swap1\n      pop\n        /* \"#utility.yul\":1267:1338   */\n      tag_48\n        /* \"#utility.yul\":1335:1336   */\n      0x00\n        /* \"#utility.yul\":1324:1333   */\n      dup4\n        /* \"#utility.yul\":1320:1337   */\n      add\n        /* \"#utility.yul\":1311:1317   */\n      dup5\n        /* \"#utility.yul\":1267:1338   */\n      tag_43\n      jump\t// in\n    tag_48:\n        /* \"#utility.yul\":1123:1345   */\n      swap3\n      swap2\n      pop\n      pop\n      jump\t// out\n        /* \"#utility.yul\":1432:1737   */\n    tag_24:\n        /* \"#utility.yul\":1472:1475   */\n      0x00\n        /* \"#utility.yul\":1491:1511   */\n      tag_52\n        /* \"#utility.yul\":1509:1510   */\n      dup3\n        /* \"#utility.yul\":1491:1511   */\n      tag_46\n      jump\t// in\n    tag_52:\n        /* \"#utility.yul\":1486:1511   */\n      swap2\n      pop\n        /* \"#utility.yul\":1525:1545   */\n      tag_53\n        /* \"#utility.yul\":1543:1544   */\n      dup4\n        /* \"#utility.yul\":1525:1545   */\n      tag_46\n      jump\t// in\n    tag_53:\n        /* \"#utility.yul\":1520:1545   */\n      swap3\n      pop\n        /* \"#utility.yul\":1679:1680   */\n      dup3\n        /* \"#utility.yul\":1611:1677   */\n      0xffffffffffffffffffffffffffffffffffffffffffffffffffffffffffffffff\n        /* \"#utility.yul\":1607:1681   */\n      sub\n        /* \"#utility.yul\":1604:1605   */\n      dup3\n        /* \"#utility.yul\":1601:1682   */\n      gt\n        /* \"#utility.yul\":1598:1705   */\n      iszero\n      tag_54\n      jumpi\n        /* \"#utility.yul\":1685:1703   */\n      tag_55\n      tag_56\n      jump\t// in\n    tag_55:\n        /* \"#utility.yul\":1598:1705   */\n    tag_54:\n        /* \"#utility.yul\":1729:1730   */\n      dup3\n        /* \"#utility.yul\":1726:1727   */\n      dup3\n        /* \"#utility.yul\":1722:1731   */\n      add\n        /* \"#utility.yul\":1715:1731   */\n      swap1\n      pop\n        /* \"#utility.yul\":1432:1737   */\n      swap3\n      swap2\n      pop\n      pop\n      jump\t// out\n        /* \"#utility.yul\":1743:1839   */\n    tag_57:\n        /* \"#utility.yul\":1780:1787   */\n      0x00\n        /* \"#utility.yul\":1809:1833   */\n      tag_59\n        /* \"#utility.yul\":1827:1832   */\n      dup3\n        /* \"#utility.yul\":1809:1833   */\n      tag_60\n      jump\t// in\n    tag_59:\n        /* \"#utility.yul\":1798:1833   */\n      swap1\n      pop\n        /* \"#utility.yul\":1743:1839   */\n      swap2\n      swap1\n      pop\n      jump\t// out\n        /* \"#utility.yul\":1845:1949   */\n    tag_61:\n        /* \"#utility.yul\":1890:1897   */\n      0x00\n        /* \"#utility.yul\":1919:1943   */\n      tag_63\n        /* \"#utility.yul\":1937:1942   */\n      dup3\n        /* \"#utility.yul\":1919:1943   */\n      tag_60\n      jump\t// in\n    tag_63:\n        /* \"#utility.yul\":1908:1943   */\n      swap1\n      pop\n        /* \"#utility.yul\":1845:1949   */\n      swap2\n      swap1\n      pop\n      jump\t// out\n        /* \"#utility.yul\":1955:2081   */\n    tag_60:\n        /* \"#utility.yul\":1992:1999   */\n      0x00\n        /* \"#utility.yul\":2032:2074   */\n      0xffffffffffffffffffffffffffffffffffffffff\n        /* \"#utility.yul\":2025:2030   */\n      dup3\n        /* \"#utility.yul\":2021:2075   */\n      and\n        /* \"#utility.yul\":2010:2075   */\n      swap1\n      pop\n        /* \"#utility.yul\":1955:2081   */\n      swap2\n      swap1\n      pop\n      jump\t// out\n        /* \"#utility.yul\":2087:2164   */\n    tag_46:\n        /* \"#utility.yul\":2124:2131   */\n      0x00\n        /* \"#utility.yul\":2153:2158   */\n      dup2\n        /* \"#utility.yul\":2142:2158   */\n      swap1\n      pop\n        /* \"#utility.yul\":2087:2164   */\n      swap2\n      swap1\n      pop\n      jump\t// out\n        /* \"#utility.yul\":2170:2350   */\n    tag_56:\n        /* \"#utility.yul\":2218:2295   */\n      0x4e487b7100000000000000000000000000000000000000000000000000000000\n        /* \"#utility.yul\":2215:2216   */\n      0x00\n        /* \"#utility.yul\":2208:2296   */\n      mstore\n        /* \"#utility.yul\":2315:2319   */\n      0x11\n        /* \"#utility.yul\":2312:2313   */\n      0x04\n        /* \"#utility.yul\":2305:2320   */\n      mstore\n        /* \"#utility.yul\":2339:2343   */\n      0x24\n        /* \"#utility.yul\":2336:2337   */\n      0x00\n        /* \"#utility.yul\":2329:2344   */\n      revert\n        /* \"#utility.yul\":2479:2596   */\n    tag_37:\n        /* \"#utility.yul\":2588:2589   */\n      0x00\n        /* \"#utility.yul\":2585:2586   */\n      dup1\n        /* \"#utility.yul\":2578:2590   */\n      revert\n        /* \"#utility.yul\":2602:2724   */\n    tag_29:\n        /* \"#utility.yul\":2675:2699   */\n      tag_71\n        /* \"#utility.yul\":2693:2698   */\n      dup2\n        /* \"#utility.yul\":2675:2699   */\n      tag_57\n      jump\t// in\n    tag_71:\n        /* \"#utility.yul\":2668:2673   */\n      dup2\n        /* \"#utility.yul\":2665:2700   */\n      eq\n        /* \"#utility.yul\":2655:2718   */\n      tag_72\n      jumpi\n        /* \"#utility.yul\":2714:2715   */\n      0x00\n        /* \"#utility.yul\":2711:2712   */\n      dup1\n        /* \"#utility.yul\":2704:2716   */\n      revert\n        /* \"#utility.yul\":2655:2718   */\n    tag_72:\n        /* \"#utility.yul\":2602:2724   */\n      pop\n      jump\t// out\n        /* \"#utility.yul\":2730:2868   */\n    tag_33:\n        /* \"#utility.yul\":2811:2843   */\n      tag_74\n        /* \"#utility.yul\":2837:2842   */\n      dup2\n        /* \"#utility.yul\":2811:2843   */\n      tag_61\n      jump\t// in\n    tag_74:\n        /* \"#utility.yul\":2804:2809   */\n      dup2\n        /* \"#utility.yul\":2801:2844   */\n      eq\n        /* \"#utility.yul\":2791:2862   */\n      tag_75\n      jumpi\n        /* \"#utility.yul\":2858:2859   */\n      0x00\n        /* \"#utility.yul\":2855:2856   */\n      dup1\n        /* \"#utility.yul\":2848:2860   */\n      revert\n        /* \"#utility.yul\":2791:2862   */\n    tag_75:\n        /* \"#utility.yul\":2730:2868   */\n      pop\n      jump\t// out\n\n    auxdata: 0xa2646970667358221220a02470cfdc2b42a204fa1321730845954cad1793cd7f409b3d644c3bc9a13eb164736f6c63430008070033\n}\n",
				"bytecode": {
					"linkReferences": {},
					"object": "608060405234801561001057600080fd5b506103d4806100206000396000f3fe6080604052600436106100345760003560e01c80630adec93c14610039578063740b08ae14610062578063d18a42e11461006c575b600080fd5b34801561004557600080fd5b50610060600480360381019061005b9190610241565b6100a9565b005b61006a61017b565b005b34801561007857600080fd5b50610093600480360381019061008e9190610214565b6101d2565b6040516100a0919061027d565b60405180910390f35b60008060003373ffffffffffffffffffffffffffffffffffffffff1673ffffffffffffffffffffffffffffffffffffffff16815260200190815260200160002054905060008060003373ffffffffffffffffffffffffffffffffffffffff1673ffffffffffffffffffffffffffffffffffffffff168152602001908152602001600020819055508173ffffffffffffffffffffffffffffffffffffffff166108fc829081150290604051600060405180830381858888f19350505050158015610176573d6000803e3d6000fd5b505050565b346000803373ffffffffffffffffffffffffffffffffffffffff1673ffffffffffffffffffffffffffffffffffffffff16815260200190815260200160002060008282546101c99190610298565b92505081905550565b60006020528060005260406000206000915090505481565b6000813590506101f981610370565b92915050565b60008135905061020e81610387565b92915050565b60006020828403121561022a5761022961036b565b5b6000610238848285016101ea565b91505092915050565b6000602082840312156102575761025661036b565b5b6000610265848285016101ff565b91505092915050565b61027781610332565b82525050565b6000602082019050610292600083018461026e565b92915050565b60006102a382610332565b91506102ae83610332565b9250827fffffffffffffffffffffffffffffffffffffffffffffffffffffffffffffffff038211156102e3576102e261033c565b5b828201905092915050565b60006102f982610312565b9050919050565b600061030b82610312565b9050919050565b600073ffffffffffffffffffffffffffffffffffffffff82169050919050565b6000819050919050565b7f4e487b7100000000000000000000000000000000000000000000000000000000600052601160045260246000fd5b600080fd5b610379816102ee565b811461038457600080fd5b50565b61039081610300565b811461039b57600080fd5b5056fea2646970667358221220a02470cfdc2b42a204fa1321730845954cad1793cd7f409b3d644c3bc9a13eb164736f6c63430008070033",
					"opcodes": "PUSH1 0x80 PUSH1 0x40 MSTORE CALLVALUE DUP1 ISZERO PUSH2 0x10 JUMPI PUSH1 0x0 DUP1 REVERT JUMPDEST POP PUSH2 0x3D4 DUP1 PUSH2 0x20 PUSH1 0x0 CODECOPY PUSH1 0x0 RETURN INVALID PUSH1 0x80 PUSH1 0x40 MSTORE PUSH1 0x4 CALLDATASIZE LT PUSH2 0x34 JUMPI PUSH1 0x0 CALLDATALOAD PUSH1 0xE0 SHR DUP1 PUSH4 0xADEC93C EQ PUSH2 0x39 JUMPI DUP1 PUSH4 0x740B08AE EQ PUSH2 0x62 JUMPI DUP1 PUSH4 0xD18A42E1 EQ PUSH2 0x6C JUMPI JUMPDEST PUSH1 0x0 DUP1 REVERT JUMPDEST CALLVALUE DUP1 ISZERO PUSH2 0x45 JUMPI PUSH1 0x0 DUP1 REVERT JUMPDEST POP PUSH2 0x60 PUSH1 0x4 DUP1 CALLDATASIZE SUB DUP2 ADD SWAP1 PUSH2 0x5B SWAP2 SWAP1 PUSH2 0x241 JUMP JUMPDEST PUSH2 0xA9 JUMP JUMPDEST STOP JUMPDEST PUSH2 0x6A PUSH2 0x17B JUMP JUMPDEST STOP JUMPDEST CALLVALUE DUP1 ISZERO PUSH2 0x78 JUMPI PUSH1 0x0 DUP1 REVERT JUMPDEST POP PUSH2 0x93 PUSH1 0x4 DUP1 CALLDATASIZE SUB DUP2 ADD SWAP1 PUSH2 0x8E SWAP2 SWAP1 PUSH2 0x214 JUMP JUMPDEST PUSH2 0x1D2 JUMP JUMPDEST PUSH1 0x40 MLOAD PUSH2 0xA0 SWAP2 SWAP1 PUSH2 0x27D JUMP JUMPDEST PUSH1 0x40 MLOAD DUP1 SWAP2 SUB SWAP1 RETURN JUMPDEST PUSH1 0x0 DUP1 PUSH1 0x0 CALLER PUSH20 0xFFFFFFFFFFFFFFFFFFFFFFFFFFFFFFFFFFFFFFFF AND PUSH20 0xFFFFFFFFFFFFFFFFFFFFFFFFFFFFFFFFFFFFFFFF AND DUP2 MSTORE PUSH1 0x20 ADD SWAP1 DUP2 MSTORE PUSH1 0x20 ADD PUSH1 0x0 KECCAK256 SLOAD SWAP1 POP PUSH1 0x0 DUP1 PUSH1 0x0 CALLER PUSH20 0xFFFFFFFFFFFFFFFFFFFFFFFFFFFFFFFFFFFFFFFF AND PUSH20 0xFFFFFFFFFFFFFFFFFFFFFFFFFFFFFFFFFFFFFFFF AND DUP2 MSTORE PUSH1 0x20 ADD SWAP1 DUP2 MSTORE PUSH1 0x20 ADD PUSH1 0x0 KECCAK256 DUP2 SWAP1 SSTORE POP DUP2 PUSH20 0xFFFFFFFFFFFFFFFFFFFFFFFFFFFFFFFFFFFFFFFF AND PUSH2 0x8FC DUP3 SWAP1 DUP2 ISZERO MUL SWAP1 PUSH1 0x40 MLOAD PUSH1 0x0 PUSH1 0x40 MLOAD DUP1 DUP4 SUB DUP2 DUP6 DUP9 DUP9 CALL SWAP4 POP POP POP POP ISZERO DUP1 ISZERO PUSH2 0x176 JUMPI RETURNDATASIZE PUSH1 0x0 DUP1 RETURNDATACOPY RETURNDATASIZE PUSH1 0x0 REVERT JUMPDEST POP POP POP JUMP JUMPDEST CALLVALUE PUSH1 0x0 DUP1 CALLER PUSH20 0xFFFFFFFFFFFFFFFFFFFFFFFFFFFFFFFFFFFFFFFF AND PUSH20 0xFFFFFFFFFFFFFFFFFFFFFFFFFFFFFFFFFFFFFFFF AND DUP2 MSTORE PUSH1 0x20 ADD SWAP1 DUP2 MSTORE PUSH1 0x20 ADD PUSH1 0x0 KECCAK256 PUSH1 0x0 DUP3 DUP3 SLOAD PUSH2 0x1C9 SWAP2 SWAP1 PUSH2 0x298 JUMP JUMPDEST SWAP3 POP POP DUP2 SWAP1 SSTORE POP JUMP JUMPDEST PUSH1 0x0 PUSH1 0x20 MSTORE DUP1 PUSH1 0x0 MSTORE PUSH1 0x40 PUSH1 0x0 KECCAK256 PUSH1 0x0 SWAP2 POP SWAP1 POP SLOAD DUP2 JUMP JUMPDEST PUSH1 0x0 DUP2 CALLDATALOAD SWAP1 POP PUSH2 0x1F9 DUP2 PUSH2 0x370 JUMP JUMPDEST SWAP3 SWAP2 POP POP JUMP JUMPDEST PUSH1 0x0 DUP2 CALLDATALOAD SWAP1 POP PUSH2 0x20E DUP2 PUSH2 0x387 JUMP JUMPDEST SWAP3 SWAP2 POP POP JUMP JUMPDEST PUSH1 0x0 PUSH1 0x20 DUP3 DUP5 SUB SLT ISZERO PUSH2 0x22A JUMPI PUSH2 0x229 PUSH2 0x36B JUMP JUMPDEST JUMPDEST PUSH1 0x0 PUSH2 0x238 DUP5 DUP3 DUP6 ADD PUSH2 0x1EA JUMP JUMPDEST SWAP2 POP POP SWAP3 SWAP2 POP POP JUMP JUMPDEST PUSH1 0x0 PUSH1 0x20 DUP3 DUP5 SUB SLT ISZERO PUSH2 0x257 JUMPI PUSH2 0x256 PUSH2 0x36B JUMP JUMPDEST JUMPDEST PUSH1 0x0 PUSH2 0x265 DUP5 DUP3 DUP6 ADD PUSH2 0x1FF JUMP JUMPDEST SWAP2 POP POP SWAP3 SWAP2 POP POP JUMP JUMPDEST PUSH2 0x277 DUP2 PUSH2 0x332 JUMP JUMPDEST DUP3 MSTORE POP POP JUMP JUMPDEST PUSH1 0x0 PUSH1 0x20 DUP3 ADD SWAP1 POP PUSH2 0x292 PUSH1 0x0 DUP4 ADD DUP5 PUSH2 0x26E JUMP JUMPDEST SWAP3 SWAP2 POP POP JUMP JUMPDEST PUSH1 0x0 PUSH2 0x2A3 DUP3 PUSH2 0x332 JUMP JUMPDEST SWAP2 POP PUSH2 0x2AE DUP4 PUSH2 0x332 JUMP JUMPDEST SWAP3 POP DUP3 PUSH32 0xFFFFFFFFFFFFFFFFFFFFFFFFFFFFFFFFFFFFFFFFFFFFFFFFFFFFFFFFFFFFFFFF SUB DUP3 GT ISZERO PUSH2 0x2E3 JUMPI PUSH2 0x2E2 PUSH2 0x33C JUMP JUMPDEST JUMPDEST DUP3 DUP3 ADD SWAP1 POP SWAP3 SWAP2 POP POP JUMP JUMPDEST PUSH1 0x0 PUSH2 0x2F9 DUP3 PUSH2 0x312 JUMP JUMPDEST SWAP1 POP SWAP2 SWAP1 POP JUMP JUMPDEST PUSH1 0x0 PUSH2 0x30B DUP3 PUSH2 0x312 JUMP JUMPDEST SWAP1 POP SWAP2 SWAP1 POP JUMP JUMPDEST PUSH1 0x0 PUSH20 0xFFFFFFFFFFFFFFFFFFFFFFFFFFFFFFFFFFFFFFFF DUP3 AND SWAP1 POP SWAP2 SWAP1 POP JUMP JUMPDEST PUSH1 0x0 DUP2 SWAP1 POP SWAP2 SWAP1 POP JUMP JUMPDEST PUSH32 0x4E487B7100000000000000000000000000000000000000000000000000000000 PUSH1 0x0 MSTORE PUSH1 0x11 PUSH1 0x4 MSTORE PUSH1 0x24 PUSH1 0x0 REVERT JUMPDEST PUSH1 0x0 DUP1 REVERT JUMPDEST PUSH2 0x379 DUP2 PUSH2 0x2EE JUMP JUMPDEST DUP2 EQ PUSH2 0x384 JUMPI PUSH1 0x0 DUP1 REVERT JUMPDEST POP JUMP JUMPDEST PUSH2 0x390 DUP2 PUSH2 0x300 JUMP JUMPDEST DUP2 EQ PUSH2 0x39B JUMPI PUSH1 0x0 DUP1 REVERT JUMPDEST POP JUMP INVALID LOG2 PUSH5 0x6970667358 0x22 SLT KECCAK256 LOG0 0x24 PUSH17 0xCFDC2B42A204FA1321730845954CAD1793 0xCD PUSH32 0x409B3D644C3BC9A13EB164736F6C634300080700330000000000000000000000 "
				},
				"gasEstimates": {
					"creation": {
						"codeDepositCost": "196000",
						"executionCost": "238",
						"totalCost": "196238"
					},
					"external": {
						"balanceReceived(address)": "2836",
						"sendmoney()": "infinite",
						"withdrawAllMoney(address)": "infinite"
					}
				},
				"methodIdentifiers": {
					"balanceReceived(address)": "d18a42e1",
					"sendmoney()": "740b08ae",
					"withdrawAllMoney(address)": "0adec93c"
				}
			},
			"storageLayout": {
				"storage": [
					{
						"astId": 5,
						"contract": "Mapping1.sol:MappingUsingStruct",
						"label": "balanceReceived",
						"offset": 0,
						"slot": "0",
						"type": "t_mapping(t_address,t_uint256)"
					}
				],
				"types": {
					"t_address": {
						"encoding": "inplace",
						"label": "address",
						"numberOfBytes": "20"
					},
					"t_mapping(t_address,t_uint256)": {
						"encoding": "mapping",
						"key": "t_address",
						"label": "mapping(address => uint256)",
						"numberOfBytes": "32",
						"value": "t_uint256"
					},
					"t_uint256": {
						"encoding": "inplace",
						"label": "uint256",
						"numberOfBytes": "32"
					}
				}
			},
			"userdoc": {
				"kind": "user",
				"methods": {},
				"version": 1
			}
		}
	}
}