{
	"practice1.sol": {
		"practice": {
			"abi": [
				{
					"inputs": [],
					"name": "getBalance",
					"outputs": [
						{
							"internalType": "uint256",
							"name": "",
							"type": "uint256"
						}
					],
					"stateMutability": "view",
					"type": "function"
				},
				{
					"inputs": [],
					"name": "showBalance",
					"outputs": [],
					"stateMutability": "payable",
					"type": "function"
				}
			],
			"devdoc": {
				"kind": "dev",
				"methods": {},
				"version": 1
			},
			"evm": {
				"assembly": "    /* \"practice1.sol\":38:287  contract practice{\r... */\n  mstore(0x40, 0x80)\n  callvalue\n  dup1\n  iszero\n  tag_1\n  jumpi\n  0x00\n  dup1\n  revert\ntag_1:\n  pop\n  dataSize(sub_0)\n  dup1\n  dataOffset(sub_0)\n  0x00\n  codecopy\n  0x00\n  return\nstop\n\nsub_0: assembly {\n        /* \"practice1.sol\":38:287  contract practice{\r... */\n      mstore(0x40, 0x80)\n      jumpi(tag_1, lt(calldatasize, 0x04))\n      shr(0xe0, calldataload(0x00))\n      dup1\n      0x12065fe0\n      eq\n      tag_2\n      jumpi\n      dup1\n      0x81b2d07b\n      eq\n      tag_3\n      jumpi\n    tag_1:\n      0x00\n      dup1\n      revert\n        /* \"practice1.sol\":188:284  function getBalance() public view returns(uint){\r... */\n    tag_2:\n      callvalue\n      dup1\n      iszero\n      tag_4\n      jumpi\n      0x00\n      dup1\n      revert\n    tag_4:\n      pop\n      tag_5\n      tag_6\n      jump\t// in\n    tag_5:\n      mload(0x40)\n      tag_7\n      swap2\n      swap1\n      tag_8\n      jump\t// in\n    tag_7:\n      mload(0x40)\n      dup1\n      swap2\n      sub\n      swap1\n      return\n        /* \"practice1.sol\":95:180  function showBalance () public payable{\r... */\n    tag_3:\n      tag_9\n      tag_10\n      jump\t// in\n    tag_9:\n      stop\n        /* \"practice1.sol\":188:284  function getBalance() public view returns(uint){\r... */\n    tag_6:\n        /* \"practice1.sol\":230:234  uint */\n      0x00\n        /* \"practice1.sol\":253:274  address(this).balance */\n      selfbalance\n        /* \"practice1.sol\":246:274  return address(this).balance */\n      swap1\n      pop\n        /* \"practice1.sol\":188:284  function getBalance() public view returns(uint){\r... */\n      swap1\n      jump\t// out\n        /* \"practice1.sol\":95:180  function showBalance () public payable{\r... */\n    tag_10:\n        /* \"practice1.sol\":161:170  msg.value */\n      callvalue\n        /* \"practice1.sol\":144:159  balanceReceived */\n      0x00\n      dup1\n        /* \"practice1.sol\":144:170  balanceReceived+=msg.value */\n      dup3\n      dup3\n      sload\n      tag_13\n      swap2\n      swap1\n      tag_14\n      jump\t// in\n    tag_13:\n      swap3\n      pop\n      pop\n      dup2\n      swap1\n      sstore\n      pop\n        /* \"practice1.sol\":95:180  function showBalance () public payable{\r... */\n      jump\t// out\n        /* \"#utility.yul\":7:125   */\n    tag_16:\n        /* \"#utility.yul\":94:118   */\n      tag_18\n        /* \"#utility.yul\":112:117   */\n      dup2\n        /* \"#utility.yul\":94:118   */\n      tag_19\n      jump\t// in\n    tag_18:\n        /* \"#utility.yul\":89:92   */\n      dup3\n        /* \"#utility.yul\":82:119   */\n      mstore\n        /* \"#utility.yul\":7:125   */\n      pop\n      pop\n      jump\t// out\n        /* \"#utility.yul\":131:353   */\n    tag_8:\n        /* \"#utility.yul\":224:228   */\n      0x00\n        /* \"#utility.yul\":262:264   */\n      0x20\n        /* \"#utility.yul\":251:260   */\n      dup3\n        /* \"#utility.yul\":247:265   */\n      add\n        /* \"#utility.yul\":239:265   */\n      swap1\n      pop\n        /* \"#utility.yul\":275:346   */\n      tag_21\n        /* \"#utility.yul\":343:344   */\n      0x00\n        /* \"#utility.yul\":332:341   */\n      dup4\n        /* \"#utility.yul\":328:345   */\n      add\n        /* \"#utility.yul\":319:325   */\n      dup5\n        /* \"#utility.yul\":275:346   */\n      tag_16\n      jump\t// in\n    tag_21:\n        /* \"#utility.yul\":131:353   */\n      swap3\n      swap2\n      pop\n      pop\n      jump\t// out\n        /* \"#utility.yul\":359:664   */\n    tag_14:\n        /* \"#utility.yul\":399:402   */\n      0x00\n        /* \"#utility.yul\":418:438   */\n      tag_23\n        /* \"#utility.yul\":436:437   */\n      dup3\n        /* \"#utility.yul\":418:438   */\n      tag_19\n      jump\t// in\n    tag_23:\n        /* \"#utility.yul\":413:438   */\n      swap2\n      pop\n        /* \"#utility.yul\":452:472   */\n      tag_24\n        /* \"#utility.yul\":470:471   */\n      dup4\n        /* \"#utility.yul\":452:472   */\n      tag_19\n      jump\t// in\n    tag_24:\n        /* \"#utility.yul\":447:472   */\n      swap3\n      pop\n        /* \"#utility.yul\":606:607   */\n      dup3\n        /* \"#utility.yul\":538:604   */\n      0xffffffffffffffffffffffffffffffffffffffffffffffffffffffffffffffff\n        /* \"#utility.yul\":534:608   */\n      sub\n        /* \"#utility.yul\":531:532   */\n      dup3\n        /* \"#utility.yul\":528:609   */\n      gt\n        /* \"#utility.yul\":525:632   */\n      iszero\n      tag_25\n      jumpi\n        /* \"#utility.yul\":612:630   */\n      tag_26\n      tag_27\n      jump\t// in\n    tag_26:\n        /* \"#utility.yul\":525:632   */\n    tag_25:\n        /* \"#utility.yul\":656:657   */\n      dup3\n        /* \"#utility.yul\":653:654   */\n      dup3\n        /* \"#utility.yul\":649:658   */\n      add\n        /* \"#utility.yul\":642:658   */\n      swap1\n      pop\n        /* \"#utility.yul\":359:664   */\n      swap3\n      swap2\n      pop\n      pop\n      jump\t// out\n        /* \"#utility.yul\":670:747   */\n    tag_19:\n        /* \"#utility.yul\":707:714   */\n      0x00\n        /* \"#utility.yul\":736:741   */\n      dup2\n        /* \"#utility.yul\":725:741   */\n      swap1\n      pop\n        /* \"#utility.yul\":670:747   */\n      swap2\n      swap1\n      pop\n      jump\t// out\n        /* \"#utility.yul\":753:933   */\n    tag_27:\n        /* \"#utility.yul\":801:878   */\n      0x4e487b7100000000000000000000000000000000000000000000000000000000\n        /* \"#utility.yul\":798:799   */\n      0x00\n        /* \"#utility.yul\":791:879   */\n      mstore\n        /* \"#utility.yul\":898:902   */\n      0x11\n        /* \"#utility.yul\":895:896   */\n      0x04\n        /* \"#utility.yul\":888:903   */\n      mstore\n        /* \"#utility.yul\":922:926   */\n      0x24\n        /* \"#utility.yul\":919:920   */\n      0x00\n        /* \"#utility.yul\":912:927   */\n      revert\n\n    auxdata: 0xa2646970667358221220e402a8e5b71d110930907083147e2bddd944a06093ee009284f38a645439c02264736f6c63430008070033\n}\n",
				"bytecode": {
					"linkReferences": {},
					"object": "608060405234801561001057600080fd5b50610174806100206000396000f3fe6080604052600436106100295760003560e01c806312065fe01461002e57806381b2d07b14610059575b600080fd5b34801561003a57600080fd5b50610043610063565b6040516100509190610094565b60405180910390f35b61006161006b565b005b600047905090565b3460008082825461007c91906100af565b92505081905550565b61008e81610105565b82525050565b60006020820190506100a96000830184610085565b92915050565b60006100ba82610105565b91506100c583610105565b9250827fffffffffffffffffffffffffffffffffffffffffffffffffffffffffffffffff038211156100fa576100f961010f565b5b828201905092915050565b6000819050919050565b7f4e487b7100000000000000000000000000000000000000000000000000000000600052601160045260246000fdfea2646970667358221220e402a8e5b71d110930907083147e2bddd944a06093ee009284f38a645439c02264736f6c63430008070033",
					"opcodes": "PUSH1 0x80 PUSH1 0x40 MSTORE CALLVALUE DUP1 ISZERO PUSH2 0x10 JUMPI PUSH1 0x0 DUP1 REVERT JUMPDEST POP PUSH2 0x174 DUP1 PUSH2 0x20 PUSH1 0x0 CODECOPY PUSH1 0x0 RETURN INVALID PUSH1 0x80 PUSH1 0x40 MSTORE PUSH1 0x4 CALLDATASIZE LT PUSH2 0x29 JUMPI PUSH1 0x0 CALLDATALOAD PUSH1 0xE0 SHR DUP1 PUSH4 0x12065FE0 EQ PUSH2 0x2E JUMPI DUP1 PUSH4 0x81B2D07B EQ PUSH2 0x59 JUMPI JUMPDEST PUSH1 0x0 DUP1 REVERT JUMPDEST CALLVALUE DUP1 ISZERO PUSH2 0x3A JUMPI PUSH1 0x0 DUP1 REVERT JUMPDEST POP PUSH2 0x43 PUSH2 0x63 JUMP JUMPDEST PUSH1 0x40 MLOAD PUSH2 0x50 SWAP2 SWAP1 PUSH2 0x94 JUMP JUMPDEST PUSH1 0x40 MLOAD DUP1 SWAP2 SUB SWAP1 RETURN JUMPDEST PUSH2 0x61 PUSH2 0x6B JUMP JUMPDEST STOP JUMPDEST PUSH1 0x0 SELFBALANCE SWAP1 POP SWAP1 JUMP JUMPDEST CALLVALUE PUSH1 0x0 DUP1 DUP3 DUP3 SLOAD PUSH2 0x7C SWAP2 SWAP1 PUSH2 0xAF JUMP JUMPDEST SWAP3 POP POP DUP2 SWAP1 SSTORE POP JUMP JUMPDEST PUSH2 0x8E DUP2 PUSH2 0x105 JUMP JUMPDEST DUP3 MSTORE POP POP JUMP JUMPDEST PUSH1 0x0 PUSH1 0x20 DUP3 ADD SWAP1 POP PUSH2 0xA9 PUSH1 0x0 DUP4 ADD DUP5 PUSH2 0x85 JUMP JUMPDEST SWAP3 SWAP2 POP POP JUMP JUMPDEST PUSH1 0x0 PUSH2 0xBA DUP3 PUSH2 0x105 JUMP JUMPDEST SWAP2 POP PUSH2 0xC5 DUP4 PUSH2 0x105 JUMP JUMPDEST SWAP3 POP DUP3 PUSH32 0xFFFFFFFFFFFFFFFFFFFFFFFFFFFFFFFFFFFFFFFFFFFFFFFFFFFFFFFFFFFFFFFF SUB DUP3 GT ISZERO PUSH2 0xFA JUMPI PUSH2 0xF9 PUSH2 0x10F JUMP JUMPDEST JUMPDEST DUP3 DUP3 ADD SWAP1 POP SWAP3 SWAP2 POP POP JUMP JUMPDEST PUSH1 0x0 DUP2 SWAP1 POP SWAP2 SWAP1 POP JUMP JUMPDEST PUSH32 0x4E487B7100000000000000000000000000000000000000000000000000000000 PUSH1 0x0 MSTORE PUSH1 0x11 PUSH1 0x4 MSTORE PUSH1 0x24 PUSH1 0x0 REVERT INVALID LOG2 PUSH5 0x6970667358 0x22 SLT KECCAK256 0xE4 MUL 0xA8 0xE5 0xB7 SAR GT MULMOD ADDRESS SWAP1 PUSH17 0x83147E2BDDD944A06093EE009284F38A64 SLOAD CODECOPY 0xC0 0x22 PUSH5 0x736F6C6343 STOP ADDMOD SMOD STOP CALLER "
				},
				"gasEstimates": {
					"creation": {
						"codeDepositCost": "74400",
						"executionCost": "123",
						"totalCost": "74523"
					},
					"external": {
						"getBalance()": "317",
						"showBalance()": "infinite"
					}
				},
				"methodIdentifiers": {
					"getBalance()": "12065fe0",
					"showBalance()": "81b2d07b"
				}
			},
			"storageLayout": {
				"storage": [
					{
						"astId": 3,
						"contract": "practice1.sol:practice",
						"label": "balanceReceived",
						"offset": 0,
						"slot": "0",
						"type": "t_uint256"
					}
				],
				"types": {
					"t_uint256": {
						"encoding": "inplace",
						"label": "uint256",
						"numberOfBytes": "32"
					}
				}
			},
			"userdoc": {
				"kind": "user",
				"methods": {},
				"version": 1
			}
		}
	}
}