{
	"practice.sol": {
		"practice": {
			"abi": [
				{
					"inputs": [],
					"name": "balanceReceived",
					"outputs": [
						{
							"internalType": "uint256",
							"name": "",
							"type": "uint256"
						}
					],
					"stateMutability": "view",
					"type": "function"
				},
				{
					"inputs": [],
					"name": "getBalance",
					"outputs": [
						{
							"internalType": "uint256",
							"name": "",
							"type": "uint256"
						}
					],
					"stateMutability": "view",
					"type": "function"
				},
				{
					"inputs": [
						{
							"internalType": "uint256",
							"name": "_balanceReceived",
							"type": "uint256"
						}
					],
					"name": "sendmoney",
					"outputs": [],
					"stateMutability": "nonpayable",
					"type": "function"
				}
			],
			"devdoc": {
				"kind": "dev",
				"methods": {},
				"version": 1
			},
			"evm": {
				"assembly": "    /* \"practice.sol\":36:310  contract practice{\r... */\n  mstore(0x40, 0x80)\n  callvalue\n  dup1\n  iszero\n  tag_1\n  jumpi\n  0x00\n  dup1\n  revert\ntag_1:\n  pop\n  dataSize(sub_0)\n  dup1\n  dataOffset(sub_0)\n  0x00\n  codecopy\n  0x00\n  return\nstop\n\nsub_0: assembly {\n        /* \"practice.sol\":36:310  contract practice{\r... */\n      mstore(0x40, 0x80)\n      callvalue\n      dup1\n      iszero\n      tag_1\n      jumpi\n      0x00\n      dup1\n      revert\n    tag_1:\n      pop\n      jumpi(tag_2, lt(calldatasize, 0x04))\n      shr(0xe0, calldataload(0x00))\n      dup1\n      0x12065fe0\n      eq\n      tag_3\n      jumpi\n      dup1\n      0x52a90c42\n      eq\n      tag_4\n      jumpi\n      dup1\n      0xacdda4f5\n      eq\n      tag_5\n      jumpi\n    tag_2:\n      0x00\n      dup1\n      revert\n        /* \"practice.sol\":99:195  function getBalance() public view returns(uint){\r... */\n    tag_3:\n      tag_6\n      tag_7\n      jump\t// in\n    tag_6:\n      mload(0x40)\n      tag_8\n      swap2\n      swap1\n      tag_9\n      jump\t// in\n    tag_8:\n      mload(0x40)\n      dup1\n      swap2\n      sub\n      swap1\n      return\n        /* \"practice.sol\":61:88  uint public balanceReceived */\n    tag_4:\n      tag_10\n      tag_11\n      jump\t// in\n    tag_10:\n      mload(0x40)\n      tag_12\n      swap2\n      swap1\n      tag_9\n      jump\t// in\n    tag_12:\n      mload(0x40)\n      dup1\n      swap2\n      sub\n      swap1\n      return\n        /* \"practice.sol\":204:305  function sendmoney(uint _balanceReceived) public{\r... */\n    tag_5:\n      tag_13\n      0x04\n      dup1\n      calldatasize\n      sub\n      dup2\n      add\n      swap1\n      tag_14\n      swap2\n      swap1\n      tag_15\n      jump\t// in\n    tag_14:\n      tag_16\n      jump\t// in\n    tag_13:\n      stop\n        /* \"practice.sol\":99:195  function getBalance() public view returns(uint){\r... */\n    tag_7:\n        /* \"practice.sol\":141:145  uint */\n      0x00\n        /* \"practice.sol\":165:186  address(this).balance */\n      selfbalance\n        /* \"practice.sol\":158:186  return address(this).balance */\n      swap1\n      pop\n        /* \"practice.sol\":99:195  function getBalance() public view returns(uint){\r... */\n      swap1\n      jump\t// out\n        /* \"practice.sol\":61:88  uint public balanceReceived */\n    tag_11:\n      sload(0x00)\n      dup2\n      jump\t// out\n        /* \"practice.sol\":204:305  function sendmoney(uint _balanceReceived) public{\r... */\n    tag_16:\n        /* \"practice.sol\":280:296  _balanceReceived */\n      dup1\n        /* \"practice.sol\":264:279  balanceReceived */\n      0x00\n        /* \"practice.sol\":264:296  balanceReceived=_balanceReceived */\n      dup2\n      swap1\n      sstore\n      pop\n        /* \"practice.sol\":204:305  function sendmoney(uint _balanceReceived) public{\r... */\n      pop\n      jump\t// out\n        /* \"#utility.yul\":7:146   */\n    tag_20:\n        /* \"#utility.yul\":53:58   */\n      0x00\n        /* \"#utility.yul\":91:97   */\n      dup2\n        /* \"#utility.yul\":78:98   */\n      calldataload\n        /* \"#utility.yul\":69:98   */\n      swap1\n      pop\n        /* \"#utility.yul\":107:140   */\n      tag_22\n        /* \"#utility.yul\":134:139   */\n      dup2\n        /* \"#utility.yul\":107:140   */\n      tag_23\n      jump\t// in\n    tag_22:\n        /* \"#utility.yul\":7:146   */\n      swap3\n      swap2\n      pop\n      pop\n      jump\t// out\n        /* \"#utility.yul\":152:481   */\n    tag_15:\n        /* \"#utility.yul\":211:217   */\n      0x00\n        /* \"#utility.yul\":260:262   */\n      0x20\n        /* \"#utility.yul\":248:257   */\n      dup3\n        /* \"#utility.yul\":239:246   */\n      dup5\n        /* \"#utility.yul\":235:258   */\n      sub\n        /* \"#utility.yul\":231:263   */\n      slt\n        /* \"#utility.yul\":228:347   */\n      iszero\n      tag_25\n      jumpi\n        /* \"#utility.yul\":266:345   */\n      tag_26\n      tag_27\n      jump\t// in\n    tag_26:\n        /* \"#utility.yul\":228:347   */\n    tag_25:\n        /* \"#utility.yul\":386:387   */\n      0x00\n        /* \"#utility.yul\":411:464   */\n      tag_28\n        /* \"#utility.yul\":456:463   */\n      dup5\n        /* \"#utility.yul\":447:453   */\n      dup3\n        /* \"#utility.yul\":436:445   */\n      dup6\n        /* \"#utility.yul\":432:454   */\n      add\n        /* \"#utility.yul\":411:464   */\n      tag_20\n      jump\t// in\n    tag_28:\n        /* \"#utility.yul\":401:464   */\n      swap2\n      pop\n        /* \"#utility.yul\":357:474   */\n      pop\n        /* \"#utility.yul\":152:481   */\n      swap3\n      swap2\n      pop\n      pop\n      jump\t// out\n        /* \"#utility.yul\":487:605   */\n    tag_29:\n        /* \"#utility.yul\":574:598   */\n      tag_31\n        /* \"#utility.yul\":592:597   */\n      dup2\n        /* \"#utility.yul\":574:598   */\n      tag_32\n      jump\t// in\n    tag_31:\n        /* \"#utility.yul\":569:572   */\n      dup3\n        /* \"#utility.yul\":562:599   */\n      mstore\n        /* \"#utility.yul\":487:605   */\n      pop\n      pop\n      jump\t// out\n        /* \"#utility.yul\":611:833   */\n    tag_9:\n        /* \"#utility.yul\":704:708   */\n      0x00\n        /* \"#utility.yul\":742:744   */\n      0x20\n        /* \"#utility.yul\":731:740   */\n      dup3\n        /* \"#utility.yul\":727:745   */\n      add\n        /* \"#utility.yul\":719:745   */\n      swap1\n      pop\n        /* \"#utility.yul\":755:826   */\n      tag_34\n        /* \"#utility.yul\":823:824   */\n      0x00\n        /* \"#utility.yul\":812:821   */\n      dup4\n        /* \"#utility.yul\":808:825   */\n      add\n        /* \"#utility.yul\":799:805   */\n      dup5\n        /* \"#utility.yul\":755:826   */\n      tag_29\n      jump\t// in\n    tag_34:\n        /* \"#utility.yul\":611:833   */\n      swap3\n      swap2\n      pop\n      pop\n      jump\t// out\n        /* \"#utility.yul\":920:997   */\n    tag_32:\n        /* \"#utility.yul\":957:964   */\n      0x00\n        /* \"#utility.yul\":986:991   */\n      dup2\n        /* \"#utility.yul\":975:991   */\n      swap1\n      pop\n        /* \"#utility.yul\":920:997   */\n      swap2\n      swap1\n      pop\n      jump\t// out\n        /* \"#utility.yul\":1126:1243   */\n    tag_27:\n        /* \"#utility.yul\":1235:1236   */\n      0x00\n        /* \"#utility.yul\":1232:1233   */\n      dup1\n        /* \"#utility.yul\":1225:1237   */\n      revert\n        /* \"#utility.yul\":1249:1371   */\n    tag_23:\n        /* \"#utility.yul\":1322:1346   */\n      tag_42\n        /* \"#utility.yul\":1340:1345   */\n      dup2\n        /* \"#utility.yul\":1322:1346   */\n      tag_32\n      jump\t// in\n    tag_42:\n        /* \"#utility.yul\":1315:1320   */\n      dup2\n        /* \"#utility.yul\":1312:1347   */\n      eq\n        /* \"#utility.yul\":1302:1365   */\n      tag_43\n      jumpi\n        /* \"#utility.yul\":1361:1362   */\n      0x00\n        /* \"#utility.yul\":1358:1359   */\n      dup1\n        /* \"#utility.yul\":1351:1363   */\n      revert\n        /* \"#utility.yul\":1302:1365   */\n    tag_43:\n        /* \"#utility.yul\":1249:1371   */\n      pop\n      jump\t// out\n\n    auxdata: 0xa264697066735822122017998f4a71f01af7b6532c7c5fdc856247171fa8f806475a7f493b15741094db64736f6c63430008070033\n}\n",
				"bytecode": {
					"linkReferences": {},
					"object": "608060405234801561001057600080fd5b5061017e806100206000396000f3fe608060405234801561001057600080fd5b50600436106100415760003560e01c806312065fe01461004657806352a90c4214610064578063acdda4f514610082575b600080fd5b61004e61009e565b60405161005b9190610107565b60405180910390f35b61006c6100a6565b6040516100799190610107565b60405180910390f35b61009c600480360381019061009791906100cb565b6100ac565b005b600047905090565b60005481565b8060008190555050565b6000813590506100c581610131565b92915050565b6000602082840312156100e1576100e061012c565b5b60006100ef848285016100b6565b91505092915050565b61010181610122565b82525050565b600060208201905061011c60008301846100f8565b92915050565b6000819050919050565b600080fd5b61013a81610122565b811461014557600080fd5b5056fea264697066735822122017998f4a71f01af7b6532c7c5fdc856247171fa8f806475a7f493b15741094db64736f6c63430008070033",
					"opcodes": "PUSH1 0x80 PUSH1 0x40 MSTORE CALLVALUE DUP1 ISZERO PUSH2 0x10 JUMPI PUSH1 0x0 DUP1 REVERT JUMPDEST POP PUSH2 0x17E DUP1 PUSH2 0x20 PUSH1 0x0 CODECOPY PUSH1 0x0 RETURN INVALID PUSH1 0x80 PUSH1 0x40 MSTORE CALLVALUE DUP1 ISZERO PUSH2 0x10 JUMPI PUSH1 0x0 DUP1 REVERT JUMPDEST POP PUSH1 0x4 CALLDATASIZE LT PUSH2 0x41 JUMPI PUSH1 0x0 CALLDATALOAD PUSH1 0xE0 SHR DUP1 PUSH4 0x12065FE0 EQ PUSH2 0x46 JUMPI DUP1 PUSH4 0x52A90C42 EQ PUSH2 0x64 JUMPI DUP1 PUSH4 0xACDDA4F5 EQ PUSH2 0x82 JUMPI JUMPDEST PUSH1 0x0 DUP1 REVERT JUMPDEST PUSH2 0x4E PUSH2 0x9E JUMP JUMPDEST PUSH1 0x40 MLOAD PUSH2 0x5B SWAP2 SWAP1 PUSH2 0x107 JUMP JUMPDEST PUSH1 0x40 MLOAD DUP1 SWAP2 SUB SWAP1 RETURN JUMPDEST PUSH2 0x6C PUSH2 0xA6 JUMP JUMPDEST PUSH1 0x40 MLOAD PUSH2 0x79 SWAP2 SWAP1 PUSH2 0x107 JUMP JUMPDEST PUSH1 0x40 MLOAD DUP1 SWAP2 SUB SWAP1 RETURN JUMPDEST PUSH2 0x9C PUSH1 0x4 DUP1 CALLDATASIZE SUB DUP2 ADD SWAP1 PUSH2 0x97 SWAP2 SWAP1 PUSH2 0xCB JUMP JUMPDEST PUSH2 0xAC JUMP JUMPDEST STOP JUMPDEST PUSH1 0x0 SELFBALANCE SWAP1 POP SWAP1 JUMP JUMPDEST PUSH1 0x0 SLOAD DUP2 JUMP JUMPDEST DUP1 PUSH1 0x0 DUP2 SWAP1 SSTORE POP POP JUMP JUMPDEST PUSH1 0x0 DUP2 CALLDATALOAD SWAP1 POP PUSH2 0xC5 DUP2 PUSH2 0x131 JUMP JUMPDEST SWAP3 SWAP2 POP POP JUMP JUMPDEST PUSH1 0x0 PUSH1 0x20 DUP3 DUP5 SUB SLT ISZERO PUSH2 0xE1 JUMPI PUSH2 0xE0 PUSH2 0x12C JUMP JUMPDEST JUMPDEST PUSH1 0x0 PUSH2 0xEF DUP5 DUP3 DUP6 ADD PUSH2 0xB6 JUMP JUMPDEST SWAP2 POP POP SWAP3 SWAP2 POP POP JUMP JUMPDEST PUSH2 0x101 DUP2 PUSH2 0x122 JUMP JUMPDEST DUP3 MSTORE POP POP JUMP JUMPDEST PUSH1 0x0 PUSH1 0x20 DUP3 ADD SWAP1 POP PUSH2 0x11C PUSH1 0x0 DUP4 ADD DUP5 PUSH2 0xF8 JUMP JUMPDEST SWAP3 SWAP2 POP POP JUMP JUMPDEST PUSH1 0x0 DUP2 SWAP1 POP SWAP2 SWAP1 POP JUMP JUMPDEST PUSH1 0x0 DUP1 REVERT JUMPDEST PUSH2 0x13A DUP2 PUSH2 0x122 JUMP JUMPDEST DUP2 EQ PUSH2 0x145 JUMPI PUSH1 0x0 DUP1 REVERT JUMPDEST POP JUMP INVALID LOG2 PUSH5 0x6970667358 0x22 SLT KECCAK256 OR SWAP10 DUP16 0x4A PUSH18 0xF01AF7B6532C7C5FDC856247171FA8F80647 GAS PUSH32 0x493B15741094DB64736F6C634300080700330000000000000000000000000000 "
				},
				"gasEstimates": {
					"creation": {
						"codeDepositCost": "76400",
						"executionCost": "123",
						"totalCost": "76523"
					},
					"external": {
						"balanceReceived()": "2429",
						"getBalance()": "317",
						"sendmoney(uint256)": "22542"
					}
				},
				"methodIdentifiers": {
					"balanceReceived()": "52a90c42",
					"getBalance()": "12065fe0",
					"sendmoney(uint256)": "acdda4f5"
				}
			},
			"storageLayout": {
				"storage": [
					{
						"astId": 3,
						"contract": "practice.sol:practice",
						"label": "balanceReceived",
						"offset": 0,
						"slot": "0",
						"type": "t_uint256"
					}
				],
				"types": {
					"t_uint256": {
						"encoding": "inplace",
						"label": "uint256",
						"numberOfBytes": "32"
					}
				}
			},
			"userdoc": {
				"kind": "user",
				"methods": {},
				"version": 1
			}
		}
	}
}