{
	"Event.sol": {
		"EventExample": {
			"abi": [
				{
					"inputs": [],
					"stateMutability": "nonpayable",
					"type": "constructor"
				},
				{
					"inputs": [
						{
							"internalType": "address payable",
							"name": "dinesh",
							"type": "address"
						},
						{
							"internalType": "uint256",
							"name": "amount",
							"type": "uint256"
						}
					],
					"name": "sendToken",
					"outputs": [
						{
							"internalType": "bool",
							"name": "",
							"type": "bool"
						}
					],
					"stateMutability": "nonpayable",
					"type": "function"
				},
				{
					"inputs": [
						{
							"internalType": "address",
							"name": "",
							"type": "address"
						}
					],
					"name": "tokenBalance",
					"outputs": [
						{
							"internalType": "uint256",
							"name": "",
							"type": "uint256"
						}
					],
					"stateMutability": "view",
					"type": "function"
				}
			],
			"devdoc": {
				"kind": "dev",
				"methods": {},
				"version": 1
			},
			"evm": {
				"assembly": "    /* \"Event.sol\":34:587  contract EventExample{\r... */\n  mstore(0x40, 0x80)\n    /* \"Event.sol\":114:174  constructor(){\r... */\n  callvalue\n  dup1\n  iszero\n  tag_1\n  jumpi\n  0x00\n  dup1\n  revert\ntag_1:\n  pop\n    /* \"Event.sol\":163:166  100 */\n  0x64\n    /* \"Event.sol\":138:150  tokenBalance */\n  0x00\n    /* \"Event.sol\":138:162  tokenBalance[msg.sender] */\n  dup1\n    /* \"Event.sol\":151:161  msg.sender */\n  caller\n    /* \"Event.sol\":138:162  tokenBalance[msg.sender] */\n  0xffffffffffffffffffffffffffffffffffffffff\n  and\n  0xffffffffffffffffffffffffffffffffffffffff\n  and\n  dup2\n  mstore\n  0x20\n  add\n  swap1\n  dup2\n  mstore\n  0x20\n  add\n  0x00\n  keccak256\n    /* \"Event.sol\":138:166  tokenBalance[msg.sender]=100 */\n  dup2\n  swap1\n  sstore\n  pop\n    /* \"Event.sol\":34:587  contract EventExample{\r... */\n  dataSize(sub_0)\n  dup1\n  dataOffset(sub_0)\n  0x00\n  codecopy\n  0x00\n  return\nstop\n\nsub_0: assembly {\n        /* \"Event.sol\":34:587  contract EventExample{\r... */\n      mstore(0x40, 0x80)\n      callvalue\n      dup1\n      iszero\n      tag_1\n      jumpi\n      0x00\n      dup1\n      revert\n    tag_1:\n      pop\n      jumpi(tag_2, lt(calldatasize, 0x04))\n      shr(0xe0, calldataload(0x00))\n      dup1\n      0x412664ae\n      eq\n      tag_3\n      jumpi\n      dup1\n      0xeedc966a\n      eq\n      tag_4\n      jumpi\n    tag_2:\n      0x00\n      dup1\n      revert\n        /* \"Event.sol\":180:584  function sendToken(address payable dinesh,uint amount) public returns(bool){\r... */\n    tag_3:\n      tag_5\n      0x04\n      dup1\n      calldatasize\n      sub\n      dup2\n      add\n      swap1\n      tag_6\n      swap2\n      swap1\n      tag_7\n      jump\t// in\n    tag_6:\n      tag_8\n      jump\t// in\n    tag_5:\n      mload(0x40)\n      tag_9\n      swap2\n      swap1\n      tag_10\n      jump\t// in\n    tag_9:\n      mload(0x40)\n      dup1\n      swap2\n      sub\n      swap1\n      return\n        /* \"Event.sol\":62:105  mapping (address=>uint) public tokenBalance */\n    tag_4:\n      tag_11\n      0x04\n      dup1\n      calldatasize\n      sub\n      dup2\n      add\n      swap1\n      tag_12\n      swap2\n      swap1\n      tag_13\n      jump\t// in\n    tag_12:\n      tag_14\n      jump\t// in\n    tag_11:\n      mload(0x40)\n      tag_15\n      swap2\n      swap1\n      tag_16\n      jump\t// in\n    tag_15:\n      mload(0x40)\n      dup1\n      swap2\n      sub\n      swap1\n      return\n        /* \"Event.sol\":180:584  function sendToken(address payable dinesh,uint amount) public returns(bool){\r... */\n    tag_8:\n        /* \"Event.sol\":250:254  bool */\n      0x00\n        /* \"Event.sol\":300:306  amount */\n      dup2\n        /* \"Event.sol\":274:286  tokenBalance */\n      0x00\n        /* \"Event.sol\":274:298  tokenBalance[msg.sender] */\n      dup1\n        /* \"Event.sol\":287:297  msg.sender */\n      caller\n        /* \"Event.sol\":274:298  tokenBalance[msg.sender] */\n      0xffffffffffffffffffffffffffffffffffffffff\n      and\n      0xffffffffffffffffffffffffffffffffffffffff\n      and\n      dup2\n      mstore\n      0x20\n      add\n      swap1\n      dup2\n      mstore\n      0x20\n      add\n      0x00\n      keccak256\n      sload\n        /* \"Event.sol\":274:306  tokenBalance[msg.sender]>=amount */\n      lt\n      iszero\n        /* \"Event.sol\":266:328  require(tokenBalance[msg.sender]>=amount,\"Insuffient Balance\") */\n      tag_18\n      jumpi\n      mload(0x40)\n      0x08c379a000000000000000000000000000000000000000000000000000000000\n      dup2\n      mstore\n      0x04\n      add\n      tag_19\n      swap1\n      tag_20\n      jump\t// in\n    tag_19:\n      mload(0x40)\n      dup1\n      swap2\n      sub\n      swap1\n      revert\n    tag_18:\n        /* \"Event.sol\":375:387  tokenBalance */\n      0x00\n        /* \"Event.sol\":375:395  tokenBalance[dinesh] */\n      dup1\n        /* \"Event.sol\":388:394  dinesh */\n      dup5\n        /* \"Event.sol\":375:395  tokenBalance[dinesh] */\n      0xffffffffffffffffffffffffffffffffffffffff\n      and\n      0xffffffffffffffffffffffffffffffffffffffff\n      and\n      dup2\n      mstore\n      0x20\n      add\n      swap1\n      dup2\n      mstore\n      0x20\n      add\n      0x00\n      keccak256\n      sload\n        /* \"Event.sol\":367:373  amount */\n      dup3\n        /* \"Event.sol\":346:358  tokenBalance */\n      0x00\n        /* \"Event.sol\":346:366  tokenBalance[dinesh] */\n      dup1\n        /* \"Event.sol\":359:365  dinesh */\n      dup7\n        /* \"Event.sol\":346:366  tokenBalance[dinesh] */\n      0xffffffffffffffffffffffffffffffffffffffff\n      and\n      0xffffffffffffffffffffffffffffffffffffffff\n      and\n      dup2\n      mstore\n      0x20\n      add\n      swap1\n      dup2\n      mstore\n      0x20\n      add\n      0x00\n      keccak256\n      sload\n        /* \"Event.sol\":346:373  tokenBalance[dinesh]+amount */\n      tag_21\n      swap2\n      swap1\n      tag_22\n      jump\t// in\n    tag_21:\n        /* \"Event.sol\":346:395  tokenBalance[dinesh]+amount>=tokenBalance[dinesh] */\n      lt\n      iszero\n        /* \"Event.sol\":339:396  assert(tokenBalance[dinesh]+amount>=tokenBalance[dinesh]) */\n      tag_23\n      jumpi\n      tag_24\n      tag_25\n      jump\t// in\n    tag_24:\n    tag_23:\n        /* \"Event.sol\":447:459  tokenBalance */\n      0x00\n        /* \"Event.sol\":447:471  tokenBalance[msg.sender] */\n      dup1\n        /* \"Event.sol\":460:470  msg.sender */\n      caller\n        /* \"Event.sol\":447:471  tokenBalance[msg.sender] */\n      0xffffffffffffffffffffffffffffffffffffffff\n      and\n      0xffffffffffffffffffffffffffffffffffffffff\n      and\n      dup2\n      mstore\n      0x20\n      add\n      swap1\n      dup2\n      mstore\n      0x20\n      add\n      0x00\n      keccak256\n      sload\n        /* \"Event.sol\":439:445  amount */\n      dup3\n        /* \"Event.sol\":414:426  tokenBalance */\n      0x00\n        /* \"Event.sol\":414:438  tokenBalance[msg.sender] */\n      dup1\n        /* \"Event.sol\":427:437  msg.sender */\n      caller\n        /* \"Event.sol\":414:438  tokenBalance[msg.sender] */\n      0xffffffffffffffffffffffffffffffffffffffff\n      and\n      0xffffffffffffffffffffffffffffffffffffffff\n      and\n      dup2\n      mstore\n      0x20\n      add\n      swap1\n      dup2\n      mstore\n      0x20\n      add\n      0x00\n      keccak256\n      sload\n        /* \"Event.sol\":414:445  tokenBalance[msg.sender]-amount */\n      tag_26\n      swap2\n      swap1\n      tag_27\n      jump\t// in\n    tag_26:\n        /* \"Event.sol\":414:471  tokenBalance[msg.sender]-amount<=tokenBalance[msg.sender] */\n      gt\n      iszero\n        /* \"Event.sol\":407:472  assert(tokenBalance[msg.sender]-amount<=tokenBalance[msg.sender]) */\n      tag_28\n      jumpi\n      tag_29\n      tag_25\n      jump\t// in\n    tag_29:\n    tag_28:\n        /* \"Event.sol\":509:515  amount */\n      dup2\n        /* \"Event.sol\":483:495  tokenBalance */\n      0x00\n        /* \"Event.sol\":483:507  tokenBalance[msg.sender] */\n      dup1\n        /* \"Event.sol\":496:506  msg.sender */\n      caller\n        /* \"Event.sol\":483:507  tokenBalance[msg.sender] */\n      0xffffffffffffffffffffffffffffffffffffffff\n      and\n      0xffffffffffffffffffffffffffffffffffffffff\n      and\n      dup2\n      mstore\n      0x20\n      add\n      swap1\n      dup2\n      mstore\n      0x20\n      add\n      0x00\n      keccak256\n      0x00\n        /* \"Event.sol\":483:515  tokenBalance[msg.sender]-=amount */\n      dup3\n      dup3\n      sload\n      tag_30\n      swap2\n      swap1\n      tag_27\n      jump\t// in\n    tag_30:\n      swap3\n      pop\n      pop\n      dup2\n      swap1\n      sstore\n      pop\n        /* \"Event.sol\":548:554  amount */\n      dup2\n        /* \"Event.sol\":526:538  tokenBalance */\n      0x00\n        /* \"Event.sol\":526:546  tokenBalance[dinesh] */\n      dup1\n        /* \"Event.sol\":539:545  dinesh */\n      dup6\n        /* \"Event.sol\":526:546  tokenBalance[dinesh] */\n      0xffffffffffffffffffffffffffffffffffffffff\n      and\n      0xffffffffffffffffffffffffffffffffffffffff\n      and\n      dup2\n      mstore\n      0x20\n      add\n      swap1\n      dup2\n      mstore\n      0x20\n      add\n      0x00\n      keccak256\n      0x00\n        /* \"Event.sol\":526:554  tokenBalance[dinesh]+=amount */\n      dup3\n      dup3\n      sload\n      tag_31\n      swap2\n      swap1\n      tag_22\n      jump\t// in\n    tag_31:\n      swap3\n      pop\n      pop\n      dup2\n      swap1\n      sstore\n      pop\n        /* \"Event.sol\":572:576  true */\n      0x01\n        /* \"Event.sol\":565:576  return true */\n      swap1\n      pop\n        /* \"Event.sol\":180:584  function sendToken(address payable dinesh,uint amount) public returns(bool){\r... */\n      swap3\n      swap2\n      pop\n      pop\n      jump\t// out\n        /* \"Event.sol\":62:105  mapping (address=>uint) public tokenBalance */\n    tag_14:\n      mstore(0x20, 0x00)\n      dup1\n      0x00\n      mstore\n      keccak256(0x00, 0x40)\n      0x00\n      swap2\n      pop\n      swap1\n      pop\n      sload\n      dup2\n      jump\t// out\n        /* \"#utility.yul\":7:146   */\n    tag_33:\n        /* \"#utility.yul\":53:58   */\n      0x00\n        /* \"#utility.yul\":91:97   */\n      dup2\n        /* \"#utility.yul\":78:98   */\n      calldataload\n        /* \"#utility.yul\":69:98   */\n      swap1\n      pop\n        /* \"#utility.yul\":107:140   */\n      tag_35\n        /* \"#utility.yul\":134:139   */\n      dup2\n        /* \"#utility.yul\":107:140   */\n      tag_36\n      jump\t// in\n    tag_35:\n        /* \"#utility.yul\":7:146   */\n      swap3\n      swap2\n      pop\n      pop\n      jump\t// out\n        /* \"#utility.yul\":152:307   */\n    tag_37:\n        /* \"#utility.yul\":206:211   */\n      0x00\n        /* \"#utility.yul\":244:250   */\n      dup2\n        /* \"#utility.yul\":231:251   */\n      calldataload\n        /* \"#utility.yul\":222:251   */\n      swap1\n      pop\n        /* \"#utility.yul\":260:301   */\n      tag_39\n        /* \"#utility.yul\":295:300   */\n      dup2\n        /* \"#utility.yul\":260:301   */\n      tag_40\n      jump\t// in\n    tag_39:\n        /* \"#utility.yul\":152:307   */\n      swap3\n      swap2\n      pop\n      pop\n      jump\t// out\n        /* \"#utility.yul\":313:452   */\n    tag_41:\n        /* \"#utility.yul\":359:364   */\n      0x00\n        /* \"#utility.yul\":397:403   */\n      dup2\n        /* \"#utility.yul\":384:404   */\n      calldataload\n        /* \"#utility.yul\":375:404   */\n      swap1\n      pop\n        /* \"#utility.yul\":413:446   */\n      tag_43\n        /* \"#utility.yul\":440:445   */\n      dup2\n        /* \"#utility.yul\":413:446   */\n      tag_44\n      jump\t// in\n    tag_43:\n        /* \"#utility.yul\":313:452   */\n      swap3\n      swap2\n      pop\n      pop\n      jump\t// out\n        /* \"#utility.yul\":458:787   */\n    tag_13:\n        /* \"#utility.yul\":517:523   */\n      0x00\n        /* \"#utility.yul\":566:568   */\n      0x20\n        /* \"#utility.yul\":554:563   */\n      dup3\n        /* \"#utility.yul\":545:552   */\n      dup5\n        /* \"#utility.yul\":541:564   */\n      sub\n        /* \"#utility.yul\":537:569   */\n      slt\n        /* \"#utility.yul\":534:653   */\n      iszero\n      tag_46\n      jumpi\n        /* \"#utility.yul\":572:651   */\n      tag_47\n      tag_48\n      jump\t// in\n    tag_47:\n        /* \"#utility.yul\":534:653   */\n    tag_46:\n        /* \"#utility.yul\":692:693   */\n      0x00\n        /* \"#utility.yul\":717:770   */\n      tag_49\n        /* \"#utility.yul\":762:769   */\n      dup5\n        /* \"#utility.yul\":753:759   */\n      dup3\n        /* \"#utility.yul\":742:751   */\n      dup6\n        /* \"#utility.yul\":738:760   */\n      add\n        /* \"#utility.yul\":717:770   */\n      tag_33\n      jump\t// in\n    tag_49:\n        /* \"#utility.yul\":707:770   */\n      swap2\n      pop\n        /* \"#utility.yul\":663:780   */\n      pop\n        /* \"#utility.yul\":458:787   */\n      swap3\n      swap2\n      pop\n      pop\n      jump\t// out\n        /* \"#utility.yul\":793:1283   */\n    tag_7:\n        /* \"#utility.yul\":869:875   */\n      0x00\n        /* \"#utility.yul\":877:883   */\n      dup1\n        /* \"#utility.yul\":926:928   */\n      0x40\n        /* \"#utility.yul\":914:923   */\n      dup4\n        /* \"#utility.yul\":905:912   */\n      dup6\n        /* \"#utility.yul\":901:924   */\n      sub\n        /* \"#utility.yul\":897:929   */\n      slt\n        /* \"#utility.yul\":894:1013   */\n      iszero\n      tag_51\n      jumpi\n        /* \"#utility.yul\":932:1011   */\n      tag_52\n      tag_48\n      jump\t// in\n    tag_52:\n        /* \"#utility.yul\":894:1013   */\n    tag_51:\n        /* \"#utility.yul\":1052:1053   */\n      0x00\n        /* \"#utility.yul\":1077:1138   */\n      tag_53\n        /* \"#utility.yul\":1130:1137   */\n      dup6\n        /* \"#utility.yul\":1121:1127   */\n      dup3\n        /* \"#utility.yul\":1110:1119   */\n      dup7\n        /* \"#utility.yul\":1106:1128   */\n      add\n        /* \"#utility.yul\":1077:1138   */\n      tag_37\n      jump\t// in\n    tag_53:\n        /* \"#utility.yul\":1067:1138   */\n      swap3\n      pop\n        /* \"#utility.yul\":1023:1148   */\n      pop\n        /* \"#utility.yul\":1187:1189   */\n      0x20\n        /* \"#utility.yul\":1213:1266   */\n      tag_54\n        /* \"#utility.yul\":1258:1265   */\n      dup6\n        /* \"#utility.yul\":1249:1255   */\n      dup3\n        /* \"#utility.yul\":1238:1247   */\n      dup7\n        /* \"#utility.yul\":1234:1256   */\n      add\n        /* \"#utility.yul\":1213:1266   */\n      tag_41\n      jump\t// in\n    tag_54:\n        /* \"#utility.yul\":1203:1266   */\n      swap2\n      pop\n        /* \"#utility.yul\":1158:1276   */\n      pop\n        /* \"#utility.yul\":793:1283   */\n      swap3\n      pop\n      swap3\n      swap1\n      pop\n      jump\t// out\n        /* \"#utility.yul\":1289:1398   */\n    tag_55:\n        /* \"#utility.yul\":1370:1391   */\n      tag_57\n        /* \"#utility.yul\":1385:1390   */\n      dup2\n        /* \"#utility.yul\":1370:1391   */\n      tag_58\n      jump\t// in\n    tag_57:\n        /* \"#utility.yul\":1365:1368   */\n      dup3\n        /* \"#utility.yul\":1358:1392   */\n      mstore\n        /* \"#utility.yul\":1289:1398   */\n      pop\n      pop\n      jump\t// out\n        /* \"#utility.yul\":1404:1770   */\n    tag_59:\n        /* \"#utility.yul\":1546:1549   */\n      0x00\n        /* \"#utility.yul\":1567:1634   */\n      tag_61\n        /* \"#utility.yul\":1631:1633   */\n      0x12\n        /* \"#utility.yul\":1626:1629   */\n      dup4\n        /* \"#utility.yul\":1567:1634   */\n      tag_62\n      jump\t// in\n    tag_61:\n        /* \"#utility.yul\":1560:1634   */\n      swap2\n      pop\n        /* \"#utility.yul\":1643:1736   */\n      tag_63\n        /* \"#utility.yul\":1732:1735   */\n      dup3\n        /* \"#utility.yul\":1643:1736   */\n      tag_64\n      jump\t// in\n    tag_63:\n        /* \"#utility.yul\":1761:1763   */\n      0x20\n        /* \"#utility.yul\":1756:1759   */\n      dup3\n        /* \"#utility.yul\":1752:1764   */\n      add\n        /* \"#utility.yul\":1745:1764   */\n      swap1\n      pop\n        /* \"#utility.yul\":1404:1770   */\n      swap2\n      swap1\n      pop\n      jump\t// out\n        /* \"#utility.yul\":1776:1894   */\n    tag_65:\n        /* \"#utility.yul\":1863:1887   */\n      tag_67\n        /* \"#utility.yul\":1881:1886   */\n      dup2\n        /* \"#utility.yul\":1863:1887   */\n      tag_68\n      jump\t// in\n    tag_67:\n        /* \"#utility.yul\":1858:1861   */\n      dup3\n        /* \"#utility.yul\":1851:1888   */\n      mstore\n        /* \"#utility.yul\":1776:1894   */\n      pop\n      pop\n      jump\t// out\n        /* \"#utility.yul\":1900:2110   */\n    tag_10:\n        /* \"#utility.yul\":1987:1991   */\n      0x00\n        /* \"#utility.yul\":2025:2027   */\n      0x20\n        /* \"#utility.yul\":2014:2023   */\n      dup3\n        /* \"#utility.yul\":2010:2028   */\n      add\n        /* \"#utility.yul\":2002:2028   */\n      swap1\n      pop\n        /* \"#utility.yul\":2038:2103   */\n      tag_70\n        /* \"#utility.yul\":2100:2101   */\n      0x00\n        /* \"#utility.yul\":2089:2098   */\n      dup4\n        /* \"#utility.yul\":2085:2102   */\n      add\n        /* \"#utility.yul\":2076:2082   */\n      dup5\n        /* \"#utility.yul\":2038:2103   */\n      tag_55\n      jump\t// in\n    tag_70:\n        /* \"#utility.yul\":1900:2110   */\n      swap3\n      swap2\n      pop\n      pop\n      jump\t// out\n        /* \"#utility.yul\":2116:2535   */\n    tag_20:\n        /* \"#utility.yul\":2282:2286   */\n      0x00\n        /* \"#utility.yul\":2320:2322   */\n      0x20\n        /* \"#utility.yul\":2309:2318   */\n      dup3\n        /* \"#utility.yul\":2305:2323   */\n      add\n        /* \"#utility.yul\":2297:2323   */\n      swap1\n      pop\n        /* \"#utility.yul\":2369:2378   */\n      dup2\n        /* \"#utility.yul\":2363:2367   */\n      dup2\n        /* \"#utility.yul\":2359:2379   */\n      sub\n        /* \"#utility.yul\":2355:2356   */\n      0x00\n        /* \"#utility.yul\":2344:2353   */\n      dup4\n        /* \"#utility.yul\":2340:2357   */\n      add\n        /* \"#utility.yul\":2333:2380   */\n      mstore\n        /* \"#utility.yul\":2397:2528   */\n      tag_72\n        /* \"#utility.yul\":2523:2527   */\n      dup2\n        /* \"#utility.yul\":2397:2528   */\n      tag_59\n      jump\t// in\n    tag_72:\n        /* \"#utility.yul\":2389:2528   */\n      swap1\n      pop\n        /* \"#utility.yul\":2116:2535   */\n      swap2\n      swap1\n      pop\n      jump\t// out\n        /* \"#utility.yul\":2541:2763   */\n    tag_16:\n        /* \"#utility.yul\":2634:2638   */\n      0x00\n        /* \"#utility.yul\":2672:2674   */\n      0x20\n        /* \"#utility.yul\":2661:2670   */\n      dup3\n        /* \"#utility.yul\":2657:2675   */\n      add\n        /* \"#utility.yul\":2649:2675   */\n      swap1\n      pop\n        /* \"#utility.yul\":2685:2756   */\n      tag_74\n        /* \"#utility.yul\":2753:2754   */\n      0x00\n        /* \"#utility.yul\":2742:2751   */\n      dup4\n        /* \"#utility.yul\":2738:2755   */\n      add\n        /* \"#utility.yul\":2729:2735   */\n      dup5\n        /* \"#utility.yul\":2685:2756   */\n      tag_65\n      jump\t// in\n    tag_74:\n        /* \"#utility.yul\":2541:2763   */\n      swap3\n      swap2\n      pop\n      pop\n      jump\t// out\n        /* \"#utility.yul\":2850:3019   */\n    tag_62:\n        /* \"#utility.yul\":2934:2945   */\n      0x00\n        /* \"#utility.yul\":2968:2974   */\n      dup3\n        /* \"#utility.yul\":2963:2966   */\n      dup3\n        /* \"#utility.yul\":2956:2975   */\n      mstore\n        /* \"#utility.yul\":3008:3012   */\n      0x20\n        /* \"#utility.yul\":3003:3006   */\n      dup3\n        /* \"#utility.yul\":2999:3013   */\n      add\n        /* \"#utility.yul\":2984:3013   */\n      swap1\n      pop\n        /* \"#utility.yul\":2850:3019   */\n      swap3\n      swap2\n      pop\n      pop\n      jump\t// out\n        /* \"#utility.yul\":3025:3330   */\n    tag_22:\n        /* \"#utility.yul\":3065:3068   */\n      0x00\n        /* \"#utility.yul\":3084:3104   */\n      tag_79\n        /* \"#utility.yul\":3102:3103   */\n      dup3\n        /* \"#utility.yul\":3084:3104   */\n      tag_68\n      jump\t// in\n    tag_79:\n        /* \"#utility.yul\":3079:3104   */\n      swap2\n      pop\n        /* \"#utility.yul\":3118:3138   */\n      tag_80\n        /* \"#utility.yul\":3136:3137   */\n      dup4\n        /* \"#utility.yul\":3118:3138   */\n      tag_68\n      jump\t// in\n    tag_80:\n        /* \"#utility.yul\":3113:3138   */\n      swap3\n      pop\n        /* \"#utility.yul\":3272:3273   */\n      dup3\n        /* \"#utility.yul\":3204:3270   */\n      0xffffffffffffffffffffffffffffffffffffffffffffffffffffffffffffffff\n        /* \"#utility.yul\":3200:3274   */\n      sub\n        /* \"#utility.yul\":3197:3198   */\n      dup3\n        /* \"#utility.yul\":3194:3275   */\n      gt\n        /* \"#utility.yul\":3191:3298   */\n      iszero\n      tag_81\n      jumpi\n        /* \"#utility.yul\":3278:3296   */\n      tag_82\n      tag_83\n      jump\t// in\n    tag_82:\n        /* \"#utility.yul\":3191:3298   */\n    tag_81:\n        /* \"#utility.yul\":3322:3323   */\n      dup3\n        /* \"#utility.yul\":3319:3320   */\n      dup3\n        /* \"#utility.yul\":3315:3324   */\n      add\n        /* \"#utility.yul\":3308:3324   */\n      swap1\n      pop\n        /* \"#utility.yul\":3025:3330   */\n      swap3\n      swap2\n      pop\n      pop\n      jump\t// out\n        /* \"#utility.yul\":3336:3527   */\n    tag_27:\n        /* \"#utility.yul\":3376:3380   */\n      0x00\n        /* \"#utility.yul\":3396:3416   */\n      tag_85\n        /* \"#utility.yul\":3414:3415   */\n      dup3\n        /* \"#utility.yul\":3396:3416   */\n      tag_68\n      jump\t// in\n    tag_85:\n        /* \"#utility.yul\":3391:3416   */\n      swap2\n      pop\n        /* \"#utility.yul\":3430:3450   */\n      tag_86\n        /* \"#utility.yul\":3448:3449   */\n      dup4\n        /* \"#utility.yul\":3430:3450   */\n      tag_68\n      jump\t// in\n    tag_86:\n        /* \"#utility.yul\":3425:3450   */\n      swap3\n      pop\n        /* \"#utility.yul\":3469:3470   */\n      dup3\n        /* \"#utility.yul\":3466:3467   */\n      dup3\n        /* \"#utility.yul\":3463:3471   */\n      lt\n        /* \"#utility.yul\":3460:3494   */\n      iszero\n      tag_87\n      jumpi\n        /* \"#utility.yul\":3474:3492   */\n      tag_88\n      tag_83\n      jump\t// in\n    tag_88:\n        /* \"#utility.yul\":3460:3494   */\n    tag_87:\n        /* \"#utility.yul\":3519:3520   */\n      dup3\n        /* \"#utility.yul\":3516:3517   */\n      dup3\n        /* \"#utility.yul\":3512:3521   */\n      sub\n        /* \"#utility.yul\":3504:3521   */\n      swap1\n      pop\n        /* \"#utility.yul\":3336:3527   */\n      swap3\n      swap2\n      pop\n      pop\n      jump\t// out\n        /* \"#utility.yul\":3533:3629   */\n    tag_89:\n        /* \"#utility.yul\":3570:3577   */\n      0x00\n        /* \"#utility.yul\":3599:3623   */\n      tag_91\n        /* \"#utility.yul\":3617:3622   */\n      dup3\n        /* \"#utility.yul\":3599:3623   */\n      tag_92\n      jump\t// in\n    tag_91:\n        /* \"#utility.yul\":3588:3623   */\n      swap1\n      pop\n        /* \"#utility.yul\":3533:3629   */\n      swap2\n      swap1\n      pop\n      jump\t// out\n        /* \"#utility.yul\":3635:3739   */\n    tag_93:\n        /* \"#utility.yul\":3680:3687   */\n      0x00\n        /* \"#utility.yul\":3709:3733   */\n      tag_95\n        /* \"#utility.yul\":3727:3732   */\n      dup3\n        /* \"#utility.yul\":3709:3733   */\n      tag_92\n      jump\t// in\n    tag_95:\n        /* \"#utility.yul\":3698:3733   */\n      swap1\n      pop\n        /* \"#utility.yul\":3635:3739   */\n      swap2\n      swap1\n      pop\n      jump\t// out\n        /* \"#utility.yul\":3745:3835   */\n    tag_58:\n        /* \"#utility.yul\":3779:3786   */\n      0x00\n        /* \"#utility.yul\":3822:3827   */\n      dup2\n        /* \"#utility.yul\":3815:3828   */\n      iszero\n        /* \"#utility.yul\":3808:3829   */\n      iszero\n        /* \"#utility.yul\":3797:3829   */\n      swap1\n      pop\n        /* \"#utility.yul\":3745:3835   */\n      swap2\n      swap1\n      pop\n      jump\t// out\n        /* \"#utility.yul\":3841:3967   */\n    tag_92:\n        /* \"#utility.yul\":3878:3885   */\n      0x00\n        /* \"#utility.yul\":3918:3960   */\n      0xffffffffffffffffffffffffffffffffffffffff\n        /* \"#utility.yul\":3911:3916   */\n      dup3\n        /* \"#utility.yul\":3907:3961   */\n      and\n        /* \"#utility.yul\":3896:3961   */\n      swap1\n      pop\n        /* \"#utility.yul\":3841:3967   */\n      swap2\n      swap1\n      pop\n      jump\t// out\n        /* \"#utility.yul\":3973:4050   */\n    tag_68:\n        /* \"#utility.yul\":4010:4017   */\n      0x00\n        /* \"#utility.yul\":4039:4044   */\n      dup2\n        /* \"#utility.yul\":4028:4044   */\n      swap1\n      pop\n        /* \"#utility.yul\":3973:4050   */\n      swap2\n      swap1\n      pop\n      jump\t// out\n        /* \"#utility.yul\":4056:4236   */\n    tag_25:\n        /* \"#utility.yul\":4104:4181   */\n      0x4e487b7100000000000000000000000000000000000000000000000000000000\n        /* \"#utility.yul\":4101:4102   */\n      0x00\n        /* \"#utility.yul\":4094:4182   */\n      mstore\n        /* \"#utility.yul\":4201:4205   */\n      0x01\n        /* \"#utility.yul\":4198:4199   */\n      0x04\n        /* \"#utility.yul\":4191:4206   */\n      mstore\n        /* \"#utility.yul\":4225:4229   */\n      0x24\n        /* \"#utility.yul\":4222:4223   */\n      0x00\n        /* \"#utility.yul\":4215:4230   */\n      revert\n        /* \"#utility.yul\":4242:4422   */\n    tag_83:\n        /* \"#utility.yul\":4290:4367   */\n      0x4e487b7100000000000000000000000000000000000000000000000000000000\n        /* \"#utility.yul\":4287:4288   */\n      0x00\n        /* \"#utility.yul\":4280:4368   */\n      mstore\n        /* \"#utility.yul\":4387:4391   */\n      0x11\n        /* \"#utility.yul\":4384:4385   */\n      0x04\n        /* \"#utility.yul\":4377:4392   */\n      mstore\n        /* \"#utility.yul\":4411:4415   */\n      0x24\n        /* \"#utility.yul\":4408:4409   */\n      0x00\n        /* \"#utility.yul\":4401:4416   */\n      revert\n        /* \"#utility.yul\":4551:4668   */\n    tag_48:\n        /* \"#utility.yul\":4660:4661   */\n      0x00\n        /* \"#utility.yul\":4657:4658   */\n      dup1\n        /* \"#utility.yul\":4650:4662   */\n      revert\n        /* \"#utility.yul\":4674:4842   */\n    tag_64:\n        /* \"#utility.yul\":4814:4834   */\n      0x496e7375666669656e742042616c616e63650000000000000000000000000000\n        /* \"#utility.yul\":4810:4811   */\n      0x00\n        /* \"#utility.yul\":4802:4808   */\n      dup3\n        /* \"#utility.yul\":4798:4812   */\n      add\n        /* \"#utility.yul\":4791:4835   */\n      mstore\n        /* \"#utility.yul\":4674:4842   */\n      pop\n      jump\t// out\n        /* \"#utility.yul\":4848:4970   */\n    tag_36:\n        /* \"#utility.yul\":4921:4945   */\n      tag_106\n        /* \"#utility.yul\":4939:4944   */\n      dup2\n        /* \"#utility.yul\":4921:4945   */\n      tag_89\n      jump\t// in\n    tag_106:\n        /* \"#utility.yul\":4914:4919   */\n      dup2\n        /* \"#utility.yul\":4911:4946   */\n      eq\n        /* \"#utility.yul\":4901:4964   */\n      tag_107\n      jumpi\n        /* \"#utility.yul\":4960:4961   */\n      0x00\n        /* \"#utility.yul\":4957:4958   */\n      dup1\n        /* \"#utility.yul\":4950:4962   */\n      revert\n        /* \"#utility.yul\":4901:4964   */\n    tag_107:\n        /* \"#utility.yul\":4848:4970   */\n      pop\n      jump\t// out\n        /* \"#utility.yul\":4976:5114   */\n    tag_40:\n        /* \"#utility.yul\":5057:5089   */\n      tag_109\n        /* \"#utility.yul\":5083:5088   */\n      dup2\n        /* \"#utility.yul\":5057:5089   */\n      tag_93\n      jump\t// in\n    tag_109:\n        /* \"#utility.yul\":5050:5055   */\n      dup2\n        /* \"#utility.yul\":5047:5090   */\n      eq\n        /* \"#utility.yul\":5037:5108   */\n      tag_110\n      jumpi\n        /* \"#utility.yul\":5104:5105   */\n      0x00\n        /* \"#utility.yul\":5101:5102   */\n      dup1\n        /* \"#utility.yul\":5094:5106   */\n      revert\n        /* \"#utility.yul\":5037:5108   */\n    tag_110:\n        /* \"#utility.yul\":4976:5114   */\n      pop\n      jump\t// out\n        /* \"#utility.yul\":5120:5242   */\n    tag_44:\n        /* \"#utility.yul\":5193:5217   */\n      tag_112\n        /* \"#utility.yul\":5211:5216   */\n      dup2\n        /* \"#utility.yul\":5193:5217   */\n      tag_68\n      jump\t// in\n    tag_112:\n        /* \"#utility.yul\":5186:5191   */\n      dup2\n        /* \"#utility.yul\":5183:5218   */\n      eq\n        /* \"#utility.yul\":5173:5236   */\n      tag_113\n      jumpi\n        /* \"#utility.yul\":5232:5233   */\n      0x00\n        /* \"#utility.yul\":5229:5230   */\n      dup1\n        /* \"#utility.yul\":5222:5234   */\n      revert\n        /* \"#utility.yul\":5173:5236   */\n    tag_113:\n        /* \"#utility.yul\":5120:5242   */\n      pop\n      jump\t// out\n\n    auxdata: 0xa26469706673582212206dcc7e2648e43cea6f5960f8dd62bf9f2b3450def14a7d016b4668a7ea2ecb9064736f6c63430008070033\n}\n",
				"bytecode": {
					"linkReferences": {},
					"object": "608060405234801561001057600080fd5b5060646000803373ffffffffffffffffffffffffffffffffffffffff1673ffffffffffffffffffffffffffffffffffffffff16815260200190815260200160002081905550610659806100646000396000f3fe608060405234801561001057600080fd5b50600436106100365760003560e01c8063412664ae1461003b578063eedc966a1461006b575b600080fd5b61005560048036038101906100509190610386565b61009b565b6040516100629190610407565b60405180910390f35b61008560048036038101906100809190610359565b610302565b6040516100929190610442565b60405180910390f35b6000816000803373ffffffffffffffffffffffffffffffffffffffff1673ffffffffffffffffffffffffffffffffffffffff16815260200190815260200160002054101561011e576040517f08c379a000000000000000000000000000000000000000000000000000000000815260040161011590610422565b60405180910390fd5b6000808473ffffffffffffffffffffffffffffffffffffffff1673ffffffffffffffffffffffffffffffffffffffff16815260200190815260200160002054826000808673ffffffffffffffffffffffffffffffffffffffff1673ffffffffffffffffffffffffffffffffffffffff168152602001908152602001600020546101a7919061046e565b10156101b6576101b5610552565b5b6000803373ffffffffffffffffffffffffffffffffffffffff1673ffffffffffffffffffffffffffffffffffffffff16815260200190815260200160002054826000803373ffffffffffffffffffffffffffffffffffffffff1673ffffffffffffffffffffffffffffffffffffffff1681526020019081526020016000205461023f91906104c4565b111561024e5761024d610552565b5b816000803373ffffffffffffffffffffffffffffffffffffffff1673ffffffffffffffffffffffffffffffffffffffff168152602001908152602001600020600082825461029c91906104c4565b92505081905550816000808573ffffffffffffffffffffffffffffffffffffffff1673ffffffffffffffffffffffffffffffffffffffff16815260200190815260200160002060008282546102f1919061046e565b925050819055506001905092915050565b60006020528060005260406000206000915090505481565b600081359050610329816105de565b92915050565b60008135905061033e816105f5565b92915050565b6000813590506103538161060c565b92915050565b60006020828403121561036f5761036e6105b0565b5b600061037d8482850161031a565b91505092915050565b6000806040838503121561039d5761039c6105b0565b5b60006103ab8582860161032f565b92505060206103bc85828601610344565b9150509250929050565b6103cf8161051c565b82525050565b60006103e260128361045d565b91506103ed826105b5565b602082019050919050565b61040181610548565b82525050565b600060208201905061041c60008301846103c6565b92915050565b6000602082019050818103600083015261043b816103d5565b9050919050565b600060208201905061045760008301846103f8565b92915050565b600082825260208201905092915050565b600061047982610548565b915061048483610548565b9250827fffffffffffffffffffffffffffffffffffffffffffffffffffffffffffffffff038211156104b9576104b8610581565b5b828201905092915050565b60006104cf82610548565b91506104da83610548565b9250828210156104ed576104ec610581565b5b828203905092915050565b600061050382610528565b9050919050565b600061051582610528565b9050919050565b60008115159050919050565b600073ffffffffffffffffffffffffffffffffffffffff82169050919050565b6000819050919050565b7f4e487b7100000000000000000000000000000000000000000000000000000000600052600160045260246000fd5b7f4e487b7100000000000000000000000000000000000000000000000000000000600052601160045260246000fd5b600080fd5b7f496e7375666669656e742042616c616e63650000000000000000000000000000600082015250565b6105e7816104f8565b81146105f257600080fd5b50565b6105fe8161050a565b811461060957600080fd5b50565b61061581610548565b811461062057600080fd5b5056fea26469706673582212206dcc7e2648e43cea6f5960f8dd62bf9f2b3450def14a7d016b4668a7ea2ecb9064736f6c63430008070033",
					"opcodes": "PUSH1 0x80 PUSH1 0x40 MSTORE CALLVALUE DUP1 ISZERO PUSH2 0x10 JUMPI PUSH1 0x0 DUP1 REVERT JUMPDEST POP PUSH1 0x64 PUSH1 0x0 DUP1 CALLER PUSH20 0xFFFFFFFFFFFFFFFFFFFFFFFFFFFFFFFFFFFFFFFF AND PUSH20 0xFFFFFFFFFFFFFFFFFFFFFFFFFFFFFFFFFFFFFFFF AND DUP2 MSTORE PUSH1 0x20 ADD SWAP1 DUP2 MSTORE PUSH1 0x20 ADD PUSH1 0x0 KECCAK256 DUP2 SWAP1 SSTORE POP PUSH2 0x659 DUP1 PUSH2 0x64 PUSH1 0x0 CODECOPY PUSH1 0x0 RETURN INVALID PUSH1 0x80 PUSH1 0x40 MSTORE CALLVALUE DUP1 ISZERO PUSH2 0x10 JUMPI PUSH1 0x0 DUP1 REVERT JUMPDEST POP PUSH1 0x4 CALLDATASIZE LT PUSH2 0x36 JUMPI PUSH1 0x0 CALLDATALOAD PUSH1 0xE0 SHR DUP1 PUSH4 0x412664AE EQ PUSH2 0x3B JUMPI DUP1 PUSH4 0xEEDC966A EQ PUSH2 0x6B JUMPI JUMPDEST PUSH1 0x0 DUP1 REVERT JUMPDEST PUSH2 0x55 PUSH1 0x4 DUP1 CALLDATASIZE SUB DUP2 ADD SWAP1 PUSH2 0x50 SWAP2 SWAP1 PUSH2 0x386 JUMP JUMPDEST PUSH2 0x9B JUMP JUMPDEST PUSH1 0x40 MLOAD PUSH2 0x62 SWAP2 SWAP1 PUSH2 0x407 JUMP JUMPDEST PUSH1 0x40 MLOAD DUP1 SWAP2 SUB SWAP1 RETURN JUMPDEST PUSH2 0x85 PUSH1 0x4 DUP1 CALLDATASIZE SUB DUP2 ADD SWAP1 PUSH2 0x80 SWAP2 SWAP1 PUSH2 0x359 JUMP JUMPDEST PUSH2 0x302 JUMP JUMPDEST PUSH1 0x40 MLOAD PUSH2 0x92 SWAP2 SWAP1 PUSH2 0x442 JUMP JUMPDEST PUSH1 0x40 MLOAD DUP1 SWAP2 SUB SWAP1 RETURN JUMPDEST PUSH1 0x0 DUP2 PUSH1 0x0 DUP1 CALLER PUSH20 0xFFFFFFFFFFFFFFFFFFFFFFFFFFFFFFFFFFFFFFFF AND PUSH20 0xFFFFFFFFFFFFFFFFFFFFFFFFFFFFFFFFFFFFFFFF AND DUP2 MSTORE PUSH1 0x20 ADD SWAP1 DUP2 MSTORE PUSH1 0x20 ADD PUSH1 0x0 KECCAK256 SLOAD LT ISZERO PUSH2 0x11E JUMPI PUSH1 0x40 MLOAD PUSH32 0x8C379A000000000000000000000000000000000000000000000000000000000 DUP2 MSTORE PUSH1 0x4 ADD PUSH2 0x115 SWAP1 PUSH2 0x422 JUMP JUMPDEST PUSH1 0x40 MLOAD DUP1 SWAP2 SUB SWAP1 REVERT JUMPDEST PUSH1 0x0 DUP1 DUP5 PUSH20 0xFFFFFFFFFFFFFFFFFFFFFFFFFFFFFFFFFFFFFFFF AND PUSH20 0xFFFFFFFFFFFFFFFFFFFFFFFFFFFFFFFFFFFFFFFF AND DUP2 MSTORE PUSH1 0x20 ADD SWAP1 DUP2 MSTORE PUSH1 0x20 ADD PUSH1 0x0 KECCAK256 SLOAD DUP3 PUSH1 0x0 DUP1 DUP7 PUSH20 0xFFFFFFFFFFFFFFFFFFFFFFFFFFFFFFFFFFFFFFFF AND PUSH20 0xFFFFFFFFFFFFFFFFFFFFFFFFFFFFFFFFFFFFFFFF AND DUP2 MSTORE PUSH1 0x20 ADD SWAP1 DUP2 MSTORE PUSH1 0x20 ADD PUSH1 0x0 KECCAK256 SLOAD PUSH2 0x1A7 SWAP2 SWAP1 PUSH2 0x46E JUMP JUMPDEST LT ISZERO PUSH2 0x1B6 JUMPI PUSH2 0x1B5 PUSH2 0x552 JUMP JUMPDEST JUMPDEST PUSH1 0x0 DUP1 CALLER PUSH20 0xFFFFFFFFFFFFFFFFFFFFFFFFFFFFFFFFFFFFFFFF AND PUSH20 0xFFFFFFFFFFFFFFFFFFFFFFFFFFFFFFFFFFFFFFFF AND DUP2 MSTORE PUSH1 0x20 ADD SWAP1 DUP2 MSTORE PUSH1 0x20 ADD PUSH1 0x0 KECCAK256 SLOAD DUP3 PUSH1 0x0 DUP1 CALLER PUSH20 0xFFFFFFFFFFFFFFFFFFFFFFFFFFFFFFFFFFFFFFFF AND PUSH20 0xFFFFFFFFFFFFFFFFFFFFFFFFFFFFFFFFFFFFFFFF AND DUP2 MSTORE PUSH1 0x20 ADD SWAP1 DUP2 MSTORE PUSH1 0x20 ADD PUSH1 0x0 KECCAK256 SLOAD PUSH2 0x23F SWAP2 SWAP1 PUSH2 0x4C4 JUMP JUMPDEST GT ISZERO PUSH2 0x24E JUMPI PUSH2 0x24D PUSH2 0x552 JUMP JUMPDEST JUMPDEST DUP2 PUSH1 0x0 DUP1 CALLER PUSH20 0xFFFFFFFFFFFFFFFFFFFFFFFFFFFFFFFFFFFFFFFF AND PUSH20 0xFFFFFFFFFFFFFFFFFFFFFFFFFFFFFFFFFFFFFFFF AND DUP2 MSTORE PUSH1 0x20 ADD SWAP1 DUP2 MSTORE PUSH1 0x20 ADD PUSH1 0x0 KECCAK256 PUSH1 0x0 DUP3 DUP3 SLOAD PUSH2 0x29C SWAP2 SWAP1 PUSH2 0x4C4 JUMP JUMPDEST SWAP3 POP POP DUP2 SWAP1 SSTORE POP DUP2 PUSH1 0x0 DUP1 DUP6 PUSH20 0xFFFFFFFFFFFFFFFFFFFFFFFFFFFFFFFFFFFFFFFF AND PUSH20 0xFFFFFFFFFFFFFFFFFFFFFFFFFFFFFFFFFFFFFFFF AND DUP2 MSTORE PUSH1 0x20 ADD SWAP1 DUP2 MSTORE PUSH1 0x20 ADD PUSH1 0x0 KECCAK256 PUSH1 0x0 DUP3 DUP3 SLOAD PUSH2 0x2F1 SWAP2 SWAP1 PUSH2 0x46E JUMP JUMPDEST SWAP3 POP POP DUP2 SWAP1 SSTORE POP PUSH1 0x1 SWAP1 POP SWAP3 SWAP2 POP POP JUMP JUMPDEST PUSH1 0x0 PUSH1 0x20 MSTORE DUP1 PUSH1 0x0 MSTORE PUSH1 0x40 PUSH1 0x0 KECCAK256 PUSH1 0x0 SWAP2 POP SWAP1 POP SLOAD DUP2 JUMP JUMPDEST PUSH1 0x0 DUP2 CALLDATALOAD SWAP1 POP PUSH2 0x329 DUP2 PUSH2 0x5DE JUMP JUMPDEST SWAP3 SWAP2 POP POP JUMP JUMPDEST PUSH1 0x0 DUP2 CALLDATALOAD SWAP1 POP PUSH2 0x33E DUP2 PUSH2 0x5F5 JUMP JUMPDEST SWAP3 SWAP2 POP POP JUMP JUMPDEST PUSH1 0x0 DUP2 CALLDATALOAD SWAP1 POP PUSH2 0x353 DUP2 PUSH2 0x60C JUMP JUMPDEST SWAP3 SWAP2 POP POP JUMP JUMPDEST PUSH1 0x0 PUSH1 0x20 DUP3 DUP5 SUB SLT ISZERO PUSH2 0x36F JUMPI PUSH2 0x36E PUSH2 0x5B0 JUMP JUMPDEST JUMPDEST PUSH1 0x0 PUSH2 0x37D DUP5 DUP3 DUP6 ADD PUSH2 0x31A JUMP JUMPDEST SWAP2 POP POP SWAP3 SWAP2 POP POP JUMP JUMPDEST PUSH1 0x0 DUP1 PUSH1 0x40 DUP4 DUP6 SUB SLT ISZERO PUSH2 0x39D JUMPI PUSH2 0x39C PUSH2 0x5B0 JUMP JUMPDEST JUMPDEST PUSH1 0x0 PUSH2 0x3AB DUP6 DUP3 DUP7 ADD PUSH2 0x32F JUMP JUMPDEST SWAP3 POP POP PUSH1 0x20 PUSH2 0x3BC DUP6 DUP3 DUP7 ADD PUSH2 0x344 JUMP JUMPDEST SWAP2 POP POP SWAP3 POP SWAP3 SWAP1 POP JUMP JUMPDEST PUSH2 0x3CF DUP2 PUSH2 0x51C JUMP JUMPDEST DUP3 MSTORE POP POP JUMP JUMPDEST PUSH1 0x0 PUSH2 0x3E2 PUSH1 0x12 DUP4 PUSH2 0x45D JUMP JUMPDEST SWAP2 POP PUSH2 0x3ED DUP3 PUSH2 0x5B5 JUMP JUMPDEST PUSH1 0x20 DUP3 ADD SWAP1 POP SWAP2 SWAP1 POP JUMP JUMPDEST PUSH2 0x401 DUP2 PUSH2 0x548 JUMP JUMPDEST DUP3 MSTORE POP POP JUMP JUMPDEST PUSH1 0x0 PUSH1 0x20 DUP3 ADD SWAP1 POP PUSH2 0x41C PUSH1 0x0 DUP4 ADD DUP5 PUSH2 0x3C6 JUMP JUMPDEST SWAP3 SWAP2 POP POP JUMP JUMPDEST PUSH1 0x0 PUSH1 0x20 DUP3 ADD SWAP1 POP DUP2 DUP2 SUB PUSH1 0x0 DUP4 ADD MSTORE PUSH2 0x43B DUP2 PUSH2 0x3D5 JUMP JUMPDEST SWAP1 POP SWAP2 SWAP1 POP JUMP JUMPDEST PUSH1 0x0 PUSH1 0x20 DUP3 ADD SWAP1 POP PUSH2 0x457 PUSH1 0x0 DUP4 ADD DUP5 PUSH2 0x3F8 JUMP JUMPDEST SWAP3 SWAP2 POP POP JUMP JUMPDEST PUSH1 0x0 DUP3 DUP3 MSTORE PUSH1 0x20 DUP3 ADD SWAP1 POP SWAP3 SWAP2 POP POP JUMP JUMPDEST PUSH1 0x0 PUSH2 0x479 DUP3 PUSH2 0x548 JUMP JUMPDEST SWAP2 POP PUSH2 0x484 DUP4 PUSH2 0x548 JUMP JUMPDEST SWAP3 POP DUP3 PUSH32 0xFFFFFFFFFFFFFFFFFFFFFFFFFFFFFFFFFFFFFFFFFFFFFFFFFFFFFFFFFFFFFFFF SUB DUP3 GT ISZERO PUSH2 0x4B9 JUMPI PUSH2 0x4B8 PUSH2 0x581 JUMP JUMPDEST JUMPDEST DUP3 DUP3 ADD SWAP1 POP SWAP3 SWAP2 POP POP JUMP JUMPDEST PUSH1 0x0 PUSH2 0x4CF DUP3 PUSH2 0x548 JUMP JUMPDEST SWAP2 POP PUSH2 0x4DA DUP4 PUSH2 0x548 JUMP JUMPDEST SWAP3 POP DUP3 DUP3 LT ISZERO PUSH2 0x4ED JUMPI PUSH2 0x4EC PUSH2 0x581 JUMP JUMPDEST JUMPDEST DUP3 DUP3 SUB SWAP1 POP SWAP3 SWAP2 POP POP JUMP JUMPDEST PUSH1 0x0 PUSH2 0x503 DUP3 PUSH2 0x528 JUMP JUMPDEST SWAP1 POP SWAP2 SWAP1 POP JUMP JUMPDEST PUSH1 0x0 PUSH2 0x515 DUP3 PUSH2 0x528 JUMP JUMPDEST SWAP1 POP SWAP2 SWAP1 POP JUMP JUMPDEST PUSH1 0x0 DUP2 ISZERO ISZERO SWAP1 POP SWAP2 SWAP1 POP JUMP JUMPDEST PUSH1 0x0 PUSH20 0xFFFFFFFFFFFFFFFFFFFFFFFFFFFFFFFFFFFFFFFF DUP3 AND SWAP1 POP SWAP2 SWAP1 POP JUMP JUMPDEST PUSH1 0x0 DUP2 SWAP1 POP SWAP2 SWAP1 POP JUMP JUMPDEST PUSH32 0x4E487B7100000000000000000000000000000000000000000000000000000000 PUSH1 0x0 MSTORE PUSH1 0x1 PUSH1 0x4 MSTORE PUSH1 0x24 PUSH1 0x0 REVERT JUMPDEST PUSH32 0x4E487B7100000000000000000000000000000000000000000000000000000000 PUSH1 0x0 MSTORE PUSH1 0x11 PUSH1 0x4 MSTORE PUSH1 0x24 PUSH1 0x0 REVERT JUMPDEST PUSH1 0x0 DUP1 REVERT JUMPDEST PUSH32 0x496E7375666669656E742042616C616E63650000000000000000000000000000 PUSH1 0x0 DUP3 ADD MSTORE POP JUMP JUMPDEST PUSH2 0x5E7 DUP2 PUSH2 0x4F8 JUMP JUMPDEST DUP2 EQ PUSH2 0x5F2 JUMPI PUSH1 0x0 DUP1 REVERT JUMPDEST POP JUMP JUMPDEST PUSH2 0x5FE DUP2 PUSH2 0x50A JUMP JUMPDEST DUP2 EQ PUSH2 0x609 JUMPI PUSH1 0x0 DUP1 REVERT JUMPDEST POP JUMP JUMPDEST PUSH2 0x615 DUP2 PUSH2 0x548 JUMP JUMPDEST DUP2 EQ PUSH2 0x620 JUMPI PUSH1 0x0 DUP1 REVERT JUMPDEST POP JUMP INVALID LOG2 PUSH5 0x6970667358 0x22 SLT KECCAK256 PUSH14 0xCC7E2648E43CEA6F5960F8DD62BF SWAP16 0x2B CALLVALUE POP 0xDE CALL 0x4A PUSH30 0x16B4668A7EA2ECB9064736F6C6343000807003300000000000000000000 "
				},
				"gasEstimates": {
					"creation": {
						"codeDepositCost": "325000",
						"executionCost": "22565",
						"totalCost": "347565"
					},
					"external": {
						"sendToken(address,uint256)": "infinite",
						"tokenBalance(address)": "2814"
					}
				},
				"methodIdentifiers": {
					"sendToken(address,uint256)": "412664ae",
					"tokenBalance(address)": "eedc966a"
				}
			},
			"storageLayout": {
				"storage": [
					{
						"astId": 5,
						"contract": "Event.sol:EventExample",
						"label": "tokenBalance",
						"offset": 0,
						"slot": "0",
						"type": "t_mapping(t_address,t_uint256)"
					}
				],
				"types": {
					"t_address": {
						"encoding": "inplace",
						"label": "address",
						"numberOfBytes": "20"
					},
					"t_mapping(t_address,t_uint256)": {
						"encoding": "mapping",
						"key": "t_address",
						"label": "mapping(address => uint256)",
						"numberOfBytes": "32",
						"value": "t_uint256"
					},
					"t_uint256": {
						"encoding": "inplace",
						"label": "uint256",
						"numberOfBytes": "32"
					}
				}
			},
			"userdoc": {
				"kind": "user",
				"methods": {},
				"version": 1
			}
		}
	}
}