{
	"InheritanceModifier.sol": {
		"InheritanceModifierExample": {
			"abi": [
				{
					"inputs": [],
					"stateMutability": "nonpayable",
					"type": "constructor"
				},
				{
					"inputs": [],
					"name": "burnToken",
					"outputs": [],
					"stateMutability": "nonpayable",
					"type": "function"
				},
				{
					"inputs": [],
					"name": "createToken",
					"outputs": [],
					"stateMutability": "nonpayable",
					"type": "function"
				},
				{
					"inputs": [],
					"name": "purchaseToken",
					"outputs": [],
					"stateMutability": "payable",
					"type": "function"
				},
				{
					"inputs": [
						{
							"internalType": "address payable",
							"name": "dinesh",
							"type": "address"
						},
						{
							"internalType": "uint256",
							"name": "amount",
							"type": "uint256"
						}
					],
					"name": "sendToken",
					"outputs": [],
					"stateMutability": "nonpayable",
					"type": "function"
				},
				{
					"inputs": [
						{
							"internalType": "address",
							"name": "",
							"type": "address"
						}
					],
					"name": "tokenBalance",
					"outputs": [
						{
							"internalType": "uint256",
							"name": "",
							"type": "uint256"
						}
					],
					"stateMutability": "view",
					"type": "function"
				}
			],
			"devdoc": {
				"kind": "dev",
				"methods": {},
				"version": 1
			},
			"evm": {
				"assembly": "    /* \"InheritanceModifier.sol\":34:1108  contract InheritanceModifierExample{\r... */\n  mstore(0x40, 0x80)\n    /* \"InheritanceModifier.sol\":163:170  1 ether */\n  0x0de0b6b3a7640000\n    /* \"InheritanceModifier.sol\":147:170  uint tokenPrize=1 ether */\n  0x02\n  sstore\n    /* \"InheritanceModifier.sol\":177:259  constructor(){\r... */\n  callvalue\n  dup1\n  iszero\n  tag_1\n  jumpi\n  0x00\n  dup1\n  revert\ntag_1:\n  pop\n    /* \"InheritanceModifier.sol\":207:217  msg.sender */\n  caller\n    /* \"InheritanceModifier.sol\":201:206  owner */\n  0x01\n  0x00\n    /* \"InheritanceModifier.sol\":201:217  owner=msg.sender */\n  0x0100\n  exp\n  dup2\n  sload\n  dup2\n  0xffffffffffffffffffffffffffffffffffffffff\n  mul\n  not\n  and\n  swap1\n  dup4\n  0xffffffffffffffffffffffffffffffffffffffff\n  and\n  mul\n  or\n  swap1\n  sstore\n  pop\n    /* \"InheritanceModifier.sol\":248:251  100 */\n  0x64\n    /* \"InheritanceModifier.sol\":228:240  tokenBalance */\n  0x00\n    /* \"InheritanceModifier.sol\":228:247  tokenBalance[owner] */\n  dup1\n    /* \"InheritanceModifier.sol\":241:246  owner */\n  0x01\n  0x00\n  swap1\n  sload\n  swap1\n  0x0100\n  exp\n  swap1\n  div\n  0xffffffffffffffffffffffffffffffffffffffff\n  and\n    /* \"InheritanceModifier.sol\":228:247  tokenBalance[owner] */\n  0xffffffffffffffffffffffffffffffffffffffff\n  and\n  0xffffffffffffffffffffffffffffffffffffffff\n  and\n  dup2\n  mstore\n  0x20\n  add\n  swap1\n  dup2\n  mstore\n  0x20\n  add\n  0x00\n  keccak256\n    /* \"InheritanceModifier.sol\":228:251  tokenBalance[owner]=100 */\n  dup2\n  swap1\n  sstore\n  pop\n    /* \"InheritanceModifier.sol\":34:1108  contract InheritanceModifierExample{\r... */\n  dataSize(sub_0)\n  dup1\n  dataOffset(sub_0)\n  0x00\n  codecopy\n  0x00\n  return\nstop\n\nsub_0: assembly {\n        /* \"InheritanceModifier.sol\":34:1108  contract InheritanceModifierExample{\r... */\n      mstore(0x40, 0x80)\n      jumpi(tag_1, lt(calldatasize, 0x04))\n      shr(0xe0, calldataload(0x00))\n      dup1\n      0x412664ae\n      eq\n      tag_2\n      jumpi\n      dup1\n      0x9cbf9e36\n      eq\n      tag_3\n      jumpi\n      dup1\n      0xa95c4d62\n      eq\n      tag_4\n      jumpi\n      dup1\n      0xeedc966a\n      eq\n      tag_5\n      jumpi\n      dup1\n      0xfaa0a264\n      eq\n      tag_6\n      jumpi\n    tag_1:\n      0x00\n      dup1\n      revert\n        /* \"InheritanceModifier.sol\":759:1105  function sendToken(address payable dinesh,uint amount) public{\r... */\n    tag_2:\n      callvalue\n      dup1\n      iszero\n      tag_7\n      jumpi\n      0x00\n      dup1\n      revert\n    tag_7:\n      pop\n      tag_8\n      0x04\n      dup1\n      calldatasize\n      sub\n      dup2\n      add\n      swap1\n      tag_9\n      swap2\n      swap1\n      tag_10\n      jump\t// in\n    tag_9:\n      tag_11\n      jump\t// in\n    tag_8:\n      stop\n        /* \"InheritanceModifier.sol\":267:397  function createToken() public{\r... */\n    tag_3:\n      callvalue\n      dup1\n      iszero\n      tag_12\n      jumpi\n      0x00\n      dup1\n      revert\n    tag_12:\n      pop\n      tag_13\n      tag_14\n      jump\t// in\n    tag_13:\n      stop\n        /* \"InheritanceModifier.sol\":405:615  function purchaseToken() public payable{\r... */\n    tag_4:\n      tag_15\n      tag_16\n      jump\t// in\n    tag_15:\n      stop\n        /* \"InheritanceModifier.sol\":76:118  mapping(address=>uint) public tokenBalance */\n    tag_5:\n      callvalue\n      dup1\n      iszero\n      tag_17\n      jumpi\n      0x00\n      dup1\n      revert\n    tag_17:\n      pop\n      tag_18\n      0x04\n      dup1\n      calldatasize\n      sub\n      dup2\n      add\n      swap1\n      tag_19\n      swap2\n      swap1\n      tag_20\n      jump\t// in\n    tag_19:\n      tag_21\n      jump\t// in\n    tag_18:\n      mload(0x40)\n      tag_22\n      swap2\n      swap1\n      tag_23\n      jump\t// in\n    tag_22:\n      mload(0x40)\n      dup1\n      swap2\n      sub\n      swap1\n      return\n        /* \"InheritanceModifier.sol\":623:751  function burnToken() public{\r... */\n    tag_6:\n      callvalue\n      dup1\n      iszero\n      tag_24\n      jumpi\n      0x00\n      dup1\n      revert\n    tag_24:\n      pop\n      tag_25\n      tag_26\n      jump\t// in\n    tag_25:\n      stop\n        /* \"InheritanceModifier.sol\":759:1105  function sendToken(address payable dinesh,uint amount) public{\r... */\n    tag_11:\n        /* \"InheritanceModifier.sol\":860:866  amount */\n      dup1\n        /* \"InheritanceModifier.sol\":839:851  tokenBalance */\n      0x00\n        /* \"InheritanceModifier.sol\":839:858  tokenBalance[owner] */\n      dup1\n        /* \"InheritanceModifier.sol\":852:857  owner */\n      0x01\n      0x00\n      swap1\n      sload\n      swap1\n      0x0100\n      exp\n      swap1\n      div\n      0xffffffffffffffffffffffffffffffffffffffff\n      and\n        /* \"InheritanceModifier.sol\":839:858  tokenBalance[owner] */\n      0xffffffffffffffffffffffffffffffffffffffff\n      and\n      0xffffffffffffffffffffffffffffffffffffffff\n      and\n      dup2\n      mstore\n      0x20\n      add\n      swap1\n      dup2\n      mstore\n      0x20\n      add\n      0x00\n      keccak256\n      sload\n        /* \"InheritanceModifier.sol\":839:866  tokenBalance[owner]>=amount */\n      lt\n      iszero\n        /* \"InheritanceModifier.sol\":831:886  require(tokenBalance[owner]>=amount,\"Insuffient token\") */\n      tag_28\n      jumpi\n      mload(0x40)\n      0x08c379a000000000000000000000000000000000000000000000000000000000\n      dup2\n      mstore\n      0x04\n      add\n      tag_29\n      swap1\n      tag_30\n      jump\t// in\n    tag_29:\n      mload(0x40)\n      dup1\n      swap2\n      sub\n      swap1\n      revert\n    tag_28:\n        /* \"InheritanceModifier.sol\":933:945  tokenBalance */\n      0x00\n        /* \"InheritanceModifier.sol\":933:953  tokenBalance[dinesh] */\n      dup1\n        /* \"InheritanceModifier.sol\":946:952  dinesh */\n      dup4\n        /* \"InheritanceModifier.sol\":933:953  tokenBalance[dinesh] */\n      0xffffffffffffffffffffffffffffffffffffffff\n      and\n      0xffffffffffffffffffffffffffffffffffffffff\n      and\n      dup2\n      mstore\n      0x20\n      add\n      swap1\n      dup2\n      mstore\n      0x20\n      add\n      0x00\n      keccak256\n      sload\n        /* \"InheritanceModifier.sol\":925:931  amount */\n      dup2\n        /* \"InheritanceModifier.sol\":904:916  tokenBalance */\n      0x00\n        /* \"InheritanceModifier.sol\":904:924  tokenBalance[dinesh] */\n      dup1\n        /* \"InheritanceModifier.sol\":917:923  dinesh */\n      dup6\n        /* \"InheritanceModifier.sol\":904:924  tokenBalance[dinesh] */\n      0xffffffffffffffffffffffffffffffffffffffff\n      and\n      0xffffffffffffffffffffffffffffffffffffffff\n      and\n      dup2\n      mstore\n      0x20\n      add\n      swap1\n      dup2\n      mstore\n      0x20\n      add\n      0x00\n      keccak256\n      sload\n        /* \"InheritanceModifier.sol\":904:931  tokenBalance[dinesh]+amount */\n      tag_31\n      swap2\n      swap1\n      tag_32\n      jump\t// in\n    tag_31:\n        /* \"InheritanceModifier.sol\":904:953  tokenBalance[dinesh]+amount>=tokenBalance[dinesh] */\n      lt\n      iszero\n        /* \"InheritanceModifier.sol\":897:954  assert(tokenBalance[dinesh]+amount>=tokenBalance[dinesh]) */\n      tag_33\n      jumpi\n      tag_34\n      tag_35\n      jump\t// in\n    tag_34:\n    tag_33:\n        /* \"InheritanceModifier.sol\":1000:1012  tokenBalance */\n      0x00\n        /* \"InheritanceModifier.sol\":1000:1019  tokenBalance[owner] */\n      dup1\n        /* \"InheritanceModifier.sol\":1013:1018  owner */\n      0x01\n      0x00\n      swap1\n      sload\n      swap1\n      0x0100\n      exp\n      swap1\n      div\n      0xffffffffffffffffffffffffffffffffffffffff\n      and\n        /* \"InheritanceModifier.sol\":1000:1019  tokenBalance[owner] */\n      0xffffffffffffffffffffffffffffffffffffffff\n      and\n      0xffffffffffffffffffffffffffffffffffffffff\n      and\n      dup2\n      mstore\n      0x20\n      add\n      swap1\n      dup2\n      mstore\n      0x20\n      add\n      0x00\n      keccak256\n      sload\n        /* \"InheritanceModifier.sol\":992:998  amount */\n      dup2\n        /* \"InheritanceModifier.sol\":972:984  tokenBalance */\n      0x00\n        /* \"InheritanceModifier.sol\":972:991  tokenBalance[owner] */\n      dup1\n        /* \"InheritanceModifier.sol\":985:990  owner */\n      0x01\n      0x00\n      swap1\n      sload\n      swap1\n      0x0100\n      exp\n      swap1\n      div\n      0xffffffffffffffffffffffffffffffffffffffff\n      and\n        /* \"InheritanceModifier.sol\":972:991  tokenBalance[owner] */\n      0xffffffffffffffffffffffffffffffffffffffff\n      and\n      0xffffffffffffffffffffffffffffffffffffffff\n      and\n      dup2\n      mstore\n      0x20\n      add\n      swap1\n      dup2\n      mstore\n      0x20\n      add\n      0x00\n      keccak256\n      sload\n        /* \"InheritanceModifier.sol\":972:998  tokenBalance[owner]-amount */\n      tag_36\n      swap2\n      swap1\n      tag_37\n      jump\t// in\n    tag_36:\n        /* \"InheritanceModifier.sol\":972:1019  tokenBalance[owner]-amount<=tokenBalance[owner] */\n      gt\n      iszero\n        /* \"InheritanceModifier.sol\":965:1020  assert(tokenBalance[owner]-amount<=tokenBalance[owner]) */\n      tag_38\n      jumpi\n      tag_39\n      tag_35\n      jump\t// in\n    tag_39:\n    tag_38:\n        /* \"InheritanceModifier.sol\":1052:1058  amount */\n      dup1\n        /* \"InheritanceModifier.sol\":1031:1043  tokenBalance */\n      0x00\n        /* \"InheritanceModifier.sol\":1031:1050  tokenBalance[owner] */\n      dup1\n        /* \"InheritanceModifier.sol\":1044:1049  owner */\n      0x01\n      0x00\n      swap1\n      sload\n      swap1\n      0x0100\n      exp\n      swap1\n      div\n      0xffffffffffffffffffffffffffffffffffffffff\n      and\n        /* \"InheritanceModifier.sol\":1031:1050  tokenBalance[owner] */\n      0xffffffffffffffffffffffffffffffffffffffff\n      and\n      0xffffffffffffffffffffffffffffffffffffffff\n      and\n      dup2\n      mstore\n      0x20\n      add\n      swap1\n      dup2\n      mstore\n      0x20\n      add\n      0x00\n      keccak256\n      0x00\n        /* \"InheritanceModifier.sol\":1031:1058  tokenBalance[owner]-=amount */\n      dup3\n      dup3\n      sload\n      tag_40\n      swap2\n      swap1\n      tag_37\n      jump\t// in\n    tag_40:\n      swap3\n      pop\n      pop\n      dup2\n      swap1\n      sstore\n      pop\n        /* \"InheritanceModifier.sol\":1091:1097  amount */\n      dup1\n        /* \"InheritanceModifier.sol\":1069:1081  tokenBalance */\n      0x00\n        /* \"InheritanceModifier.sol\":1069:1089  tokenBalance[dinesh] */\n      dup1\n        /* \"InheritanceModifier.sol\":1082:1088  dinesh */\n      dup5\n        /* \"InheritanceModifier.sol\":1069:1089  tokenBalance[dinesh] */\n      0xffffffffffffffffffffffffffffffffffffffff\n      and\n      0xffffffffffffffffffffffffffffffffffffffff\n      and\n      dup2\n      mstore\n      0x20\n      add\n      swap1\n      dup2\n      mstore\n      0x20\n      add\n      0x00\n      keccak256\n      0x00\n        /* \"InheritanceModifier.sol\":1069:1097  tokenBalance[dinesh]+=amount */\n      dup3\n      dup3\n      sload\n      tag_41\n      swap2\n      swap1\n      tag_32\n      jump\t// in\n    tag_41:\n      swap3\n      pop\n      pop\n      dup2\n      swap1\n      sstore\n      pop\n        /* \"InheritanceModifier.sol\":759:1105  function sendToken(address payable dinesh,uint amount) public{\r... */\n      pop\n      pop\n      jump\t// out\n        /* \"InheritanceModifier.sol\":267:397  function createToken() public{\r... */\n    tag_14:\n        /* \"InheritanceModifier.sol\":327:332  owner */\n      0x01\n      0x00\n      swap1\n      sload\n      swap1\n      0x0100\n      exp\n      swap1\n      div\n      0xffffffffffffffffffffffffffffffffffffffff\n      and\n        /* \"InheritanceModifier.sol\":315:332  msg.sender==owner */\n      0xffffffffffffffffffffffffffffffffffffffff\n      and\n        /* \"InheritanceModifier.sol\":315:325  msg.sender */\n      caller\n        /* \"InheritanceModifier.sol\":315:332  msg.sender==owner */\n      0xffffffffffffffffffffffffffffffffffffffff\n      and\n      eq\n        /* \"InheritanceModifier.sol\":307:357  require(msg.sender==owner,\"You are not the owner\") */\n      tag_43\n      jumpi\n      mload(0x40)\n      0x08c379a000000000000000000000000000000000000000000000000000000000\n      dup2\n      mstore\n      0x04\n      add\n      tag_44\n      swap1\n      tag_45\n      jump\t// in\n    tag_44:\n      mload(0x40)\n      dup1\n      swap2\n      sub\n      swap1\n      revert\n    tag_43:\n        /* \"InheritanceModifier.sol\":368:380  tokenBalance */\n      0x00\n        /* \"InheritanceModifier.sol\":368:387  tokenBalance[owner] */\n      dup1\n        /* \"InheritanceModifier.sol\":381:386  owner */\n      0x01\n      0x00\n      swap1\n      sload\n      swap1\n      0x0100\n      exp\n      swap1\n      div\n      0xffffffffffffffffffffffffffffffffffffffff\n      and\n        /* \"InheritanceModifier.sol\":368:387  tokenBalance[owner] */\n      0xffffffffffffffffffffffffffffffffffffffff\n      and\n      0xffffffffffffffffffffffffffffffffffffffff\n      and\n      dup2\n      mstore\n      0x20\n      add\n      swap1\n      dup2\n      mstore\n      0x20\n      add\n      0x00\n      keccak256\n      0x00\n        /* \"InheritanceModifier.sol\":368:389  tokenBalance[owner]++ */\n      dup2\n      sload\n      dup1\n      swap3\n      swap2\n      swap1\n      tag_46\n      swap1\n      tag_47\n      jump\t// in\n    tag_46:\n      swap2\n      swap1\n      pop\n      sstore\n      pop\n        /* \"InheritanceModifier.sol\":267:397  function createToken() public{\r... */\n      jump\t// out\n        /* \"InheritanceModifier.sol\":405:615  function purchaseToken() public payable{\r... */\n    tag_16:\n        /* \"InheritanceModifier.sol\":483:484  0 */\n      0x00\n        /* \"InheritanceModifier.sol\":463:475  tokenBalance */\n      dup1\n        /* \"InheritanceModifier.sol\":463:482  tokenBalance[owner] */\n      0x00\n        /* \"InheritanceModifier.sol\":476:481  owner */\n      0x01\n      0x00\n      swap1\n      sload\n      swap1\n      0x0100\n      exp\n      swap1\n      div\n      0xffffffffffffffffffffffffffffffffffffffff\n      and\n        /* \"InheritanceModifier.sol\":463:482  tokenBalance[owner] */\n      0xffffffffffffffffffffffffffffffffffffffff\n      and\n      0xffffffffffffffffffffffffffffffffffffffff\n      and\n      dup2\n      mstore\n      0x20\n      add\n      swap1\n      dup2\n      mstore\n      0x20\n      add\n      0x00\n      keccak256\n      sload\n        /* \"InheritanceModifier.sol\":463:484  tokenBalance[owner]>0 */\n      gt\n        /* \"InheritanceModifier.sol\":455:503  require(tokenBalance[owner]>0,\"Notenough token\") */\n      tag_49\n      jumpi\n      mload(0x40)\n      0x08c379a000000000000000000000000000000000000000000000000000000000\n      dup2\n      mstore\n      0x04\n      add\n      tag_50\n      swap1\n      tag_51\n      jump\t// in\n    tag_50:\n      mload(0x40)\n      dup1\n      swap2\n      sub\n      swap1\n      revert\n    tag_49:\n        /* \"InheritanceModifier.sol\":545:555  tokenPrize */\n      sload(0x02)\n        /* \"InheritanceModifier.sol\":535:544  msg.value */\n      callvalue\n        /* \"InheritanceModifier.sol\":535:555  msg.value/tokenPrize */\n      tag_52\n      swap2\n      swap1\n      tag_53\n      jump\t// in\n    tag_52:\n        /* \"InheritanceModifier.sol\":514:526  tokenBalance */\n      0x00\n        /* \"InheritanceModifier.sol\":514:533  tokenBalance[owner] */\n      dup1\n        /* \"InheritanceModifier.sol\":527:532  owner */\n      0x01\n      0x00\n      swap1\n      sload\n      swap1\n      0x0100\n      exp\n      swap1\n      div\n      0xffffffffffffffffffffffffffffffffffffffff\n      and\n        /* \"InheritanceModifier.sol\":514:533  tokenBalance[owner] */\n      0xffffffffffffffffffffffffffffffffffffffff\n      and\n      0xffffffffffffffffffffffffffffffffffffffff\n      and\n      dup2\n      mstore\n      0x20\n      add\n      swap1\n      dup2\n      mstore\n      0x20\n      add\n      0x00\n      keccak256\n      0x00\n        /* \"InheritanceModifier.sol\":514:555  tokenBalance[owner]-=msg.value/tokenPrize */\n      dup3\n      dup3\n      sload\n      tag_54\n      swap2\n      swap1\n      tag_37\n      jump\t// in\n    tag_54:\n      swap3\n      pop\n      pop\n      dup2\n      swap1\n      sstore\n      pop\n        /* \"InheritanceModifier.sol\":597:607  tokenPrize */\n      sload(0x02)\n        /* \"InheritanceModifier.sol\":587:596  msg.value */\n      callvalue\n        /* \"InheritanceModifier.sol\":587:607  msg.value/tokenPrize */\n      tag_55\n      swap2\n      swap1\n      tag_53\n      jump\t// in\n    tag_55:\n        /* \"InheritanceModifier.sol\":566:578  tokenBalance */\n      0x00\n        /* \"InheritanceModifier.sol\":566:585  tokenBalance[owner] */\n      dup1\n        /* \"InheritanceModifier.sol\":579:584  owner */\n      0x01\n      0x00\n      swap1\n      sload\n      swap1\n      0x0100\n      exp\n      swap1\n      div\n      0xffffffffffffffffffffffffffffffffffffffff\n      and\n        /* \"InheritanceModifier.sol\":566:585  tokenBalance[owner] */\n      0xffffffffffffffffffffffffffffffffffffffff\n      and\n      0xffffffffffffffffffffffffffffffffffffffff\n      and\n      dup2\n      mstore\n      0x20\n      add\n      swap1\n      dup2\n      mstore\n      0x20\n      add\n      0x00\n      keccak256\n      0x00\n        /* \"InheritanceModifier.sol\":566:607  tokenBalance[owner]+=msg.value/tokenPrize */\n      dup3\n      dup3\n      sload\n      tag_56\n      swap2\n      swap1\n      tag_32\n      jump\t// in\n    tag_56:\n      swap3\n      pop\n      pop\n      dup2\n      swap1\n      sstore\n      pop\n        /* \"InheritanceModifier.sol\":405:615  function purchaseToken() public payable{\r... */\n      jump\t// out\n        /* \"InheritanceModifier.sol\":76:118  mapping(address=>uint) public tokenBalance */\n    tag_21:\n      mstore(0x20, 0x00)\n      dup1\n      0x00\n      mstore\n      keccak256(0x00, 0x40)\n      0x00\n      swap2\n      pop\n      swap1\n      pop\n      sload\n      dup2\n      jump\t// out\n        /* \"InheritanceModifier.sol\":623:751  function burnToken() public{\r... */\n    tag_26:\n        /* \"InheritanceModifier.sol\":681:686  owner */\n      0x01\n      0x00\n      swap1\n      sload\n      swap1\n      0x0100\n      exp\n      swap1\n      div\n      0xffffffffffffffffffffffffffffffffffffffff\n      and\n        /* \"InheritanceModifier.sol\":669:686  msg.sender==owner */\n      0xffffffffffffffffffffffffffffffffffffffff\n      and\n        /* \"InheritanceModifier.sol\":669:679  msg.sender */\n      caller\n        /* \"InheritanceModifier.sol\":669:686  msg.sender==owner */\n      0xffffffffffffffffffffffffffffffffffffffff\n      and\n      eq\n        /* \"InheritanceModifier.sol\":661:711  require(msg.sender==owner,\"You are not the owner\") */\n      tag_58\n      jumpi\n      mload(0x40)\n      0x08c379a000000000000000000000000000000000000000000000000000000000\n      dup2\n      mstore\n      0x04\n      add\n      tag_59\n      swap1\n      tag_45\n      jump\t// in\n    tag_59:\n      mload(0x40)\n      dup1\n      swap2\n      sub\n      swap1\n      revert\n    tag_58:\n        /* \"InheritanceModifier.sol\":722:734  tokenBalance */\n      0x00\n        /* \"InheritanceModifier.sol\":722:741  tokenBalance[owner] */\n      dup1\n        /* \"InheritanceModifier.sol\":735:740  owner */\n      0x01\n      0x00\n      swap1\n      sload\n      swap1\n      0x0100\n      exp\n      swap1\n      div\n      0xffffffffffffffffffffffffffffffffffffffff\n      and\n        /* \"InheritanceModifier.sol\":722:741  tokenBalance[owner] */\n      0xffffffffffffffffffffffffffffffffffffffff\n      and\n      0xffffffffffffffffffffffffffffffffffffffff\n      and\n      dup2\n      mstore\n      0x20\n      add\n      swap1\n      dup2\n      mstore\n      0x20\n      add\n      0x00\n      keccak256\n      0x00\n        /* \"InheritanceModifier.sol\":722:743  tokenBalance[owner]-- */\n      dup2\n      sload\n      dup1\n      swap3\n      swap2\n      swap1\n      tag_60\n      swap1\n      tag_61\n      jump\t// in\n    tag_60:\n      swap2\n      swap1\n      pop\n      sstore\n      pop\n        /* \"InheritanceModifier.sol\":623:751  function burnToken() public{\r... */\n      jump\t// out\n        /* \"#utility.yul\":7:146   */\n    tag_63:\n        /* \"#utility.yul\":53:58   */\n      0x00\n        /* \"#utility.yul\":91:97   */\n      dup2\n        /* \"#utility.yul\":78:98   */\n      calldataload\n        /* \"#utility.yul\":69:98   */\n      swap1\n      pop\n        /* \"#utility.yul\":107:140   */\n      tag_65\n        /* \"#utility.yul\":134:139   */\n      dup2\n        /* \"#utility.yul\":107:140   */\n      tag_66\n      jump\t// in\n    tag_65:\n        /* \"#utility.yul\":7:146   */\n      swap3\n      swap2\n      pop\n      pop\n      jump\t// out\n        /* \"#utility.yul\":152:307   */\n    tag_67:\n        /* \"#utility.yul\":206:211   */\n      0x00\n        /* \"#utility.yul\":244:250   */\n      dup2\n        /* \"#utility.yul\":231:251   */\n      calldataload\n        /* \"#utility.yul\":222:251   */\n      swap1\n      pop\n        /* \"#utility.yul\":260:301   */\n      tag_69\n        /* \"#utility.yul\":295:300   */\n      dup2\n        /* \"#utility.yul\":260:301   */\n      tag_70\n      jump\t// in\n    tag_69:\n        /* \"#utility.yul\":152:307   */\n      swap3\n      swap2\n      pop\n      pop\n      jump\t// out\n        /* \"#utility.yul\":313:452   */\n    tag_71:\n        /* \"#utility.yul\":359:364   */\n      0x00\n        /* \"#utility.yul\":397:403   */\n      dup2\n        /* \"#utility.yul\":384:404   */\n      calldataload\n        /* \"#utility.yul\":375:404   */\n      swap1\n      pop\n        /* \"#utility.yul\":413:446   */\n      tag_73\n        /* \"#utility.yul\":440:445   */\n      dup2\n        /* \"#utility.yul\":413:446   */\n      tag_74\n      jump\t// in\n    tag_73:\n        /* \"#utility.yul\":313:452   */\n      swap3\n      swap2\n      pop\n      pop\n      jump\t// out\n        /* \"#utility.yul\":458:787   */\n    tag_20:\n        /* \"#utility.yul\":517:523   */\n      0x00\n        /* \"#utility.yul\":566:568   */\n      0x20\n        /* \"#utility.yul\":554:563   */\n      dup3\n        /* \"#utility.yul\":545:552   */\n      dup5\n        /* \"#utility.yul\":541:564   */\n      sub\n        /* \"#utility.yul\":537:569   */\n      slt\n        /* \"#utility.yul\":534:653   */\n      iszero\n      tag_76\n      jumpi\n        /* \"#utility.yul\":572:651   */\n      tag_77\n      tag_78\n      jump\t// in\n    tag_77:\n        /* \"#utility.yul\":534:653   */\n    tag_76:\n        /* \"#utility.yul\":692:693   */\n      0x00\n        /* \"#utility.yul\":717:770   */\n      tag_79\n        /* \"#utility.yul\":762:769   */\n      dup5\n        /* \"#utility.yul\":753:759   */\n      dup3\n        /* \"#utility.yul\":742:751   */\n      dup6\n        /* \"#utility.yul\":738:760   */\n      add\n        /* \"#utility.yul\":717:770   */\n      tag_63\n      jump\t// in\n    tag_79:\n        /* \"#utility.yul\":707:770   */\n      swap2\n      pop\n        /* \"#utility.yul\":663:780   */\n      pop\n        /* \"#utility.yul\":458:787   */\n      swap3\n      swap2\n      pop\n      pop\n      jump\t// out\n        /* \"#utility.yul\":793:1283   */\n    tag_10:\n        /* \"#utility.yul\":869:875   */\n      0x00\n        /* \"#utility.yul\":877:883   */\n      dup1\n        /* \"#utility.yul\":926:928   */\n      0x40\n        /* \"#utility.yul\":914:923   */\n      dup4\n        /* \"#utility.yul\":905:912   */\n      dup6\n        /* \"#utility.yul\":901:924   */\n      sub\n        /* \"#utility.yul\":897:929   */\n      slt\n        /* \"#utility.yul\":894:1013   */\n      iszero\n      tag_81\n      jumpi\n        /* \"#utility.yul\":932:1011   */\n      tag_82\n      tag_78\n      jump\t// in\n    tag_82:\n        /* \"#utility.yul\":894:1013   */\n    tag_81:\n        /* \"#utility.yul\":1052:1053   */\n      0x00\n        /* \"#utility.yul\":1077:1138   */\n      tag_83\n        /* \"#utility.yul\":1130:1137   */\n      dup6\n        /* \"#utility.yul\":1121:1127   */\n      dup3\n        /* \"#utility.yul\":1110:1119   */\n      dup7\n        /* \"#utility.yul\":1106:1128   */\n      add\n        /* \"#utility.yul\":1077:1138   */\n      tag_67\n      jump\t// in\n    tag_83:\n        /* \"#utility.yul\":1067:1138   */\n      swap3\n      pop\n        /* \"#utility.yul\":1023:1148   */\n      pop\n        /* \"#utility.yul\":1187:1189   */\n      0x20\n        /* \"#utility.yul\":1213:1266   */\n      tag_84\n        /* \"#utility.yul\":1258:1265   */\n      dup6\n        /* \"#utility.yul\":1249:1255   */\n      dup3\n        /* \"#utility.yul\":1238:1247   */\n      dup7\n        /* \"#utility.yul\":1234:1256   */\n      add\n        /* \"#utility.yul\":1213:1266   */\n      tag_71\n      jump\t// in\n    tag_84:\n        /* \"#utility.yul\":1203:1266   */\n      swap2\n      pop\n        /* \"#utility.yul\":1158:1276   */\n      pop\n        /* \"#utility.yul\":793:1283   */\n      swap3\n      pop\n      swap3\n      swap1\n      pop\n      jump\t// out\n        /* \"#utility.yul\":1289:1655   */\n    tag_85:\n        /* \"#utility.yul\":1431:1434   */\n      0x00\n        /* \"#utility.yul\":1452:1519   */\n      tag_87\n        /* \"#utility.yul\":1516:1518   */\n      0x0f\n        /* \"#utility.yul\":1511:1514   */\n      dup4\n        /* \"#utility.yul\":1452:1519   */\n      tag_88\n      jump\t// in\n    tag_87:\n        /* \"#utility.yul\":1445:1519   */\n      swap2\n      pop\n        /* \"#utility.yul\":1528:1621   */\n      tag_89\n        /* \"#utility.yul\":1617:1620   */\n      dup3\n        /* \"#utility.yul\":1528:1621   */\n      tag_90\n      jump\t// in\n    tag_89:\n        /* \"#utility.yul\":1646:1648   */\n      0x20\n        /* \"#utility.yul\":1641:1644   */\n      dup3\n        /* \"#utility.yul\":1637:1649   */\n      add\n        /* \"#utility.yul\":1630:1649   */\n      swap1\n      pop\n        /* \"#utility.yul\":1289:1655   */\n      swap2\n      swap1\n      pop\n      jump\t// out\n        /* \"#utility.yul\":1661:2027   */\n    tag_91:\n        /* \"#utility.yul\":1803:1806   */\n      0x00\n        /* \"#utility.yul\":1824:1891   */\n      tag_93\n        /* \"#utility.yul\":1888:1890   */\n      0x10\n        /* \"#utility.yul\":1883:1886   */\n      dup4\n        /* \"#utility.yul\":1824:1891   */\n      tag_88\n      jump\t// in\n    tag_93:\n        /* \"#utility.yul\":1817:1891   */\n      swap2\n      pop\n        /* \"#utility.yul\":1900:1993   */\n      tag_94\n        /* \"#utility.yul\":1989:1992   */\n      dup3\n        /* \"#utility.yul\":1900:1993   */\n      tag_95\n      jump\t// in\n    tag_94:\n        /* \"#utility.yul\":2018:2020   */\n      0x20\n        /* \"#utility.yul\":2013:2016   */\n      dup3\n        /* \"#utility.yul\":2009:2021   */\n      add\n        /* \"#utility.yul\":2002:2021   */\n      swap1\n      pop\n        /* \"#utility.yul\":1661:2027   */\n      swap2\n      swap1\n      pop\n      jump\t// out\n        /* \"#utility.yul\":2033:2399   */\n    tag_96:\n        /* \"#utility.yul\":2175:2178   */\n      0x00\n        /* \"#utility.yul\":2196:2263   */\n      tag_98\n        /* \"#utility.yul\":2260:2262   */\n      0x15\n        /* \"#utility.yul\":2255:2258   */\n      dup4\n        /* \"#utility.yul\":2196:2263   */\n      tag_88\n      jump\t// in\n    tag_98:\n        /* \"#utility.yul\":2189:2263   */\n      swap2\n      pop\n        /* \"#utility.yul\":2272:2365   */\n      tag_99\n        /* \"#utility.yul\":2361:2364   */\n      dup3\n        /* \"#utility.yul\":2272:2365   */\n      tag_100\n      jump\t// in\n    tag_99:\n        /* \"#utility.yul\":2390:2392   */\n      0x20\n        /* \"#utility.yul\":2385:2388   */\n      dup3\n        /* \"#utility.yul\":2381:2393   */\n      add\n        /* \"#utility.yul\":2374:2393   */\n      swap1\n      pop\n        /* \"#utility.yul\":2033:2399   */\n      swap2\n      swap1\n      pop\n      jump\t// out\n        /* \"#utility.yul\":2405:2523   */\n    tag_101:\n        /* \"#utility.yul\":2492:2516   */\n      tag_103\n        /* \"#utility.yul\":2510:2515   */\n      dup2\n        /* \"#utility.yul\":2492:2516   */\n      tag_104\n      jump\t// in\n    tag_103:\n        /* \"#utility.yul\":2487:2490   */\n      dup3\n        /* \"#utility.yul\":2480:2517   */\n      mstore\n        /* \"#utility.yul\":2405:2523   */\n      pop\n      pop\n      jump\t// out\n        /* \"#utility.yul\":2529:2948   */\n    tag_51:\n        /* \"#utility.yul\":2695:2699   */\n      0x00\n        /* \"#utility.yul\":2733:2735   */\n      0x20\n        /* \"#utility.yul\":2722:2731   */\n      dup3\n        /* \"#utility.yul\":2718:2736   */\n      add\n        /* \"#utility.yul\":2710:2736   */\n      swap1\n      pop\n        /* \"#utility.yul\":2782:2791   */\n      dup2\n        /* \"#utility.yul\":2776:2780   */\n      dup2\n        /* \"#utility.yul\":2772:2792   */\n      sub\n        /* \"#utility.yul\":2768:2769   */\n      0x00\n        /* \"#utility.yul\":2757:2766   */\n      dup4\n        /* \"#utility.yul\":2753:2770   */\n      add\n        /* \"#utility.yul\":2746:2793   */\n      mstore\n        /* \"#utility.yul\":2810:2941   */\n      tag_106\n        /* \"#utility.yul\":2936:2940   */\n      dup2\n        /* \"#utility.yul\":2810:2941   */\n      tag_85\n      jump\t// in\n    tag_106:\n        /* \"#utility.yul\":2802:2941   */\n      swap1\n      pop\n        /* \"#utility.yul\":2529:2948   */\n      swap2\n      swap1\n      pop\n      jump\t// out\n        /* \"#utility.yul\":2954:3373   */\n    tag_30:\n        /* \"#utility.yul\":3120:3124   */\n      0x00\n        /* \"#utility.yul\":3158:3160   */\n      0x20\n        /* \"#utility.yul\":3147:3156   */\n      dup3\n        /* \"#utility.yul\":3143:3161   */\n      add\n        /* \"#utility.yul\":3135:3161   */\n      swap1\n      pop\n        /* \"#utility.yul\":3207:3216   */\n      dup2\n        /* \"#utility.yul\":3201:3205   */\n      dup2\n        /* \"#utility.yul\":3197:3217   */\n      sub\n        /* \"#utility.yul\":3193:3194   */\n      0x00\n        /* \"#utility.yul\":3182:3191   */\n      dup4\n        /* \"#utility.yul\":3178:3195   */\n      add\n        /* \"#utility.yul\":3171:3218   */\n      mstore\n        /* \"#utility.yul\":3235:3366   */\n      tag_108\n        /* \"#utility.yul\":3361:3365   */\n      dup2\n        /* \"#utility.yul\":3235:3366   */\n      tag_91\n      jump\t// in\n    tag_108:\n        /* \"#utility.yul\":3227:3366   */\n      swap1\n      pop\n        /* \"#utility.yul\":2954:3373   */\n      swap2\n      swap1\n      pop\n      jump\t// out\n        /* \"#utility.yul\":3379:3798   */\n    tag_45:\n        /* \"#utility.yul\":3545:3549   */\n      0x00\n        /* \"#utility.yul\":3583:3585   */\n      0x20\n        /* \"#utility.yul\":3572:3581   */\n      dup3\n        /* \"#utility.yul\":3568:3586   */\n      add\n        /* \"#utility.yul\":3560:3586   */\n      swap1\n      pop\n        /* \"#utility.yul\":3632:3641   */\n      dup2\n        /* \"#utility.yul\":3626:3630   */\n      dup2\n        /* \"#utility.yul\":3622:3642   */\n      sub\n        /* \"#utility.yul\":3618:3619   */\n      0x00\n        /* \"#utility.yul\":3607:3616   */\n      dup4\n        /* \"#utility.yul\":3603:3620   */\n      add\n        /* \"#utility.yul\":3596:3643   */\n      mstore\n        /* \"#utility.yul\":3660:3791   */\n      tag_110\n        /* \"#utility.yul\":3786:3790   */\n      dup2\n        /* \"#utility.yul\":3660:3791   */\n      tag_96\n      jump\t// in\n    tag_110:\n        /* \"#utility.yul\":3652:3791   */\n      swap1\n      pop\n        /* \"#utility.yul\":3379:3798   */\n      swap2\n      swap1\n      pop\n      jump\t// out\n        /* \"#utility.yul\":3804:4026   */\n    tag_23:\n        /* \"#utility.yul\":3897:3901   */\n      0x00\n        /* \"#utility.yul\":3935:3937   */\n      0x20\n        /* \"#utility.yul\":3924:3933   */\n      dup3\n        /* \"#utility.yul\":3920:3938   */\n      add\n        /* \"#utility.yul\":3912:3938   */\n      swap1\n      pop\n        /* \"#utility.yul\":3948:4019   */\n      tag_112\n        /* \"#utility.yul\":4016:4017   */\n      0x00\n        /* \"#utility.yul\":4005:4014   */\n      dup4\n        /* \"#utility.yul\":4001:4018   */\n      add\n        /* \"#utility.yul\":3992:3998   */\n      dup5\n        /* \"#utility.yul\":3948:4019   */\n      tag_101\n      jump\t// in\n    tag_112:\n        /* \"#utility.yul\":3804:4026   */\n      swap3\n      swap2\n      pop\n      pop\n      jump\t// out\n        /* \"#utility.yul\":4113:4282   */\n    tag_88:\n        /* \"#utility.yul\":4197:4208   */\n      0x00\n        /* \"#utility.yul\":4231:4237   */\n      dup3\n        /* \"#utility.yul\":4226:4229   */\n      dup3\n        /* \"#utility.yul\":4219:4238   */\n      mstore\n        /* \"#utility.yul\":4271:4275   */\n      0x20\n        /* \"#utility.yul\":4266:4269   */\n      dup3\n        /* \"#utility.yul\":4262:4276   */\n      add\n        /* \"#utility.yul\":4247:4276   */\n      swap1\n      pop\n        /* \"#utility.yul\":4113:4282   */\n      swap3\n      swap2\n      pop\n      pop\n      jump\t// out\n        /* \"#utility.yul\":4288:4593   */\n    tag_32:\n        /* \"#utility.yul\":4328:4331   */\n      0x00\n        /* \"#utility.yul\":4347:4367   */\n      tag_117\n        /* \"#utility.yul\":4365:4366   */\n      dup3\n        /* \"#utility.yul\":4347:4367   */\n      tag_104\n      jump\t// in\n    tag_117:\n        /* \"#utility.yul\":4342:4367   */\n      swap2\n      pop\n        /* \"#utility.yul\":4381:4401   */\n      tag_118\n        /* \"#utility.yul\":4399:4400   */\n      dup4\n        /* \"#utility.yul\":4381:4401   */\n      tag_104\n      jump\t// in\n    tag_118:\n        /* \"#utility.yul\":4376:4401   */\n      swap3\n      pop\n        /* \"#utility.yul\":4535:4536   */\n      dup3\n        /* \"#utility.yul\":4467:4533   */\n      0xffffffffffffffffffffffffffffffffffffffffffffffffffffffffffffffff\n        /* \"#utility.yul\":4463:4537   */\n      sub\n        /* \"#utility.yul\":4460:4461   */\n      dup3\n        /* \"#utility.yul\":4457:4538   */\n      gt\n        /* \"#utility.yul\":4454:4561   */\n      iszero\n      tag_119\n      jumpi\n        /* \"#utility.yul\":4541:4559   */\n      tag_120\n      tag_121\n      jump\t// in\n    tag_120:\n        /* \"#utility.yul\":4454:4561   */\n    tag_119:\n        /* \"#utility.yul\":4585:4586   */\n      dup3\n        /* \"#utility.yul\":4582:4583   */\n      dup3\n        /* \"#utility.yul\":4578:4587   */\n      add\n        /* \"#utility.yul\":4571:4587   */\n      swap1\n      pop\n        /* \"#utility.yul\":4288:4593   */\n      swap3\n      swap2\n      pop\n      pop\n      jump\t// out\n        /* \"#utility.yul\":4599:4784   */\n    tag_53:\n        /* \"#utility.yul\":4639:4640   */\n      0x00\n        /* \"#utility.yul\":4656:4676   */\n      tag_123\n        /* \"#utility.yul\":4674:4675   */\n      dup3\n        /* \"#utility.yul\":4656:4676   */\n      tag_104\n      jump\t// in\n    tag_123:\n        /* \"#utility.yul\":4651:4676   */\n      swap2\n      pop\n        /* \"#utility.yul\":4690:4710   */\n      tag_124\n        /* \"#utility.yul\":4708:4709   */\n      dup4\n        /* \"#utility.yul\":4690:4710   */\n      tag_104\n      jump\t// in\n    tag_124:\n        /* \"#utility.yul\":4685:4710   */\n      swap3\n      pop\n        /* \"#utility.yul\":4729:4730   */\n      dup3\n        /* \"#utility.yul\":4719:4754   */\n      tag_125\n      jumpi\n        /* \"#utility.yul\":4734:4752   */\n      tag_126\n      tag_127\n      jump\t// in\n    tag_126:\n        /* \"#utility.yul\":4719:4754   */\n    tag_125:\n        /* \"#utility.yul\":4776:4777   */\n      dup3\n        /* \"#utility.yul\":4773:4774   */\n      dup3\n        /* \"#utility.yul\":4769:4778   */\n      div\n        /* \"#utility.yul\":4764:4778   */\n      swap1\n      pop\n        /* \"#utility.yul\":4599:4784   */\n      swap3\n      swap2\n      pop\n      pop\n      jump\t// out\n        /* \"#utility.yul\":4790:4981   */\n    tag_37:\n        /* \"#utility.yul\":4830:4834   */\n      0x00\n        /* \"#utility.yul\":4850:4870   */\n      tag_129\n        /* \"#utility.yul\":4868:4869   */\n      dup3\n        /* \"#utility.yul\":4850:4870   */\n      tag_104\n      jump\t// in\n    tag_129:\n        /* \"#utility.yul\":4845:4870   */\n      swap2\n      pop\n        /* \"#utility.yul\":4884:4904   */\n      tag_130\n        /* \"#utility.yul\":4902:4903   */\n      dup4\n        /* \"#utility.yul\":4884:4904   */\n      tag_104\n      jump\t// in\n    tag_130:\n        /* \"#utility.yul\":4879:4904   */\n      swap3\n      pop\n        /* \"#utility.yul\":4923:4924   */\n      dup3\n        /* \"#utility.yul\":4920:4921   */\n      dup3\n        /* \"#utility.yul\":4917:4925   */\n      lt\n        /* \"#utility.yul\":4914:4948   */\n      iszero\n      tag_131\n      jumpi\n        /* \"#utility.yul\":4928:4946   */\n      tag_132\n      tag_121\n      jump\t// in\n    tag_132:\n        /* \"#utility.yul\":4914:4948   */\n    tag_131:\n        /* \"#utility.yul\":4973:4974   */\n      dup3\n        /* \"#utility.yul\":4970:4971   */\n      dup3\n        /* \"#utility.yul\":4966:4975   */\n      sub\n        /* \"#utility.yul\":4958:4975   */\n      swap1\n      pop\n        /* \"#utility.yul\":4790:4981   */\n      swap3\n      swap2\n      pop\n      pop\n      jump\t// out\n        /* \"#utility.yul\":4987:5083   */\n    tag_133:\n        /* \"#utility.yul\":5024:5031   */\n      0x00\n        /* \"#utility.yul\":5053:5077   */\n      tag_135\n        /* \"#utility.yul\":5071:5076   */\n      dup3\n        /* \"#utility.yul\":5053:5077   */\n      tag_136\n      jump\t// in\n    tag_135:\n        /* \"#utility.yul\":5042:5077   */\n      swap1\n      pop\n        /* \"#utility.yul\":4987:5083   */\n      swap2\n      swap1\n      pop\n      jump\t// out\n        /* \"#utility.yul\":5089:5193   */\n    tag_137:\n        /* \"#utility.yul\":5134:5141   */\n      0x00\n        /* \"#utility.yul\":5163:5187   */\n      tag_139\n        /* \"#utility.yul\":5181:5186   */\n      dup3\n        /* \"#utility.yul\":5163:5187   */\n      tag_136\n      jump\t// in\n    tag_139:\n        /* \"#utility.yul\":5152:5187   */\n      swap1\n      pop\n        /* \"#utility.yul\":5089:5193   */\n      swap2\n      swap1\n      pop\n      jump\t// out\n        /* \"#utility.yul\":5199:5325   */\n    tag_136:\n        /* \"#utility.yul\":5236:5243   */\n      0x00\n        /* \"#utility.yul\":5276:5318   */\n      0xffffffffffffffffffffffffffffffffffffffff\n        /* \"#utility.yul\":5269:5274   */\n      dup3\n        /* \"#utility.yul\":5265:5319   */\n      and\n        /* \"#utility.yul\":5254:5319   */\n      swap1\n      pop\n        /* \"#utility.yul\":5199:5325   */\n      swap2\n      swap1\n      pop\n      jump\t// out\n        /* \"#utility.yul\":5331:5408   */\n    tag_104:\n        /* \"#utility.yul\":5368:5375   */\n      0x00\n        /* \"#utility.yul\":5397:5402   */\n      dup2\n        /* \"#utility.yul\":5386:5402   */\n      swap1\n      pop\n        /* \"#utility.yul\":5331:5408   */\n      swap2\n      swap1\n      pop\n      jump\t// out\n        /* \"#utility.yul\":5414:5585   */\n    tag_61:\n        /* \"#utility.yul\":5453:5456   */\n      0x00\n        /* \"#utility.yul\":5476:5500   */\n      tag_143\n        /* \"#utility.yul\":5494:5499   */\n      dup3\n        /* \"#utility.yul\":5476:5500   */\n      tag_104\n      jump\t// in\n    tag_143:\n        /* \"#utility.yul\":5467:5500   */\n      swap2\n      pop\n        /* \"#utility.yul\":5522:5526   */\n      0x00\n        /* \"#utility.yul\":5515:5520   */\n      dup3\n        /* \"#utility.yul\":5512:5527   */\n      eq\n        /* \"#utility.yul\":5509:5550   */\n      iszero\n      tag_144\n      jumpi\n        /* \"#utility.yul\":5530:5548   */\n      tag_145\n      tag_121\n      jump\t// in\n    tag_145:\n        /* \"#utility.yul\":5509:5550   */\n    tag_144:\n        /* \"#utility.yul\":5577:5578   */\n      0x01\n        /* \"#utility.yul\":5570:5575   */\n      dup3\n        /* \"#utility.yul\":5566:5579   */\n      sub\n        /* \"#utility.yul\":5559:5579   */\n      swap1\n      pop\n        /* \"#utility.yul\":5414:5585   */\n      swap2\n      swap1\n      pop\n      jump\t// out\n        /* \"#utility.yul\":5591:5824   */\n    tag_47:\n        /* \"#utility.yul\":5630:5633   */\n      0x00\n        /* \"#utility.yul\":5653:5677   */\n      tag_147\n        /* \"#utility.yul\":5671:5676   */\n      dup3\n        /* \"#utility.yul\":5653:5677   */\n      tag_104\n      jump\t// in\n    tag_147:\n        /* \"#utility.yul\":5644:5677   */\n      swap2\n      pop\n        /* \"#utility.yul\":5699:5765   */\n      0xffffffffffffffffffffffffffffffffffffffffffffffffffffffffffffffff\n        /* \"#utility.yul\":5692:5697   */\n      dup3\n        /* \"#utility.yul\":5689:5766   */\n      eq\n        /* \"#utility.yul\":5686:5789   */\n      iszero\n      tag_148\n      jumpi\n        /* \"#utility.yul\":5769:5787   */\n      tag_149\n      tag_121\n      jump\t// in\n    tag_149:\n        /* \"#utility.yul\":5686:5789   */\n    tag_148:\n        /* \"#utility.yul\":5816:5817   */\n      0x01\n        /* \"#utility.yul\":5809:5814   */\n      dup3\n        /* \"#utility.yul\":5805:5818   */\n      add\n        /* \"#utility.yul\":5798:5818   */\n      swap1\n      pop\n        /* \"#utility.yul\":5591:5824   */\n      swap2\n      swap1\n      pop\n      jump\t// out\n        /* \"#utility.yul\":5830:6010   */\n    tag_35:\n        /* \"#utility.yul\":5878:5955   */\n      0x4e487b7100000000000000000000000000000000000000000000000000000000\n        /* \"#utility.yul\":5875:5876   */\n      0x00\n        /* \"#utility.yul\":5868:5956   */\n      mstore\n        /* \"#utility.yul\":5975:5979   */\n      0x01\n        /* \"#utility.yul\":5972:5973   */\n      0x04\n        /* \"#utility.yul\":5965:5980   */\n      mstore\n        /* \"#utility.yul\":5999:6003   */\n      0x24\n        /* \"#utility.yul\":5996:5997   */\n      0x00\n        /* \"#utility.yul\":5989:6004   */\n      revert\n        /* \"#utility.yul\":6016:6196   */\n    tag_121:\n        /* \"#utility.yul\":6064:6141   */\n      0x4e487b7100000000000000000000000000000000000000000000000000000000\n        /* \"#utility.yul\":6061:6062   */\n      0x00\n        /* \"#utility.yul\":6054:6142   */\n      mstore\n        /* \"#utility.yul\":6161:6165   */\n      0x11\n        /* \"#utility.yul\":6158:6159   */\n      0x04\n        /* \"#utility.yul\":6151:6166   */\n      mstore\n        /* \"#utility.yul\":6185:6189   */\n      0x24\n        /* \"#utility.yul\":6182:6183   */\n      0x00\n        /* \"#utility.yul\":6175:6190   */\n      revert\n        /* \"#utility.yul\":6202:6382   */\n    tag_127:\n        /* \"#utility.yul\":6250:6327   */\n      0x4e487b7100000000000000000000000000000000000000000000000000000000\n        /* \"#utility.yul\":6247:6248   */\n      0x00\n        /* \"#utility.yul\":6240:6328   */\n      mstore\n        /* \"#utility.yul\":6347:6351   */\n      0x12\n        /* \"#utility.yul\":6344:6345   */\n      0x04\n        /* \"#utility.yul\":6337:6352   */\n      mstore\n        /* \"#utility.yul\":6371:6375   */\n      0x24\n        /* \"#utility.yul\":6368:6369   */\n      0x00\n        /* \"#utility.yul\":6361:6376   */\n      revert\n        /* \"#utility.yul\":6511:6628   */\n    tag_78:\n        /* \"#utility.yul\":6620:6621   */\n      0x00\n        /* \"#utility.yul\":6617:6618   */\n      dup1\n        /* \"#utility.yul\":6610:6622   */\n      revert\n        /* \"#utility.yul\":6634:6799   */\n    tag_90:\n        /* \"#utility.yul\":6774:6791   */\n      0x4e6f74656e6f75676820746f6b656e0000000000000000000000000000000000\n        /* \"#utility.yul\":6770:6771   */\n      0x00\n        /* \"#utility.yul\":6762:6768   */\n      dup3\n        /* \"#utility.yul\":6758:6772   */\n      add\n        /* \"#utility.yul\":6751:6792   */\n      mstore\n        /* \"#utility.yul\":6634:6799   */\n      pop\n      jump\t// out\n        /* \"#utility.yul\":6805:6971   */\n    tag_95:\n        /* \"#utility.yul\":6945:6963   */\n      0x496e7375666669656e7420746f6b656e00000000000000000000000000000000\n        /* \"#utility.yul\":6941:6942   */\n      0x00\n        /* \"#utility.yul\":6933:6939   */\n      dup3\n        /* \"#utility.yul\":6929:6943   */\n      add\n        /* \"#utility.yul\":6922:6964   */\n      mstore\n        /* \"#utility.yul\":6805:6971   */\n      pop\n      jump\t// out\n        /* \"#utility.yul\":6977:7148   */\n    tag_100:\n        /* \"#utility.yul\":7117:7140   */\n      0x596f7520617265206e6f7420746865206f776e65720000000000000000000000\n        /* \"#utility.yul\":7113:7114   */\n      0x00\n        /* \"#utility.yul\":7105:7111   */\n      dup3\n        /* \"#utility.yul\":7101:7115   */\n      add\n        /* \"#utility.yul\":7094:7141   */\n      mstore\n        /* \"#utility.yul\":6977:7148   */\n      pop\n      jump\t// out\n        /* \"#utility.yul\":7154:7276   */\n    tag_66:\n        /* \"#utility.yul\":7227:7251   */\n      tag_160\n        /* \"#utility.yul\":7245:7250   */\n      dup2\n        /* \"#utility.yul\":7227:7251   */\n      tag_133\n      jump\t// in\n    tag_160:\n        /* \"#utility.yul\":7220:7225   */\n      dup2\n        /* \"#utility.yul\":7217:7252   */\n      eq\n        /* \"#utility.yul\":7207:7270   */\n      tag_161\n      jumpi\n        /* \"#utility.yul\":7266:7267   */\n      0x00\n        /* \"#utility.yul\":7263:7264   */\n      dup1\n        /* \"#utility.yul\":7256:7268   */\n      revert\n        /* \"#utility.yul\":7207:7270   */\n    tag_161:\n        /* \"#utility.yul\":7154:7276   */\n      pop\n      jump\t// out\n        /* \"#utility.yul\":7282:7420   */\n    tag_70:\n        /* \"#utility.yul\":7363:7395   */\n      tag_163\n        /* \"#utility.yul\":7389:7394   */\n      dup2\n        /* \"#utility.yul\":7363:7395   */\n      tag_137\n      jump\t// in\n    tag_163:\n        /* \"#utility.yul\":7356:7361   */\n      dup2\n        /* \"#utility.yul\":7353:7396   */\n      eq\n        /* \"#utility.yul\":7343:7414   */\n      tag_164\n      jumpi\n        /* \"#utility.yul\":7410:7411   */\n      0x00\n        /* \"#utility.yul\":7407:7408   */\n      dup1\n        /* \"#utility.yul\":7400:7412   */\n      revert\n        /* \"#utility.yul\":7343:7414   */\n    tag_164:\n        /* \"#utility.yul\":7282:7420   */\n      pop\n      jump\t// out\n        /* \"#utility.yul\":7426:7548   */\n    tag_74:\n        /* \"#utility.yul\":7499:7523   */\n      tag_166\n        /* \"#utility.yul\":7517:7522   */\n      dup2\n        /* \"#utility.yul\":7499:7523   */\n      tag_104\n      jump\t// in\n    tag_166:\n        /* \"#utility.yul\":7492:7497   */\n      dup2\n        /* \"#utility.yul\":7489:7524   */\n      eq\n        /* \"#utility.yul\":7479:7542   */\n      tag_167\n      jumpi\n        /* \"#utility.yul\":7538:7539   */\n      0x00\n        /* \"#utility.yul\":7535:7536   */\n      dup1\n        /* \"#utility.yul\":7528:7540   */\n      revert\n        /* \"#utility.yul\":7479:7542   */\n    tag_167:\n        /* \"#utility.yul\":7426:7548   */\n      pop\n      jump\t// out\n\n    auxdata: 0xa26469706673582212201034dae82add2a2b2b5e70774c9659fa7a6d6c98fdf544a0c289bf1b2a271e3864736f6c63430008070033\n}\n",
				"bytecode": {
					"linkReferences": {},
					"object": "6080604052670de0b6b3a764000060025534801561001c57600080fd5b5033600160006101000a81548173ffffffffffffffffffffffffffffffffffffffff021916908373ffffffffffffffffffffffffffffffffffffffff1602179055506064600080600160009054906101000a900473ffffffffffffffffffffffffffffffffffffffff1673ffffffffffffffffffffffffffffffffffffffff1673ffffffffffffffffffffffffffffffffffffffff16815260200190815260200160002081905550610c5d806100d36000396000f3fe60806040526004361061004a5760003560e01c8063412664ae1461004f5780639cbf9e3614610078578063a95c4d621461008f578063eedc966a14610099578063faa0a264146100d6575b600080fd5b34801561005b57600080fd5b5061007660048036038101906100719190610815565b6100ed565b005b34801561008457600080fd5b5061008d6103d4565b005b6100976104dc565b005b3480156100a557600080fd5b506100c060048036038101906100bb91906107e8565b610689565b6040516100cd919061092d565b60405180910390f35b3480156100e257600080fd5b506100eb6106a1565b005b80600080600160009054906101000a900473ffffffffffffffffffffffffffffffffffffffff1673ffffffffffffffffffffffffffffffffffffffff1673ffffffffffffffffffffffffffffffffffffffff168152602001908152602001600020541015610190576040517f08c379a0000000000000000000000000000000000000000000000000000000008152600401610187906108ed565b60405180910390fd5b6000808373ffffffffffffffffffffffffffffffffffffffff1673ffffffffffffffffffffffffffffffffffffffff16815260200190815260200160002054816000808573ffffffffffffffffffffffffffffffffffffffff1673ffffffffffffffffffffffffffffffffffffffff168152602001908152602001600020546102199190610959565b101561022857610227610ad5565b5b600080600160009054906101000a900473ffffffffffffffffffffffffffffffffffffffff1673ffffffffffffffffffffffffffffffffffffffff1673ffffffffffffffffffffffffffffffffffffffff1681526020019081526020016000205481600080600160009054906101000a900473ffffffffffffffffffffffffffffffffffffffff1673ffffffffffffffffffffffffffffffffffffffff1673ffffffffffffffffffffffffffffffffffffffff168152602001908152602001600020546102f591906109e0565b111561030457610303610ad5565b5b80600080600160009054906101000a900473ffffffffffffffffffffffffffffffffffffffff1673ffffffffffffffffffffffffffffffffffffffff1673ffffffffffffffffffffffffffffffffffffffff168152602001908152602001600020600082825461037491906109e0565b92505081905550806000808473ffffffffffffffffffffffffffffffffffffffff1673ffffffffffffffffffffffffffffffffffffffff16815260200190815260200160002060008282546103c99190610959565b925050819055505050565b600160009054906101000a900473ffffffffffffffffffffffffffffffffffffffff1673ffffffffffffffffffffffffffffffffffffffff163373ffffffffffffffffffffffffffffffffffffffff1614610464576040517f08c379a000000000000000000000000000000000000000000000000000000000815260040161045b9061090d565b60405180910390fd5b600080600160009054906101000a900473ffffffffffffffffffffffffffffffffffffffff1673ffffffffffffffffffffffffffffffffffffffff1673ffffffffffffffffffffffffffffffffffffffff16815260200190815260200160002060008154809291906104d590610a8c565b9190505550565b6000806000600160009054906101000a900473ffffffffffffffffffffffffffffffffffffffff1673ffffffffffffffffffffffffffffffffffffffff1673ffffffffffffffffffffffffffffffffffffffff168152602001908152602001600020541161057f576040517f08c379a0000000000000000000000000000000000000000000000000000000008152600401610576906108cd565b60405180910390fd5b6002543461058d91906109af565b600080600160009054906101000a900473ffffffffffffffffffffffffffffffffffffffff1673ffffffffffffffffffffffffffffffffffffffff1673ffffffffffffffffffffffffffffffffffffffff16815260200190815260200160002060008282546105fc91906109e0565b925050819055506002543461061191906109af565b600080600160009054906101000a900473ffffffffffffffffffffffffffffffffffffffff1673ffffffffffffffffffffffffffffffffffffffff1673ffffffffffffffffffffffffffffffffffffffff16815260200190815260200160002060008282546106809190610959565b92505081905550565b60006020528060005260406000206000915090505481565b600160009054906101000a900473ffffffffffffffffffffffffffffffffffffffff1673ffffffffffffffffffffffffffffffffffffffff163373ffffffffffffffffffffffffffffffffffffffff1614610731576040517f08c379a00000000000000000000000000000000000000000000000000000000081526004016107289061090d565b60405180910390fd5b600080600160009054906101000a900473ffffffffffffffffffffffffffffffffffffffff1673ffffffffffffffffffffffffffffffffffffffff1673ffffffffffffffffffffffffffffffffffffffff16815260200190815260200160002060008154809291906107a290610a62565b9190505550565b6000813590506107b881610be2565b92915050565b6000813590506107cd81610bf9565b92915050565b6000813590506107e281610c10565b92915050565b6000602082840312156107fe576107fd610b62565b5b600061080c848285016107a9565b91505092915050565b6000806040838503121561082c5761082b610b62565b5b600061083a858286016107be565b925050602061084b858286016107d3565b9150509250929050565b6000610862600f83610948565b915061086d82610b67565b602082019050919050565b6000610885601083610948565b915061089082610b90565b602082019050919050565b60006108a8601583610948565b91506108b382610bb9565b602082019050919050565b6108c781610a58565b82525050565b600060208201905081810360008301526108e681610855565b9050919050565b6000602082019050818103600083015261090681610878565b9050919050565b600060208201905081810360008301526109268161089b565b9050919050565b600060208201905061094260008301846108be565b92915050565b600082825260208201905092915050565b600061096482610a58565b915061096f83610a58565b9250827fffffffffffffffffffffffffffffffffffffffffffffffffffffffffffffffff038211156109a4576109a3610b04565b5b828201905092915050565b60006109ba82610a58565b91506109c583610a58565b9250826109d5576109d4610b33565b5b828204905092915050565b60006109eb82610a58565b91506109f683610a58565b925082821015610a0957610a08610b04565b5b828203905092915050565b6000610a1f82610a38565b9050919050565b6000610a3182610a38565b9050919050565b600073ffffffffffffffffffffffffffffffffffffffff82169050919050565b6000819050919050565b6000610a6d82610a58565b91506000821415610a8157610a80610b04565b5b600182039050919050565b6000610a9782610a58565b91507fffffffffffffffffffffffffffffffffffffffffffffffffffffffffffffffff821415610aca57610ac9610b04565b5b600182019050919050565b7f4e487b7100000000000000000000000000000000000000000000000000000000600052600160045260246000fd5b7f4e487b7100000000000000000000000000000000000000000000000000000000600052601160045260246000fd5b7f4e487b7100000000000000000000000000000000000000000000000000000000600052601260045260246000fd5b600080fd5b7f4e6f74656e6f75676820746f6b656e0000000000000000000000000000000000600082015250565b7f496e7375666669656e7420746f6b656e00000000000000000000000000000000600082015250565b7f596f7520617265206e6f7420746865206f776e65720000000000000000000000600082015250565b610beb81610a14565b8114610bf657600080fd5b50565b610c0281610a26565b8114610c0d57600080fd5b50565b610c1981610a58565b8114610c2457600080fd5b5056fea26469706673582212201034dae82add2a2b2b5e70774c9659fa7a6d6c98fdf544a0c289bf1b2a271e3864736f6c63430008070033",
					"opcodes": "PUSH1 0x80 PUSH1 0x40 MSTORE PUSH8 0xDE0B6B3A7640000 PUSH1 0x2 SSTORE CALLVALUE DUP1 ISZERO PUSH2 0x1C JUMPI PUSH1 0x0 DUP1 REVERT JUMPDEST POP CALLER PUSH1 0x1 PUSH1 0x0 PUSH2 0x100 EXP DUP2 SLOAD DUP2 PUSH20 0xFFFFFFFFFFFFFFFFFFFFFFFFFFFFFFFFFFFFFFFF MUL NOT AND SWAP1 DUP4 PUSH20 0xFFFFFFFFFFFFFFFFFFFFFFFFFFFFFFFFFFFFFFFF AND MUL OR SWAP1 SSTORE POP PUSH1 0x64 PUSH1 0x0 DUP1 PUSH1 0x1 PUSH1 0x0 SWAP1 SLOAD SWAP1 PUSH2 0x100 EXP SWAP1 DIV PUSH20 0xFFFFFFFFFFFFFFFFFFFFFFFFFFFFFFFFFFFFFFFF AND PUSH20 0xFFFFFFFFFFFFFFFFFFFFFFFFFFFFFFFFFFFFFFFF AND PUSH20 0xFFFFFFFFFFFFFFFFFFFFFFFFFFFFFFFFFFFFFFFF AND DUP2 MSTORE PUSH1 0x20 ADD SWAP1 DUP2 MSTORE PUSH1 0x20 ADD PUSH1 0x0 KECCAK256 DUP2 SWAP1 SSTORE POP PUSH2 0xC5D DUP1 PUSH2 0xD3 PUSH1 0x0 CODECOPY PUSH1 0x0 RETURN INVALID PUSH1 0x80 PUSH1 0x40 MSTORE PUSH1 0x4 CALLDATASIZE LT PUSH2 0x4A JUMPI PUSH1 0x0 CALLDATALOAD PUSH1 0xE0 SHR DUP1 PUSH4 0x412664AE EQ PUSH2 0x4F JUMPI DUP1 PUSH4 0x9CBF9E36 EQ PUSH2 0x78 JUMPI DUP1 PUSH4 0xA95C4D62 EQ PUSH2 0x8F JUMPI DUP1 PUSH4 0xEEDC966A EQ PUSH2 0x99 JUMPI DUP1 PUSH4 0xFAA0A264 EQ PUSH2 0xD6 JUMPI JUMPDEST PUSH1 0x0 DUP1 REVERT JUMPDEST CALLVALUE DUP1 ISZERO PUSH2 0x5B JUMPI PUSH1 0x0 DUP1 REVERT JUMPDEST POP PUSH2 0x76 PUSH1 0x4 DUP1 CALLDATASIZE SUB DUP2 ADD SWAP1 PUSH2 0x71 SWAP2 SWAP1 PUSH2 0x815 JUMP JUMPDEST PUSH2 0xED JUMP JUMPDEST STOP JUMPDEST CALLVALUE DUP1 ISZERO PUSH2 0x84 JUMPI PUSH1 0x0 DUP1 REVERT JUMPDEST POP PUSH2 0x8D PUSH2 0x3D4 JUMP JUMPDEST STOP JUMPDEST PUSH2 0x97 PUSH2 0x4DC JUMP JUMPDEST STOP JUMPDEST CALLVALUE DUP1 ISZERO PUSH2 0xA5 JUMPI PUSH1 0x0 DUP1 REVERT JUMPDEST POP PUSH2 0xC0 PUSH1 0x4 DUP1 CALLDATASIZE SUB DUP2 ADD SWAP1 PUSH2 0xBB SWAP2 SWAP1 PUSH2 0x7E8 JUMP JUMPDEST PUSH2 0x689 JUMP JUMPDEST PUSH1 0x40 MLOAD PUSH2 0xCD SWAP2 SWAP1 PUSH2 0x92D JUMP JUMPDEST PUSH1 0x40 MLOAD DUP1 SWAP2 SUB SWAP1 RETURN JUMPDEST CALLVALUE DUP1 ISZERO PUSH2 0xE2 JUMPI PUSH1 0x0 DUP1 REVERT JUMPDEST POP PUSH2 0xEB PUSH2 0x6A1 JUMP JUMPDEST STOP JUMPDEST DUP1 PUSH1 0x0 DUP1 PUSH1 0x1 PUSH1 0x0 SWAP1 SLOAD SWAP1 PUSH2 0x100 EXP SWAP1 DIV PUSH20 0xFFFFFFFFFFFFFFFFFFFFFFFFFFFFFFFFFFFFFFFF AND PUSH20 0xFFFFFFFFFFFFFFFFFFFFFFFFFFFFFFFFFFFFFFFF AND PUSH20 0xFFFFFFFFFFFFFFFFFFFFFFFFFFFFFFFFFFFFFFFF AND DUP2 MSTORE PUSH1 0x20 ADD SWAP1 DUP2 MSTORE PUSH1 0x20 ADD PUSH1 0x0 KECCAK256 SLOAD LT ISZERO PUSH2 0x190 JUMPI PUSH1 0x40 MLOAD PUSH32 0x8C379A000000000000000000000000000000000000000000000000000000000 DUP2 MSTORE PUSH1 0x4 ADD PUSH2 0x187 SWAP1 PUSH2 0x8ED JUMP JUMPDEST PUSH1 0x40 MLOAD DUP1 SWAP2 SUB SWAP1 REVERT JUMPDEST PUSH1 0x0 DUP1 DUP4 PUSH20 0xFFFFFFFFFFFFFFFFFFFFFFFFFFFFFFFFFFFFFFFF AND PUSH20 0xFFFFFFFFFFFFFFFFFFFFFFFFFFFFFFFFFFFFFFFF AND DUP2 MSTORE PUSH1 0x20 ADD SWAP1 DUP2 MSTORE PUSH1 0x20 ADD PUSH1 0x0 KECCAK256 SLOAD DUP2 PUSH1 0x0 DUP1 DUP6 PUSH20 0xFFFFFFFFFFFFFFFFFFFFFFFFFFFFFFFFFFFFFFFF AND PUSH20 0xFFFFFFFFFFFFFFFFFFFFFFFFFFFFFFFFFFFFFFFF AND DUP2 MSTORE PUSH1 0x20 ADD SWAP1 DUP2 MSTORE PUSH1 0x20 ADD PUSH1 0x0 KECCAK256 SLOAD PUSH2 0x219 SWAP2 SWAP1 PUSH2 0x959 JUMP JUMPDEST LT ISZERO PUSH2 0x228 JUMPI PUSH2 0x227 PUSH2 0xAD5 JUMP JUMPDEST JUMPDEST PUSH1 0x0 DUP1 PUSH1 0x1 PUSH1 0x0 SWAP1 SLOAD SWAP1 PUSH2 0x100 EXP SWAP1 DIV PUSH20 0xFFFFFFFFFFFFFFFFFFFFFFFFFFFFFFFFFFFFFFFF AND PUSH20 0xFFFFFFFFFFFFFFFFFFFFFFFFFFFFFFFFFFFFFFFF AND PUSH20 0xFFFFFFFFFFFFFFFFFFFFFFFFFFFFFFFFFFFFFFFF AND DUP2 MSTORE PUSH1 0x20 ADD SWAP1 DUP2 MSTORE PUSH1 0x20 ADD PUSH1 0x0 KECCAK256 SLOAD DUP2 PUSH1 0x0 DUP1 PUSH1 0x1 PUSH1 0x0 SWAP1 SLOAD SWAP1 PUSH2 0x100 EXP SWAP1 DIV PUSH20 0xFFFFFFFFFFFFFFFFFFFFFFFFFFFFFFFFFFFFFFFF AND PUSH20 0xFFFFFFFFFFFFFFFFFFFFFFFFFFFFFFFFFFFFFFFF AND PUSH20 0xFFFFFFFFFFFFFFFFFFFFFFFFFFFFFFFFFFFFFFFF AND DUP2 MSTORE PUSH1 0x20 ADD SWAP1 DUP2 MSTORE PUSH1 0x20 ADD PUSH1 0x0 KECCAK256 SLOAD PUSH2 0x2F5 SWAP2 SWAP1 PUSH2 0x9E0 JUMP JUMPDEST GT ISZERO PUSH2 0x304 JUMPI PUSH2 0x303 PUSH2 0xAD5 JUMP JUMPDEST JUMPDEST DUP1 PUSH1 0x0 DUP1 PUSH1 0x1 PUSH1 0x0 SWAP1 SLOAD SWAP1 PUSH2 0x100 EXP SWAP1 DIV PUSH20 0xFFFFFFFFFFFFFFFFFFFFFFFFFFFFFFFFFFFFFFFF AND PUSH20 0xFFFFFFFFFFFFFFFFFFFFFFFFFFFFFFFFFFFFFFFF AND PUSH20 0xFFFFFFFFFFFFFFFFFFFFFFFFFFFFFFFFFFFFFFFF AND DUP2 MSTORE PUSH1 0x20 ADD SWAP1 DUP2 MSTORE PUSH1 0x20 ADD PUSH1 0x0 KECCAK256 PUSH1 0x0 DUP3 DUP3 SLOAD PUSH2 0x374 SWAP2 SWAP1 PUSH2 0x9E0 JUMP JUMPDEST SWAP3 POP POP DUP2 SWAP1 SSTORE POP DUP1 PUSH1 0x0 DUP1 DUP5 PUSH20 0xFFFFFFFFFFFFFFFFFFFFFFFFFFFFFFFFFFFFFFFF AND PUSH20 0xFFFFFFFFFFFFFFFFFFFFFFFFFFFFFFFFFFFFFFFF AND DUP2 MSTORE PUSH1 0x20 ADD SWAP1 DUP2 MSTORE PUSH1 0x20 ADD PUSH1 0x0 KECCAK256 PUSH1 0x0 DUP3 DUP3 SLOAD PUSH2 0x3C9 SWAP2 SWAP1 PUSH2 0x959 JUMP JUMPDEST SWAP3 POP POP DUP2 SWAP1 SSTORE POP POP POP JUMP JUMPDEST PUSH1 0x1 PUSH1 0x0 SWAP1 SLOAD SWAP1 PUSH2 0x100 EXP SWAP1 DIV PUSH20 0xFFFFFFFFFFFFFFFFFFFFFFFFFFFFFFFFFFFFFFFF AND PUSH20 0xFFFFFFFFFFFFFFFFFFFFFFFFFFFFFFFFFFFFFFFF AND CALLER PUSH20 0xFFFFFFFFFFFFFFFFFFFFFFFFFFFFFFFFFFFFFFFF AND EQ PUSH2 0x464 JUMPI PUSH1 0x40 MLOAD PUSH32 0x8C379A000000000000000000000000000000000000000000000000000000000 DUP2 MSTORE PUSH1 0x4 ADD PUSH2 0x45B SWAP1 PUSH2 0x90D JUMP JUMPDEST PUSH1 0x40 MLOAD DUP1 SWAP2 SUB SWAP1 REVERT JUMPDEST PUSH1 0x0 DUP1 PUSH1 0x1 PUSH1 0x0 SWAP1 SLOAD SWAP1 PUSH2 0x100 EXP SWAP1 DIV PUSH20 0xFFFFFFFFFFFFFFFFFFFFFFFFFFFFFFFFFFFFFFFF AND PUSH20 0xFFFFFFFFFFFFFFFFFFFFFFFFFFFFFFFFFFFFFFFF AND PUSH20 0xFFFFFFFFFFFFFFFFFFFFFFFFFFFFFFFFFFFFFFFF AND DUP2 MSTORE PUSH1 0x20 ADD SWAP1 DUP2 MSTORE PUSH1 0x20 ADD PUSH1 0x0 KECCAK256 PUSH1 0x0 DUP2 SLOAD DUP1 SWAP3 SWAP2 SWAP1 PUSH2 0x4D5 SWAP1 PUSH2 0xA8C JUMP JUMPDEST SWAP2 SWAP1 POP SSTORE POP JUMP JUMPDEST PUSH1 0x0 DUP1 PUSH1 0x0 PUSH1 0x1 PUSH1 0x0 SWAP1 SLOAD SWAP1 PUSH2 0x100 EXP SWAP1 DIV PUSH20 0xFFFFFFFFFFFFFFFFFFFFFFFFFFFFFFFFFFFFFFFF AND PUSH20 0xFFFFFFFFFFFFFFFFFFFFFFFFFFFFFFFFFFFFFFFF AND PUSH20 0xFFFFFFFFFFFFFFFFFFFFFFFFFFFFFFFFFFFFFFFF AND DUP2 MSTORE PUSH1 0x20 ADD SWAP1 DUP2 MSTORE PUSH1 0x20 ADD PUSH1 0x0 KECCAK256 SLOAD GT PUSH2 0x57F JUMPI PUSH1 0x40 MLOAD PUSH32 0x8C379A000000000000000000000000000000000000000000000000000000000 DUP2 MSTORE PUSH1 0x4 ADD PUSH2 0x576 SWAP1 PUSH2 0x8CD JUMP JUMPDEST PUSH1 0x40 MLOAD DUP1 SWAP2 SUB SWAP1 REVERT JUMPDEST PUSH1 0x2 SLOAD CALLVALUE PUSH2 0x58D SWAP2 SWAP1 PUSH2 0x9AF JUMP JUMPDEST PUSH1 0x0 DUP1 PUSH1 0x1 PUSH1 0x0 SWAP1 SLOAD SWAP1 PUSH2 0x100 EXP SWAP1 DIV PUSH20 0xFFFFFFFFFFFFFFFFFFFFFFFFFFFFFFFFFFFFFFFF AND PUSH20 0xFFFFFFFFFFFFFFFFFFFFFFFFFFFFFFFFFFFFFFFF AND PUSH20 0xFFFFFFFFFFFFFFFFFFFFFFFFFFFFFFFFFFFFFFFF AND DUP2 MSTORE PUSH1 0x20 ADD SWAP1 DUP2 MSTORE PUSH1 0x20 ADD PUSH1 0x0 KECCAK256 PUSH1 0x0 DUP3 DUP3 SLOAD PUSH2 0x5FC SWAP2 SWAP1 PUSH2 0x9E0 JUMP JUMPDEST SWAP3 POP POP DUP2 SWAP1 SSTORE POP PUSH1 0x2 SLOAD CALLVALUE PUSH2 0x611 SWAP2 SWAP1 PUSH2 0x9AF JUMP JUMPDEST PUSH1 0x0 DUP1 PUSH1 0x1 PUSH1 0x0 SWAP1 SLOAD SWAP1 PUSH2 0x100 EXP SWAP1 DIV PUSH20 0xFFFFFFFFFFFFFFFFFFFFFFFFFFFFFFFFFFFFFFFF AND PUSH20 0xFFFFFFFFFFFFFFFFFFFFFFFFFFFFFFFFFFFFFFFF AND PUSH20 0xFFFFFFFFFFFFFFFFFFFFFFFFFFFFFFFFFFFFFFFF AND DUP2 MSTORE PUSH1 0x20 ADD SWAP1 DUP2 MSTORE PUSH1 0x20 ADD PUSH1 0x0 KECCAK256 PUSH1 0x0 DUP3 DUP3 SLOAD PUSH2 0x680 SWAP2 SWAP1 PUSH2 0x959 JUMP JUMPDEST SWAP3 POP POP DUP2 SWAP1 SSTORE POP JUMP JUMPDEST PUSH1 0x0 PUSH1 0x20 MSTORE DUP1 PUSH1 0x0 MSTORE PUSH1 0x40 PUSH1 0x0 KECCAK256 PUSH1 0x0 SWAP2 POP SWAP1 POP SLOAD DUP2 JUMP JUMPDEST PUSH1 0x1 PUSH1 0x0 SWAP1 SLOAD SWAP1 PUSH2 0x100 EXP SWAP1 DIV PUSH20 0xFFFFFFFFFFFFFFFFFFFFFFFFFFFFFFFFFFFFFFFF AND PUSH20 0xFFFFFFFFFFFFFFFFFFFFFFFFFFFFFFFFFFFFFFFF AND CALLER PUSH20 0xFFFFFFFFFFFFFFFFFFFFFFFFFFFFFFFFFFFFFFFF AND EQ PUSH2 0x731 JUMPI PUSH1 0x40 MLOAD PUSH32 0x8C379A000000000000000000000000000000000000000000000000000000000 DUP2 MSTORE PUSH1 0x4 ADD PUSH2 0x728 SWAP1 PUSH2 0x90D JUMP JUMPDEST PUSH1 0x40 MLOAD DUP1 SWAP2 SUB SWAP1 REVERT JUMPDEST PUSH1 0x0 DUP1 PUSH1 0x1 PUSH1 0x0 SWAP1 SLOAD SWAP1 PUSH2 0x100 EXP SWAP1 DIV PUSH20 0xFFFFFFFFFFFFFFFFFFFFFFFFFFFFFFFFFFFFFFFF AND PUSH20 0xFFFFFFFFFFFFFFFFFFFFFFFFFFFFFFFFFFFFFFFF AND PUSH20 0xFFFFFFFFFFFFFFFFFFFFFFFFFFFFFFFFFFFFFFFF AND DUP2 MSTORE PUSH1 0x20 ADD SWAP1 DUP2 MSTORE PUSH1 0x20 ADD PUSH1 0x0 KECCAK256 PUSH1 0x0 DUP2 SLOAD DUP1 SWAP3 SWAP2 SWAP1 PUSH2 0x7A2 SWAP1 PUSH2 0xA62 JUMP JUMPDEST SWAP2 SWAP1 POP SSTORE POP JUMP JUMPDEST PUSH1 0x0 DUP2 CALLDATALOAD SWAP1 POP PUSH2 0x7B8 DUP2 PUSH2 0xBE2 JUMP JUMPDEST SWAP3 SWAP2 POP POP JUMP JUMPDEST PUSH1 0x0 DUP2 CALLDATALOAD SWAP1 POP PUSH2 0x7CD DUP2 PUSH2 0xBF9 JUMP JUMPDEST SWAP3 SWAP2 POP POP JUMP JUMPDEST PUSH1 0x0 DUP2 CALLDATALOAD SWAP1 POP PUSH2 0x7E2 DUP2 PUSH2 0xC10 JUMP JUMPDEST SWAP3 SWAP2 POP POP JUMP JUMPDEST PUSH1 0x0 PUSH1 0x20 DUP3 DUP5 SUB SLT ISZERO PUSH2 0x7FE JUMPI PUSH2 0x7FD PUSH2 0xB62 JUMP JUMPDEST JUMPDEST PUSH1 0x0 PUSH2 0x80C DUP5 DUP3 DUP6 ADD PUSH2 0x7A9 JUMP JUMPDEST SWAP2 POP POP SWAP3 SWAP2 POP POP JUMP JUMPDEST PUSH1 0x0 DUP1 PUSH1 0x40 DUP4 DUP6 SUB SLT ISZERO PUSH2 0x82C JUMPI PUSH2 0x82B PUSH2 0xB62 JUMP JUMPDEST JUMPDEST PUSH1 0x0 PUSH2 0x83A DUP6 DUP3 DUP7 ADD PUSH2 0x7BE JUMP JUMPDEST SWAP3 POP POP PUSH1 0x20 PUSH2 0x84B DUP6 DUP3 DUP7 ADD PUSH2 0x7D3 JUMP JUMPDEST SWAP2 POP POP SWAP3 POP SWAP3 SWAP1 POP JUMP JUMPDEST PUSH1 0x0 PUSH2 0x862 PUSH1 0xF DUP4 PUSH2 0x948 JUMP JUMPDEST SWAP2 POP PUSH2 0x86D DUP3 PUSH2 0xB67 JUMP JUMPDEST PUSH1 0x20 DUP3 ADD SWAP1 POP SWAP2 SWAP1 POP JUMP JUMPDEST PUSH1 0x0 PUSH2 0x885 PUSH1 0x10 DUP4 PUSH2 0x948 JUMP JUMPDEST SWAP2 POP PUSH2 0x890 DUP3 PUSH2 0xB90 JUMP JUMPDEST PUSH1 0x20 DUP3 ADD SWAP1 POP SWAP2 SWAP1 POP JUMP JUMPDEST PUSH1 0x0 PUSH2 0x8A8 PUSH1 0x15 DUP4 PUSH2 0x948 JUMP JUMPDEST SWAP2 POP PUSH2 0x8B3 DUP3 PUSH2 0xBB9 JUMP JUMPDEST PUSH1 0x20 DUP3 ADD SWAP1 POP SWAP2 SWAP1 POP JUMP JUMPDEST PUSH2 0x8C7 DUP2 PUSH2 0xA58 JUMP JUMPDEST DUP3 MSTORE POP POP JUMP JUMPDEST PUSH1 0x0 PUSH1 0x20 DUP3 ADD SWAP1 POP DUP2 DUP2 SUB PUSH1 0x0 DUP4 ADD MSTORE PUSH2 0x8E6 DUP2 PUSH2 0x855 JUMP JUMPDEST SWAP1 POP SWAP2 SWAP1 POP JUMP JUMPDEST PUSH1 0x0 PUSH1 0x20 DUP3 ADD SWAP1 POP DUP2 DUP2 SUB PUSH1 0x0 DUP4 ADD MSTORE PUSH2 0x906 DUP2 PUSH2 0x878 JUMP JUMPDEST SWAP1 POP SWAP2 SWAP1 POP JUMP JUMPDEST PUSH1 0x0 PUSH1 0x20 DUP3 ADD SWAP1 POP DUP2 DUP2 SUB PUSH1 0x0 DUP4 ADD MSTORE PUSH2 0x926 DUP2 PUSH2 0x89B JUMP JUMPDEST SWAP1 POP SWAP2 SWAP1 POP JUMP JUMPDEST PUSH1 0x0 PUSH1 0x20 DUP3 ADD SWAP1 POP PUSH2 0x942 PUSH1 0x0 DUP4 ADD DUP5 PUSH2 0x8BE JUMP JUMPDEST SWAP3 SWAP2 POP POP JUMP JUMPDEST PUSH1 0x0 DUP3 DUP3 MSTORE PUSH1 0x20 DUP3 ADD SWAP1 POP SWAP3 SWAP2 POP POP JUMP JUMPDEST PUSH1 0x0 PUSH2 0x964 DUP3 PUSH2 0xA58 JUMP JUMPDEST SWAP2 POP PUSH2 0x96F DUP4 PUSH2 0xA58 JUMP JUMPDEST SWAP3 POP DUP3 PUSH32 0xFFFFFFFFFFFFFFFFFFFFFFFFFFFFFFFFFFFFFFFFFFFFFFFFFFFFFFFFFFFFFFFF SUB DUP3 GT ISZERO PUSH2 0x9A4 JUMPI PUSH2 0x9A3 PUSH2 0xB04 JUMP JUMPDEST JUMPDEST DUP3 DUP3 ADD SWAP1 POP SWAP3 SWAP2 POP POP JUMP JUMPDEST PUSH1 0x0 PUSH2 0x9BA DUP3 PUSH2 0xA58 JUMP JUMPDEST SWAP2 POP PUSH2 0x9C5 DUP4 PUSH2 0xA58 JUMP JUMPDEST SWAP3 POP DUP3 PUSH2 0x9D5 JUMPI PUSH2 0x9D4 PUSH2 0xB33 JUMP JUMPDEST JUMPDEST DUP3 DUP3 DIV SWAP1 POP SWAP3 SWAP2 POP POP JUMP JUMPDEST PUSH1 0x0 PUSH2 0x9EB DUP3 PUSH2 0xA58 JUMP JUMPDEST SWAP2 POP PUSH2 0x9F6 DUP4 PUSH2 0xA58 JUMP JUMPDEST SWAP3 POP DUP3 DUP3 LT ISZERO PUSH2 0xA09 JUMPI PUSH2 0xA08 PUSH2 0xB04 JUMP JUMPDEST JUMPDEST DUP3 DUP3 SUB SWAP1 POP SWAP3 SWAP2 POP POP JUMP JUMPDEST PUSH1 0x0 PUSH2 0xA1F DUP3 PUSH2 0xA38 JUMP JUMPDEST SWAP1 POP SWAP2 SWAP1 POP JUMP JUMPDEST PUSH1 0x0 PUSH2 0xA31 DUP3 PUSH2 0xA38 JUMP JUMPDEST SWAP1 POP SWAP2 SWAP1 POP JUMP JUMPDEST PUSH1 0x0 PUSH20 0xFFFFFFFFFFFFFFFFFFFFFFFFFFFFFFFFFFFFFFFF DUP3 AND SWAP1 POP SWAP2 SWAP1 POP JUMP JUMPDEST PUSH1 0x0 DUP2 SWAP1 POP SWAP2 SWAP1 POP JUMP JUMPDEST PUSH1 0x0 PUSH2 0xA6D DUP3 PUSH2 0xA58 JUMP JUMPDEST SWAP2 POP PUSH1 0x0 DUP3 EQ ISZERO PUSH2 0xA81 JUMPI PUSH2 0xA80 PUSH2 0xB04 JUMP JUMPDEST JUMPDEST PUSH1 0x1 DUP3 SUB SWAP1 POP SWAP2 SWAP1 POP JUMP JUMPDEST PUSH1 0x0 PUSH2 0xA97 DUP3 PUSH2 0xA58 JUMP JUMPDEST SWAP2 POP PUSH32 0xFFFFFFFFFFFFFFFFFFFFFFFFFFFFFFFFFFFFFFFFFFFFFFFFFFFFFFFFFFFFFFFF DUP3 EQ ISZERO PUSH2 0xACA JUMPI PUSH2 0xAC9 PUSH2 0xB04 JUMP JUMPDEST JUMPDEST PUSH1 0x1 DUP3 ADD SWAP1 POP SWAP2 SWAP1 POP JUMP JUMPDEST PUSH32 0x4E487B7100000000000000000000000000000000000000000000000000000000 PUSH1 0x0 MSTORE PUSH1 0x1 PUSH1 0x4 MSTORE PUSH1 0x24 PUSH1 0x0 REVERT JUMPDEST PUSH32 0x4E487B7100000000000000000000000000000000000000000000000000000000 PUSH1 0x0 MSTORE PUSH1 0x11 PUSH1 0x4 MSTORE PUSH1 0x24 PUSH1 0x0 REVERT JUMPDEST PUSH32 0x4E487B7100000000000000000000000000000000000000000000000000000000 PUSH1 0x0 MSTORE PUSH1 0x12 PUSH1 0x4 MSTORE PUSH1 0x24 PUSH1 0x0 REVERT JUMPDEST PUSH1 0x0 DUP1 REVERT JUMPDEST PUSH32 0x4E6F74656E6F75676820746F6B656E0000000000000000000000000000000000 PUSH1 0x0 DUP3 ADD MSTORE POP JUMP JUMPDEST PUSH32 0x496E7375666669656E7420746F6B656E00000000000000000000000000000000 PUSH1 0x0 DUP3 ADD MSTORE POP JUMP JUMPDEST PUSH32 0x596F7520617265206E6F7420746865206F776E65720000000000000000000000 PUSH1 0x0 DUP3 ADD MSTORE POP JUMP JUMPDEST PUSH2 0xBEB DUP2 PUSH2 0xA14 JUMP JUMPDEST DUP2 EQ PUSH2 0xBF6 JUMPI PUSH1 0x0 DUP1 REVERT JUMPDEST POP JUMP JUMPDEST PUSH2 0xC02 DUP2 PUSH2 0xA26 JUMP JUMPDEST DUP2 EQ PUSH2 0xC0D JUMPI PUSH1 0x0 DUP1 REVERT JUMPDEST POP JUMP JUMPDEST PUSH2 0xC19 DUP2 PUSH2 0xA58 JUMP JUMPDEST DUP2 EQ PUSH2 0xC24 JUMPI PUSH1 0x0 DUP1 REVERT JUMPDEST POP JUMP INVALID LOG2 PUSH5 0x6970667358 0x22 SLT KECCAK256 LT CALLVALUE 0xDA 0xE8 0x2A 0xDD 0x2A 0x2B 0x2B 0x5E PUSH17 0x774C9659FA7A6D6C98FDF544A0C289BF1B 0x2A 0x27 0x1E CODESIZE PUSH5 0x736F6C6343 STOP ADDMOD SMOD STOP CALLER "
				},
				"gasEstimates": {
					"creation": {
						"codeDepositCost": "633000",
						"executionCost": "71376",
						"totalCost": "704376"
					},
					"external": {
						"burnToken()": "28966",
						"createToken()": "28900",
						"purchaseToken()": "infinite",
						"sendToken(address,uint256)": "infinite",
						"tokenBalance(address)": "2858"
					}
				},
				"methodIdentifiers": {
					"burnToken()": "faa0a264",
					"createToken()": "9cbf9e36",
					"purchaseToken()": "a95c4d62",
					"sendToken(address,uint256)": "412664ae",
					"tokenBalance(address)": "eedc966a"
				}
			},
			"storageLayout": {
				"storage": [
					{
						"astId": 5,
						"contract": "InheritanceModifier.sol:InheritanceModifierExample",
						"label": "tokenBalance",
						"offset": 0,
						"slot": "0",
						"type": "t_mapping(t_address,t_uint256)"
					},
					{
						"astId": 7,
						"contract": "InheritanceModifier.sol:InheritanceModifierExample",
						"label": "owner",
						"offset": 0,
						"slot": "1",
						"type": "t_address"
					},
					{
						"astId": 10,
						"contract": "InheritanceModifier.sol:InheritanceModifierExample",
						"label": "tokenPrize",
						"offset": 0,
						"slot": "2",
						"type": "t_uint256"
					}
				],
				"types": {
					"t_address": {
						"encoding": "inplace",
						"label": "address",
						"numberOfBytes": "20"
					},
					"t_mapping(t_address,t_uint256)": {
						"encoding": "mapping",
						"key": "t_address",
						"label": "mapping(address => uint256)",
						"numberOfBytes": "32",
						"value": "t_uint256"
					},
					"t_uint256": {
						"encoding": "inplace",
						"label": "uint256",
						"numberOfBytes": "32"
					}
				}
			},
			"userdoc": {
				"kind": "user",
				"methods": {},
				"version": 1
			}
		}
	}
}