{
	"practice3.sol": {
		"Examples": {
			"abi": [
				{
					"inputs": [
						{
							"internalType": "address",
							"name": "",
							"type": "address"
						}
					],
					"name": "balanceReceived",
					"outputs": [
						{
							"internalType": "uint256",
							"name": "",
							"type": "uint256"
						}
					],
					"stateMutability": "view",
					"type": "function"
				},
				{
					"inputs": [],
					"name": "getBalance",
					"outputs": [
						{
							"internalType": "uint256",
							"name": "",
							"type": "uint256"
						}
					],
					"stateMutability": "view",
					"type": "function"
				},
				{
					"inputs": [],
					"name": "sendMoney",
					"outputs": [],
					"stateMutability": "payable",
					"type": "function"
				},
				{
					"inputs": [
						{
							"internalType": "address payable",
							"name": "_dinesh",
							"type": "address"
						}
					],
					"name": "withdrawAllMoney",
					"outputs": [],
					"stateMutability": "nonpayable",
					"type": "function"
				},
				{
					"inputs": [
						{
							"internalType": "address payable",
							"name": "dinesh",
							"type": "address"
						},
						{
							"internalType": "uint256",
							"name": "amount",
							"type": "uint256"
						}
					],
					"name": "withdrawMoney",
					"outputs": [],
					"stateMutability": "nonpayable",
					"type": "function"
				}
			],
			"devdoc": {
				"kind": "dev",
				"methods": {},
				"version": 1
			},
			"evm": {
				"assembly": "    /* \"practice3.sol\":35:680  contract Examples{\r... */\n  mstore(0x40, 0x80)\n  callvalue\n  dup1\n  iszero\n  tag_1\n  jumpi\n  0x00\n  dup1\n  revert\ntag_1:\n  pop\n  dataSize(sub_0)\n  dup1\n  dataOffset(sub_0)\n  0x00\n  codecopy\n  0x00\n  return\nstop\n\nsub_0: assembly {\n        /* \"practice3.sol\":35:680  contract Examples{\r... */\n      mstore(0x40, 0x80)\n      jumpi(tag_1, lt(calldatasize, 0x04))\n      shr(0xe0, calldataload(0x00))\n      dup1\n      0x0adec93c\n      eq\n      tag_2\n      jumpi\n      dup1\n      0x12065fe0\n      eq\n      tag_3\n      jumpi\n      dup1\n      0xcbedbf5a\n      eq\n      tag_4\n      jumpi\n      dup1\n      0xd18a42e1\n      eq\n      tag_5\n      jumpi\n      dup1\n      0xf274c897\n      eq\n      tag_6\n      jumpi\n    tag_1:\n      0x00\n      dup1\n      revert\n        /* \"practice3.sol\":556:672  function withdrawAllMoney(address payable _dinesh ) public{\r... */\n    tag_2:\n      callvalue\n      dup1\n      iszero\n      tag_7\n      jumpi\n      0x00\n      dup1\n      revert\n    tag_7:\n      pop\n      tag_8\n      0x04\n      dup1\n      calldatasize\n      sub\n      dup2\n      add\n      swap1\n      tag_9\n      swap2\n      swap1\n      tag_10\n      jump\t// in\n    tag_9:\n      tag_11\n      jump\t// in\n    tag_8:\n      stop\n        /* \"practice3.sol\":111:205  function getBalance() public view returns(uint){\r... */\n    tag_3:\n      callvalue\n      dup1\n      iszero\n      tag_12\n      jumpi\n      0x00\n      dup1\n      revert\n    tag_12:\n      pop\n      tag_13\n      tag_14\n      jump\t// in\n    tag_13:\n      mload(0x40)\n      tag_15\n      swap2\n      swap1\n      tag_16\n      jump\t// in\n    tag_15:\n      mload(0x40)\n      dup1\n      swap2\n      sub\n      swap1\n      return\n        /* \"practice3.sol\":217:311  function sendMoney() public payable {\r... */\n    tag_4:\n      tag_17\n      tag_18\n      jump\t// in\n    tag_17:\n      stop\n        /* \"practice3.sol\":59:104  mapping(address=>uint) public balanceReceived */\n    tag_5:\n      callvalue\n      dup1\n      iszero\n      tag_19\n      jumpi\n      0x00\n      dup1\n      revert\n    tag_19:\n      pop\n      tag_20\n      0x04\n      dup1\n      calldatasize\n      sub\n      dup2\n      add\n      swap1\n      tag_21\n      swap2\n      swap1\n      tag_22\n      jump\t// in\n    tag_21:\n      tag_23\n      jump\t// in\n    tag_20:\n      mload(0x40)\n      tag_24\n      swap2\n      swap1\n      tag_16\n      jump\t// in\n    tag_24:\n      mload(0x40)\n      dup1\n      swap2\n      sub\n      swap1\n      return\n        /* \"practice3.sol\":319:548  function withdrawMoney(address payable dinesh,uint amount) public{\r... */\n    tag_6:\n      callvalue\n      dup1\n      iszero\n      tag_25\n      jumpi\n      0x00\n      dup1\n      revert\n    tag_25:\n      pop\n      tag_26\n      0x04\n      dup1\n      calldatasize\n      sub\n      dup2\n      add\n      swap1\n      tag_27\n      swap2\n      swap1\n      tag_28\n      jump\t// in\n    tag_27:\n      tag_29\n      jump\t// in\n    tag_26:\n      stop\n        /* \"practice3.sol\":556:672  function withdrawAllMoney(address payable _dinesh ) public{\r... */\n    tag_11:\n        /* \"practice3.sol\":625:632  _dinesh */\n      dup1\n        /* \"practice3.sol\":625:641  _dinesh.transfer */\n      0xffffffffffffffffffffffffffffffffffffffff\n      and\n        /* \"practice3.sol\":625:664  _dinesh.transfer(address(this).balance) */\n      0x08fc\n        /* \"practice3.sol\":642:663  address(this).balance */\n      selfbalance\n        /* \"practice3.sol\":625:664  _dinesh.transfer(address(this).balance) */\n      swap1\n      dup2\n      iszero\n      mul\n      swap1\n      mload(0x40)\n      0x00\n      mload(0x40)\n      dup1\n      dup4\n      sub\n      dup2\n      dup6\n      dup9\n      dup9\n      call\n      swap4\n      pop\n      pop\n      pop\n      pop\n      iszero\n      dup1\n      iszero\n      tag_32\n      jumpi\n      returndatasize\n      0x00\n      dup1\n      returndatacopy\n      revert(0x00, returndatasize)\n    tag_32:\n      pop\n        /* \"practice3.sol\":556:672  function withdrawAllMoney(address payable _dinesh ) public{\r... */\n      pop\n      jump\t// out\n        /* \"practice3.sol\":111:205  function getBalance() public view returns(uint){\r... */\n    tag_14:\n        /* \"practice3.sol\":153:157  uint */\n      0x00\n        /* \"practice3.sol\":176:197  address(this).balance */\n      selfbalance\n        /* \"practice3.sol\":169:197  return address(this).balance */\n      swap1\n      pop\n        /* \"practice3.sol\":111:205  function getBalance() public view returns(uint){\r... */\n      swap1\n      jump\t// out\n        /* \"practice3.sol\":217:311  function sendMoney() public payable {\r... */\n    tag_18:\n        /* \"practice3.sol\":292:301  msg.value */\n      callvalue\n        /* \"practice3.sol\":264:279  balanceReceived */\n      0x00\n        /* \"practice3.sol\":264:291  balanceReceived[msg.sender] */\n      dup1\n        /* \"practice3.sol\":280:290  msg.sender */\n      caller\n        /* \"practice3.sol\":264:291  balanceReceived[msg.sender] */\n      0xffffffffffffffffffffffffffffffffffffffff\n      and\n      0xffffffffffffffffffffffffffffffffffffffff\n      and\n      dup2\n      mstore\n      0x20\n      add\n      swap1\n      dup2\n      mstore\n      0x20\n      add\n      0x00\n      keccak256\n        /* \"practice3.sol\":264:301  balanceReceived[msg.sender]=msg.value */\n      dup2\n      swap1\n      sstore\n      pop\n        /* \"practice3.sol\":217:311  function sendMoney() public payable {\r... */\n      jump\t// out\n        /* \"practice3.sol\":59:104  mapping(address=>uint) public balanceReceived */\n    tag_23:\n      mstore(0x20, 0x00)\n      dup1\n      0x00\n      mstore\n      keccak256(0x00, 0x40)\n      0x00\n      swap2\n      pop\n      swap1\n      pop\n      sload\n      dup2\n      jump\t// out\n        /* \"practice3.sol\":319:548  function withdrawMoney(address payable dinesh,uint amount) public{\r... */\n    tag_29:\n        /* \"practice3.sol\":411:426  balanceReceived */\n      0x00\n        /* \"practice3.sol\":411:438  balanceReceived[msg.sender] */\n      dup1\n        /* \"practice3.sol\":427:437  msg.sender */\n      caller\n        /* \"practice3.sol\":411:438  balanceReceived[msg.sender] */\n      0xffffffffffffffffffffffffffffffffffffffff\n      and\n      0xffffffffffffffffffffffffffffffffffffffff\n      and\n      dup2\n      mstore\n      0x20\n      add\n      swap1\n      dup2\n      mstore\n      0x20\n      add\n      0x00\n      keccak256\n      sload\n        /* \"practice3.sol\":403:409  amount */\n      dup2\n        /* \"practice3.sol\":403:438  amount<=balanceReceived[msg.sender] */\n      gt\n      iszero\n        /* \"practice3.sol\":395:460  require(amount<=balanceReceived[msg.sender],\"Insuffient Balance\") */\n      tag_36\n      jumpi\n      mload(0x40)\n      0x08c379a000000000000000000000000000000000000000000000000000000000\n      dup2\n      mstore\n      0x04\n      add\n      tag_37\n      swap1\n      tag_38\n      jump\t// in\n    tag_37:\n      mload(0x40)\n      dup1\n      swap2\n      sub\n      swap1\n      revert\n    tag_36:\n        /* \"practice3.sol\":500:506  amount */\n      dup1\n        /* \"practice3.sol\":471:486  balanceReceived */\n      0x00\n        /* \"practice3.sol\":471:498  balanceReceived[msg.sender] */\n      dup1\n        /* \"practice3.sol\":487:497  msg.sender */\n      caller\n        /* \"practice3.sol\":471:498  balanceReceived[msg.sender] */\n      0xffffffffffffffffffffffffffffffffffffffff\n      and\n      0xffffffffffffffffffffffffffffffffffffffff\n      and\n      dup2\n      mstore\n      0x20\n      add\n      swap1\n      dup2\n      mstore\n      0x20\n      add\n      0x00\n      keccak256\n      0x00\n        /* \"practice3.sol\":471:506  balanceReceived[msg.sender]-=amount */\n      dup3\n      dup3\n      sload\n      tag_39\n      swap2\n      swap1\n      tag_40\n      jump\t// in\n    tag_39:\n      swap3\n      pop\n      pop\n      dup2\n      swap1\n      sstore\n      pop\n        /* \"practice3.sol\":517:523  dinesh */\n      dup2\n        /* \"practice3.sol\":517:532  dinesh.transfer */\n      0xffffffffffffffffffffffffffffffffffffffff\n      and\n        /* \"practice3.sol\":517:540  dinesh.transfer(amount) */\n      0x08fc\n        /* \"practice3.sol\":533:539  amount */\n      dup3\n        /* \"practice3.sol\":517:540  dinesh.transfer(amount) */\n      swap1\n      dup2\n      iszero\n      mul\n      swap1\n      mload(0x40)\n      0x00\n      mload(0x40)\n      dup1\n      dup4\n      sub\n      dup2\n      dup6\n      dup9\n      dup9\n      call\n      swap4\n      pop\n      pop\n      pop\n      pop\n      iszero\n      dup1\n      iszero\n      tag_42\n      jumpi\n      returndatasize\n      0x00\n      dup1\n      returndatacopy\n      revert(0x00, returndatasize)\n    tag_42:\n      pop\n        /* \"practice3.sol\":319:548  function withdrawMoney(address payable dinesh,uint amount) public{\r... */\n      pop\n      pop\n      jump\t// out\n        /* \"#utility.yul\":7:146   */\n    tag_44:\n        /* \"#utility.yul\":53:58   */\n      0x00\n        /* \"#utility.yul\":91:97   */\n      dup2\n        /* \"#utility.yul\":78:98   */\n      calldataload\n        /* \"#utility.yul\":69:98   */\n      swap1\n      pop\n        /* \"#utility.yul\":107:140   */\n      tag_46\n        /* \"#utility.yul\":134:139   */\n      dup2\n        /* \"#utility.yul\":107:140   */\n      tag_47\n      jump\t// in\n    tag_46:\n        /* \"#utility.yul\":7:146   */\n      swap3\n      swap2\n      pop\n      pop\n      jump\t// out\n        /* \"#utility.yul\":152:307   */\n    tag_48:\n        /* \"#utility.yul\":206:211   */\n      0x00\n        /* \"#utility.yul\":244:250   */\n      dup2\n        /* \"#utility.yul\":231:251   */\n      calldataload\n        /* \"#utility.yul\":222:251   */\n      swap1\n      pop\n        /* \"#utility.yul\":260:301   */\n      tag_50\n        /* \"#utility.yul\":295:300   */\n      dup2\n        /* \"#utility.yul\":260:301   */\n      tag_51\n      jump\t// in\n    tag_50:\n        /* \"#utility.yul\":152:307   */\n      swap3\n      swap2\n      pop\n      pop\n      jump\t// out\n        /* \"#utility.yul\":313:452   */\n    tag_52:\n        /* \"#utility.yul\":359:364   */\n      0x00\n        /* \"#utility.yul\":397:403   */\n      dup2\n        /* \"#utility.yul\":384:404   */\n      calldataload\n        /* \"#utility.yul\":375:404   */\n      swap1\n      pop\n        /* \"#utility.yul\":413:446   */\n      tag_54\n        /* \"#utility.yul\":440:445   */\n      dup2\n        /* \"#utility.yul\":413:446   */\n      tag_55\n      jump\t// in\n    tag_54:\n        /* \"#utility.yul\":313:452   */\n      swap3\n      swap2\n      pop\n      pop\n      jump\t// out\n        /* \"#utility.yul\":458:787   */\n    tag_22:\n        /* \"#utility.yul\":517:523   */\n      0x00\n        /* \"#utility.yul\":566:568   */\n      0x20\n        /* \"#utility.yul\":554:563   */\n      dup3\n        /* \"#utility.yul\":545:552   */\n      dup5\n        /* \"#utility.yul\":541:564   */\n      sub\n        /* \"#utility.yul\":537:569   */\n      slt\n        /* \"#utility.yul\":534:653   */\n      iszero\n      tag_57\n      jumpi\n        /* \"#utility.yul\":572:651   */\n      tag_58\n      tag_59\n      jump\t// in\n    tag_58:\n        /* \"#utility.yul\":534:653   */\n    tag_57:\n        /* \"#utility.yul\":692:693   */\n      0x00\n        /* \"#utility.yul\":717:770   */\n      tag_60\n        /* \"#utility.yul\":762:769   */\n      dup5\n        /* \"#utility.yul\":753:759   */\n      dup3\n        /* \"#utility.yul\":742:751   */\n      dup6\n        /* \"#utility.yul\":738:760   */\n      add\n        /* \"#utility.yul\":717:770   */\n      tag_44\n      jump\t// in\n    tag_60:\n        /* \"#utility.yul\":707:770   */\n      swap2\n      pop\n        /* \"#utility.yul\":663:780   */\n      pop\n        /* \"#utility.yul\":458:787   */\n      swap3\n      swap2\n      pop\n      pop\n      jump\t// out\n        /* \"#utility.yul\":793:1138   */\n    tag_10:\n        /* \"#utility.yul\":860:866   */\n      0x00\n        /* \"#utility.yul\":909:911   */\n      0x20\n        /* \"#utility.yul\":897:906   */\n      dup3\n        /* \"#utility.yul\":888:895   */\n      dup5\n        /* \"#utility.yul\":884:907   */\n      sub\n        /* \"#utility.yul\":880:912   */\n      slt\n        /* \"#utility.yul\":877:996   */\n      iszero\n      tag_62\n      jumpi\n        /* \"#utility.yul\":915:994   */\n      tag_63\n      tag_59\n      jump\t// in\n    tag_63:\n        /* \"#utility.yul\":877:996   */\n    tag_62:\n        /* \"#utility.yul\":1035:1036   */\n      0x00\n        /* \"#utility.yul\":1060:1121   */\n      tag_64\n        /* \"#utility.yul\":1113:1120   */\n      dup5\n        /* \"#utility.yul\":1104:1110   */\n      dup3\n        /* \"#utility.yul\":1093:1102   */\n      dup6\n        /* \"#utility.yul\":1089:1111   */\n      add\n        /* \"#utility.yul\":1060:1121   */\n      tag_48\n      jump\t// in\n    tag_64:\n        /* \"#utility.yul\":1050:1121   */\n      swap2\n      pop\n        /* \"#utility.yul\":1006:1131   */\n      pop\n        /* \"#utility.yul\":793:1138   */\n      swap3\n      swap2\n      pop\n      pop\n      jump\t// out\n        /* \"#utility.yul\":1144:1634   */\n    tag_28:\n        /* \"#utility.yul\":1220:1226   */\n      0x00\n        /* \"#utility.yul\":1228:1234   */\n      dup1\n        /* \"#utility.yul\":1277:1279   */\n      0x40\n        /* \"#utility.yul\":1265:1274   */\n      dup4\n        /* \"#utility.yul\":1256:1263   */\n      dup6\n        /* \"#utility.yul\":1252:1275   */\n      sub\n        /* \"#utility.yul\":1248:1280   */\n      slt\n        /* \"#utility.yul\":1245:1364   */\n      iszero\n      tag_66\n      jumpi\n        /* \"#utility.yul\":1283:1362   */\n      tag_67\n      tag_59\n      jump\t// in\n    tag_67:\n        /* \"#utility.yul\":1245:1364   */\n    tag_66:\n        /* \"#utility.yul\":1403:1404   */\n      0x00\n        /* \"#utility.yul\":1428:1489   */\n      tag_68\n        /* \"#utility.yul\":1481:1488   */\n      dup6\n        /* \"#utility.yul\":1472:1478   */\n      dup3\n        /* \"#utility.yul\":1461:1470   */\n      dup7\n        /* \"#utility.yul\":1457:1479   */\n      add\n        /* \"#utility.yul\":1428:1489   */\n      tag_48\n      jump\t// in\n    tag_68:\n        /* \"#utility.yul\":1418:1489   */\n      swap3\n      pop\n        /* \"#utility.yul\":1374:1499   */\n      pop\n        /* \"#utility.yul\":1538:1540   */\n      0x20\n        /* \"#utility.yul\":1564:1617   */\n      tag_69\n        /* \"#utility.yul\":1609:1616   */\n      dup6\n        /* \"#utility.yul\":1600:1606   */\n      dup3\n        /* \"#utility.yul\":1589:1598   */\n      dup7\n        /* \"#utility.yul\":1585:1607   */\n      add\n        /* \"#utility.yul\":1564:1617   */\n      tag_52\n      jump\t// in\n    tag_69:\n        /* \"#utility.yul\":1554:1617   */\n      swap2\n      pop\n        /* \"#utility.yul\":1509:1627   */\n      pop\n        /* \"#utility.yul\":1144:1634   */\n      swap3\n      pop\n      swap3\n      swap1\n      pop\n      jump\t// out\n        /* \"#utility.yul\":1640:2006   */\n    tag_70:\n        /* \"#utility.yul\":1782:1785   */\n      0x00\n        /* \"#utility.yul\":1803:1870   */\n      tag_72\n        /* \"#utility.yul\":1867:1869   */\n      0x12\n        /* \"#utility.yul\":1862:1865   */\n      dup4\n        /* \"#utility.yul\":1803:1870   */\n      tag_73\n      jump\t// in\n    tag_72:\n        /* \"#utility.yul\":1796:1870   */\n      swap2\n      pop\n        /* \"#utility.yul\":1879:1972   */\n      tag_74\n        /* \"#utility.yul\":1968:1971   */\n      dup3\n        /* \"#utility.yul\":1879:1972   */\n      tag_75\n      jump\t// in\n    tag_74:\n        /* \"#utility.yul\":1997:1999   */\n      0x20\n        /* \"#utility.yul\":1992:1995   */\n      dup3\n        /* \"#utility.yul\":1988:2000   */\n      add\n        /* \"#utility.yul\":1981:2000   */\n      swap1\n      pop\n        /* \"#utility.yul\":1640:2006   */\n      swap2\n      swap1\n      pop\n      jump\t// out\n        /* \"#utility.yul\":2012:2130   */\n    tag_76:\n        /* \"#utility.yul\":2099:2123   */\n      tag_78\n        /* \"#utility.yul\":2117:2122   */\n      dup2\n        /* \"#utility.yul\":2099:2123   */\n      tag_79\n      jump\t// in\n    tag_78:\n        /* \"#utility.yul\":2094:2097   */\n      dup3\n        /* \"#utility.yul\":2087:2124   */\n      mstore\n        /* \"#utility.yul\":2012:2130   */\n      pop\n      pop\n      jump\t// out\n        /* \"#utility.yul\":2136:2555   */\n    tag_38:\n        /* \"#utility.yul\":2302:2306   */\n      0x00\n        /* \"#utility.yul\":2340:2342   */\n      0x20\n        /* \"#utility.yul\":2329:2338   */\n      dup3\n        /* \"#utility.yul\":2325:2343   */\n      add\n        /* \"#utility.yul\":2317:2343   */\n      swap1\n      pop\n        /* \"#utility.yul\":2389:2398   */\n      dup2\n        /* \"#utility.yul\":2383:2387   */\n      dup2\n        /* \"#utility.yul\":2379:2399   */\n      sub\n        /* \"#utility.yul\":2375:2376   */\n      0x00\n        /* \"#utility.yul\":2364:2373   */\n      dup4\n        /* \"#utility.yul\":2360:2377   */\n      add\n        /* \"#utility.yul\":2353:2400   */\n      mstore\n        /* \"#utility.yul\":2417:2548   */\n      tag_81\n        /* \"#utility.yul\":2543:2547   */\n      dup2\n        /* \"#utility.yul\":2417:2548   */\n      tag_70\n      jump\t// in\n    tag_81:\n        /* \"#utility.yul\":2409:2548   */\n      swap1\n      pop\n        /* \"#utility.yul\":2136:2555   */\n      swap2\n      swap1\n      pop\n      jump\t// out\n        /* \"#utility.yul\":2561:2783   */\n    tag_16:\n        /* \"#utility.yul\":2654:2658   */\n      0x00\n        /* \"#utility.yul\":2692:2694   */\n      0x20\n        /* \"#utility.yul\":2681:2690   */\n      dup3\n        /* \"#utility.yul\":2677:2695   */\n      add\n        /* \"#utility.yul\":2669:2695   */\n      swap1\n      pop\n        /* \"#utility.yul\":2705:2776   */\n      tag_83\n        /* \"#utility.yul\":2773:2774   */\n      0x00\n        /* \"#utility.yul\":2762:2771   */\n      dup4\n        /* \"#utility.yul\":2758:2775   */\n      add\n        /* \"#utility.yul\":2749:2755   */\n      dup5\n        /* \"#utility.yul\":2705:2776   */\n      tag_76\n      jump\t// in\n    tag_83:\n        /* \"#utility.yul\":2561:2783   */\n      swap3\n      swap2\n      pop\n      pop\n      jump\t// out\n        /* \"#utility.yul\":2870:3039   */\n    tag_73:\n        /* \"#utility.yul\":2954:2965   */\n      0x00\n        /* \"#utility.yul\":2988:2994   */\n      dup3\n        /* \"#utility.yul\":2983:2986   */\n      dup3\n        /* \"#utility.yul\":2976:2995   */\n      mstore\n        /* \"#utility.yul\":3028:3032   */\n      0x20\n        /* \"#utility.yul\":3023:3026   */\n      dup3\n        /* \"#utility.yul\":3019:3033   */\n      add\n        /* \"#utility.yul\":3004:3033   */\n      swap1\n      pop\n        /* \"#utility.yul\":2870:3039   */\n      swap3\n      swap2\n      pop\n      pop\n      jump\t// out\n        /* \"#utility.yul\":3045:3236   */\n    tag_40:\n        /* \"#utility.yul\":3085:3089   */\n      0x00\n        /* \"#utility.yul\":3105:3125   */\n      tag_88\n        /* \"#utility.yul\":3123:3124   */\n      dup3\n        /* \"#utility.yul\":3105:3125   */\n      tag_79\n      jump\t// in\n    tag_88:\n        /* \"#utility.yul\":3100:3125   */\n      swap2\n      pop\n        /* \"#utility.yul\":3139:3159   */\n      tag_89\n        /* \"#utility.yul\":3157:3158   */\n      dup4\n        /* \"#utility.yul\":3139:3159   */\n      tag_79\n      jump\t// in\n    tag_89:\n        /* \"#utility.yul\":3134:3159   */\n      swap3\n      pop\n        /* \"#utility.yul\":3178:3179   */\n      dup3\n        /* \"#utility.yul\":3175:3176   */\n      dup3\n        /* \"#utility.yul\":3172:3180   */\n      lt\n        /* \"#utility.yul\":3169:3203   */\n      iszero\n      tag_90\n      jumpi\n        /* \"#utility.yul\":3183:3201   */\n      tag_91\n      tag_92\n      jump\t// in\n    tag_91:\n        /* \"#utility.yul\":3169:3203   */\n    tag_90:\n        /* \"#utility.yul\":3228:3229   */\n      dup3\n        /* \"#utility.yul\":3225:3226   */\n      dup3\n        /* \"#utility.yul\":3221:3230   */\n      sub\n        /* \"#utility.yul\":3213:3230   */\n      swap1\n      pop\n        /* \"#utility.yul\":3045:3236   */\n      swap3\n      swap2\n      pop\n      pop\n      jump\t// out\n        /* \"#utility.yul\":3242:3338   */\n    tag_93:\n        /* \"#utility.yul\":3279:3286   */\n      0x00\n        /* \"#utility.yul\":3308:3332   */\n      tag_95\n        /* \"#utility.yul\":3326:3331   */\n      dup3\n        /* \"#utility.yul\":3308:3332   */\n      tag_96\n      jump\t// in\n    tag_95:\n        /* \"#utility.yul\":3297:3332   */\n      swap1\n      pop\n        /* \"#utility.yul\":3242:3338   */\n      swap2\n      swap1\n      pop\n      jump\t// out\n        /* \"#utility.yul\":3344:3448   */\n    tag_97:\n        /* \"#utility.yul\":3389:3396   */\n      0x00\n        /* \"#utility.yul\":3418:3442   */\n      tag_99\n        /* \"#utility.yul\":3436:3441   */\n      dup3\n        /* \"#utility.yul\":3418:3442   */\n      tag_96\n      jump\t// in\n    tag_99:\n        /* \"#utility.yul\":3407:3442   */\n      swap1\n      pop\n        /* \"#utility.yul\":3344:3448   */\n      swap2\n      swap1\n      pop\n      jump\t// out\n        /* \"#utility.yul\":3454:3580   */\n    tag_96:\n        /* \"#utility.yul\":3491:3498   */\n      0x00\n        /* \"#utility.yul\":3531:3573   */\n      0xffffffffffffffffffffffffffffffffffffffff\n        /* \"#utility.yul\":3524:3529   */\n      dup3\n        /* \"#utility.yul\":3520:3574   */\n      and\n        /* \"#utility.yul\":3509:3574   */\n      swap1\n      pop\n        /* \"#utility.yul\":3454:3580   */\n      swap2\n      swap1\n      pop\n      jump\t// out\n        /* \"#utility.yul\":3586:3663   */\n    tag_79:\n        /* \"#utility.yul\":3623:3630   */\n      0x00\n        /* \"#utility.yul\":3652:3657   */\n      dup2\n        /* \"#utility.yul\":3641:3657   */\n      swap1\n      pop\n        /* \"#utility.yul\":3586:3663   */\n      swap2\n      swap1\n      pop\n      jump\t// out\n        /* \"#utility.yul\":3669:3849   */\n    tag_92:\n        /* \"#utility.yul\":3717:3794   */\n      0x4e487b7100000000000000000000000000000000000000000000000000000000\n        /* \"#utility.yul\":3714:3715   */\n      0x00\n        /* \"#utility.yul\":3707:3795   */\n      mstore\n        /* \"#utility.yul\":3814:3818   */\n      0x11\n        /* \"#utility.yul\":3811:3812   */\n      0x04\n        /* \"#utility.yul\":3804:3819   */\n      mstore\n        /* \"#utility.yul\":3838:3842   */\n      0x24\n        /* \"#utility.yul\":3835:3836   */\n      0x00\n        /* \"#utility.yul\":3828:3843   */\n      revert\n        /* \"#utility.yul\":3978:4095   */\n    tag_59:\n        /* \"#utility.yul\":4087:4088   */\n      0x00\n        /* \"#utility.yul\":4084:4085   */\n      dup1\n        /* \"#utility.yul\":4077:4089   */\n      revert\n        /* \"#utility.yul\":4101:4269   */\n    tag_75:\n        /* \"#utility.yul\":4241:4261   */\n      0x496e7375666669656e742042616c616e63650000000000000000000000000000\n        /* \"#utility.yul\":4237:4238   */\n      0x00\n        /* \"#utility.yul\":4229:4235   */\n      dup3\n        /* \"#utility.yul\":4225:4239   */\n      add\n        /* \"#utility.yul\":4218:4262   */\n      mstore\n        /* \"#utility.yul\":4101:4269   */\n      pop\n      jump\t// out\n        /* \"#utility.yul\":4275:4397   */\n    tag_47:\n        /* \"#utility.yul\":4348:4372   */\n      tag_108\n        /* \"#utility.yul\":4366:4371   */\n      dup2\n        /* \"#utility.yul\":4348:4372   */\n      tag_93\n      jump\t// in\n    tag_108:\n        /* \"#utility.yul\":4341:4346   */\n      dup2\n        /* \"#utility.yul\":4338:4373   */\n      eq\n        /* \"#utility.yul\":4328:4391   */\n      tag_109\n      jumpi\n        /* \"#utility.yul\":4387:4388   */\n      0x00\n        /* \"#utility.yul\":4384:4385   */\n      dup1\n        /* \"#utility.yul\":4377:4389   */\n      revert\n        /* \"#utility.yul\":4328:4391   */\n    tag_109:\n        /* \"#utility.yul\":4275:4397   */\n      pop\n      jump\t// out\n        /* \"#utility.yul\":4403:4541   */\n    tag_51:\n        /* \"#utility.yul\":4484:4516   */\n      tag_111\n        /* \"#utility.yul\":4510:4515   */\n      dup2\n        /* \"#utility.yul\":4484:4516   */\n      tag_97\n      jump\t// in\n    tag_111:\n        /* \"#utility.yul\":4477:4482   */\n      dup2\n        /* \"#utility.yul\":4474:4517   */\n      eq\n        /* \"#utility.yul\":4464:4535   */\n      tag_112\n      jumpi\n        /* \"#utility.yul\":4531:4532   */\n      0x00\n        /* \"#utility.yul\":4528:4529   */\n      dup1\n        /* \"#utility.yul\":4521:4533   */\n      revert\n        /* \"#utility.yul\":4464:4535   */\n    tag_112:\n        /* \"#utility.yul\":4403:4541   */\n      pop\n      jump\t// out\n        /* \"#utility.yul\":4547:4669   */\n    tag_55:\n        /* \"#utility.yul\":4620:4644   */\n      tag_114\n        /* \"#utility.yul\":4638:4643   */\n      dup2\n        /* \"#utility.yul\":4620:4644   */\n      tag_79\n      jump\t// in\n    tag_114:\n        /* \"#utility.yul\":4613:4618   */\n      dup2\n        /* \"#utility.yul\":4610:4645   */\n      eq\n        /* \"#utility.yul\":4600:4663   */\n      tag_115\n      jumpi\n        /* \"#utility.yul\":4659:4660   */\n      0x00\n        /* \"#utility.yul\":4656:4657   */\n      dup1\n        /* \"#utility.yul\":4649:4661   */\n      revert\n        /* \"#utility.yul\":4600:4663   */\n    tag_115:\n        /* \"#utility.yul\":4547:4669   */\n      pop\n      jump\t// out\n\n    auxdata: 0xa26469706673582212204a23772e63a2b1c9c3f8ae4414e26952dfdf6ad2abd03d65fbe24df91486dc4564736f6c63430008070033\n}\n",
				"bytecode": {
					"linkReferences": {},
					"object": "608060405234801561001057600080fd5b50610594806100206000396000f3fe60806040526004361061004a5760003560e01c80630adec93c1461004f57806312065fe014610078578063cbedbf5a146100a3578063d18a42e1146100ad578063f274c897146100ea575b600080fd5b34801561005b57600080fd5b506100766004803603810190610071919061034f565b610113565b005b34801561008457600080fd5b5061008d61015d565b60405161009a919061040e565b60405180910390f35b6100ab610165565b005b3480156100b957600080fd5b506100d460048036038101906100cf9190610322565b6101aa565b6040516100e1919061040e565b60405180910390f35b3480156100f657600080fd5b50610111600480360381019061010c919061037c565b6101c2565b005b8073ffffffffffffffffffffffffffffffffffffffff166108fc479081150290604051600060405180830381858888f19350505050158015610159573d6000803e3d6000fd5b5050565b600047905090565b346000803373ffffffffffffffffffffffffffffffffffffffff1673ffffffffffffffffffffffffffffffffffffffff16815260200190815260200160002081905550565b60006020528060005260406000206000915090505481565b6000803373ffffffffffffffffffffffffffffffffffffffff1673ffffffffffffffffffffffffffffffffffffffff16815260200190815260200160002054811115610243576040517f08c379a000000000000000000000000000000000000000000000000000000000815260040161023a906103ee565b60405180910390fd5b806000803373ffffffffffffffffffffffffffffffffffffffff1673ffffffffffffffffffffffffffffffffffffffff1681526020019081526020016000206000828254610291919061043a565b925050819055508173ffffffffffffffffffffffffffffffffffffffff166108fc829081150290604051600060405180830381858888f193505050501580156102de573d6000803e3d6000fd5b505050565b6000813590506102f281610519565b92915050565b60008135905061030781610530565b92915050565b60008135905061031c81610547565b92915050565b600060208284031215610338576103376104eb565b5b6000610346848285016102e3565b91505092915050565b600060208284031215610365576103646104eb565b5b6000610373848285016102f8565b91505092915050565b60008060408385031215610393576103926104eb565b5b60006103a1858286016102f8565b92505060206103b28582860161030d565b9150509250929050565b60006103c9601283610429565b91506103d4826104f0565b602082019050919050565b6103e8816104b2565b82525050565b60006020820190508181036000830152610407816103bc565b9050919050565b600060208201905061042360008301846103df565b92915050565b600082825260208201905092915050565b6000610445826104b2565b9150610450836104b2565b925082821015610463576104626104bc565b5b828203905092915050565b600061047982610492565b9050919050565b600061048b82610492565b9050919050565b600073ffffffffffffffffffffffffffffffffffffffff82169050919050565b6000819050919050565b7f4e487b7100000000000000000000000000000000000000000000000000000000600052601160045260246000fd5b600080fd5b7f496e7375666669656e742042616c616e63650000000000000000000000000000600082015250565b6105228161046e565b811461052d57600080fd5b50565b61053981610480565b811461054457600080fd5b50565b610550816104b2565b811461055b57600080fd5b5056fea26469706673582212204a23772e63a2b1c9c3f8ae4414e26952dfdf6ad2abd03d65fbe24df91486dc4564736f6c63430008070033",
					"opcodes": "PUSH1 0x80 PUSH1 0x40 MSTORE CALLVALUE DUP1 ISZERO PUSH2 0x10 JUMPI PUSH1 0x0 DUP1 REVERT JUMPDEST POP PUSH2 0x594 DUP1 PUSH2 0x20 PUSH1 0x0 CODECOPY PUSH1 0x0 RETURN INVALID PUSH1 0x80 PUSH1 0x40 MSTORE PUSH1 0x4 CALLDATASIZE LT PUSH2 0x4A JUMPI PUSH1 0x0 CALLDATALOAD PUSH1 0xE0 SHR DUP1 PUSH4 0xADEC93C EQ PUSH2 0x4F JUMPI DUP1 PUSH4 0x12065FE0 EQ PUSH2 0x78 JUMPI DUP1 PUSH4 0xCBEDBF5A EQ PUSH2 0xA3 JUMPI DUP1 PUSH4 0xD18A42E1 EQ PUSH2 0xAD JUMPI DUP1 PUSH4 0xF274C897 EQ PUSH2 0xEA JUMPI JUMPDEST PUSH1 0x0 DUP1 REVERT JUMPDEST CALLVALUE DUP1 ISZERO PUSH2 0x5B JUMPI PUSH1 0x0 DUP1 REVERT JUMPDEST POP PUSH2 0x76 PUSH1 0x4 DUP1 CALLDATASIZE SUB DUP2 ADD SWAP1 PUSH2 0x71 SWAP2 SWAP1 PUSH2 0x34F JUMP JUMPDEST PUSH2 0x113 JUMP JUMPDEST STOP JUMPDEST CALLVALUE DUP1 ISZERO PUSH2 0x84 JUMPI PUSH1 0x0 DUP1 REVERT JUMPDEST POP PUSH2 0x8D PUSH2 0x15D JUMP JUMPDEST PUSH1 0x40 MLOAD PUSH2 0x9A SWAP2 SWAP1 PUSH2 0x40E JUMP JUMPDEST PUSH1 0x40 MLOAD DUP1 SWAP2 SUB SWAP1 RETURN JUMPDEST PUSH2 0xAB PUSH2 0x165 JUMP JUMPDEST STOP JUMPDEST CALLVALUE DUP1 ISZERO PUSH2 0xB9 JUMPI PUSH1 0x0 DUP1 REVERT JUMPDEST POP PUSH2 0xD4 PUSH1 0x4 DUP1 CALLDATASIZE SUB DUP2 ADD SWAP1 PUSH2 0xCF SWAP2 SWAP1 PUSH2 0x322 JUMP JUMPDEST PUSH2 0x1AA JUMP JUMPDEST PUSH1 0x40 MLOAD PUSH2 0xE1 SWAP2 SWAP1 PUSH2 0x40E JUMP JUMPDEST PUSH1 0x40 MLOAD DUP1 SWAP2 SUB SWAP1 RETURN JUMPDEST CALLVALUE DUP1 ISZERO PUSH2 0xF6 JUMPI PUSH1 0x0 DUP1 REVERT JUMPDEST POP PUSH2 0x111 PUSH1 0x4 DUP1 CALLDATASIZE SUB DUP2 ADD SWAP1 PUSH2 0x10C SWAP2 SWAP1 PUSH2 0x37C JUMP JUMPDEST PUSH2 0x1C2 JUMP JUMPDEST STOP JUMPDEST DUP1 PUSH20 0xFFFFFFFFFFFFFFFFFFFFFFFFFFFFFFFFFFFFFFFF AND PUSH2 0x8FC SELFBALANCE SWAP1 DUP2 ISZERO MUL SWAP1 PUSH1 0x40 MLOAD PUSH1 0x0 PUSH1 0x40 MLOAD DUP1 DUP4 SUB DUP2 DUP6 DUP9 DUP9 CALL SWAP4 POP POP POP POP ISZERO DUP1 ISZERO PUSH2 0x159 JUMPI RETURNDATASIZE PUSH1 0x0 DUP1 RETURNDATACOPY RETURNDATASIZE PUSH1 0x0 REVERT JUMPDEST POP POP JUMP JUMPDEST PUSH1 0x0 SELFBALANCE SWAP1 POP SWAP1 JUMP JUMPDEST CALLVALUE PUSH1 0x0 DUP1 CALLER PUSH20 0xFFFFFFFFFFFFFFFFFFFFFFFFFFFFFFFFFFFFFFFF AND PUSH20 0xFFFFFFFFFFFFFFFFFFFFFFFFFFFFFFFFFFFFFFFF AND DUP2 MSTORE PUSH1 0x20 ADD SWAP1 DUP2 MSTORE PUSH1 0x20 ADD PUSH1 0x0 KECCAK256 DUP2 SWAP1 SSTORE POP JUMP JUMPDEST PUSH1 0x0 PUSH1 0x20 MSTORE DUP1 PUSH1 0x0 MSTORE PUSH1 0x40 PUSH1 0x0 KECCAK256 PUSH1 0x0 SWAP2 POP SWAP1 POP SLOAD DUP2 JUMP JUMPDEST PUSH1 0x0 DUP1 CALLER PUSH20 0xFFFFFFFFFFFFFFFFFFFFFFFFFFFFFFFFFFFFFFFF AND PUSH20 0xFFFFFFFFFFFFFFFFFFFFFFFFFFFFFFFFFFFFFFFF AND DUP2 MSTORE PUSH1 0x20 ADD SWAP1 DUP2 MSTORE PUSH1 0x20 ADD PUSH1 0x0 KECCAK256 SLOAD DUP2 GT ISZERO PUSH2 0x243 JUMPI PUSH1 0x40 MLOAD PUSH32 0x8C379A000000000000000000000000000000000000000000000000000000000 DUP2 MSTORE PUSH1 0x4 ADD PUSH2 0x23A SWAP1 PUSH2 0x3EE JUMP JUMPDEST PUSH1 0x40 MLOAD DUP1 SWAP2 SUB SWAP1 REVERT JUMPDEST DUP1 PUSH1 0x0 DUP1 CALLER PUSH20 0xFFFFFFFFFFFFFFFFFFFFFFFFFFFFFFFFFFFFFFFF AND PUSH20 0xFFFFFFFFFFFFFFFFFFFFFFFFFFFFFFFFFFFFFFFF AND DUP2 MSTORE PUSH1 0x20 ADD SWAP1 DUP2 MSTORE PUSH1 0x20 ADD PUSH1 0x0 KECCAK256 PUSH1 0x0 DUP3 DUP3 SLOAD PUSH2 0x291 SWAP2 SWAP1 PUSH2 0x43A JUMP JUMPDEST SWAP3 POP POP DUP2 SWAP1 SSTORE POP DUP2 PUSH20 0xFFFFFFFFFFFFFFFFFFFFFFFFFFFFFFFFFFFFFFFF AND PUSH2 0x8FC DUP3 SWAP1 DUP2 ISZERO MUL SWAP1 PUSH1 0x40 MLOAD PUSH1 0x0 PUSH1 0x40 MLOAD DUP1 DUP4 SUB DUP2 DUP6 DUP9 DUP9 CALL SWAP4 POP POP POP POP ISZERO DUP1 ISZERO PUSH2 0x2DE JUMPI RETURNDATASIZE PUSH1 0x0 DUP1 RETURNDATACOPY RETURNDATASIZE PUSH1 0x0 REVERT JUMPDEST POP POP POP JUMP JUMPDEST PUSH1 0x0 DUP2 CALLDATALOAD SWAP1 POP PUSH2 0x2F2 DUP2 PUSH2 0x519 JUMP JUMPDEST SWAP3 SWAP2 POP POP JUMP JUMPDEST PUSH1 0x0 DUP2 CALLDATALOAD SWAP1 POP PUSH2 0x307 DUP2 PUSH2 0x530 JUMP JUMPDEST SWAP3 SWAP2 POP POP JUMP JUMPDEST PUSH1 0x0 DUP2 CALLDATALOAD SWAP1 POP PUSH2 0x31C DUP2 PUSH2 0x547 JUMP JUMPDEST SWAP3 SWAP2 POP POP JUMP JUMPDEST PUSH1 0x0 PUSH1 0x20 DUP3 DUP5 SUB SLT ISZERO PUSH2 0x338 JUMPI PUSH2 0x337 PUSH2 0x4EB JUMP JUMPDEST JUMPDEST PUSH1 0x0 PUSH2 0x346 DUP5 DUP3 DUP6 ADD PUSH2 0x2E3 JUMP JUMPDEST SWAP2 POP POP SWAP3 SWAP2 POP POP JUMP JUMPDEST PUSH1 0x0 PUSH1 0x20 DUP3 DUP5 SUB SLT ISZERO PUSH2 0x365 JUMPI PUSH2 0x364 PUSH2 0x4EB JUMP JUMPDEST JUMPDEST PUSH1 0x0 PUSH2 0x373 DUP5 DUP3 DUP6 ADD PUSH2 0x2F8 JUMP JUMPDEST SWAP2 POP POP SWAP3 SWAP2 POP POP JUMP JUMPDEST PUSH1 0x0 DUP1 PUSH1 0x40 DUP4 DUP6 SUB SLT ISZERO PUSH2 0x393 JUMPI PUSH2 0x392 PUSH2 0x4EB JUMP JUMPDEST JUMPDEST PUSH1 0x0 PUSH2 0x3A1 DUP6 DUP3 DUP7 ADD PUSH2 0x2F8 JUMP JUMPDEST SWAP3 POP POP PUSH1 0x20 PUSH2 0x3B2 DUP6 DUP3 DUP7 ADD PUSH2 0x30D JUMP JUMPDEST SWAP2 POP POP SWAP3 POP SWAP3 SWAP1 POP JUMP JUMPDEST PUSH1 0x0 PUSH2 0x3C9 PUSH1 0x12 DUP4 PUSH2 0x429 JUMP JUMPDEST SWAP2 POP PUSH2 0x3D4 DUP3 PUSH2 0x4F0 JUMP JUMPDEST PUSH1 0x20 DUP3 ADD SWAP1 POP SWAP2 SWAP1 POP JUMP JUMPDEST PUSH2 0x3E8 DUP2 PUSH2 0x4B2 JUMP JUMPDEST DUP3 MSTORE POP POP JUMP JUMPDEST PUSH1 0x0 PUSH1 0x20 DUP3 ADD SWAP1 POP DUP2 DUP2 SUB PUSH1 0x0 DUP4 ADD MSTORE PUSH2 0x407 DUP2 PUSH2 0x3BC JUMP JUMPDEST SWAP1 POP SWAP2 SWAP1 POP JUMP JUMPDEST PUSH1 0x0 PUSH1 0x20 DUP3 ADD SWAP1 POP PUSH2 0x423 PUSH1 0x0 DUP4 ADD DUP5 PUSH2 0x3DF JUMP JUMPDEST SWAP3 SWAP2 POP POP JUMP JUMPDEST PUSH1 0x0 DUP3 DUP3 MSTORE PUSH1 0x20 DUP3 ADD SWAP1 POP SWAP3 SWAP2 POP POP JUMP JUMPDEST PUSH1 0x0 PUSH2 0x445 DUP3 PUSH2 0x4B2 JUMP JUMPDEST SWAP2 POP PUSH2 0x450 DUP4 PUSH2 0x4B2 JUMP JUMPDEST SWAP3 POP DUP3 DUP3 LT ISZERO PUSH2 0x463 JUMPI PUSH2 0x462 PUSH2 0x4BC JUMP JUMPDEST JUMPDEST DUP3 DUP3 SUB SWAP1 POP SWAP3 SWAP2 POP POP JUMP JUMPDEST PUSH1 0x0 PUSH2 0x479 DUP3 PUSH2 0x492 JUMP JUMPDEST SWAP1 POP SWAP2 SWAP1 POP JUMP JUMPDEST PUSH1 0x0 PUSH2 0x48B DUP3 PUSH2 0x492 JUMP JUMPDEST SWAP1 POP SWAP2 SWAP1 POP JUMP JUMPDEST PUSH1 0x0 PUSH20 0xFFFFFFFFFFFFFFFFFFFFFFFFFFFFFFFFFFFFFFFF DUP3 AND SWAP1 POP SWAP2 SWAP1 POP JUMP JUMPDEST PUSH1 0x0 DUP2 SWAP1 POP SWAP2 SWAP1 POP JUMP JUMPDEST PUSH32 0x4E487B7100000000000000000000000000000000000000000000000000000000 PUSH1 0x0 MSTORE PUSH1 0x11 PUSH1 0x4 MSTORE PUSH1 0x24 PUSH1 0x0 REVERT JUMPDEST PUSH1 0x0 DUP1 REVERT JUMPDEST PUSH32 0x496E7375666669656E742042616C616E63650000000000000000000000000000 PUSH1 0x0 DUP3 ADD MSTORE POP JUMP JUMPDEST PUSH2 0x522 DUP2 PUSH2 0x46E JUMP JUMPDEST DUP2 EQ PUSH2 0x52D JUMPI PUSH1 0x0 DUP1 REVERT JUMPDEST POP JUMP JUMPDEST PUSH2 0x539 DUP2 PUSH2 0x480 JUMP JUMPDEST DUP2 EQ PUSH2 0x544 JUMPI PUSH1 0x0 DUP1 REVERT JUMPDEST POP JUMP JUMPDEST PUSH2 0x550 DUP2 PUSH2 0x4B2 JUMP JUMPDEST DUP2 EQ PUSH2 0x55B JUMPI PUSH1 0x0 DUP1 REVERT JUMPDEST POP JUMP INVALID LOG2 PUSH5 0x6970667358 0x22 SLT KECCAK256 0x4A 0x23 PUSH24 0x2E63A2B1C9C3F8AE4414E26952DFDF6AD2ABD03D65FBE24D 0xF9 EQ DUP7 0xDC GASLIMIT PUSH5 0x736F6C6343 STOP ADDMOD SMOD STOP CALLER "
				},
				"gasEstimates": {
					"creation": {
						"codeDepositCost": "285600",
						"executionCost": "324",
						"totalCost": "285924"
					},
					"external": {
						"balanceReceived(address)": "2858",
						"getBalance()": "339",
						"sendMoney()": "22344",
						"withdrawAllMoney(address)": "infinite",
						"withdrawMoney(address,uint256)": "infinite"
					}
				},
				"methodIdentifiers": {
					"balanceReceived(address)": "d18a42e1",
					"getBalance()": "12065fe0",
					"sendMoney()": "cbedbf5a",
					"withdrawAllMoney(address)": "0adec93c",
					"withdrawMoney(address,uint256)": "f274c897"
				}
			},
			"storageLayout": {
				"storage": [
					{
						"astId": 5,
						"contract": "practice3.sol:Examples",
						"label": "balanceReceived",
						"offset": 0,
						"slot": "0",
						"type": "t_mapping(t_address,t_uint256)"
					}
				],
				"types": {
					"t_address": {
						"encoding": "inplace",
						"label": "address",
						"numberOfBytes": "20"
					},
					"t_mapping(t_address,t_uint256)": {
						"encoding": "mapping",
						"key": "t_address",
						"label": "mapping(address => uint256)",
						"numberOfBytes": "32",
						"value": "t_uint256"
					},
					"t_uint256": {
						"encoding": "inplace",
						"label": "uint256",
						"numberOfBytes": "32"
					}
				}
			},
			"userdoc": {
				"kind": "user",
				"methods": {},
				"version": 1
			}
		}
	}
}