{
	"exceptionExample.sol": {
		"ExceptionExample": {
			"abi": [
				{
					"inputs": [],
					"stateMutability": "payable",
					"type": "constructor"
				},
				{
					"inputs": [
						{
							"internalType": "address",
							"name": "",
							"type": "address"
						}
					],
					"name": "balanceReceived",
					"outputs": [
						{
							"internalType": "uint256",
							"name": "",
							"type": "uint256"
						}
					],
					"stateMutability": "view",
					"type": "function"
				},
				{
					"inputs": [],
					"name": "destroySmartContract",
					"outputs": [],
					"stateMutability": "nonpayable",
					"type": "function"
				},
				{
					"inputs": [],
					"name": "receiveMoney",
					"outputs": [],
					"stateMutability": "payable",
					"type": "function"
				},
				{
					"inputs": [
						{
							"internalType": "address payable",
							"name": "dinesh",
							"type": "address"
						},
						{
							"internalType": "uint256",
							"name": "amount",
							"type": "uint256"
						}
					],
					"name": "withdrawMoney",
					"outputs": [],
					"stateMutability": "nonpayable",
					"type": "function"
				},
				{
					"stateMutability": "payable",
					"type": "receive"
				}
			],
			"devdoc": {
				"kind": "dev",
				"methods": {},
				"version": 1
			},
			"evm": {
				"assembly": "    /* \"exceptionExample.sol\":33:952  contract ExceptionExample{\r... */\n  mstore(0x40, 0x80)\n    /* \"exceptionExample.sol\":196:206  msg.sender */\n  caller\n    /* \"exceptionExample.sol\":182:187  owner */\n  0x01\n  0x00\n    /* \"exceptionExample.sol\":182:207  owner=payable(msg.sender) */\n  0x0100\n  exp\n  dup2\n  sload\n  dup2\n  0xffffffffffffffffffffffffffffffffffffffff\n  mul\n  not\n  and\n  swap1\n  dup4\n  0xffffffffffffffffffffffffffffffffffffffff\n  and\n  mul\n  or\n  swap1\n  sstore\n  pop\n    /* \"exceptionExample.sol\":33:952  contract ExceptionExample{\r... */\n  dataSize(sub_0)\n  dup1\n  dataOffset(sub_0)\n  0x00\n  codecopy\n  0x00\n  return\nstop\n\nsub_0: assembly {\n        /* \"exceptionExample.sol\":33:952  contract ExceptionExample{\r... */\n      mstore(0x40, 0x80)\n      jumpi(tag_1, lt(calldatasize, 0x04))\n      shr(0xe0, calldataload(0x00))\n      dup1\n      0x6d26ec18\n      eq\n      tag_3\n      jumpi\n      dup1\n      0x85474728\n      eq\n      tag_4\n      jumpi\n      dup1\n      0xd18a42e1\n      eq\n      tag_5\n      jumpi\n      dup1\n      0xf274c897\n      eq\n      tag_6\n      jumpi\n      jump(tag_2)\n    tag_1:\n      jumpi(tag_2, calldatasize)\n        /* \"exceptionExample.sol\":927:941  receiveMoney() */\n      tag_9\n        /* \"exceptionExample.sol\":927:939  receiveMoney */\n      tag_10\n        /* \"exceptionExample.sol\":927:941  receiveMoney() */\n      jump\t// in\n    tag_9:\n        /* \"exceptionExample.sol\":33:952  contract ExceptionExample{\r... */\n      stop\n    tag_2:\n      0x00\n      dup1\n      revert\n        /* \"exceptionExample.sol\":369:559  function receiveMoney() public payable{\r... */\n    tag_3:\n      tag_11\n      tag_10\n      jump\t// in\n    tag_11:\n      stop\n        /* \"exceptionExample.sol\":223:361  function destroySmartContract() public{\r... */\n    tag_4:\n      callvalue\n      dup1\n      iszero\n      tag_12\n      jumpi\n      0x00\n      dup1\n      revert\n    tag_12:\n      pop\n      tag_13\n      tag_14\n      jump\t// in\n    tag_13:\n      stop\n        /* \"exceptionExample.sol\":67:112  mapping(address=>uint) public balanceReceived */\n    tag_5:\n      callvalue\n      dup1\n      iszero\n      tag_15\n      jumpi\n      0x00\n      dup1\n      revert\n    tag_15:\n      pop\n      tag_16\n      0x04\n      dup1\n      calldatasize\n      sub\n      dup2\n      add\n      swap1\n      tag_17\n      swap2\n      swap1\n      tag_18\n      jump\t// in\n    tag_17:\n      tag_19\n      jump\t// in\n    tag_16:\n      mload(0x40)\n      tag_20\n      swap2\n      swap1\n      tag_21\n      jump\t// in\n    tag_20:\n      mload(0x40)\n      dup1\n      swap2\n      sub\n      swap1\n      return\n        /* \"exceptionExample.sol\":567:878  function withdrawMoney(address payable dinesh, uint amount ) public{\r... */\n    tag_6:\n      callvalue\n      dup1\n      iszero\n      tag_22\n      jumpi\n      0x00\n      dup1\n      revert\n    tag_22:\n      pop\n      tag_23\n      0x04\n      dup1\n      calldatasize\n      sub\n      dup2\n      add\n      swap1\n      tag_24\n      swap2\n      swap1\n      tag_25\n      jump\t// in\n    tag_24:\n      tag_26\n      jump\t// in\n    tag_23:\n      stop\n        /* \"exceptionExample.sol\":369:559  function receiveMoney() public payable{\r... */\n    tag_10:\n        /* \"exceptionExample.sol\":466:481  balanceReceived */\n      0x00\n        /* \"exceptionExample.sol\":466:493  balanceReceived[msg.sender] */\n      dup1\n        /* \"exceptionExample.sol\":482:492  msg.sender */\n      caller\n        /* \"exceptionExample.sol\":466:493  balanceReceived[msg.sender] */\n      0xffffffffffffffffffffffffffffffffffffffff\n      and\n      0xffffffffffffffffffffffffffffffffffffffff\n      and\n      dup2\n      mstore\n      0x20\n      add\n      swap1\n      dup2\n      mstore\n      0x20\n      add\n      0x00\n      keccak256\n      sload\n        /* \"exceptionExample.sol\":453:462  msg.value */\n      callvalue\n        /* \"exceptionExample.sol\":425:440  balanceReceived */\n      0x00\n        /* \"exceptionExample.sol\":425:452  balanceReceived[msg.sender] */\n      dup1\n        /* \"exceptionExample.sol\":441:451  msg.sender */\n      caller\n        /* \"exceptionExample.sol\":425:452  balanceReceived[msg.sender] */\n      0xffffffffffffffffffffffffffffffffffffffff\n      and\n      0xffffffffffffffffffffffffffffffffffffffff\n      and\n      dup2\n      mstore\n      0x20\n      add\n      swap1\n      dup2\n      mstore\n      0x20\n      add\n      0x00\n      keccak256\n      sload\n        /* \"exceptionExample.sol\":425:462  balanceReceived[msg.sender]+msg.value */\n      tag_28\n      swap2\n      swap1\n      tag_29\n      jump\t// in\n    tag_28:\n        /* \"exceptionExample.sol\":425:493  balanceReceived[msg.sender]+msg.value >= balanceReceived[msg.sender] */\n      lt\n      iszero\n        /* \"exceptionExample.sol\":418:494  assert(balanceReceived[msg.sender]+msg.value >= balanceReceived[msg.sender]) */\n      tag_30\n      jumpi\n      tag_31\n      tag_32\n      jump\t// in\n    tag_31:\n    tag_30:\n        /* \"exceptionExample.sol\":539:548  msg.value */\n      callvalue\n        /* \"exceptionExample.sol\":505:520  balanceReceived */\n      0x00\n        /* \"exceptionExample.sol\":505:532  balanceReceived[msg.sender] */\n      dup1\n        /* \"exceptionExample.sol\":521:531  msg.sender */\n      caller\n        /* \"exceptionExample.sol\":505:532  balanceReceived[msg.sender] */\n      0xffffffffffffffffffffffffffffffffffffffff\n      and\n      0xffffffffffffffffffffffffffffffffffffffff\n      and\n      dup2\n      mstore\n      0x20\n      add\n      swap1\n      dup2\n      mstore\n      0x20\n      add\n      0x00\n      keccak256\n      0x00\n        /* \"exceptionExample.sol\":505:549  balanceReceived[msg.sender]+=uint(msg.value) */\n      dup3\n      dup3\n      sload\n      tag_33\n      swap2\n      swap1\n      tag_29\n      jump\t// in\n    tag_33:\n      swap3\n      pop\n      pop\n      dup2\n      swap1\n      sstore\n      pop\n        /* \"exceptionExample.sol\":369:559  function receiveMoney() public payable{\r... */\n      jump\t// out\n        /* \"exceptionExample.sol\":223:361  function destroySmartContract() public{\r... */\n    tag_14:\n        /* \"exceptionExample.sol\":293:298  owner */\n      0x01\n      0x00\n      swap1\n      sload\n      swap1\n      0x0100\n      exp\n      swap1\n      div\n      0xffffffffffffffffffffffffffffffffffffffff\n      and\n        /* \"exceptionExample.sol\":280:298  msg.sender== owner */\n      0xffffffffffffffffffffffffffffffffffffffff\n      and\n        /* \"exceptionExample.sol\":280:290  msg.sender */\n      caller\n        /* \"exceptionExample.sol\":280:298  msg.sender== owner */\n      0xffffffffffffffffffffffffffffffffffffffff\n      and\n      eq\n        /* \"exceptionExample.sol\":272:323  require(msg.sender== owner,\"You are not the owner\") */\n      tag_35\n      jumpi\n      mload(0x40)\n      0x08c379a000000000000000000000000000000000000000000000000000000000\n      dup2\n      mstore\n      0x04\n      add\n      tag_36\n      swap1\n      tag_37\n      jump\t// in\n    tag_36:\n      mload(0x40)\n      dup1\n      swap2\n      sub\n      swap1\n      revert\n    tag_35:\n        /* \"exceptionExample.sol\":347:352  owner */\n      0x01\n      0x00\n      swap1\n      sload\n      swap1\n      0x0100\n      exp\n      swap1\n      div\n      0xffffffffffffffffffffffffffffffffffffffff\n      and\n        /* \"exceptionExample.sol\":334:353  selfdestruct(owner) */\n      0xffffffffffffffffffffffffffffffffffffffff\n      and\n      selfdestruct\n        /* \"exceptionExample.sol\":67:112  mapping(address=>uint) public balanceReceived */\n    tag_19:\n      mstore(0x20, 0x00)\n      dup1\n      0x00\n      mstore\n      keccak256(0x00, 0x40)\n      0x00\n      swap2\n      pop\n      swap1\n      pop\n      sload\n      dup2\n      jump\t// out\n        /* \"exceptionExample.sol\":567:878  function withdrawMoney(address payable dinesh, uint amount ) public{\r... */\n    tag_26:\n        /* \"exceptionExample.sol\":682:688  amount */\n      dup1\n        /* \"exceptionExample.sol\":653:668  balanceReceived */\n      0x00\n        /* \"exceptionExample.sol\":653:680  balanceReceived[msg.sender] */\n      dup1\n        /* \"exceptionExample.sol\":669:679  msg.sender */\n      caller\n        /* \"exceptionExample.sol\":653:680  balanceReceived[msg.sender] */\n      0xffffffffffffffffffffffffffffffffffffffff\n      and\n      0xffffffffffffffffffffffffffffffffffffffff\n      and\n      dup2\n      mstore\n      0x20\n      add\n      swap1\n      dup2\n      mstore\n      0x20\n      add\n      0x00\n      keccak256\n      sload\n        /* \"exceptionExample.sol\":653:688  balanceReceived[msg.sender]>=amount */\n      lt\n      iszero\n        /* \"exceptionExample.sol\":645:708  require(balanceReceived[msg.sender]>=amount,\"Insuffient Ether\") */\n      tag_39\n      jumpi\n      mload(0x40)\n      0x08c379a000000000000000000000000000000000000000000000000000000000\n      dup2\n      mstore\n      0x04\n      add\n      tag_40\n      swap1\n      tag_41\n      jump\t// in\n    tag_40:\n      mload(0x40)\n      dup1\n      swap2\n      sub\n      swap1\n      revert\n    tag_39:\n        /* \"exceptionExample.sol\":783:789  amount */\n      dup1\n        /* \"exceptionExample.sol\":755:770  balanceReceived */\n      0x00\n        /* \"exceptionExample.sol\":755:782  balanceReceived[msg.sender] */\n      dup1\n        /* \"exceptionExample.sol\":771:781  msg.sender */\n      caller\n        /* \"exceptionExample.sol\":755:782  balanceReceived[msg.sender] */\n      0xffffffffffffffffffffffffffffffffffffffff\n      and\n      0xffffffffffffffffffffffffffffffffffffffff\n      and\n      dup2\n      mstore\n      0x20\n      add\n      swap1\n      dup2\n      mstore\n      0x20\n      add\n      0x00\n      keccak256\n      sload\n        /* \"exceptionExample.sol\":755:789  balanceReceived[msg.sender]-amount */\n      tag_42\n      swap2\n      swap1\n      tag_43\n      jump\t// in\n    tag_42:\n        /* \"exceptionExample.sol\":726:741  balanceReceived */\n      0x00\n        /* \"exceptionExample.sol\":726:753  balanceReceived[msg.sender] */\n      dup1\n        /* \"exceptionExample.sol\":742:752  msg.sender */\n      caller\n        /* \"exceptionExample.sol\":726:753  balanceReceived[msg.sender] */\n      0xffffffffffffffffffffffffffffffffffffffff\n      and\n      0xffffffffffffffffffffffffffffffffffffffff\n      and\n      dup2\n      mstore\n      0x20\n      add\n      swap1\n      dup2\n      mstore\n      0x20\n      add\n      0x00\n      keccak256\n      sload\n        /* \"exceptionExample.sol\":726:789  balanceReceived[msg.sender]>=balanceReceived[msg.sender]-amount */\n      lt\n      iszero\n        /* \"exceptionExample.sol\":719:790  assert(balanceReceived[msg.sender]>=balanceReceived[msg.sender]-amount) */\n      tag_44\n      jumpi\n      tag_45\n      tag_32\n      jump\t// in\n    tag_45:\n    tag_44:\n        /* \"exceptionExample.sol\":830:836  amount */\n      dup1\n        /* \"exceptionExample.sol\":801:816  balanceReceived */\n      0x00\n        /* \"exceptionExample.sol\":801:828  balanceReceived[msg.sender] */\n      dup1\n        /* \"exceptionExample.sol\":817:827  msg.sender */\n      caller\n        /* \"exceptionExample.sol\":801:828  balanceReceived[msg.sender] */\n      0xffffffffffffffffffffffffffffffffffffffff\n      and\n      0xffffffffffffffffffffffffffffffffffffffff\n      and\n      dup2\n      mstore\n      0x20\n      add\n      swap1\n      dup2\n      mstore\n      0x20\n      add\n      0x00\n      keccak256\n      0x00\n        /* \"exceptionExample.sol\":801:836  balanceReceived[msg.sender]-=amount */\n      dup3\n      dup3\n      sload\n      tag_46\n      swap2\n      swap1\n      tag_43\n      jump\t// in\n    tag_46:\n      swap3\n      pop\n      pop\n      dup2\n      swap1\n      sstore\n      pop\n        /* \"exceptionExample.sol\":847:853  dinesh */\n      dup2\n        /* \"exceptionExample.sol\":847:862  dinesh.transfer */\n      0xffffffffffffffffffffffffffffffffffffffff\n      and\n        /* \"exceptionExample.sol\":847:870  dinesh.transfer(amount) */\n      0x08fc\n        /* \"exceptionExample.sol\":863:869  amount */\n      dup3\n        /* \"exceptionExample.sol\":847:870  dinesh.transfer(amount) */\n      swap1\n      dup2\n      iszero\n      mul\n      swap1\n      mload(0x40)\n      0x00\n      mload(0x40)\n      dup1\n      dup4\n      sub\n      dup2\n      dup6\n      dup9\n      dup9\n      call\n      swap4\n      pop\n      pop\n      pop\n      pop\n      iszero\n      dup1\n      iszero\n      tag_48\n      jumpi\n      returndatasize\n      0x00\n      dup1\n      returndatacopy\n      revert(0x00, returndatasize)\n    tag_48:\n      pop\n        /* \"exceptionExample.sol\":567:878  function withdrawMoney(address payable dinesh, uint amount ) public{\r... */\n      pop\n      pop\n      jump\t// out\n        /* \"#utility.yul\":7:146   */\n    tag_50:\n        /* \"#utility.yul\":53:58   */\n      0x00\n        /* \"#utility.yul\":91:97   */\n      dup2\n        /* \"#utility.yul\":78:98   */\n      calldataload\n        /* \"#utility.yul\":69:98   */\n      swap1\n      pop\n        /* \"#utility.yul\":107:140   */\n      tag_52\n        /* \"#utility.yul\":134:139   */\n      dup2\n        /* \"#utility.yul\":107:140   */\n      tag_53\n      jump\t// in\n    tag_52:\n        /* \"#utility.yul\":7:146   */\n      swap3\n      swap2\n      pop\n      pop\n      jump\t// out\n        /* \"#utility.yul\":152:307   */\n    tag_54:\n        /* \"#utility.yul\":206:211   */\n      0x00\n        /* \"#utility.yul\":244:250   */\n      dup2\n        /* \"#utility.yul\":231:251   */\n      calldataload\n        /* \"#utility.yul\":222:251   */\n      swap1\n      pop\n        /* \"#utility.yul\":260:301   */\n      tag_56\n        /* \"#utility.yul\":295:300   */\n      dup2\n        /* \"#utility.yul\":260:301   */\n      tag_57\n      jump\t// in\n    tag_56:\n        /* \"#utility.yul\":152:307   */\n      swap3\n      swap2\n      pop\n      pop\n      jump\t// out\n        /* \"#utility.yul\":313:452   */\n    tag_58:\n        /* \"#utility.yul\":359:364   */\n      0x00\n        /* \"#utility.yul\":397:403   */\n      dup2\n        /* \"#utility.yul\":384:404   */\n      calldataload\n        /* \"#utility.yul\":375:404   */\n      swap1\n      pop\n        /* \"#utility.yul\":413:446   */\n      tag_60\n        /* \"#utility.yul\":440:445   */\n      dup2\n        /* \"#utility.yul\":413:446   */\n      tag_61\n      jump\t// in\n    tag_60:\n        /* \"#utility.yul\":313:452   */\n      swap3\n      swap2\n      pop\n      pop\n      jump\t// out\n        /* \"#utility.yul\":458:787   */\n    tag_18:\n        /* \"#utility.yul\":517:523   */\n      0x00\n        /* \"#utility.yul\":566:568   */\n      0x20\n        /* \"#utility.yul\":554:563   */\n      dup3\n        /* \"#utility.yul\":545:552   */\n      dup5\n        /* \"#utility.yul\":541:564   */\n      sub\n        /* \"#utility.yul\":537:569   */\n      slt\n        /* \"#utility.yul\":534:653   */\n      iszero\n      tag_63\n      jumpi\n        /* \"#utility.yul\":572:651   */\n      tag_64\n      tag_65\n      jump\t// in\n    tag_64:\n        /* \"#utility.yul\":534:653   */\n    tag_63:\n        /* \"#utility.yul\":692:693   */\n      0x00\n        /* \"#utility.yul\":717:770   */\n      tag_66\n        /* \"#utility.yul\":762:769   */\n      dup5\n        /* \"#utility.yul\":753:759   */\n      dup3\n        /* \"#utility.yul\":742:751   */\n      dup6\n        /* \"#utility.yul\":738:760   */\n      add\n        /* \"#utility.yul\":717:770   */\n      tag_50\n      jump\t// in\n    tag_66:\n        /* \"#utility.yul\":707:770   */\n      swap2\n      pop\n        /* \"#utility.yul\":663:780   */\n      pop\n        /* \"#utility.yul\":458:787   */\n      swap3\n      swap2\n      pop\n      pop\n      jump\t// out\n        /* \"#utility.yul\":793:1283   */\n    tag_25:\n        /* \"#utility.yul\":869:875   */\n      0x00\n        /* \"#utility.yul\":877:883   */\n      dup1\n        /* \"#utility.yul\":926:928   */\n      0x40\n        /* \"#utility.yul\":914:923   */\n      dup4\n        /* \"#utility.yul\":905:912   */\n      dup6\n        /* \"#utility.yul\":901:924   */\n      sub\n        /* \"#utility.yul\":897:929   */\n      slt\n        /* \"#utility.yul\":894:1013   */\n      iszero\n      tag_68\n      jumpi\n        /* \"#utility.yul\":932:1011   */\n      tag_69\n      tag_65\n      jump\t// in\n    tag_69:\n        /* \"#utility.yul\":894:1013   */\n    tag_68:\n        /* \"#utility.yul\":1052:1053   */\n      0x00\n        /* \"#utility.yul\":1077:1138   */\n      tag_70\n        /* \"#utility.yul\":1130:1137   */\n      dup6\n        /* \"#utility.yul\":1121:1127   */\n      dup3\n        /* \"#utility.yul\":1110:1119   */\n      dup7\n        /* \"#utility.yul\":1106:1128   */\n      add\n        /* \"#utility.yul\":1077:1138   */\n      tag_54\n      jump\t// in\n    tag_70:\n        /* \"#utility.yul\":1067:1138   */\n      swap3\n      pop\n        /* \"#utility.yul\":1023:1148   */\n      pop\n        /* \"#utility.yul\":1187:1189   */\n      0x20\n        /* \"#utility.yul\":1213:1266   */\n      tag_71\n        /* \"#utility.yul\":1258:1265   */\n      dup6\n        /* \"#utility.yul\":1249:1255   */\n      dup3\n        /* \"#utility.yul\":1238:1247   */\n      dup7\n        /* \"#utility.yul\":1234:1256   */\n      add\n        /* \"#utility.yul\":1213:1266   */\n      tag_58\n      jump\t// in\n    tag_71:\n        /* \"#utility.yul\":1203:1266   */\n      swap2\n      pop\n        /* \"#utility.yul\":1158:1276   */\n      pop\n        /* \"#utility.yul\":793:1283   */\n      swap3\n      pop\n      swap3\n      swap1\n      pop\n      jump\t// out\n        /* \"#utility.yul\":1289:1655   */\n    tag_72:\n        /* \"#utility.yul\":1431:1434   */\n      0x00\n        /* \"#utility.yul\":1452:1519   */\n      tag_74\n        /* \"#utility.yul\":1516:1518   */\n      0x10\n        /* \"#utility.yul\":1511:1514   */\n      dup4\n        /* \"#utility.yul\":1452:1519   */\n      tag_75\n      jump\t// in\n    tag_74:\n        /* \"#utility.yul\":1445:1519   */\n      swap2\n      pop\n        /* \"#utility.yul\":1528:1621   */\n      tag_76\n        /* \"#utility.yul\":1617:1620   */\n      dup3\n        /* \"#utility.yul\":1528:1621   */\n      tag_77\n      jump\t// in\n    tag_76:\n        /* \"#utility.yul\":1646:1648   */\n      0x20\n        /* \"#utility.yul\":1641:1644   */\n      dup3\n        /* \"#utility.yul\":1637:1649   */\n      add\n        /* \"#utility.yul\":1630:1649   */\n      swap1\n      pop\n        /* \"#utility.yul\":1289:1655   */\n      swap2\n      swap1\n      pop\n      jump\t// out\n        /* \"#utility.yul\":1661:2027   */\n    tag_78:\n        /* \"#utility.yul\":1803:1806   */\n      0x00\n        /* \"#utility.yul\":1824:1891   */\n      tag_80\n        /* \"#utility.yul\":1888:1890   */\n      0x15\n        /* \"#utility.yul\":1883:1886   */\n      dup4\n        /* \"#utility.yul\":1824:1891   */\n      tag_75\n      jump\t// in\n    tag_80:\n        /* \"#utility.yul\":1817:1891   */\n      swap2\n      pop\n        /* \"#utility.yul\":1900:1993   */\n      tag_81\n        /* \"#utility.yul\":1989:1992   */\n      dup3\n        /* \"#utility.yul\":1900:1993   */\n      tag_82\n      jump\t// in\n    tag_81:\n        /* \"#utility.yul\":2018:2020   */\n      0x20\n        /* \"#utility.yul\":2013:2016   */\n      dup3\n        /* \"#utility.yul\":2009:2021   */\n      add\n        /* \"#utility.yul\":2002:2021   */\n      swap1\n      pop\n        /* \"#utility.yul\":1661:2027   */\n      swap2\n      swap1\n      pop\n      jump\t// out\n        /* \"#utility.yul\":2033:2151   */\n    tag_83:\n        /* \"#utility.yul\":2120:2144   */\n      tag_85\n        /* \"#utility.yul\":2138:2143   */\n      dup2\n        /* \"#utility.yul\":2120:2144   */\n      tag_86\n      jump\t// in\n    tag_85:\n        /* \"#utility.yul\":2115:2118   */\n      dup3\n        /* \"#utility.yul\":2108:2145   */\n      mstore\n        /* \"#utility.yul\":2033:2151   */\n      pop\n      pop\n      jump\t// out\n        /* \"#utility.yul\":2157:2576   */\n    tag_41:\n        /* \"#utility.yul\":2323:2327   */\n      0x00\n        /* \"#utility.yul\":2361:2363   */\n      0x20\n        /* \"#utility.yul\":2350:2359   */\n      dup3\n        /* \"#utility.yul\":2346:2364   */\n      add\n        /* \"#utility.yul\":2338:2364   */\n      swap1\n      pop\n        /* \"#utility.yul\":2410:2419   */\n      dup2\n        /* \"#utility.yul\":2404:2408   */\n      dup2\n        /* \"#utility.yul\":2400:2420   */\n      sub\n        /* \"#utility.yul\":2396:2397   */\n      0x00\n        /* \"#utility.yul\":2385:2394   */\n      dup4\n        /* \"#utility.yul\":2381:2398   */\n      add\n        /* \"#utility.yul\":2374:2421   */\n      mstore\n        /* \"#utility.yul\":2438:2569   */\n      tag_88\n        /* \"#utility.yul\":2564:2568   */\n      dup2\n        /* \"#utility.yul\":2438:2569   */\n      tag_72\n      jump\t// in\n    tag_88:\n        /* \"#utility.yul\":2430:2569   */\n      swap1\n      pop\n        /* \"#utility.yul\":2157:2576   */\n      swap2\n      swap1\n      pop\n      jump\t// out\n        /* \"#utility.yul\":2582:3001   */\n    tag_37:\n        /* \"#utility.yul\":2748:2752   */\n      0x00\n        /* \"#utility.yul\":2786:2788   */\n      0x20\n        /* \"#utility.yul\":2775:2784   */\n      dup3\n        /* \"#utility.yul\":2771:2789   */\n      add\n        /* \"#utility.yul\":2763:2789   */\n      swap1\n      pop\n        /* \"#utility.yul\":2835:2844   */\n      dup2\n        /* \"#utility.yul\":2829:2833   */\n      dup2\n        /* \"#utility.yul\":2825:2845   */\n      sub\n        /* \"#utility.yul\":2821:2822   */\n      0x00\n        /* \"#utility.yul\":2810:2819   */\n      dup4\n        /* \"#utility.yul\":2806:2823   */\n      add\n        /* \"#utility.yul\":2799:2846   */\n      mstore\n        /* \"#utility.yul\":2863:2994   */\n      tag_90\n        /* \"#utility.yul\":2989:2993   */\n      dup2\n        /* \"#utility.yul\":2863:2994   */\n      tag_78\n      jump\t// in\n    tag_90:\n        /* \"#utility.yul\":2855:2994   */\n      swap1\n      pop\n        /* \"#utility.yul\":2582:3001   */\n      swap2\n      swap1\n      pop\n      jump\t// out\n        /* \"#utility.yul\":3007:3229   */\n    tag_21:\n        /* \"#utility.yul\":3100:3104   */\n      0x00\n        /* \"#utility.yul\":3138:3140   */\n      0x20\n        /* \"#utility.yul\":3127:3136   */\n      dup3\n        /* \"#utility.yul\":3123:3141   */\n      add\n        /* \"#utility.yul\":3115:3141   */\n      swap1\n      pop\n        /* \"#utility.yul\":3151:3222   */\n      tag_92\n        /* \"#utility.yul\":3219:3220   */\n      0x00\n        /* \"#utility.yul\":3208:3217   */\n      dup4\n        /* \"#utility.yul\":3204:3221   */\n      add\n        /* \"#utility.yul\":3195:3201   */\n      dup5\n        /* \"#utility.yul\":3151:3222   */\n      tag_83\n      jump\t// in\n    tag_92:\n        /* \"#utility.yul\":3007:3229   */\n      swap3\n      swap2\n      pop\n      pop\n      jump\t// out\n        /* \"#utility.yul\":3316:3485   */\n    tag_75:\n        /* \"#utility.yul\":3400:3411   */\n      0x00\n        /* \"#utility.yul\":3434:3440   */\n      dup3\n        /* \"#utility.yul\":3429:3432   */\n      dup3\n        /* \"#utility.yul\":3422:3441   */\n      mstore\n        /* \"#utility.yul\":3474:3478   */\n      0x20\n        /* \"#utility.yul\":3469:3472   */\n      dup3\n        /* \"#utility.yul\":3465:3479   */\n      add\n        /* \"#utility.yul\":3450:3479   */\n      swap1\n      pop\n        /* \"#utility.yul\":3316:3485   */\n      swap3\n      swap2\n      pop\n      pop\n      jump\t// out\n        /* \"#utility.yul\":3491:3796   */\n    tag_29:\n        /* \"#utility.yul\":3531:3534   */\n      0x00\n        /* \"#utility.yul\":3550:3570   */\n      tag_97\n        /* \"#utility.yul\":3568:3569   */\n      dup3\n        /* \"#utility.yul\":3550:3570   */\n      tag_86\n      jump\t// in\n    tag_97:\n        /* \"#utility.yul\":3545:3570   */\n      swap2\n      pop\n        /* \"#utility.yul\":3584:3604   */\n      tag_98\n        /* \"#utility.yul\":3602:3603   */\n      dup4\n        /* \"#utility.yul\":3584:3604   */\n      tag_86\n      jump\t// in\n    tag_98:\n        /* \"#utility.yul\":3579:3604   */\n      swap3\n      pop\n        /* \"#utility.yul\":3738:3739   */\n      dup3\n        /* \"#utility.yul\":3670:3736   */\n      0xffffffffffffffffffffffffffffffffffffffffffffffffffffffffffffffff\n        /* \"#utility.yul\":3666:3740   */\n      sub\n        /* \"#utility.yul\":3663:3664   */\n      dup3\n        /* \"#utility.yul\":3660:3741   */\n      gt\n        /* \"#utility.yul\":3657:3764   */\n      iszero\n      tag_99\n      jumpi\n        /* \"#utility.yul\":3744:3762   */\n      tag_100\n      tag_101\n      jump\t// in\n    tag_100:\n        /* \"#utility.yul\":3657:3764   */\n    tag_99:\n        /* \"#utility.yul\":3788:3789   */\n      dup3\n        /* \"#utility.yul\":3785:3786   */\n      dup3\n        /* \"#utility.yul\":3781:3790   */\n      add\n        /* \"#utility.yul\":3774:3790   */\n      swap1\n      pop\n        /* \"#utility.yul\":3491:3796   */\n      swap3\n      swap2\n      pop\n      pop\n      jump\t// out\n        /* \"#utility.yul\":3802:3993   */\n    tag_43:\n        /* \"#utility.yul\":3842:3846   */\n      0x00\n        /* \"#utility.yul\":3862:3882   */\n      tag_103\n        /* \"#utility.yul\":3880:3881   */\n      dup3\n        /* \"#utility.yul\":3862:3882   */\n      tag_86\n      jump\t// in\n    tag_103:\n        /* \"#utility.yul\":3857:3882   */\n      swap2\n      pop\n        /* \"#utility.yul\":3896:3916   */\n      tag_104\n        /* \"#utility.yul\":3914:3915   */\n      dup4\n        /* \"#utility.yul\":3896:3916   */\n      tag_86\n      jump\t// in\n    tag_104:\n        /* \"#utility.yul\":3891:3916   */\n      swap3\n      pop\n        /* \"#utility.yul\":3935:3936   */\n      dup3\n        /* \"#utility.yul\":3932:3933   */\n      dup3\n        /* \"#utility.yul\":3929:3937   */\n      lt\n        /* \"#utility.yul\":3926:3960   */\n      iszero\n      tag_105\n      jumpi\n        /* \"#utility.yul\":3940:3958   */\n      tag_106\n      tag_101\n      jump\t// in\n    tag_106:\n        /* \"#utility.yul\":3926:3960   */\n    tag_105:\n        /* \"#utility.yul\":3985:3986   */\n      dup3\n        /* \"#utility.yul\":3982:3983   */\n      dup3\n        /* \"#utility.yul\":3978:3987   */\n      sub\n        /* \"#utility.yul\":3970:3987   */\n      swap1\n      pop\n        /* \"#utility.yul\":3802:3993   */\n      swap3\n      swap2\n      pop\n      pop\n      jump\t// out\n        /* \"#utility.yul\":3999:4095   */\n    tag_107:\n        /* \"#utility.yul\":4036:4043   */\n      0x00\n        /* \"#utility.yul\":4065:4089   */\n      tag_109\n        /* \"#utility.yul\":4083:4088   */\n      dup3\n        /* \"#utility.yul\":4065:4089   */\n      tag_110\n      jump\t// in\n    tag_109:\n        /* \"#utility.yul\":4054:4089   */\n      swap1\n      pop\n        /* \"#utility.yul\":3999:4095   */\n      swap2\n      swap1\n      pop\n      jump\t// out\n        /* \"#utility.yul\":4101:4205   */\n    tag_111:\n        /* \"#utility.yul\":4146:4153   */\n      0x00\n        /* \"#utility.yul\":4175:4199   */\n      tag_113\n        /* \"#utility.yul\":4193:4198   */\n      dup3\n        /* \"#utility.yul\":4175:4199   */\n      tag_110\n      jump\t// in\n    tag_113:\n        /* \"#utility.yul\":4164:4199   */\n      swap1\n      pop\n        /* \"#utility.yul\":4101:4205   */\n      swap2\n      swap1\n      pop\n      jump\t// out\n        /* \"#utility.yul\":4211:4337   */\n    tag_110:\n        /* \"#utility.yul\":4248:4255   */\n      0x00\n        /* \"#utility.yul\":4288:4330   */\n      0xffffffffffffffffffffffffffffffffffffffff\n        /* \"#utility.yul\":4281:4286   */\n      dup3\n        /* \"#utility.yul\":4277:4331   */\n      and\n        /* \"#utility.yul\":4266:4331   */\n      swap1\n      pop\n        /* \"#utility.yul\":4211:4337   */\n      swap2\n      swap1\n      pop\n      jump\t// out\n        /* \"#utility.yul\":4343:4420   */\n    tag_86:\n        /* \"#utility.yul\":4380:4387   */\n      0x00\n        /* \"#utility.yul\":4409:4414   */\n      dup2\n        /* \"#utility.yul\":4398:4414   */\n      swap1\n      pop\n        /* \"#utility.yul\":4343:4420   */\n      swap2\n      swap1\n      pop\n      jump\t// out\n        /* \"#utility.yul\":4426:4606   */\n    tag_32:\n        /* \"#utility.yul\":4474:4551   */\n      0x4e487b7100000000000000000000000000000000000000000000000000000000\n        /* \"#utility.yul\":4471:4472   */\n      0x00\n        /* \"#utility.yul\":4464:4552   */\n      mstore\n        /* \"#utility.yul\":4571:4575   */\n      0x01\n        /* \"#utility.yul\":4568:4569   */\n      0x04\n        /* \"#utility.yul\":4561:4576   */\n      mstore\n        /* \"#utility.yul\":4595:4599   */\n      0x24\n        /* \"#utility.yul\":4592:4593   */\n      0x00\n        /* \"#utility.yul\":4585:4600   */\n      revert\n        /* \"#utility.yul\":4612:4792   */\n    tag_101:\n        /* \"#utility.yul\":4660:4737   */\n      0x4e487b7100000000000000000000000000000000000000000000000000000000\n        /* \"#utility.yul\":4657:4658   */\n      0x00\n        /* \"#utility.yul\":4650:4738   */\n      mstore\n        /* \"#utility.yul\":4757:4761   */\n      0x11\n        /* \"#utility.yul\":4754:4755   */\n      0x04\n        /* \"#utility.yul\":4747:4762   */\n      mstore\n        /* \"#utility.yul\":4781:4785   */\n      0x24\n        /* \"#utility.yul\":4778:4779   */\n      0x00\n        /* \"#utility.yul\":4771:4786   */\n      revert\n        /* \"#utility.yul\":4921:5038   */\n    tag_65:\n        /* \"#utility.yul\":5030:5031   */\n      0x00\n        /* \"#utility.yul\":5027:5028   */\n      dup1\n        /* \"#utility.yul\":5020:5032   */\n      revert\n        /* \"#utility.yul\":5044:5210   */\n    tag_77:\n        /* \"#utility.yul\":5184:5202   */\n      0x496e7375666669656e7420457468657200000000000000000000000000000000\n        /* \"#utility.yul\":5180:5181   */\n      0x00\n        /* \"#utility.yul\":5172:5178   */\n      dup3\n        /* \"#utility.yul\":5168:5182   */\n      add\n        /* \"#utility.yul\":5161:5203   */\n      mstore\n        /* \"#utility.yul\":5044:5210   */\n      pop\n      jump\t// out\n        /* \"#utility.yul\":5216:5387   */\n    tag_82:\n        /* \"#utility.yul\":5356:5379   */\n      0x596f7520617265206e6f7420746865206f776e65720000000000000000000000\n        /* \"#utility.yul\":5352:5353   */\n      0x00\n        /* \"#utility.yul\":5344:5350   */\n      dup3\n        /* \"#utility.yul\":5340:5354   */\n      add\n        /* \"#utility.yul\":5333:5380   */\n      mstore\n        /* \"#utility.yul\":5216:5387   */\n      pop\n      jump\t// out\n        /* \"#utility.yul\":5393:5515   */\n    tag_53:\n        /* \"#utility.yul\":5466:5490   */\n      tag_124\n        /* \"#utility.yul\":5484:5489   */\n      dup2\n        /* \"#utility.yul\":5466:5490   */\n      tag_107\n      jump\t// in\n    tag_124:\n        /* \"#utility.yul\":5459:5464   */\n      dup2\n        /* \"#utility.yul\":5456:5491   */\n      eq\n        /* \"#utility.yul\":5446:5509   */\n      tag_125\n      jumpi\n        /* \"#utility.yul\":5505:5506   */\n      0x00\n        /* \"#utility.yul\":5502:5503   */\n      dup1\n        /* \"#utility.yul\":5495:5507   */\n      revert\n        /* \"#utility.yul\":5446:5509   */\n    tag_125:\n        /* \"#utility.yul\":5393:5515   */\n      pop\n      jump\t// out\n        /* \"#utility.yul\":5521:5659   */\n    tag_57:\n        /* \"#utility.yul\":5602:5634   */\n      tag_127\n        /* \"#utility.yul\":5628:5633   */\n      dup2\n        /* \"#utility.yul\":5602:5634   */\n      tag_111\n      jump\t// in\n    tag_127:\n        /* \"#utility.yul\":5595:5600   */\n      dup2\n        /* \"#utility.yul\":5592:5635   */\n      eq\n        /* \"#utility.yul\":5582:5653   */\n      tag_128\n      jumpi\n        /* \"#utility.yul\":5649:5650   */\n      0x00\n        /* \"#utility.yul\":5646:5647   */\n      dup1\n        /* \"#utility.yul\":5639:5651   */\n      revert\n        /* \"#utility.yul\":5582:5653   */\n    tag_128:\n        /* \"#utility.yul\":5521:5659   */\n      pop\n      jump\t// out\n        /* \"#utility.yul\":5665:5787   */\n    tag_61:\n        /* \"#utility.yul\":5738:5762   */\n      tag_130\n        /* \"#utility.yul\":5756:5761   */\n      dup2\n        /* \"#utility.yul\":5738:5762   */\n      tag_86\n      jump\t// in\n    tag_130:\n        /* \"#utility.yul\":5731:5736   */\n      dup2\n        /* \"#utility.yul\":5728:5763   */\n      eq\n        /* \"#utility.yul\":5718:5781   */\n      tag_131\n      jumpi\n        /* \"#utility.yul\":5777:5778   */\n      0x00\n        /* \"#utility.yul\":5774:5775   */\n      dup1\n        /* \"#utility.yul\":5767:5779   */\n      revert\n        /* \"#utility.yul\":5718:5781   */\n    tag_131:\n        /* \"#utility.yul\":5665:5787   */\n      pop\n      jump\t// out\n\n    auxdata: 0xa2646970667358221220cb6fc8b105347b7b3faafd814c7ac0df8ecf4053a3a0e8bd6f6f570bc091754164736f6c63430008070033\n}\n",
				"bytecode": {
					"linkReferences": {},
					"object": "608060405233600160006101000a81548173ffffffffffffffffffffffffffffffffffffffff021916908373ffffffffffffffffffffffffffffffffffffffff1602179055506107de806100546000396000f3fe6080604052600436106100435760003560e01c80636d26ec18146100575780638547472814610061578063d18a42e114610078578063f274c897146100b557610052565b36610052576100506100de565b005b600080fd5b61005f6100de565b005b34801561006d57600080fd5b506100766101cd565b005b34801561008457600080fd5b5061009f600480360381019061009a91906104a8565b610298565b6040516100ac91906105aa565b60405180910390f35b3480156100c157600080fd5b506100dc60048036038101906100d791906104d5565b6102b0565b005b6000803373ffffffffffffffffffffffffffffffffffffffff1673ffffffffffffffffffffffffffffffffffffffff16815260200190815260200160002054346000803373ffffffffffffffffffffffffffffffffffffffff1673ffffffffffffffffffffffffffffffffffffffff1681526020019081526020016000205461016791906105d6565b1015610176576101756106ae565b5b346000803373ffffffffffffffffffffffffffffffffffffffff1673ffffffffffffffffffffffffffffffffffffffff16815260200190815260200160002060008282546101c491906105d6565b92505081905550565b600160009054906101000a900473ffffffffffffffffffffffffffffffffffffffff1673ffffffffffffffffffffffffffffffffffffffff163373ffffffffffffffffffffffffffffffffffffffff161461025d576040517f08c379a00000000000000000000000000000000000000000000000000000000081526004016102549061058a565b60405180910390fd5b600160009054906101000a900473ffffffffffffffffffffffffffffffffffffffff1673ffffffffffffffffffffffffffffffffffffffff16ff5b60006020528060005260406000206000915090505481565b806000803373ffffffffffffffffffffffffffffffffffffffff1673ffffffffffffffffffffffffffffffffffffffff168152602001908152602001600020541015610331576040517f08c379a00000000000000000000000000000000000000000000000000000000081526004016103289061056a565b60405180910390fd5b806000803373ffffffffffffffffffffffffffffffffffffffff1673ffffffffffffffffffffffffffffffffffffffff1681526020019081526020016000205461037b919061062c565b6000803373ffffffffffffffffffffffffffffffffffffffff1673ffffffffffffffffffffffffffffffffffffffff1681526020019081526020016000205410156103c9576103c86106ae565b5b806000803373ffffffffffffffffffffffffffffffffffffffff1673ffffffffffffffffffffffffffffffffffffffff1681526020019081526020016000206000828254610417919061062c565b925050819055508173ffffffffffffffffffffffffffffffffffffffff166108fc829081150290604051600060405180830381858888f19350505050158015610464573d6000803e3d6000fd5b505050565b60008135905061047881610763565b92915050565b60008135905061048d8161077a565b92915050565b6000813590506104a281610791565b92915050565b6000602082840312156104be576104bd61070c565b5b60006104cc84828501610469565b91505092915050565b600080604083850312156104ec576104eb61070c565b5b60006104fa8582860161047e565b925050602061050b85828601610493565b9150509250929050565b60006105226010836105c5565b915061052d82610711565b602082019050919050565b60006105456015836105c5565b91506105508261073a565b602082019050919050565b610564816106a4565b82525050565b6000602082019050818103600083015261058381610515565b9050919050565b600060208201905081810360008301526105a381610538565b9050919050565b60006020820190506105bf600083018461055b565b92915050565b600082825260208201905092915050565b60006105e1826106a4565b91506105ec836106a4565b9250827fffffffffffffffffffffffffffffffffffffffffffffffffffffffffffffffff03821115610621576106206106dd565b5b828201905092915050565b6000610637826106a4565b9150610642836106a4565b925082821015610655576106546106dd565b5b828203905092915050565b600061066b82610684565b9050919050565b600061067d82610684565b9050919050565b600073ffffffffffffffffffffffffffffffffffffffff82169050919050565b6000819050919050565b7f4e487b7100000000000000000000000000000000000000000000000000000000600052600160045260246000fd5b7f4e487b7100000000000000000000000000000000000000000000000000000000600052601160045260246000fd5b600080fd5b7f496e7375666669656e7420457468657200000000000000000000000000000000600082015250565b7f596f7520617265206e6f7420746865206f776e65720000000000000000000000600082015250565b61076c81610660565b811461077757600080fd5b50565b61078381610672565b811461078e57600080fd5b50565b61079a816106a4565b81146107a557600080fd5b5056fea2646970667358221220cb6fc8b105347b7b3faafd814c7ac0df8ecf4053a3a0e8bd6f6f570bc091754164736f6c63430008070033",
					"opcodes": "PUSH1 0x80 PUSH1 0x40 MSTORE CALLER PUSH1 0x1 PUSH1 0x0 PUSH2 0x100 EXP DUP2 SLOAD DUP2 PUSH20 0xFFFFFFFFFFFFFFFFFFFFFFFFFFFFFFFFFFFFFFFF MUL NOT AND SWAP1 DUP4 PUSH20 0xFFFFFFFFFFFFFFFFFFFFFFFFFFFFFFFFFFFFFFFF AND MUL OR SWAP1 SSTORE POP PUSH2 0x7DE DUP1 PUSH2 0x54 PUSH1 0x0 CODECOPY PUSH1 0x0 RETURN INVALID PUSH1 0x80 PUSH1 0x40 MSTORE PUSH1 0x4 CALLDATASIZE LT PUSH2 0x43 JUMPI PUSH1 0x0 CALLDATALOAD PUSH1 0xE0 SHR DUP1 PUSH4 0x6D26EC18 EQ PUSH2 0x57 JUMPI DUP1 PUSH4 0x85474728 EQ PUSH2 0x61 JUMPI DUP1 PUSH4 0xD18A42E1 EQ PUSH2 0x78 JUMPI DUP1 PUSH4 0xF274C897 EQ PUSH2 0xB5 JUMPI PUSH2 0x52 JUMP JUMPDEST CALLDATASIZE PUSH2 0x52 JUMPI PUSH2 0x50 PUSH2 0xDE JUMP JUMPDEST STOP JUMPDEST PUSH1 0x0 DUP1 REVERT JUMPDEST PUSH2 0x5F PUSH2 0xDE JUMP JUMPDEST STOP JUMPDEST CALLVALUE DUP1 ISZERO PUSH2 0x6D JUMPI PUSH1 0x0 DUP1 REVERT JUMPDEST POP PUSH2 0x76 PUSH2 0x1CD JUMP JUMPDEST STOP JUMPDEST CALLVALUE DUP1 ISZERO PUSH2 0x84 JUMPI PUSH1 0x0 DUP1 REVERT JUMPDEST POP PUSH2 0x9F PUSH1 0x4 DUP1 CALLDATASIZE SUB DUP2 ADD SWAP1 PUSH2 0x9A SWAP2 SWAP1 PUSH2 0x4A8 JUMP JUMPDEST PUSH2 0x298 JUMP JUMPDEST PUSH1 0x40 MLOAD PUSH2 0xAC SWAP2 SWAP1 PUSH2 0x5AA JUMP JUMPDEST PUSH1 0x40 MLOAD DUP1 SWAP2 SUB SWAP1 RETURN JUMPDEST CALLVALUE DUP1 ISZERO PUSH2 0xC1 JUMPI PUSH1 0x0 DUP1 REVERT JUMPDEST POP PUSH2 0xDC PUSH1 0x4 DUP1 CALLDATASIZE SUB DUP2 ADD SWAP1 PUSH2 0xD7 SWAP2 SWAP1 PUSH2 0x4D5 JUMP JUMPDEST PUSH2 0x2B0 JUMP JUMPDEST STOP JUMPDEST PUSH1 0x0 DUP1 CALLER PUSH20 0xFFFFFFFFFFFFFFFFFFFFFFFFFFFFFFFFFFFFFFFF AND PUSH20 0xFFFFFFFFFFFFFFFFFFFFFFFFFFFFFFFFFFFFFFFF AND DUP2 MSTORE PUSH1 0x20 ADD SWAP1 DUP2 MSTORE PUSH1 0x20 ADD PUSH1 0x0 KECCAK256 SLOAD CALLVALUE PUSH1 0x0 DUP1 CALLER PUSH20 0xFFFFFFFFFFFFFFFFFFFFFFFFFFFFFFFFFFFFFFFF AND PUSH20 0xFFFFFFFFFFFFFFFFFFFFFFFFFFFFFFFFFFFFFFFF AND DUP2 MSTORE PUSH1 0x20 ADD SWAP1 DUP2 MSTORE PUSH1 0x20 ADD PUSH1 0x0 KECCAK256 SLOAD PUSH2 0x167 SWAP2 SWAP1 PUSH2 0x5D6 JUMP JUMPDEST LT ISZERO PUSH2 0x176 JUMPI PUSH2 0x175 PUSH2 0x6AE JUMP JUMPDEST JUMPDEST CALLVALUE PUSH1 0x0 DUP1 CALLER PUSH20 0xFFFFFFFFFFFFFFFFFFFFFFFFFFFFFFFFFFFFFFFF AND PUSH20 0xFFFFFFFFFFFFFFFFFFFFFFFFFFFFFFFFFFFFFFFF AND DUP2 MSTORE PUSH1 0x20 ADD SWAP1 DUP2 MSTORE PUSH1 0x20 ADD PUSH1 0x0 KECCAK256 PUSH1 0x0 DUP3 DUP3 SLOAD PUSH2 0x1C4 SWAP2 SWAP1 PUSH2 0x5D6 JUMP JUMPDEST SWAP3 POP POP DUP2 SWAP1 SSTORE POP JUMP JUMPDEST PUSH1 0x1 PUSH1 0x0 SWAP1 SLOAD SWAP1 PUSH2 0x100 EXP SWAP1 DIV PUSH20 0xFFFFFFFFFFFFFFFFFFFFFFFFFFFFFFFFFFFFFFFF AND PUSH20 0xFFFFFFFFFFFFFFFFFFFFFFFFFFFFFFFFFFFFFFFF AND CALLER PUSH20 0xFFFFFFFFFFFFFFFFFFFFFFFFFFFFFFFFFFFFFFFF AND EQ PUSH2 0x25D JUMPI PUSH1 0x40 MLOAD PUSH32 0x8C379A000000000000000000000000000000000000000000000000000000000 DUP2 MSTORE PUSH1 0x4 ADD PUSH2 0x254 SWAP1 PUSH2 0x58A JUMP JUMPDEST PUSH1 0x40 MLOAD DUP1 SWAP2 SUB SWAP1 REVERT JUMPDEST PUSH1 0x1 PUSH1 0x0 SWAP1 SLOAD SWAP1 PUSH2 0x100 EXP SWAP1 DIV PUSH20 0xFFFFFFFFFFFFFFFFFFFFFFFFFFFFFFFFFFFFFFFF AND PUSH20 0xFFFFFFFFFFFFFFFFFFFFFFFFFFFFFFFFFFFFFFFF AND SELFDESTRUCT JUMPDEST PUSH1 0x0 PUSH1 0x20 MSTORE DUP1 PUSH1 0x0 MSTORE PUSH1 0x40 PUSH1 0x0 KECCAK256 PUSH1 0x0 SWAP2 POP SWAP1 POP SLOAD DUP2 JUMP JUMPDEST DUP1 PUSH1 0x0 DUP1 CALLER PUSH20 0xFFFFFFFFFFFFFFFFFFFFFFFFFFFFFFFFFFFFFFFF AND PUSH20 0xFFFFFFFFFFFFFFFFFFFFFFFFFFFFFFFFFFFFFFFF AND DUP2 MSTORE PUSH1 0x20 ADD SWAP1 DUP2 MSTORE PUSH1 0x20 ADD PUSH1 0x0 KECCAK256 SLOAD LT ISZERO PUSH2 0x331 JUMPI PUSH1 0x40 MLOAD PUSH32 0x8C379A000000000000000000000000000000000000000000000000000000000 DUP2 MSTORE PUSH1 0x4 ADD PUSH2 0x328 SWAP1 PUSH2 0x56A JUMP JUMPDEST PUSH1 0x40 MLOAD DUP1 SWAP2 SUB SWAP1 REVERT JUMPDEST DUP1 PUSH1 0x0 DUP1 CALLER PUSH20 0xFFFFFFFFFFFFFFFFFFFFFFFFFFFFFFFFFFFFFFFF AND PUSH20 0xFFFFFFFFFFFFFFFFFFFFFFFFFFFFFFFFFFFFFFFF AND DUP2 MSTORE PUSH1 0x20 ADD SWAP1 DUP2 MSTORE PUSH1 0x20 ADD PUSH1 0x0 KECCAK256 SLOAD PUSH2 0x37B SWAP2 SWAP1 PUSH2 0x62C JUMP JUMPDEST PUSH1 0x0 DUP1 CALLER PUSH20 0xFFFFFFFFFFFFFFFFFFFFFFFFFFFFFFFFFFFFFFFF AND PUSH20 0xFFFFFFFFFFFFFFFFFFFFFFFFFFFFFFFFFFFFFFFF AND DUP2 MSTORE PUSH1 0x20 ADD SWAP1 DUP2 MSTORE PUSH1 0x20 ADD PUSH1 0x0 KECCAK256 SLOAD LT ISZERO PUSH2 0x3C9 JUMPI PUSH2 0x3C8 PUSH2 0x6AE JUMP JUMPDEST JUMPDEST DUP1 PUSH1 0x0 DUP1 CALLER PUSH20 0xFFFFFFFFFFFFFFFFFFFFFFFFFFFFFFFFFFFFFFFF AND PUSH20 0xFFFFFFFFFFFFFFFFFFFFFFFFFFFFFFFFFFFFFFFF AND DUP2 MSTORE PUSH1 0x20 ADD SWAP1 DUP2 MSTORE PUSH1 0x20 ADD PUSH1 0x0 KECCAK256 PUSH1 0x0 DUP3 DUP3 SLOAD PUSH2 0x417 SWAP2 SWAP1 PUSH2 0x62C JUMP JUMPDEST SWAP3 POP POP DUP2 SWAP1 SSTORE POP DUP2 PUSH20 0xFFFFFFFFFFFFFFFFFFFFFFFFFFFFFFFFFFFFFFFF AND PUSH2 0x8FC DUP3 SWAP1 DUP2 ISZERO MUL SWAP1 PUSH1 0x40 MLOAD PUSH1 0x0 PUSH1 0x40 MLOAD DUP1 DUP4 SUB DUP2 DUP6 DUP9 DUP9 CALL SWAP4 POP POP POP POP ISZERO DUP1 ISZERO PUSH2 0x464 JUMPI RETURNDATASIZE PUSH1 0x0 DUP1 RETURNDATACOPY RETURNDATASIZE PUSH1 0x0 REVERT JUMPDEST POP POP POP JUMP JUMPDEST PUSH1 0x0 DUP2 CALLDATALOAD SWAP1 POP PUSH2 0x478 DUP2 PUSH2 0x763 JUMP JUMPDEST SWAP3 SWAP2 POP POP JUMP JUMPDEST PUSH1 0x0 DUP2 CALLDATALOAD SWAP1 POP PUSH2 0x48D DUP2 PUSH2 0x77A JUMP JUMPDEST SWAP3 SWAP2 POP POP JUMP JUMPDEST PUSH1 0x0 DUP2 CALLDATALOAD SWAP1 POP PUSH2 0x4A2 DUP2 PUSH2 0x791 JUMP JUMPDEST SWAP3 SWAP2 POP POP JUMP JUMPDEST PUSH1 0x0 PUSH1 0x20 DUP3 DUP5 SUB SLT ISZERO PUSH2 0x4BE JUMPI PUSH2 0x4BD PUSH2 0x70C JUMP JUMPDEST JUMPDEST PUSH1 0x0 PUSH2 0x4CC DUP5 DUP3 DUP6 ADD PUSH2 0x469 JUMP JUMPDEST SWAP2 POP POP SWAP3 SWAP2 POP POP JUMP JUMPDEST PUSH1 0x0 DUP1 PUSH1 0x40 DUP4 DUP6 SUB SLT ISZERO PUSH2 0x4EC JUMPI PUSH2 0x4EB PUSH2 0x70C JUMP JUMPDEST JUMPDEST PUSH1 0x0 PUSH2 0x4FA DUP6 DUP3 DUP7 ADD PUSH2 0x47E JUMP JUMPDEST SWAP3 POP POP PUSH1 0x20 PUSH2 0x50B DUP6 DUP3 DUP7 ADD PUSH2 0x493 JUMP JUMPDEST SWAP2 POP POP SWAP3 POP SWAP3 SWAP1 POP JUMP JUMPDEST PUSH1 0x0 PUSH2 0x522 PUSH1 0x10 DUP4 PUSH2 0x5C5 JUMP JUMPDEST SWAP2 POP PUSH2 0x52D DUP3 PUSH2 0x711 JUMP JUMPDEST PUSH1 0x20 DUP3 ADD SWAP1 POP SWAP2 SWAP1 POP JUMP JUMPDEST PUSH1 0x0 PUSH2 0x545 PUSH1 0x15 DUP4 PUSH2 0x5C5 JUMP JUMPDEST SWAP2 POP PUSH2 0x550 DUP3 PUSH2 0x73A JUMP JUMPDEST PUSH1 0x20 DUP3 ADD SWAP1 POP SWAP2 SWAP1 POP JUMP JUMPDEST PUSH2 0x564 DUP2 PUSH2 0x6A4 JUMP JUMPDEST DUP3 MSTORE POP POP JUMP JUMPDEST PUSH1 0x0 PUSH1 0x20 DUP3 ADD SWAP1 POP DUP2 DUP2 SUB PUSH1 0x0 DUP4 ADD MSTORE PUSH2 0x583 DUP2 PUSH2 0x515 JUMP JUMPDEST SWAP1 POP SWAP2 SWAP1 POP JUMP JUMPDEST PUSH1 0x0 PUSH1 0x20 DUP3 ADD SWAP1 POP DUP2 DUP2 SUB PUSH1 0x0 DUP4 ADD MSTORE PUSH2 0x5A3 DUP2 PUSH2 0x538 JUMP JUMPDEST SWAP1 POP SWAP2 SWAP1 POP JUMP JUMPDEST PUSH1 0x0 PUSH1 0x20 DUP3 ADD SWAP1 POP PUSH2 0x5BF PUSH1 0x0 DUP4 ADD DUP5 PUSH2 0x55B JUMP JUMPDEST SWAP3 SWAP2 POP POP JUMP JUMPDEST PUSH1 0x0 DUP3 DUP3 MSTORE PUSH1 0x20 DUP3 ADD SWAP1 POP SWAP3 SWAP2 POP POP JUMP JUMPDEST PUSH1 0x0 PUSH2 0x5E1 DUP3 PUSH2 0x6A4 JUMP JUMPDEST SWAP2 POP PUSH2 0x5EC DUP4 PUSH2 0x6A4 JUMP JUMPDEST SWAP3 POP DUP3 PUSH32 0xFFFFFFFFFFFFFFFFFFFFFFFFFFFFFFFFFFFFFFFFFFFFFFFFFFFFFFFFFFFFFFFF SUB DUP3 GT ISZERO PUSH2 0x621 JUMPI PUSH2 0x620 PUSH2 0x6DD JUMP JUMPDEST JUMPDEST DUP3 DUP3 ADD SWAP1 POP SWAP3 SWAP2 POP POP JUMP JUMPDEST PUSH1 0x0 PUSH2 0x637 DUP3 PUSH2 0x6A4 JUMP JUMPDEST SWAP2 POP PUSH2 0x642 DUP4 PUSH2 0x6A4 JUMP JUMPDEST SWAP3 POP DUP3 DUP3 LT ISZERO PUSH2 0x655 JUMPI PUSH2 0x654 PUSH2 0x6DD JUMP JUMPDEST JUMPDEST DUP3 DUP3 SUB SWAP1 POP SWAP3 SWAP2 POP POP JUMP JUMPDEST PUSH1 0x0 PUSH2 0x66B DUP3 PUSH2 0x684 JUMP JUMPDEST SWAP1 POP SWAP2 SWAP1 POP JUMP JUMPDEST PUSH1 0x0 PUSH2 0x67D DUP3 PUSH2 0x684 JUMP JUMPDEST SWAP1 POP SWAP2 SWAP1 POP JUMP JUMPDEST PUSH1 0x0 PUSH20 0xFFFFFFFFFFFFFFFFFFFFFFFFFFFFFFFFFFFFFFFF DUP3 AND SWAP1 POP SWAP2 SWAP1 POP JUMP JUMPDEST PUSH1 0x0 DUP2 SWAP1 POP SWAP2 SWAP1 POP JUMP JUMPDEST PUSH32 0x4E487B7100000000000000000000000000000000000000000000000000000000 PUSH1 0x0 MSTORE PUSH1 0x1 PUSH1 0x4 MSTORE PUSH1 0x24 PUSH1 0x0 REVERT JUMPDEST PUSH32 0x4E487B7100000000000000000000000000000000000000000000000000000000 PUSH1 0x0 MSTORE PUSH1 0x11 PUSH1 0x4 MSTORE PUSH1 0x24 PUSH1 0x0 REVERT JUMPDEST PUSH1 0x0 DUP1 REVERT JUMPDEST PUSH32 0x496E7375666669656E7420457468657200000000000000000000000000000000 PUSH1 0x0 DUP3 ADD MSTORE POP JUMP JUMPDEST PUSH32 0x596F7520617265206E6F7420746865206F776E65720000000000000000000000 PUSH1 0x0 DUP3 ADD MSTORE POP JUMP JUMPDEST PUSH2 0x76C DUP2 PUSH2 0x660 JUMP JUMPDEST DUP2 EQ PUSH2 0x777 JUMPI PUSH1 0x0 DUP1 REVERT JUMPDEST POP JUMP JUMPDEST PUSH2 0x783 DUP2 PUSH2 0x672 JUMP JUMPDEST DUP2 EQ PUSH2 0x78E JUMPI PUSH1 0x0 DUP1 REVERT JUMPDEST POP JUMP JUMPDEST PUSH2 0x79A DUP2 PUSH2 0x6A4 JUMP JUMPDEST DUP2 EQ PUSH2 0x7A5 JUMPI PUSH1 0x0 DUP1 REVERT JUMPDEST POP JUMP INVALID LOG2 PUSH5 0x6970667358 0x22 SLT KECCAK256 0xCB PUSH16 0xC8B105347B7B3FAAFD814C7AC0DF8ECF BLOCKHASH MSTORE8 LOG3 LOG0 0xE8 0xBD PUSH16 0x6F570BC091754164736F6C6343000807 STOP CALLER "
				},
				"gasEstimates": {
					"creation": {
						"codeDepositCost": "402800",
						"executionCost": "24678",
						"totalCost": "427478"
					},
					"external": {
						"balanceReceived(address)": "2836",
						"destroySmartContract()": "32050",
						"receiveMoney()": "infinite",
						"withdrawMoney(address,uint256)": "infinite"
					}
				},
				"methodIdentifiers": {
					"balanceReceived(address)": "d18a42e1",
					"destroySmartContract()": "85474728",
					"receiveMoney()": "6d26ec18",
					"withdrawMoney(address,uint256)": "f274c897"
				}
			},
			"storageLayout": {
				"storage": [
					{
						"astId": 5,
						"contract": "exceptionExample.sol:ExceptionExample",
						"label": "balanceReceived",
						"offset": 0,
						"slot": "0",
						"type": "t_mapping(t_address,t_uint256)"
					},
					{
						"astId": 7,
						"contract": "exceptionExample.sol:ExceptionExample",
						"label": "owner",
						"offset": 0,
						"slot": "1",
						"type": "t_address_payable"
					}
				],
				"types": {
					"t_address": {
						"encoding": "inplace",
						"label": "address",
						"numberOfBytes": "20"
					},
					"t_address_payable": {
						"encoding": "inplace",
						"label": "address payable",
						"numberOfBytes": "20"
					},
					"t_mapping(t_address,t_uint256)": {
						"encoding": "mapping",
						"key": "t_address",
						"label": "mapping(address => uint256)",
						"numberOfBytes": "32",
						"value": "t_uint256"
					},
					"t_uint256": {
						"encoding": "inplace",
						"label": "uint256",
						"numberOfBytes": "32"
					}
				}
			},
			"userdoc": {
				"kind": "user",
				"methods": {},
				"version": 1
			}
		}
	}
}