{
	"PracticeSimpleWallet.sol": {
		"sharedWallet": {
			"abi": [
				{
					"anonymous": false,
					"inputs": [
						{
							"indexed": true,
							"internalType": "address",
							"name": "_forwho",
							"type": "address"
						},
						{
							"indexed": true,
							"internalType": "address",
							"name": "_towhom",
							"type": "address"
						},
						{
							"indexed": false,
							"internalType": "uint256",
							"name": "oldAmount",
							"type": "uint256"
						},
						{
							"indexed": false,
							"internalType": "uint256",
							"name": "newAmount",
							"type": "uint256"
						}
					],
					"name": "AllowanceChanged",
					"type": "event"
				},
				{
					"anonymous": false,
					"inputs": [
						{
							"indexed": true,
							"internalType": "address",
							"name": "_from",
							"type": "address"
						},
						{
							"indexed": false,
							"internalType": "uint256",
							"name": "amount",
							"type": "uint256"
						}
					],
					"name": "MoneyReceived",
					"type": "event"
				},
				{
					"anonymous": false,
					"inputs": [
						{
							"indexed": true,
							"internalType": "address",
							"name": "_benificiary",
							"type": "address"
						},
						{
							"indexed": false,
							"internalType": "uint256",
							"name": "amount",
							"type": "uint256"
						}
					],
					"name": "MoneySent",
					"type": "event"
				},
				{
					"anonymous": false,
					"inputs": [
						{
							"indexed": true,
							"internalType": "address",
							"name": "previousOwner",
							"type": "address"
						},
						{
							"indexed": true,
							"internalType": "address",
							"name": "newOwner",
							"type": "address"
						}
					],
					"name": "OwnershipTransferred",
					"type": "event"
				},
				{
					"inputs": [
						{
							"internalType": "address",
							"name": "_who",
							"type": "address"
						},
						{
							"internalType": "uint256",
							"name": "amount",
							"type": "uint256"
						}
					],
					"name": "addAlslowance",
					"outputs": [],
					"stateMutability": "nonpayable",
					"type": "function"
				},
				{
					"inputs": [
						{
							"internalType": "address",
							"name": "",
							"type": "address"
						}
					],
					"name": "allowance",
					"outputs": [
						{
							"internalType": "uint256",
							"name": "",
							"type": "uint256"
						}
					],
					"stateMutability": "view",
					"type": "function"
				},
				{
					"inputs": [],
					"name": "balanceReceived",
					"outputs": [
						{
							"internalType": "uint256",
							"name": "",
							"type": "uint256"
						}
					],
					"stateMutability": "view",
					"type": "function"
				},
				{
					"inputs": [],
					"name": "owner",
					"outputs": [
						{
							"internalType": "address",
							"name": "",
							"type": "address"
						}
					],
					"stateMutability": "view",
					"type": "function"
				},
				{
					"inputs": [],
					"name": "receiveMoney",
					"outputs": [],
					"stateMutability": "payable",
					"type": "function"
				},
				{
					"inputs": [],
					"name": "renounceOwnership",
					"outputs": [],
					"stateMutability": "nonpayable",
					"type": "function"
				},
				{
					"inputs": [
						{
							"internalType": "address",
							"name": "_who",
							"type": "address"
						},
						{
							"internalType": "uint256",
							"name": "amount",
							"type": "uint256"
						}
					],
					"name": "setAllowance",
					"outputs": [],
					"stateMutability": "nonpayable",
					"type": "function"
				},
				{
					"inputs": [
						{
							"internalType": "address",
							"name": "newOwner",
							"type": "address"
						}
					],
					"name": "transferOwnership",
					"outputs": [],
					"stateMutability": "nonpayable",
					"type": "function"
				},
				{
					"inputs": [
						{
							"internalType": "address payable",
							"name": "_to",
							"type": "address"
						},
						{
							"internalType": "uint256",
							"name": "amount",
							"type": "uint256"
						}
					],
					"name": "withdrawMoney",
					"outputs": [],
					"stateMutability": "nonpayable",
					"type": "function"
				},
				{
					"stateMutability": "payable",
					"type": "receive"
				}
			],
			"devdoc": {
				"kind": "dev",
				"methods": {
					"owner()": {
						"details": "Returns the address of the current owner."
					},
					"renounceOwnership()": {
						"details": "Leaves the contract without owner. It will not be possible to call `onlyOwner` functions anymore. Can only be called by the current owner. NOTE: Renouncing ownership will leave the contract without an owner, thereby removing any functionality that is only available to the owner."
					},
					"transferOwnership(address)": {
						"details": "Transfers ownership of the contract to a new account (`newOwner`). Can only be called by the current owner."
					}
				},
				"version": 1
			},
			"evm": {
				"assembly": "    /* \"PracticeSimpleWallet.sol\":291:1325  contract sharedWallet is Allowance{\r... */\n  mstore(0x40, 0x80)\n  callvalue\n  dup1\n  iszero\n  tag_1\n  jumpi\n  0x00\n  dup1\n  revert\ntag_1:\n  pop\n    /* \"https://github.com/OpenZeppelin/openzeppelin-contracts/blob/master/contracts/access/Ownable.sol\":936:968  _transferOwnership(_msgSender()) */\n  tag_4\n    /* \"https://github.com/OpenZeppelin/openzeppelin-contracts/blob/master/contracts/access/Ownable.sol\":955:967  _msgSender() */\n  tag_5\n    /* \"https://github.com/OpenZeppelin/openzeppelin-contracts/blob/master/contracts/access/Ownable.sol\":955:965  _msgSender */\n  shl(0x20, tag_6)\n    /* \"https://github.com/OpenZeppelin/openzeppelin-contracts/blob/master/contracts/access/Ownable.sol\":955:967  _msgSender() */\n  0x20\n  shr\n  jump\t// in\ntag_5:\n    /* \"https://github.com/OpenZeppelin/openzeppelin-contracts/blob/master/contracts/access/Ownable.sol\":936:954  _transferOwnership */\n  shl(0x20, tag_7)\n    /* \"https://github.com/OpenZeppelin/openzeppelin-contracts/blob/master/contracts/access/Ownable.sol\":936:968  _transferOwnership(_msgSender()) */\n  0x20\n  shr\n  jump\t// in\ntag_4:\n    /* \"PracticeSimpleWallet.sol\":291:1325  contract sharedWallet is Allowance{\r... */\n  jump(tag_8)\n    /* \"https://github.com/OpenZeppelin/openzeppelin-contracts/blob/master/contracts/utils/Context.sol\":640:736  function _msgSender() internal view virtual returns (address) {... */\ntag_6:\n    /* \"https://github.com/OpenZeppelin/openzeppelin-contracts/blob/master/contracts/utils/Context.sol\":693:700  address */\n  0x00\n    /* \"https://github.com/OpenZeppelin/openzeppelin-contracts/blob/master/contracts/utils/Context.sol\":719:729  msg.sender */\n  caller\n    /* \"https://github.com/OpenZeppelin/openzeppelin-contracts/blob/master/contracts/utils/Context.sol\":712:729  return msg.sender */\n  swap1\n  pop\n    /* \"https://github.com/OpenZeppelin/openzeppelin-contracts/blob/master/contracts/utils/Context.sol\":640:736  function _msgSender() internal view virtual returns (address) {... */\n  swap1\n  jump\t// out\n    /* \"https://github.com/OpenZeppelin/openzeppelin-contracts/blob/master/contracts/access/Ownable.sol\":2447:2634  function _transferOwnership(address newOwner) internal virtual {... */\ntag_7:\n    /* \"https://github.com/OpenZeppelin/openzeppelin-contracts/blob/master/contracts/access/Ownable.sol\":2520:2536  address oldOwner */\n  0x00\n    /* \"https://github.com/OpenZeppelin/openzeppelin-contracts/blob/master/contracts/access/Ownable.sol\":2539:2545  _owner */\n  dup1\n  0x00\n  swap1\n  sload\n  swap1\n  0x0100\n  exp\n  swap1\n  div\n  0xffffffffffffffffffffffffffffffffffffffff\n  and\n    /* \"https://github.com/OpenZeppelin/openzeppelin-contracts/blob/master/contracts/access/Ownable.sol\":2520:2545  address oldOwner = _owner */\n  swap1\n  pop\n    /* \"https://github.com/OpenZeppelin/openzeppelin-contracts/blob/master/contracts/access/Ownable.sol\":2564:2572  newOwner */\n  dup2\n    /* \"https://github.com/OpenZeppelin/openzeppelin-contracts/blob/master/contracts/access/Ownable.sol\":2555:2561  _owner */\n  0x00\n  dup1\n    /* \"https://github.com/OpenZeppelin/openzeppelin-contracts/blob/master/contracts/access/Ownable.sol\":2555:2572  _owner = newOwner */\n  0x0100\n  exp\n  dup2\n  sload\n  dup2\n  0xffffffffffffffffffffffffffffffffffffffff\n  mul\n  not\n  and\n  swap1\n  dup4\n  0xffffffffffffffffffffffffffffffffffffffff\n  and\n  mul\n  or\n  swap1\n  sstore\n  pop\n    /* \"https://github.com/OpenZeppelin/openzeppelin-contracts/blob/master/contracts/access/Ownable.sol\":2618:2626  newOwner */\n  dup2\n    /* \"https://github.com/OpenZeppelin/openzeppelin-contracts/blob/master/contracts/access/Ownable.sol\":2587:2627  OwnershipTransferred(oldOwner, newOwner) */\n  0xffffffffffffffffffffffffffffffffffffffff\n  and\n    /* \"https://github.com/OpenZeppelin/openzeppelin-contracts/blob/master/contracts/access/Ownable.sol\":2608:2616  oldOwner */\n  dup2\n    /* \"https://github.com/OpenZeppelin/openzeppelin-contracts/blob/master/contracts/access/Ownable.sol\":2587:2627  OwnershipTransferred(oldOwner, newOwner) */\n  0xffffffffffffffffffffffffffffffffffffffff\n  and\n  0x8be0079c531659141344cd1fd0a4f28419497f9722a3daafe3b4186f6b6457e0\n  mload(0x40)\n  mload(0x40)\n  dup1\n  swap2\n  sub\n  swap1\n  log3\n    /* \"https://github.com/OpenZeppelin/openzeppelin-contracts/blob/master/contracts/access/Ownable.sol\":2510:2634  {... */\n  pop\n    /* \"https://github.com/OpenZeppelin/openzeppelin-contracts/blob/master/contracts/access/Ownable.sol\":2447:2634  function _transferOwnership(address newOwner) internal virtual {... */\n  pop\n  jump\t// out\n    /* \"PracticeSimpleWallet.sol\":291:1325  contract sharedWallet is Allowance{\r... */\ntag_8:\n  dataSize(sub_0)\n  dup1\n  dataOffset(sub_0)\n  0x00\n  codecopy\n  0x00\n  return\nstop\n\nsub_0: assembly {\n        /* \"PracticeSimpleWallet.sol\":291:1325  contract sharedWallet is Allowance{\r... */\n      mstore(0x40, 0x80)\n      jumpi(tag_1, lt(calldatasize, 0x04))\n      shr(0xe0, calldataload(0x00))\n      dup1\n      0x715018a6\n      gt\n      tag_12\n      jumpi\n      dup1\n      0x715018a6\n      eq\n      tag_7\n      jumpi\n      dup1\n      0x8da5cb5b\n      eq\n      tag_8\n      jumpi\n      dup1\n      0xc9616925\n      eq\n      tag_9\n      jumpi\n      dup1\n      0xf274c897\n      eq\n      tag_10\n      jumpi\n      dup1\n      0xf2fde38b\n      eq\n      tag_11\n      jumpi\n      jump(tag_2)\n    tag_12:\n      dup1\n      0x310ec4a7\n      eq\n      tag_3\n      jumpi\n      dup1\n      0x3e5beab9\n      eq\n      tag_4\n      jumpi\n      dup1\n      0x52a90c42\n      eq\n      tag_5\n      jumpi\n      dup1\n      0x6d26ec18\n      eq\n      tag_6\n      jumpi\n      jump(tag_2)\n    tag_1:\n      jumpi(tag_2, calldatasize)\n        /* \"PracticeSimpleWallet.sol\":1291:1301  msg.sender */\n      caller\n        /* \"PracticeSimpleWallet.sol\":1277:1312  MoneyReceived(msg.sender,msg.value) */\n      0xffffffffffffffffffffffffffffffffffffffff\n      and\n      0x27b15ed4cf832749ed39f33a64e4707ed60a761485e41ffec7343ecaddc0c02a\n        /* \"PracticeSimpleWallet.sol\":1302:1311  msg.value */\n      callvalue\n        /* \"PracticeSimpleWallet.sol\":1277:1312  MoneyReceived(msg.sender,msg.value) */\n      mload(0x40)\n      tag_15\n      swap2\n      swap1\n      tag_16\n      jump\t// in\n    tag_15:\n      mload(0x40)\n      dup1\n      swap2\n      sub\n      swap1\n      log2\n        /* \"PracticeSimpleWallet.sol\":291:1325  contract sharedWallet is Allowance{\r... */\n      stop\n    tag_2:\n      0x00\n      dup1\n      revert\n        /* \"PracticeAllowance.sol\":601:779  function setAllowance(address _who ,uint amount) public onlyOwner{\r... */\n    tag_3:\n      callvalue\n      dup1\n      iszero\n      tag_17\n      jumpi\n      0x00\n      dup1\n      revert\n    tag_17:\n      pop\n      tag_18\n      0x04\n      dup1\n      calldatasize\n      sub\n      dup2\n      add\n      swap1\n      tag_19\n      swap2\n      swap1\n      tag_20\n      jump\t// in\n    tag_19:\n      tag_21\n      jump\t// in\n    tag_18:\n      stop\n        /* \"PracticeAllowance.sol\":438:479  mapping(address => uint) public allowance */\n    tag_4:\n      callvalue\n      dup1\n      iszero\n      tag_22\n      jumpi\n      0x00\n      dup1\n      revert\n    tag_22:\n      pop\n      tag_23\n      0x04\n      dup1\n      calldatasize\n      sub\n      dup2\n      add\n      swap1\n      tag_24\n      swap2\n      swap1\n      tag_25\n      jump\t// in\n    tag_24:\n      tag_26\n      jump\t// in\n    tag_23:\n      mload(0x40)\n      tag_27\n      swap2\n      swap1\n      tag_16\n      jump\t// in\n    tag_27:\n      mload(0x40)\n      dup1\n      swap2\n      sub\n      swap1\n      return\n        /* \"PracticeSimpleWallet.sol\":490:517  uint public balanceReceived */\n    tag_5:\n      callvalue\n      dup1\n      iszero\n      tag_28\n      jumpi\n      0x00\n      dup1\n      revert\n    tag_28:\n      pop\n      tag_29\n      tag_30\n      jump\t// in\n    tag_29:\n      mload(0x40)\n      tag_31\n      swap2\n      swap1\n      tag_16\n      jump\t// in\n    tag_31:\n      mload(0x40)\n      dup1\n      swap2\n      sub\n      swap1\n      return\n        /* \"PracticeSimpleWallet.sol\":526:612  function receiveMoney() public payable{\r... */\n    tag_6:\n      tag_32\n      tag_33\n      jump\t// in\n    tag_32:\n      stop\n        /* \"PracticeSimpleWallet.sol\":1114:1226  function renounceOwnership() public override onlyOwner{\r... */\n    tag_7:\n      callvalue\n      dup1\n      iszero\n      tag_34\n      jumpi\n      0x00\n      dup1\n      revert\n    tag_34:\n      pop\n      tag_35\n      tag_36\n      jump\t// in\n    tag_35:\n      stop\n        /* \"https://github.com/OpenZeppelin/openzeppelin-contracts/blob/master/contracts/access/Ownable.sol\":1201:1286  function owner() public view virtual returns (address) {... */\n    tag_8:\n      callvalue\n      dup1\n      iszero\n      tag_37\n      jumpi\n      0x00\n      dup1\n      revert\n    tag_37:\n      pop\n      tag_38\n      tag_39\n      jump\t// in\n    tag_38:\n      mload(0x40)\n      tag_40\n      swap2\n      swap1\n      tag_41\n      jump\t// in\n    tag_40:\n      mload(0x40)\n      dup1\n      swap2\n      sub\n      swap1\n      return\n        /* \"PracticeSimpleWallet.sol\":624:731  function addAlslowance(address _who, uint amount) public onlyOwner{\r... */\n    tag_9:\n      callvalue\n      dup1\n      iszero\n      tag_42\n      jumpi\n      0x00\n      dup1\n      revert\n    tag_42:\n      pop\n      tag_43\n      0x04\n      dup1\n      calldatasize\n      sub\n      dup2\n      add\n      swap1\n      tag_44\n      swap2\n      swap1\n      tag_20\n      jump\t// in\n    tag_44:\n      tag_45\n      jump\t// in\n    tag_43:\n      stop\n        /* \"PracticeSimpleWallet.sol\":750:1106  function withdrawMoney( address payable _to, uint amount) public ownerOrAllowed(amount){\r... */\n    tag_10:\n      callvalue\n      dup1\n      iszero\n      tag_46\n      jumpi\n      0x00\n      dup1\n      revert\n    tag_46:\n      pop\n      tag_47\n      0x04\n      dup1\n      calldatasize\n      sub\n      dup2\n      add\n      swap1\n      tag_48\n      swap2\n      swap1\n      tag_49\n      jump\t// in\n    tag_48:\n      tag_50\n      jump\t// in\n    tag_47:\n      stop\n        /* \"https://github.com/OpenZeppelin/openzeppelin-contracts/blob/master/contracts/access/Ownable.sol\":2095:2293  function transferOwnership(address newOwner) public virtual onlyOwner {... */\n    tag_11:\n      callvalue\n      dup1\n      iszero\n      tag_51\n      jumpi\n      0x00\n      dup1\n      revert\n    tag_51:\n      pop\n      tag_52\n      0x04\n      dup1\n      calldatasize\n      sub\n      dup2\n      add\n      swap1\n      tag_53\n      swap2\n      swap1\n      tag_25\n      jump\t// in\n    tag_53:\n      tag_54\n      jump\t// in\n    tag_52:\n      stop\n        /* \"PracticeAllowance.sol\":601:779  function setAllowance(address _who ,uint amount) public onlyOwner{\r... */\n    tag_21:\n        /* \"https://github.com/OpenZeppelin/openzeppelin-contracts/blob/master/contracts/access/Ownable.sol\":1094:1107  _checkOwner() */\n      tag_56\n        /* \"https://github.com/OpenZeppelin/openzeppelin-contracts/blob/master/contracts/access/Ownable.sol\":1094:1105  _checkOwner */\n      tag_57\n        /* \"https://github.com/OpenZeppelin/openzeppelin-contracts/blob/master/contracts/access/Ownable.sol\":1094:1107  _checkOwner() */\n      jump\t// in\n    tag_56:\n      pop\n        /* \"PracticeAllowance.sol\":704:714  msg.sender */\n      caller\n        /* \"PracticeAllowance.sol\":682:738  AllowanceChanged(_who,msg.sender,allowance[_who],amount) */\n      0xffffffffffffffffffffffffffffffffffffffff\n      and\n        /* \"PracticeAllowance.sol\":699:703  _who */\n      dup3\n        /* \"PracticeAllowance.sol\":682:738  AllowanceChanged(_who,msg.sender,allowance[_who],amount) */\n      0xffffffffffffffffffffffffffffffffffffffff\n      and\n      0x3691d1a86d99355e52b689ca70a7bdf6d80763237a6aa06e5fa43964eac7244b\n        /* \"PracticeAllowance.sol\":715:724  allowance */\n      0x01\n        /* \"PracticeAllowance.sol\":715:730  allowance[_who] */\n      0x00\n        /* \"PracticeAllowance.sol\":725:729  _who */\n      dup7\n        /* \"PracticeAllowance.sol\":715:730  allowance[_who] */\n      0xffffffffffffffffffffffffffffffffffffffff\n      and\n      0xffffffffffffffffffffffffffffffffffffffff\n      and\n      dup2\n      mstore\n      0x20\n      add\n      swap1\n      dup2\n      mstore\n      0x20\n      add\n      0x00\n      keccak256\n      sload\n        /* \"PracticeAllowance.sol\":731:737  amount */\n      dup5\n        /* \"PracticeAllowance.sol\":682:738  AllowanceChanged(_who,msg.sender,allowance[_who],amount) */\n      mload(0x40)\n      tag_59\n      swap3\n      swap2\n      swap1\n      tag_60\n      jump\t// in\n    tag_59:\n      mload(0x40)\n      dup1\n      swap2\n      sub\n      swap1\n      log3\n        /* \"PracticeAllowance.sol\":765:771  amount */\n      dup1\n        /* \"PracticeAllowance.sol\":749:758  allowance */\n      0x01\n        /* \"PracticeAllowance.sol\":749:764  allowance[_who] */\n      0x00\n        /* \"PracticeAllowance.sol\":759:763  _who */\n      dup5\n        /* \"PracticeAllowance.sol\":749:764  allowance[_who] */\n      0xffffffffffffffffffffffffffffffffffffffff\n      and\n      0xffffffffffffffffffffffffffffffffffffffff\n      and\n      dup2\n      mstore\n      0x20\n      add\n      swap1\n      dup2\n      mstore\n      0x20\n      add\n      0x00\n      keccak256\n        /* \"PracticeAllowance.sol\":749:771  allowance[_who]=amount */\n      dup2\n      swap1\n      sstore\n      pop\n        /* \"PracticeAllowance.sol\":601:779  function setAllowance(address _who ,uint amount) public onlyOwner{\r... */\n      pop\n      pop\n      jump\t// out\n        /* \"PracticeAllowance.sol\":438:479  mapping(address => uint) public allowance */\n    tag_26:\n      mstore(0x20, 0x01)\n      dup1\n      0x00\n      mstore\n      keccak256(0x00, 0x40)\n      0x00\n      swap2\n      pop\n      swap1\n      pop\n      sload\n      dup2\n      jump\t// out\n        /* \"PracticeSimpleWallet.sol\":490:517  uint public balanceReceived */\n    tag_30:\n      sload(0x02)\n      dup2\n      jump\t// out\n        /* \"PracticeSimpleWallet.sol\":526:612  function receiveMoney() public payable{\r... */\n    tag_33:\n        /* \"PracticeSimpleWallet.sol\":593:602  msg.value */\n      callvalue\n        /* \"PracticeSimpleWallet.sol\":575:590  balanceReceived */\n      0x02\n      0x00\n        /* \"PracticeSimpleWallet.sol\":575:602  balanceReceived+= msg.value */\n      dup3\n      dup3\n      sload\n      tag_62\n      swap2\n      swap1\n      tag_63\n      jump\t// in\n    tag_62:\n      swap3\n      pop\n      pop\n      dup2\n      swap1\n      sstore\n      pop\n        /* \"PracticeSimpleWallet.sol\":526:612  function receiveMoney() public payable{\r... */\n      jump\t// out\n        /* \"PracticeSimpleWallet.sol\":1114:1226  function renounceOwnership() public override onlyOwner{\r... */\n    tag_36:\n        /* \"https://github.com/OpenZeppelin/openzeppelin-contracts/blob/master/contracts/access/Ownable.sol\":1094:1107  _checkOwner() */\n      tag_65\n        /* \"https://github.com/OpenZeppelin/openzeppelin-contracts/blob/master/contracts/access/Ownable.sol\":1094:1105  _checkOwner */\n      tag_57\n        /* \"https://github.com/OpenZeppelin/openzeppelin-contracts/blob/master/contracts/access/Ownable.sol\":1094:1107  _checkOwner() */\n      jump\t// in\n    tag_65:\n      pop\n        /* \"PracticeSimpleWallet.sol\":1179:1218  revert(\" can't renounceOwnership here\") */\n      mload(0x40)\n      0x08c379a000000000000000000000000000000000000000000000000000000000\n      dup2\n      mstore\n      0x04\n      add\n      tag_67\n      swap1\n      tag_68\n      jump\t// in\n    tag_67:\n      mload(0x40)\n      dup1\n      swap2\n      sub\n      swap1\n      revert\n        /* \"https://github.com/OpenZeppelin/openzeppelin-contracts/blob/master/contracts/access/Ownable.sol\":1201:1286  function owner() public view virtual returns (address) {... */\n    tag_39:\n        /* \"https://github.com/OpenZeppelin/openzeppelin-contracts/blob/master/contracts/access/Ownable.sol\":1247:1254  address */\n      0x00\n        /* \"https://github.com/OpenZeppelin/openzeppelin-contracts/blob/master/contracts/access/Ownable.sol\":1273:1279  _owner */\n      dup1\n      0x00\n      swap1\n      sload\n      swap1\n      0x0100\n      exp\n      swap1\n      div\n      0xffffffffffffffffffffffffffffffffffffffff\n      and\n        /* \"https://github.com/OpenZeppelin/openzeppelin-contracts/blob/master/contracts/access/Ownable.sol\":1266:1279  return _owner */\n      swap1\n      pop\n        /* \"https://github.com/OpenZeppelin/openzeppelin-contracts/blob/master/contracts/access/Ownable.sol\":1201:1286  function owner() public view virtual returns (address) {... */\n      swap1\n      jump\t// out\n        /* \"PracticeSimpleWallet.sol\":624:731  function addAlslowance(address _who, uint amount) public onlyOwner{\r... */\n    tag_45:\n        /* \"https://github.com/OpenZeppelin/openzeppelin-contracts/blob/master/contracts/access/Ownable.sol\":1094:1107  _checkOwner() */\n      tag_71\n        /* \"https://github.com/OpenZeppelin/openzeppelin-contracts/blob/master/contracts/access/Ownable.sol\":1094:1105  _checkOwner */\n      tag_57\n        /* \"https://github.com/OpenZeppelin/openzeppelin-contracts/blob/master/contracts/access/Ownable.sol\":1094:1107  _checkOwner() */\n      jump\t// in\n    tag_71:\n      pop\n        /* \"PracticeSimpleWallet.sol\":717:723  amount */\n      dup1\n        /* \"PracticeSimpleWallet.sol\":701:710  allowance */\n      0x01\n        /* \"PracticeSimpleWallet.sol\":701:716  allowance[_who] */\n      0x00\n        /* \"PracticeSimpleWallet.sol\":711:715  _who */\n      dup5\n        /* \"PracticeSimpleWallet.sol\":701:716  allowance[_who] */\n      0xffffffffffffffffffffffffffffffffffffffff\n      and\n      0xffffffffffffffffffffffffffffffffffffffff\n      and\n      dup2\n      mstore\n      0x20\n      add\n      swap1\n      dup2\n      mstore\n      0x20\n      add\n      0x00\n      keccak256\n        /* \"PracticeSimpleWallet.sol\":701:723  allowance[_who]=amount */\n      dup2\n      swap1\n      sstore\n      pop\n        /* \"PracticeSimpleWallet.sol\":624:731  function addAlslowance(address _who, uint amount) public onlyOwner{\r... */\n      pop\n      pop\n      jump\t// out\n        /* \"PracticeSimpleWallet.sol\":750:1106  function withdrawMoney( address payable _to, uint amount) public ownerOrAllowed(amount){\r... */\n    tag_50:\n        /* \"PracticeSimpleWallet.sol\":830:836  amount */\n      dup1\n        /* \"PracticeAllowance.sol\":844:853  isOwner() */\n      tag_74\n        /* \"PracticeAllowance.sol\":844:851  isOwner */\n      tag_75\n        /* \"PracticeAllowance.sol\":844:853  isOwner() */\n      jump\t// in\n    tag_74:\n        /* \"PracticeAllowance.sol\":844:886  isOwner() || allowance[msg.sender]>=amount */\n      dup1\n      tag_76\n      jumpi\n      pop\n        /* \"PracticeAllowance.sol\":880:886  amount */\n      dup1\n        /* \"PracticeAllowance.sol\":857:866  allowance */\n      0x01\n        /* \"PracticeAllowance.sol\":857:878  allowance[msg.sender] */\n      0x00\n        /* \"PracticeAllowance.sol\":867:877  msg.sender */\n      caller\n        /* \"PracticeAllowance.sol\":857:878  allowance[msg.sender] */\n      0xffffffffffffffffffffffffffffffffffffffff\n      and\n      0xffffffffffffffffffffffffffffffffffffffff\n      and\n      dup2\n      mstore\n      0x20\n      add\n      swap1\n      dup2\n      mstore\n      0x20\n      add\n      0x00\n      keccak256\n      sload\n        /* \"PracticeAllowance.sol\":857:886  allowance[msg.sender]>=amount */\n      lt\n      iszero\n        /* \"PracticeAllowance.sol\":844:886  isOwner() || allowance[msg.sender]>=amount */\n    tag_76:\n        /* \"PracticeAllowance.sol\":835:938  require (isOwner() || allowance[msg.sender]>=amount,\"You are not allowed, you don't have enough token\") */\n      tag_77\n      jumpi\n      mload(0x40)\n      0x08c379a000000000000000000000000000000000000000000000000000000000\n      dup2\n      mstore\n      0x04\n      add\n      tag_78\n      swap1\n      tag_79\n      jump\t// in\n    tag_78:\n      mload(0x40)\n      dup1\n      swap2\n      sub\n      swap1\n      revert\n    tag_77:\n        /* \"PracticeSimpleWallet.sol\":868:889  address(this).balance */\n      selfbalance\n        /* \"PracticeSimpleWallet.sol\":860:866  amount */\n      dup3\n        /* \"PracticeSimpleWallet.sol\":860:889  amount<=address(this).balance */\n      gt\n      iszero\n        /* \"PracticeSimpleWallet.sol\":852:929  require(amount<=address(this).balance,\"Contract does not have enough amount\") */\n      tag_81\n      jumpi\n      mload(0x40)\n      0x08c379a000000000000000000000000000000000000000000000000000000000\n      dup2\n      mstore\n      0x04\n      add\n      tag_82\n      swap1\n      tag_83\n      jump\t// in\n    tag_82:\n      mload(0x40)\n      dup1\n      swap2\n      sub\n      swap1\n      revert\n    tag_81:\n        /* \"PracticeSimpleWallet.sol\":948:957  isOwner() */\n      tag_84\n        /* \"PracticeSimpleWallet.sol\":948:955  isOwner */\n      tag_75\n        /* \"PracticeSimpleWallet.sol\":948:957  isOwner() */\n      jump\t// in\n    tag_84:\n        /* \"PracticeSimpleWallet.sol\":944:1027  if(!isOwner()){\r... */\n      tag_85\n      jumpi\n        /* \"PracticeSimpleWallet.sol\":977:1011  reduceAllowance(msg.sender,amount) */\n      tag_86\n        /* \"PracticeSimpleWallet.sol\":993:1003  msg.sender */\n      caller\n        /* \"PracticeSimpleWallet.sol\":1004:1010  amount */\n      dup4\n        /* \"PracticeSimpleWallet.sol\":977:992  reduceAllowance */\n      tag_87\n        /* \"PracticeSimpleWallet.sol\":977:1011  reduceAllowance(msg.sender,amount) */\n      jump\t// in\n    tag_86:\n        /* \"PracticeSimpleWallet.sol\":944:1027  if(!isOwner()){\r... */\n    tag_85:\n        /* \"PracticeSimpleWallet.sol\":1056:1059  _to */\n      dup3\n        /* \"PracticeSimpleWallet.sol\":1046:1067  MoneySent(_to,amount) */\n      0xffffffffffffffffffffffffffffffffffffffff\n      and\n      0x7f51d406915971d4ac1c91af96be5187ea6ab64753785aad519a533def80a41e\n        /* \"PracticeSimpleWallet.sol\":1060:1066  amount */\n      dup4\n        /* \"PracticeSimpleWallet.sol\":1046:1067  MoneySent(_to,amount) */\n      mload(0x40)\n      tag_88\n      swap2\n      swap1\n      tag_16\n      jump\t// in\n    tag_88:\n      mload(0x40)\n      dup1\n      swap2\n      sub\n      swap1\n      log2\n        /* \"PracticeSimpleWallet.sol\":1078:1081  _to */\n      dup3\n        /* \"PracticeSimpleWallet.sol\":1078:1090  _to.transfer */\n      0xffffffffffffffffffffffffffffffffffffffff\n      and\n        /* \"PracticeSimpleWallet.sol\":1078:1098  _to.transfer(amount) */\n      0x08fc\n        /* \"PracticeSimpleWallet.sol\":1091:1097  amount */\n      dup4\n        /* \"PracticeSimpleWallet.sol\":1078:1098  _to.transfer(amount) */\n      swap1\n      dup2\n      iszero\n      mul\n      swap1\n      mload(0x40)\n      0x00\n      mload(0x40)\n      dup1\n      dup4\n      sub\n      dup2\n      dup6\n      dup9\n      dup9\n      call\n      swap4\n      pop\n      pop\n      pop\n      pop\n      iszero\n      dup1\n      iszero\n      tag_90\n      jumpi\n      returndatasize\n      0x00\n      dup1\n      returndatacopy\n      revert(0x00, returndatasize)\n    tag_90:\n      pop\n        /* \"PracticeSimpleWallet.sol\":750:1106  function withdrawMoney( address payable _to, uint amount) public ownerOrAllowed(amount){\r... */\n      pop\n      pop\n      pop\n      jump\t// out\n        /* \"https://github.com/OpenZeppelin/openzeppelin-contracts/blob/master/contracts/access/Ownable.sol\":2095:2293  function transferOwnership(address newOwner) public virtual onlyOwner {... */\n    tag_54:\n        /* \"https://github.com/OpenZeppelin/openzeppelin-contracts/blob/master/contracts/access/Ownable.sol\":1094:1107  _checkOwner() */\n      tag_92\n        /* \"https://github.com/OpenZeppelin/openzeppelin-contracts/blob/master/contracts/access/Ownable.sol\":1094:1105  _checkOwner */\n      tag_57\n        /* \"https://github.com/OpenZeppelin/openzeppelin-contracts/blob/master/contracts/access/Ownable.sol\":1094:1107  _checkOwner() */\n      jump\t// in\n    tag_92:\n      pop\n        /* \"https://github.com/OpenZeppelin/openzeppelin-contracts/blob/master/contracts/access/Ownable.sol\":2203:2204  0 */\n      0x00\n        /* \"https://github.com/OpenZeppelin/openzeppelin-contracts/blob/master/contracts/access/Ownable.sol\":2183:2205  newOwner != address(0) */\n      0xffffffffffffffffffffffffffffffffffffffff\n      and\n        /* \"https://github.com/OpenZeppelin/openzeppelin-contracts/blob/master/contracts/access/Ownable.sol\":2183:2191  newOwner */\n      dup2\n        /* \"https://github.com/OpenZeppelin/openzeppelin-contracts/blob/master/contracts/access/Ownable.sol\":2183:2205  newOwner != address(0) */\n      0xffffffffffffffffffffffffffffffffffffffff\n      and\n      eq\n      iszero\n        /* \"https://github.com/OpenZeppelin/openzeppelin-contracts/blob/master/contracts/access/Ownable.sol\":2175:2248  require(newOwner != address(0), \"Ownable: new owner is the zero address\") */\n      tag_94\n      jumpi\n      mload(0x40)\n      0x08c379a000000000000000000000000000000000000000000000000000000000\n      dup2\n      mstore\n      0x04\n      add\n      tag_95\n      swap1\n      tag_96\n      jump\t// in\n    tag_95:\n      mload(0x40)\n      dup1\n      swap2\n      sub\n      swap1\n      revert\n    tag_94:\n        /* \"https://github.com/OpenZeppelin/openzeppelin-contracts/blob/master/contracts/access/Ownable.sol\":2258:2286  _transferOwnership(newOwner) */\n      tag_97\n        /* \"https://github.com/OpenZeppelin/openzeppelin-contracts/blob/master/contracts/access/Ownable.sol\":2277:2285  newOwner */\n      dup2\n        /* \"https://github.com/OpenZeppelin/openzeppelin-contracts/blob/master/contracts/access/Ownable.sol\":2258:2276  _transferOwnership */\n      tag_98\n        /* \"https://github.com/OpenZeppelin/openzeppelin-contracts/blob/master/contracts/access/Ownable.sol\":2258:2286  _transferOwnership(newOwner) */\n      jump\t// in\n    tag_97:\n        /* \"https://github.com/OpenZeppelin/openzeppelin-contracts/blob/master/contracts/access/Ownable.sol\":2095:2293  function transferOwnership(address newOwner) public virtual onlyOwner {... */\n      pop\n      jump\t// out\n        /* \"https://github.com/OpenZeppelin/openzeppelin-contracts/blob/master/contracts/access/Ownable.sol\":1359:1503  function _checkOwner() internal view virtual returns(uint) {... */\n    tag_57:\n        /* \"https://github.com/OpenZeppelin/openzeppelin-contracts/blob/master/contracts/access/Ownable.sol\":1412:1416  uint */\n      0x00\n        /* \"https://github.com/OpenZeppelin/openzeppelin-contracts/blob/master/contracts/access/Ownable.sol\":1447:1459  _msgSender() */\n      tag_100\n        /* \"https://github.com/OpenZeppelin/openzeppelin-contracts/blob/master/contracts/access/Ownable.sol\":1447:1457  _msgSender */\n      tag_101\n        /* \"https://github.com/OpenZeppelin/openzeppelin-contracts/blob/master/contracts/access/Ownable.sol\":1447:1459  _msgSender() */\n      jump\t// in\n    tag_100:\n        /* \"https://github.com/OpenZeppelin/openzeppelin-contracts/blob/master/contracts/access/Ownable.sol\":1436:1459  owner() == _msgSender() */\n      0xffffffffffffffffffffffffffffffffffffffff\n      and\n        /* \"https://github.com/OpenZeppelin/openzeppelin-contracts/blob/master/contracts/access/Ownable.sol\":1436:1443  owner() */\n      tag_102\n        /* \"https://github.com/OpenZeppelin/openzeppelin-contracts/blob/master/contracts/access/Ownable.sol\":1436:1441  owner */\n      tag_39\n        /* \"https://github.com/OpenZeppelin/openzeppelin-contracts/blob/master/contracts/access/Ownable.sol\":1436:1443  owner() */\n      jump\t// in\n    tag_102:\n        /* \"https://github.com/OpenZeppelin/openzeppelin-contracts/blob/master/contracts/access/Ownable.sol\":1436:1459  owner() == _msgSender() */\n      0xffffffffffffffffffffffffffffffffffffffff\n      and\n      eq\n        /* \"https://github.com/OpenZeppelin/openzeppelin-contracts/blob/master/contracts/access/Ownable.sol\":1428:1496  require(owner() == _msgSender(), \"Ownable: caller is not the owner\") */\n      tag_103\n      jumpi\n      mload(0x40)\n      0x08c379a000000000000000000000000000000000000000000000000000000000\n      dup2\n      mstore\n      0x04\n      add\n      tag_104\n      swap1\n      tag_105\n      jump\t// in\n    tag_104:\n      mload(0x40)\n      dup1\n      swap2\n      sub\n      swap1\n      revert\n    tag_103:\n        /* \"https://github.com/OpenZeppelin/openzeppelin-contracts/blob/master/contracts/access/Ownable.sol\":1359:1503  function _checkOwner() internal view virtual returns(uint) {... */\n      swap1\n      jump\t// out\n        /* \"PracticeAllowance.sol\":486:585  function isOwner() virtual internal view returns(bool){\r... */\n    tag_75:\n        /* \"PracticeAllowance.sol\":535:539  bool */\n      0x00\n        /* \"PracticeAllowance.sol\":567:577  msg.sender */\n      caller\n        /* \"PracticeAllowance.sol\":558:577  owner()==msg.sender */\n      0xffffffffffffffffffffffffffffffffffffffff\n      and\n        /* \"PracticeAllowance.sol\":558:565  owner() */\n      tag_107\n        /* \"PracticeAllowance.sol\":558:563  owner */\n      tag_39\n        /* \"PracticeAllowance.sol\":558:565  owner() */\n      jump\t// in\n    tag_107:\n        /* \"PracticeAllowance.sol\":558:577  owner()==msg.sender */\n      0xffffffffffffffffffffffffffffffffffffffff\n      and\n      eq\n        /* \"PracticeAllowance.sol\":551:577  return owner()==msg.sender */\n      swap1\n      pop\n        /* \"PracticeAllowance.sol\":486:585  function isOwner() virtual internal view returns(bool){\r... */\n      swap1\n      jump\t// out\n        /* \"PracticeAllowance.sol\":966:1204  function reduceAllowance(address _who,uint amount) internal ownerOrAllowed(amount) {\r... */\n    tag_87:\n        /* \"PracticeAllowance.sol\":1041:1047  amount */\n      dup1\n        /* \"PracticeAllowance.sol\":844:853  isOwner() */\n      tag_109\n        /* \"PracticeAllowance.sol\":844:851  isOwner */\n      tag_75\n        /* \"PracticeAllowance.sol\":844:853  isOwner() */\n      jump\t// in\n    tag_109:\n        /* \"PracticeAllowance.sol\":844:886  isOwner() || allowance[msg.sender]>=amount */\n      dup1\n      tag_110\n      jumpi\n      pop\n        /* \"PracticeAllowance.sol\":880:886  amount */\n      dup1\n        /* \"PracticeAllowance.sol\":857:866  allowance */\n      0x01\n        /* \"PracticeAllowance.sol\":857:878  allowance[msg.sender] */\n      0x00\n        /* \"PracticeAllowance.sol\":867:877  msg.sender */\n      caller\n        /* \"PracticeAllowance.sol\":857:878  allowance[msg.sender] */\n      0xffffffffffffffffffffffffffffffffffffffff\n      and\n      0xffffffffffffffffffffffffffffffffffffffff\n      and\n      dup2\n      mstore\n      0x20\n      add\n      swap1\n      dup2\n      mstore\n      0x20\n      add\n      0x00\n      keccak256\n      sload\n        /* \"PracticeAllowance.sol\":857:886  allowance[msg.sender]>=amount */\n      lt\n      iszero\n        /* \"PracticeAllowance.sol\":844:886  isOwner() || allowance[msg.sender]>=amount */\n    tag_110:\n        /* \"PracticeAllowance.sol\":835:938  require (isOwner() || allowance[msg.sender]>=amount,\"You are not allowed, you don't have enough token\") */\n      tag_111\n      jumpi\n      mload(0x40)\n      0x08c379a000000000000000000000000000000000000000000000000000000000\n      dup2\n      mstore\n      0x04\n      add\n      tag_112\n      swap1\n      tag_79\n      jump\t// in\n    tag_112:\n      mload(0x40)\n      dup1\n      swap2\n      sub\n      swap1\n      revert\n    tag_111:\n        /* \"PracticeAllowance.sol\":1087:1097  msg.sender */\n      caller\n        /* \"PracticeAllowance.sol\":1065:1142  AllowanceChanged(_who,msg.sender,allowance[_who],allowance[_who].sub(amount)) */\n      0xffffffffffffffffffffffffffffffffffffffff\n      and\n        /* \"PracticeAllowance.sol\":1082:1086  _who */\n      dup4\n        /* \"PracticeAllowance.sol\":1065:1142  AllowanceChanged(_who,msg.sender,allowance[_who],allowance[_who].sub(amount)) */\n      0xffffffffffffffffffffffffffffffffffffffff\n      and\n      0x3691d1a86d99355e52b689ca70a7bdf6d80763237a6aa06e5fa43964eac7244b\n        /* \"PracticeAllowance.sol\":1098:1107  allowance */\n      0x01\n        /* \"PracticeAllowance.sol\":1098:1113  allowance[_who] */\n      0x00\n        /* \"PracticeAllowance.sol\":1108:1112  _who */\n      dup8\n        /* \"PracticeAllowance.sol\":1098:1113  allowance[_who] */\n      0xffffffffffffffffffffffffffffffffffffffff\n      and\n      0xffffffffffffffffffffffffffffffffffffffff\n      and\n      dup2\n      mstore\n      0x20\n      add\n      swap1\n      dup2\n      mstore\n      0x20\n      add\n      0x00\n      keccak256\n      sload\n        /* \"PracticeAllowance.sol\":1114:1141  allowance[_who].sub(amount) */\n      tag_114\n        /* \"PracticeAllowance.sol\":1134:1140  amount */\n      dup7\n        /* \"PracticeAllowance.sol\":1114:1123  allowance */\n      0x01\n        /* \"PracticeAllowance.sol\":1114:1129  allowance[_who] */\n      0x00\n        /* \"PracticeAllowance.sol\":1124:1128  _who */\n      dup11\n        /* \"PracticeAllowance.sol\":1114:1129  allowance[_who] */\n      0xffffffffffffffffffffffffffffffffffffffff\n      and\n      0xffffffffffffffffffffffffffffffffffffffff\n      and\n      dup2\n      mstore\n      0x20\n      add\n      swap1\n      dup2\n      mstore\n      0x20\n      add\n      0x00\n      keccak256\n      sload\n        /* \"PracticeAllowance.sol\":1114:1133  allowance[_who].sub */\n      tag_115\n      swap1\n        /* \"PracticeAllowance.sol\":1114:1141  allowance[_who].sub(amount) */\n      swap2\n      swap1\n      0xffffffff\n      and\n      jump\t// in\n    tag_114:\n        /* \"PracticeAllowance.sol\":1065:1142  AllowanceChanged(_who,msg.sender,allowance[_who],allowance[_who].sub(amount)) */\n      mload(0x40)\n      tag_116\n      swap3\n      swap2\n      swap1\n      tag_60\n      jump\t// in\n    tag_116:\n      mload(0x40)\n      dup1\n      swap2\n      sub\n      swap1\n      log3\n        /* \"PracticeAllowance.sol\":1169:1196  allowance[_who].sub(amount) */\n      tag_117\n        /* \"PracticeAllowance.sol\":1189:1195  amount */\n      dup3\n        /* \"PracticeAllowance.sol\":1169:1178  allowance */\n      0x01\n        /* \"PracticeAllowance.sol\":1169:1184  allowance[_who] */\n      0x00\n        /* \"PracticeAllowance.sol\":1179:1183  _who */\n      dup7\n        /* \"PracticeAllowance.sol\":1169:1184  allowance[_who] */\n      0xffffffffffffffffffffffffffffffffffffffff\n      and\n      0xffffffffffffffffffffffffffffffffffffffff\n      and\n      dup2\n      mstore\n      0x20\n      add\n      swap1\n      dup2\n      mstore\n      0x20\n      add\n      0x00\n      keccak256\n      sload\n        /* \"PracticeAllowance.sol\":1169:1188  allowance[_who].sub */\n      tag_115\n      swap1\n        /* \"PracticeAllowance.sol\":1169:1196  allowance[_who].sub(amount) */\n      swap2\n      swap1\n      0xffffffff\n      and\n      jump\t// in\n    tag_117:\n        /* \"PracticeAllowance.sol\":1153:1162  allowance */\n      0x01\n        /* \"PracticeAllowance.sol\":1153:1168  allowance[_who] */\n      0x00\n        /* \"PracticeAllowance.sol\":1163:1167  _who */\n      dup6\n        /* \"PracticeAllowance.sol\":1153:1168  allowance[_who] */\n      0xffffffffffffffffffffffffffffffffffffffff\n      and\n      0xffffffffffffffffffffffffffffffffffffffff\n      and\n      dup2\n      mstore\n      0x20\n      add\n      swap1\n      dup2\n      mstore\n      0x20\n      add\n      0x00\n      keccak256\n        /* \"PracticeAllowance.sol\":1153:1196  allowance[_who]=allowance[_who].sub(amount) */\n      dup2\n      swap1\n      sstore\n      pop\n        /* \"PracticeAllowance.sol\":966:1204  function reduceAllowance(address _who,uint amount) internal ownerOrAllowed(amount) {\r... */\n      pop\n      pop\n      pop\n      jump\t// out\n        /* \"https://github.com/OpenZeppelin/openzeppelin-contracts/blob/master/contracts/access/Ownable.sol\":2447:2634  function _transferOwnership(address newOwner) internal virtual {... */\n    tag_98:\n        /* \"https://github.com/OpenZeppelin/openzeppelin-contracts/blob/master/contracts/access/Ownable.sol\":2520:2536  address oldOwner */\n      0x00\n        /* \"https://github.com/OpenZeppelin/openzeppelin-contracts/blob/master/contracts/access/Ownable.sol\":2539:2545  _owner */\n      dup1\n      0x00\n      swap1\n      sload\n      swap1\n      0x0100\n      exp\n      swap1\n      div\n      0xffffffffffffffffffffffffffffffffffffffff\n      and\n        /* \"https://github.com/OpenZeppelin/openzeppelin-contracts/blob/master/contracts/access/Ownable.sol\":2520:2545  address oldOwner = _owner */\n      swap1\n      pop\n        /* \"https://github.com/OpenZeppelin/openzeppelin-contracts/blob/master/contracts/access/Ownable.sol\":2564:2572  newOwner */\n      dup2\n        /* \"https://github.com/OpenZeppelin/openzeppelin-contracts/blob/master/contracts/access/Ownable.sol\":2555:2561  _owner */\n      0x00\n      dup1\n        /* \"https://github.com/OpenZeppelin/openzeppelin-contracts/blob/master/contracts/access/Ownable.sol\":2555:2572  _owner = newOwner */\n      0x0100\n      exp\n      dup2\n      sload\n      dup2\n      0xffffffffffffffffffffffffffffffffffffffff\n      mul\n      not\n      and\n      swap1\n      dup4\n      0xffffffffffffffffffffffffffffffffffffffff\n      and\n      mul\n      or\n      swap1\n      sstore\n      pop\n        /* \"https://github.com/OpenZeppelin/openzeppelin-contracts/blob/master/contracts/access/Ownable.sol\":2618:2626  newOwner */\n      dup2\n        /* \"https://github.com/OpenZeppelin/openzeppelin-contracts/blob/master/contracts/access/Ownable.sol\":2587:2627  OwnershipTransferred(oldOwner, newOwner) */\n      0xffffffffffffffffffffffffffffffffffffffff\n      and\n        /* \"https://github.com/OpenZeppelin/openzeppelin-contracts/blob/master/contracts/access/Ownable.sol\":2608:2616  oldOwner */\n      dup2\n        /* \"https://github.com/OpenZeppelin/openzeppelin-contracts/blob/master/contracts/access/Ownable.sol\":2587:2627  OwnershipTransferred(oldOwner, newOwner) */\n      0xffffffffffffffffffffffffffffffffffffffff\n      and\n      0x8be0079c531659141344cd1fd0a4f28419497f9722a3daafe3b4186f6b6457e0\n      mload(0x40)\n      mload(0x40)\n      dup1\n      swap2\n      sub\n      swap1\n      log3\n        /* \"https://github.com/OpenZeppelin/openzeppelin-contracts/blob/master/contracts/access/Ownable.sol\":2510:2634  {... */\n      pop\n        /* \"https://github.com/OpenZeppelin/openzeppelin-contracts/blob/master/contracts/access/Ownable.sol\":2447:2634  function _transferOwnership(address newOwner) internal virtual {... */\n      pop\n      jump\t// out\n        /* \"https://github.com/OpenZeppelin/openzeppelin-contracts/blob/master/contracts/utils/Context.sol\":640:736  function _msgSender() internal view virtual returns (address) {... */\n    tag_101:\n        /* \"https://github.com/OpenZeppelin/openzeppelin-contracts/blob/master/contracts/utils/Context.sol\":693:700  address */\n      0x00\n        /* \"https://github.com/OpenZeppelin/openzeppelin-contracts/blob/master/contracts/utils/Context.sol\":719:729  msg.sender */\n      caller\n        /* \"https://github.com/OpenZeppelin/openzeppelin-contracts/blob/master/contracts/utils/Context.sol\":712:729  return msg.sender */\n      swap1\n      pop\n        /* \"https://github.com/OpenZeppelin/openzeppelin-contracts/blob/master/contracts/utils/Context.sol\":640:736  function _msgSender() internal view virtual returns (address) {... */\n      swap1\n      jump\t// out\n        /* \"https://github.com/OpenZeppelin/openzeppelin-contracts/blob/master/contracts/utils/math/SafeMath.sol\":3122:3218  function sub(uint256 a, uint256 b) internal pure returns (uint256) {... */\n    tag_115:\n        /* \"https://github.com/OpenZeppelin/openzeppelin-contracts/blob/master/contracts/utils/math/SafeMath.sol\":3180:3187  uint256 */\n      0x00\n        /* \"https://github.com/OpenZeppelin/openzeppelin-contracts/blob/master/contracts/utils/math/SafeMath.sol\":3210:3211  b */\n      dup2\n        /* \"https://github.com/OpenZeppelin/openzeppelin-contracts/blob/master/contracts/utils/math/SafeMath.sol\":3206:3207  a */\n      dup4\n        /* \"https://github.com/OpenZeppelin/openzeppelin-contracts/blob/master/contracts/utils/math/SafeMath.sol\":3206:3211  a - b */\n      tag_121\n      swap2\n      swap1\n      tag_122\n      jump\t// in\n    tag_121:\n        /* \"https://github.com/OpenZeppelin/openzeppelin-contracts/blob/master/contracts/utils/math/SafeMath.sol\":3199:3211  return a - b */\n      swap1\n      pop\n        /* \"https://github.com/OpenZeppelin/openzeppelin-contracts/blob/master/contracts/utils/math/SafeMath.sol\":3122:3218  function sub(uint256 a, uint256 b) internal pure returns (uint256) {... */\n      swap3\n      swap2\n      pop\n      pop\n      jump\t// out\n        /* \"#utility.yul\":7:146   */\n    tag_124:\n        /* \"#utility.yul\":53:58   */\n      0x00\n        /* \"#utility.yul\":91:97   */\n      dup2\n        /* \"#utility.yul\":78:98   */\n      calldataload\n        /* \"#utility.yul\":69:98   */\n      swap1\n      pop\n        /* \"#utility.yul\":107:140   */\n      tag_126\n        /* \"#utility.yul\":134:139   */\n      dup2\n        /* \"#utility.yul\":107:140   */\n      tag_127\n      jump\t// in\n    tag_126:\n        /* \"#utility.yul\":7:146   */\n      swap3\n      swap2\n      pop\n      pop\n      jump\t// out\n        /* \"#utility.yul\":152:307   */\n    tag_128:\n        /* \"#utility.yul\":206:211   */\n      0x00\n        /* \"#utility.yul\":244:250   */\n      dup2\n        /* \"#utility.yul\":231:251   */\n      calldataload\n        /* \"#utility.yul\":222:251   */\n      swap1\n      pop\n        /* \"#utility.yul\":260:301   */\n      tag_130\n        /* \"#utility.yul\":295:300   */\n      dup2\n        /* \"#utility.yul\":260:301   */\n      tag_131\n      jump\t// in\n    tag_130:\n        /* \"#utility.yul\":152:307   */\n      swap3\n      swap2\n      pop\n      pop\n      jump\t// out\n        /* \"#utility.yul\":313:452   */\n    tag_132:\n        /* \"#utility.yul\":359:364   */\n      0x00\n        /* \"#utility.yul\":397:403   */\n      dup2\n        /* \"#utility.yul\":384:404   */\n      calldataload\n        /* \"#utility.yul\":375:404   */\n      swap1\n      pop\n        /* \"#utility.yul\":413:446   */\n      tag_134\n        /* \"#utility.yul\":440:445   */\n      dup2\n        /* \"#utility.yul\":413:446   */\n      tag_135\n      jump\t// in\n    tag_134:\n        /* \"#utility.yul\":313:452   */\n      swap3\n      swap2\n      pop\n      pop\n      jump\t// out\n        /* \"#utility.yul\":458:787   */\n    tag_25:\n        /* \"#utility.yul\":517:523   */\n      0x00\n        /* \"#utility.yul\":566:568   */\n      0x20\n        /* \"#utility.yul\":554:563   */\n      dup3\n        /* \"#utility.yul\":545:552   */\n      dup5\n        /* \"#utility.yul\":541:564   */\n      sub\n        /* \"#utility.yul\":537:569   */\n      slt\n        /* \"#utility.yul\":534:653   */\n      iszero\n      tag_137\n      jumpi\n        /* \"#utility.yul\":572:651   */\n      tag_138\n      tag_139\n      jump\t// in\n    tag_138:\n        /* \"#utility.yul\":534:653   */\n    tag_137:\n        /* \"#utility.yul\":692:693   */\n      0x00\n        /* \"#utility.yul\":717:770   */\n      tag_140\n        /* \"#utility.yul\":762:769   */\n      dup5\n        /* \"#utility.yul\":753:759   */\n      dup3\n        /* \"#utility.yul\":742:751   */\n      dup6\n        /* \"#utility.yul\":738:760   */\n      add\n        /* \"#utility.yul\":717:770   */\n      tag_124\n      jump\t// in\n    tag_140:\n        /* \"#utility.yul\":707:770   */\n      swap2\n      pop\n        /* \"#utility.yul\":663:780   */\n      pop\n        /* \"#utility.yul\":458:787   */\n      swap3\n      swap2\n      pop\n      pop\n      jump\t// out\n        /* \"#utility.yul\":793:1283   */\n    tag_49:\n        /* \"#utility.yul\":869:875   */\n      0x00\n        /* \"#utility.yul\":877:883   */\n      dup1\n        /* \"#utility.yul\":926:928   */\n      0x40\n        /* \"#utility.yul\":914:923   */\n      dup4\n        /* \"#utility.yul\":905:912   */\n      dup6\n        /* \"#utility.yul\":901:924   */\n      sub\n        /* \"#utility.yul\":897:929   */\n      slt\n        /* \"#utility.yul\":894:1013   */\n      iszero\n      tag_142\n      jumpi\n        /* \"#utility.yul\":932:1011   */\n      tag_143\n      tag_139\n      jump\t// in\n    tag_143:\n        /* \"#utility.yul\":894:1013   */\n    tag_142:\n        /* \"#utility.yul\":1052:1053   */\n      0x00\n        /* \"#utility.yul\":1077:1138   */\n      tag_144\n        /* \"#utility.yul\":1130:1137   */\n      dup6\n        /* \"#utility.yul\":1121:1127   */\n      dup3\n        /* \"#utility.yul\":1110:1119   */\n      dup7\n        /* \"#utility.yul\":1106:1128   */\n      add\n        /* \"#utility.yul\":1077:1138   */\n      tag_128\n      jump\t// in\n    tag_144:\n        /* \"#utility.yul\":1067:1138   */\n      swap3\n      pop\n        /* \"#utility.yul\":1023:1148   */\n      pop\n        /* \"#utility.yul\":1187:1189   */\n      0x20\n        /* \"#utility.yul\":1213:1266   */\n      tag_145\n        /* \"#utility.yul\":1258:1265   */\n      dup6\n        /* \"#utility.yul\":1249:1255   */\n      dup3\n        /* \"#utility.yul\":1238:1247   */\n      dup7\n        /* \"#utility.yul\":1234:1256   */\n      add\n        /* \"#utility.yul\":1213:1266   */\n      tag_132\n      jump\t// in\n    tag_145:\n        /* \"#utility.yul\":1203:1266   */\n      swap2\n      pop\n        /* \"#utility.yul\":1158:1276   */\n      pop\n        /* \"#utility.yul\":793:1283   */\n      swap3\n      pop\n      swap3\n      swap1\n      pop\n      jump\t// out\n        /* \"#utility.yul\":1289:1763   */\n    tag_20:\n        /* \"#utility.yul\":1357:1363   */\n      0x00\n        /* \"#utility.yul\":1365:1371   */\n      dup1\n        /* \"#utility.yul\":1414:1416   */\n      0x40\n        /* \"#utility.yul\":1402:1411   */\n      dup4\n        /* \"#utility.yul\":1393:1400   */\n      dup6\n        /* \"#utility.yul\":1389:1412   */\n      sub\n        /* \"#utility.yul\":1385:1417   */\n      slt\n        /* \"#utility.yul\":1382:1501   */\n      iszero\n      tag_147\n      jumpi\n        /* \"#utility.yul\":1420:1499   */\n      tag_148\n      tag_139\n      jump\t// in\n    tag_148:\n        /* \"#utility.yul\":1382:1501   */\n    tag_147:\n        /* \"#utility.yul\":1540:1541   */\n      0x00\n        /* \"#utility.yul\":1565:1618   */\n      tag_149\n        /* \"#utility.yul\":1610:1617   */\n      dup6\n        /* \"#utility.yul\":1601:1607   */\n      dup3\n        /* \"#utility.yul\":1590:1599   */\n      dup7\n        /* \"#utility.yul\":1586:1608   */\n      add\n        /* \"#utility.yul\":1565:1618   */\n      tag_124\n      jump\t// in\n    tag_149:\n        /* \"#utility.yul\":1555:1618   */\n      swap3\n      pop\n        /* \"#utility.yul\":1511:1628   */\n      pop\n        /* \"#utility.yul\":1667:1669   */\n      0x20\n        /* \"#utility.yul\":1693:1746   */\n      tag_150\n        /* \"#utility.yul\":1738:1745   */\n      dup6\n        /* \"#utility.yul\":1729:1735   */\n      dup3\n        /* \"#utility.yul\":1718:1727   */\n      dup7\n        /* \"#utility.yul\":1714:1736   */\n      add\n        /* \"#utility.yul\":1693:1746   */\n      tag_132\n      jump\t// in\n    tag_150:\n        /* \"#utility.yul\":1683:1746   */\n      swap2\n      pop\n        /* \"#utility.yul\":1638:1756   */\n      pop\n        /* \"#utility.yul\":1289:1763   */\n      swap3\n      pop\n      swap3\n      swap1\n      pop\n      jump\t// out\n        /* \"#utility.yul\":1769:1887   */\n    tag_151:\n        /* \"#utility.yul\":1856:1880   */\n      tag_153\n        /* \"#utility.yul\":1874:1879   */\n      dup2\n        /* \"#utility.yul\":1856:1880   */\n      tag_154\n      jump\t// in\n    tag_153:\n        /* \"#utility.yul\":1851:1854   */\n      dup3\n        /* \"#utility.yul\":1844:1881   */\n      mstore\n        /* \"#utility.yul\":1769:1887   */\n      pop\n      pop\n      jump\t// out\n        /* \"#utility.yul\":1893:2259   */\n    tag_155:\n        /* \"#utility.yul\":2035:2038   */\n      0x00\n        /* \"#utility.yul\":2056:2123   */\n      tag_157\n        /* \"#utility.yul\":2120:2122   */\n      0x26\n        /* \"#utility.yul\":2115:2118   */\n      dup4\n        /* \"#utility.yul\":2056:2123   */\n      tag_158\n      jump\t// in\n    tag_157:\n        /* \"#utility.yul\":2049:2123   */\n      swap2\n      pop\n        /* \"#utility.yul\":2132:2225   */\n      tag_159\n        /* \"#utility.yul\":2221:2224   */\n      dup3\n        /* \"#utility.yul\":2132:2225   */\n      tag_160\n      jump\t// in\n    tag_159:\n        /* \"#utility.yul\":2250:2252   */\n      0x40\n        /* \"#utility.yul\":2245:2248   */\n      dup3\n        /* \"#utility.yul\":2241:2253   */\n      add\n        /* \"#utility.yul\":2234:2253   */\n      swap1\n      pop\n        /* \"#utility.yul\":1893:2259   */\n      swap2\n      swap1\n      pop\n      jump\t// out\n        /* \"#utility.yul\":2265:2631   */\n    tag_161:\n        /* \"#utility.yul\":2407:2410   */\n      0x00\n        /* \"#utility.yul\":2428:2495   */\n      tag_163\n        /* \"#utility.yul\":2492:2494   */\n      0x30\n        /* \"#utility.yul\":2487:2490   */\n      dup4\n        /* \"#utility.yul\":2428:2495   */\n      tag_158\n      jump\t// in\n    tag_163:\n        /* \"#utility.yul\":2421:2495   */\n      swap2\n      pop\n        /* \"#utility.yul\":2504:2597   */\n      tag_164\n        /* \"#utility.yul\":2593:2596   */\n      dup3\n        /* \"#utility.yul\":2504:2597   */\n      tag_165\n      jump\t// in\n    tag_164:\n        /* \"#utility.yul\":2622:2624   */\n      0x40\n        /* \"#utility.yul\":2617:2620   */\n      dup3\n        /* \"#utility.yul\":2613:2625   */\n      add\n        /* \"#utility.yul\":2606:2625   */\n      swap1\n      pop\n        /* \"#utility.yul\":2265:2631   */\n      swap2\n      swap1\n      pop\n      jump\t// out\n        /* \"#utility.yul\":2637:3003   */\n    tag_166:\n        /* \"#utility.yul\":2779:2782   */\n      0x00\n        /* \"#utility.yul\":2800:2867   */\n      tag_168\n        /* \"#utility.yul\":2864:2866   */\n      0x20\n        /* \"#utility.yul\":2859:2862   */\n      dup4\n        /* \"#utility.yul\":2800:2867   */\n      tag_158\n      jump\t// in\n    tag_168:\n        /* \"#utility.yul\":2793:2867   */\n      swap2\n      pop\n        /* \"#utility.yul\":2876:2969   */\n      tag_169\n        /* \"#utility.yul\":2965:2968   */\n      dup3\n        /* \"#utility.yul\":2876:2969   */\n      tag_170\n      jump\t// in\n    tag_169:\n        /* \"#utility.yul\":2994:2996   */\n      0x20\n        /* \"#utility.yul\":2989:2992   */\n      dup3\n        /* \"#utility.yul\":2985:2997   */\n      add\n        /* \"#utility.yul\":2978:2997   */\n      swap1\n      pop\n        /* \"#utility.yul\":2637:3003   */\n      swap2\n      swap1\n      pop\n      jump\t// out\n        /* \"#utility.yul\":3009:3375   */\n    tag_171:\n        /* \"#utility.yul\":3151:3154   */\n      0x00\n        /* \"#utility.yul\":3172:3239   */\n      tag_173\n        /* \"#utility.yul\":3236:3238   */\n      0x24\n        /* \"#utility.yul\":3231:3234   */\n      dup4\n        /* \"#utility.yul\":3172:3239   */\n      tag_158\n      jump\t// in\n    tag_173:\n        /* \"#utility.yul\":3165:3239   */\n      swap2\n      pop\n        /* \"#utility.yul\":3248:3341   */\n      tag_174\n        /* \"#utility.yul\":3337:3340   */\n      dup3\n        /* \"#utility.yul\":3248:3341   */\n      tag_175\n      jump\t// in\n    tag_174:\n        /* \"#utility.yul\":3366:3368   */\n      0x40\n        /* \"#utility.yul\":3361:3364   */\n      dup3\n        /* \"#utility.yul\":3357:3369   */\n      add\n        /* \"#utility.yul\":3350:3369   */\n      swap1\n      pop\n        /* \"#utility.yul\":3009:3375   */\n      swap2\n      swap1\n      pop\n      jump\t// out\n        /* \"#utility.yul\":3381:3747   */\n    tag_176:\n        /* \"#utility.yul\":3523:3526   */\n      0x00\n        /* \"#utility.yul\":3544:3611   */\n      tag_178\n        /* \"#utility.yul\":3608:3610   */\n      0x1d\n        /* \"#utility.yul\":3603:3606   */\n      dup4\n        /* \"#utility.yul\":3544:3611   */\n      tag_158\n      jump\t// in\n    tag_178:\n        /* \"#utility.yul\":3537:3611   */\n      swap2\n      pop\n        /* \"#utility.yul\":3620:3713   */\n      tag_179\n        /* \"#utility.yul\":3709:3712   */\n      dup3\n        /* \"#utility.yul\":3620:3713   */\n      tag_180\n      jump\t// in\n    tag_179:\n        /* \"#utility.yul\":3738:3740   */\n      0x20\n        /* \"#utility.yul\":3733:3736   */\n      dup3\n        /* \"#utility.yul\":3729:3741   */\n      add\n        /* \"#utility.yul\":3722:3741   */\n      swap1\n      pop\n        /* \"#utility.yul\":3381:3747   */\n      swap2\n      swap1\n      pop\n      jump\t// out\n        /* \"#utility.yul\":3753:3871   */\n    tag_181:\n        /* \"#utility.yul\":3840:3864   */\n      tag_183\n        /* \"#utility.yul\":3858:3863   */\n      dup2\n        /* \"#utility.yul\":3840:3864   */\n      tag_184\n      jump\t// in\n    tag_183:\n        /* \"#utility.yul\":3835:3838   */\n      dup3\n        /* \"#utility.yul\":3828:3865   */\n      mstore\n        /* \"#utility.yul\":3753:3871   */\n      pop\n      pop\n      jump\t// out\n        /* \"#utility.yul\":3877:4099   */\n    tag_41:\n        /* \"#utility.yul\":3970:3974   */\n      0x00\n        /* \"#utility.yul\":4008:4010   */\n      0x20\n        /* \"#utility.yul\":3997:4006   */\n      dup3\n        /* \"#utility.yul\":3993:4011   */\n      add\n        /* \"#utility.yul\":3985:4011   */\n      swap1\n      pop\n        /* \"#utility.yul\":4021:4092   */\n      tag_186\n        /* \"#utility.yul\":4089:4090   */\n      0x00\n        /* \"#utility.yul\":4078:4087   */\n      dup4\n        /* \"#utility.yul\":4074:4091   */\n      add\n        /* \"#utility.yul\":4065:4071   */\n      dup5\n        /* \"#utility.yul\":4021:4092   */\n      tag_151\n      jump\t// in\n    tag_186:\n        /* \"#utility.yul\":3877:4099   */\n      swap3\n      swap2\n      pop\n      pop\n      jump\t// out\n        /* \"#utility.yul\":4105:4524   */\n    tag_96:\n        /* \"#utility.yul\":4271:4275   */\n      0x00\n        /* \"#utility.yul\":4309:4311   */\n      0x20\n        /* \"#utility.yul\":4298:4307   */\n      dup3\n        /* \"#utility.yul\":4294:4312   */\n      add\n        /* \"#utility.yul\":4286:4312   */\n      swap1\n      pop\n        /* \"#utility.yul\":4358:4367   */\n      dup2\n        /* \"#utility.yul\":4352:4356   */\n      dup2\n        /* \"#utility.yul\":4348:4368   */\n      sub\n        /* \"#utility.yul\":4344:4345   */\n      0x00\n        /* \"#utility.yul\":4333:4342   */\n      dup4\n        /* \"#utility.yul\":4329:4346   */\n      add\n        /* \"#utility.yul\":4322:4369   */\n      mstore\n        /* \"#utility.yul\":4386:4517   */\n      tag_188\n        /* \"#utility.yul\":4512:4516   */\n      dup2\n        /* \"#utility.yul\":4386:4517   */\n      tag_155\n      jump\t// in\n    tag_188:\n        /* \"#utility.yul\":4378:4517   */\n      swap1\n      pop\n        /* \"#utility.yul\":4105:4524   */\n      swap2\n      swap1\n      pop\n      jump\t// out\n        /* \"#utility.yul\":4530:4949   */\n    tag_79:\n        /* \"#utility.yul\":4696:4700   */\n      0x00\n        /* \"#utility.yul\":4734:4736   */\n      0x20\n        /* \"#utility.yul\":4723:4732   */\n      dup3\n        /* \"#utility.yul\":4719:4737   */\n      add\n        /* \"#utility.yul\":4711:4737   */\n      swap1\n      pop\n        /* \"#utility.yul\":4783:4792   */\n      dup2\n        /* \"#utility.yul\":4777:4781   */\n      dup2\n        /* \"#utility.yul\":4773:4793   */\n      sub\n        /* \"#utility.yul\":4769:4770   */\n      0x00\n        /* \"#utility.yul\":4758:4767   */\n      dup4\n        /* \"#utility.yul\":4754:4771   */\n      add\n        /* \"#utility.yul\":4747:4794   */\n      mstore\n        /* \"#utility.yul\":4811:4942   */\n      tag_190\n        /* \"#utility.yul\":4937:4941   */\n      dup2\n        /* \"#utility.yul\":4811:4942   */\n      tag_161\n      jump\t// in\n    tag_190:\n        /* \"#utility.yul\":4803:4942   */\n      swap1\n      pop\n        /* \"#utility.yul\":4530:4949   */\n      swap2\n      swap1\n      pop\n      jump\t// out\n        /* \"#utility.yul\":4955:5374   */\n    tag_105:\n        /* \"#utility.yul\":5121:5125   */\n      0x00\n        /* \"#utility.yul\":5159:5161   */\n      0x20\n        /* \"#utility.yul\":5148:5157   */\n      dup3\n        /* \"#utility.yul\":5144:5162   */\n      add\n        /* \"#utility.yul\":5136:5162   */\n      swap1\n      pop\n        /* \"#utility.yul\":5208:5217   */\n      dup2\n        /* \"#utility.yul\":5202:5206   */\n      dup2\n        /* \"#utility.yul\":5198:5218   */\n      sub\n        /* \"#utility.yul\":5194:5195   */\n      0x00\n        /* \"#utility.yul\":5183:5192   */\n      dup4\n        /* \"#utility.yul\":5179:5196   */\n      add\n        /* \"#utility.yul\":5172:5219   */\n      mstore\n        /* \"#utility.yul\":5236:5367   */\n      tag_192\n        /* \"#utility.yul\":5362:5366   */\n      dup2\n        /* \"#utility.yul\":5236:5367   */\n      tag_166\n      jump\t// in\n    tag_192:\n        /* \"#utility.yul\":5228:5367   */\n      swap1\n      pop\n        /* \"#utility.yul\":4955:5374   */\n      swap2\n      swap1\n      pop\n      jump\t// out\n        /* \"#utility.yul\":5380:5799   */\n    tag_83:\n        /* \"#utility.yul\":5546:5550   */\n      0x00\n        /* \"#utility.yul\":5584:5586   */\n      0x20\n        /* \"#utility.yul\":5573:5582   */\n      dup3\n        /* \"#utility.yul\":5569:5587   */\n      add\n        /* \"#utility.yul\":5561:5587   */\n      swap1\n      pop\n        /* \"#utility.yul\":5633:5642   */\n      dup2\n        /* \"#utility.yul\":5627:5631   */\n      dup2\n        /* \"#utility.yul\":5623:5643   */\n      sub\n        /* \"#utility.yul\":5619:5620   */\n      0x00\n        /* \"#utility.yul\":5608:5617   */\n      dup4\n        /* \"#utility.yul\":5604:5621   */\n      add\n        /* \"#utility.yul\":5597:5644   */\n      mstore\n        /* \"#utility.yul\":5661:5792   */\n      tag_194\n        /* \"#utility.yul\":5787:5791   */\n      dup2\n        /* \"#utility.yul\":5661:5792   */\n      tag_171\n      jump\t// in\n    tag_194:\n        /* \"#utility.yul\":5653:5792   */\n      swap1\n      pop\n        /* \"#utility.yul\":5380:5799   */\n      swap2\n      swap1\n      pop\n      jump\t// out\n        /* \"#utility.yul\":5805:6224   */\n    tag_68:\n        /* \"#utility.yul\":5971:5975   */\n      0x00\n        /* \"#utility.yul\":6009:6011   */\n      0x20\n        /* \"#utility.yul\":5998:6007   */\n      dup3\n        /* \"#utility.yul\":5994:6012   */\n      add\n        /* \"#utility.yul\":5986:6012   */\n      swap1\n      pop\n        /* \"#utility.yul\":6058:6067   */\n      dup2\n        /* \"#utility.yul\":6052:6056   */\n      dup2\n        /* \"#utility.yul\":6048:6068   */\n      sub\n        /* \"#utility.yul\":6044:6045   */\n      0x00\n        /* \"#utility.yul\":6033:6042   */\n      dup4\n        /* \"#utility.yul\":6029:6046   */\n      add\n        /* \"#utility.yul\":6022:6069   */\n      mstore\n        /* \"#utility.yul\":6086:6217   */\n      tag_196\n        /* \"#utility.yul\":6212:6216   */\n      dup2\n        /* \"#utility.yul\":6086:6217   */\n      tag_176\n      jump\t// in\n    tag_196:\n        /* \"#utility.yul\":6078:6217   */\n      swap1\n      pop\n        /* \"#utility.yul\":5805:6224   */\n      swap2\n      swap1\n      pop\n      jump\t// out\n        /* \"#utility.yul\":6230:6452   */\n    tag_16:\n        /* \"#utility.yul\":6323:6327   */\n      0x00\n        /* \"#utility.yul\":6361:6363   */\n      0x20\n        /* \"#utility.yul\":6350:6359   */\n      dup3\n        /* \"#utility.yul\":6346:6364   */\n      add\n        /* \"#utility.yul\":6338:6364   */\n      swap1\n      pop\n        /* \"#utility.yul\":6374:6445   */\n      tag_198\n        /* \"#utility.yul\":6442:6443   */\n      0x00\n        /* \"#utility.yul\":6431:6440   */\n      dup4\n        /* \"#utility.yul\":6427:6444   */\n      add\n        /* \"#utility.yul\":6418:6424   */\n      dup5\n        /* \"#utility.yul\":6374:6445   */\n      tag_181\n      jump\t// in\n    tag_198:\n        /* \"#utility.yul\":6230:6452   */\n      swap3\n      swap2\n      pop\n      pop\n      jump\t// out\n        /* \"#utility.yul\":6458:6790   */\n    tag_60:\n        /* \"#utility.yul\":6579:6583   */\n      0x00\n        /* \"#utility.yul\":6617:6619   */\n      0x40\n        /* \"#utility.yul\":6606:6615   */\n      dup3\n        /* \"#utility.yul\":6602:6620   */\n      add\n        /* \"#utility.yul\":6594:6620   */\n      swap1\n      pop\n        /* \"#utility.yul\":6630:6701   */\n      tag_200\n        /* \"#utility.yul\":6698:6699   */\n      0x00\n        /* \"#utility.yul\":6687:6696   */\n      dup4\n        /* \"#utility.yul\":6683:6700   */\n      add\n        /* \"#utility.yul\":6674:6680   */\n      dup6\n        /* \"#utility.yul\":6630:6701   */\n      tag_181\n      jump\t// in\n    tag_200:\n        /* \"#utility.yul\":6711:6783   */\n      tag_201\n        /* \"#utility.yul\":6779:6781   */\n      0x20\n        /* \"#utility.yul\":6768:6777   */\n      dup4\n        /* \"#utility.yul\":6764:6782   */\n      add\n        /* \"#utility.yul\":6755:6761   */\n      dup5\n        /* \"#utility.yul\":6711:6783   */\n      tag_181\n      jump\t// in\n    tag_201:\n        /* \"#utility.yul\":6458:6790   */\n      swap4\n      swap3\n      pop\n      pop\n      pop\n      jump\t// out\n        /* \"#utility.yul\":6877:7046   */\n    tag_158:\n        /* \"#utility.yul\":6961:6972   */\n      0x00\n        /* \"#utility.yul\":6995:7001   */\n      dup3\n        /* \"#utility.yul\":6990:6993   */\n      dup3\n        /* \"#utility.yul\":6983:7002   */\n      mstore\n        /* \"#utility.yul\":7035:7039   */\n      0x20\n        /* \"#utility.yul\":7030:7033   */\n      dup3\n        /* \"#utility.yul\":7026:7040   */\n      add\n        /* \"#utility.yul\":7011:7040   */\n      swap1\n      pop\n        /* \"#utility.yul\":6877:7046   */\n      swap3\n      swap2\n      pop\n      pop\n      jump\t// out\n        /* \"#utility.yul\":7052:7357   */\n    tag_63:\n        /* \"#utility.yul\":7092:7095   */\n      0x00\n        /* \"#utility.yul\":7111:7131   */\n      tag_206\n        /* \"#utility.yul\":7129:7130   */\n      dup3\n        /* \"#utility.yul\":7111:7131   */\n      tag_184\n      jump\t// in\n    tag_206:\n        /* \"#utility.yul\":7106:7131   */\n      swap2\n      pop\n        /* \"#utility.yul\":7145:7165   */\n      tag_207\n        /* \"#utility.yul\":7163:7164   */\n      dup4\n        /* \"#utility.yul\":7145:7165   */\n      tag_184\n      jump\t// in\n    tag_207:\n        /* \"#utility.yul\":7140:7165   */\n      swap3\n      pop\n        /* \"#utility.yul\":7299:7300   */\n      dup3\n        /* \"#utility.yul\":7231:7297   */\n      0xffffffffffffffffffffffffffffffffffffffffffffffffffffffffffffffff\n        /* \"#utility.yul\":7227:7301   */\n      sub\n        /* \"#utility.yul\":7224:7225   */\n      dup3\n        /* \"#utility.yul\":7221:7302   */\n      gt\n        /* \"#utility.yul\":7218:7325   */\n      iszero\n      tag_208\n      jumpi\n        /* \"#utility.yul\":7305:7323   */\n      tag_209\n      tag_210\n      jump\t// in\n    tag_209:\n        /* \"#utility.yul\":7218:7325   */\n    tag_208:\n        /* \"#utility.yul\":7349:7350   */\n      dup3\n        /* \"#utility.yul\":7346:7347   */\n      dup3\n        /* \"#utility.yul\":7342:7351   */\n      add\n        /* \"#utility.yul\":7335:7351   */\n      swap1\n      pop\n        /* \"#utility.yul\":7052:7357   */\n      swap3\n      swap2\n      pop\n      pop\n      jump\t// out\n        /* \"#utility.yul\":7363:7554   */\n    tag_122:\n        /* \"#utility.yul\":7403:7407   */\n      0x00\n        /* \"#utility.yul\":7423:7443   */\n      tag_212\n        /* \"#utility.yul\":7441:7442   */\n      dup3\n        /* \"#utility.yul\":7423:7443   */\n      tag_184\n      jump\t// in\n    tag_212:\n        /* \"#utility.yul\":7418:7443   */\n      swap2\n      pop\n        /* \"#utility.yul\":7457:7477   */\n      tag_213\n        /* \"#utility.yul\":7475:7476   */\n      dup4\n        /* \"#utility.yul\":7457:7477   */\n      tag_184\n      jump\t// in\n    tag_213:\n        /* \"#utility.yul\":7452:7477   */\n      swap3\n      pop\n        /* \"#utility.yul\":7496:7497   */\n      dup3\n        /* \"#utility.yul\":7493:7494   */\n      dup3\n        /* \"#utility.yul\":7490:7498   */\n      lt\n        /* \"#utility.yul\":7487:7521   */\n      iszero\n      tag_214\n      jumpi\n        /* \"#utility.yul\":7501:7519   */\n      tag_215\n      tag_210\n      jump\t// in\n    tag_215:\n        /* \"#utility.yul\":7487:7521   */\n    tag_214:\n        /* \"#utility.yul\":7546:7547   */\n      dup3\n        /* \"#utility.yul\":7543:7544   */\n      dup3\n        /* \"#utility.yul\":7539:7548   */\n      sub\n        /* \"#utility.yul\":7531:7548   */\n      swap1\n      pop\n        /* \"#utility.yul\":7363:7554   */\n      swap3\n      swap2\n      pop\n      pop\n      jump\t// out\n        /* \"#utility.yul\":7560:7656   */\n    tag_154:\n        /* \"#utility.yul\":7597:7604   */\n      0x00\n        /* \"#utility.yul\":7626:7650   */\n      tag_217\n        /* \"#utility.yul\":7644:7649   */\n      dup3\n        /* \"#utility.yul\":7626:7650   */\n      tag_218\n      jump\t// in\n    tag_217:\n        /* \"#utility.yul\":7615:7650   */\n      swap1\n      pop\n        /* \"#utility.yul\":7560:7656   */\n      swap2\n      swap1\n      pop\n      jump\t// out\n        /* \"#utility.yul\":7662:7766   */\n    tag_219:\n        /* \"#utility.yul\":7707:7714   */\n      0x00\n        /* \"#utility.yul\":7736:7760   */\n      tag_221\n        /* \"#utility.yul\":7754:7759   */\n      dup3\n        /* \"#utility.yul\":7736:7760   */\n      tag_218\n      jump\t// in\n    tag_221:\n        /* \"#utility.yul\":7725:7760   */\n      swap1\n      pop\n        /* \"#utility.yul\":7662:7766   */\n      swap2\n      swap1\n      pop\n      jump\t// out\n        /* \"#utility.yul\":7772:7898   */\n    tag_218:\n        /* \"#utility.yul\":7809:7816   */\n      0x00\n        /* \"#utility.yul\":7849:7891   */\n      0xffffffffffffffffffffffffffffffffffffffff\n        /* \"#utility.yul\":7842:7847   */\n      dup3\n        /* \"#utility.yul\":7838:7892   */\n      and\n        /* \"#utility.yul\":7827:7892   */\n      swap1\n      pop\n        /* \"#utility.yul\":7772:7898   */\n      swap2\n      swap1\n      pop\n      jump\t// out\n        /* \"#utility.yul\":7904:7981   */\n    tag_184:\n        /* \"#utility.yul\":7941:7948   */\n      0x00\n        /* \"#utility.yul\":7970:7975   */\n      dup2\n        /* \"#utility.yul\":7959:7975   */\n      swap1\n      pop\n        /* \"#utility.yul\":7904:7981   */\n      swap2\n      swap1\n      pop\n      jump\t// out\n        /* \"#utility.yul\":7987:8167   */\n    tag_210:\n        /* \"#utility.yul\":8035:8112   */\n      0x4e487b7100000000000000000000000000000000000000000000000000000000\n        /* \"#utility.yul\":8032:8033   */\n      0x00\n        /* \"#utility.yul\":8025:8113   */\n      mstore\n        /* \"#utility.yul\":8132:8136   */\n      0x11\n        /* \"#utility.yul\":8129:8130   */\n      0x04\n        /* \"#utility.yul\":8122:8137   */\n      mstore\n        /* \"#utility.yul\":8156:8160   */\n      0x24\n        /* \"#utility.yul\":8153:8154   */\n      0x00\n        /* \"#utility.yul\":8146:8161   */\n      revert\n        /* \"#utility.yul\":8296:8413   */\n    tag_139:\n        /* \"#utility.yul\":8405:8406   */\n      0x00\n        /* \"#utility.yul\":8402:8403   */\n      dup1\n        /* \"#utility.yul\":8395:8407   */\n      revert\n        /* \"#utility.yul\":8419:8644   */\n    tag_160:\n        /* \"#utility.yul\":8559:8593   */\n      0x4f776e61626c653a206e6577206f776e657220697320746865207a65726f2061\n        /* \"#utility.yul\":8555:8556   */\n      0x00\n        /* \"#utility.yul\":8547:8553   */\n      dup3\n        /* \"#utility.yul\":8543:8557   */\n      add\n        /* \"#utility.yul\":8536:8594   */\n      mstore\n        /* \"#utility.yul\":8628:8636   */\n      0x6464726573730000000000000000000000000000000000000000000000000000\n        /* \"#utility.yul\":8623:8625   */\n      0x20\n        /* \"#utility.yul\":8615:8621   */\n      dup3\n        /* \"#utility.yul\":8611:8626   */\n      add\n        /* \"#utility.yul\":8604:8637   */\n      mstore\n        /* \"#utility.yul\":8419:8644   */\n      pop\n      jump\t// out\n        /* \"#utility.yul\":8650:8885   */\n    tag_165:\n        /* \"#utility.yul\":8790:8824   */\n      0x596f7520617265206e6f7420616c6c6f7765642c20796f7520646f6e27742068\n        /* \"#utility.yul\":8786:8787   */\n      0x00\n        /* \"#utility.yul\":8778:8784   */\n      dup3\n        /* \"#utility.yul\":8774:8788   */\n      add\n        /* \"#utility.yul\":8767:8825   */\n      mstore\n        /* \"#utility.yul\":8859:8877   */\n      0x61766520656e6f75676820746f6b656e00000000000000000000000000000000\n        /* \"#utility.yul\":8854:8856   */\n      0x20\n        /* \"#utility.yul\":8846:8852   */\n      dup3\n        /* \"#utility.yul\":8842:8857   */\n      add\n        /* \"#utility.yul\":8835:8878   */\n      mstore\n        /* \"#utility.yul\":8650:8885   */\n      pop\n      jump\t// out\n        /* \"#utility.yul\":8891:9073   */\n    tag_170:\n        /* \"#utility.yul\":9031:9065   */\n      0x4f776e61626c653a2063616c6c6572206973206e6f7420746865206f776e6572\n        /* \"#utility.yul\":9027:9028   */\n      0x00\n        /* \"#utility.yul\":9019:9025   */\n      dup3\n        /* \"#utility.yul\":9015:9029   */\n      add\n        /* \"#utility.yul\":9008:9066   */\n      mstore\n        /* \"#utility.yul\":8891:9073   */\n      pop\n      jump\t// out\n        /* \"#utility.yul\":9079:9302   */\n    tag_175:\n        /* \"#utility.yul\":9219:9253   */\n      0x436f6e747261637420646f6573206e6f74206861766520656e6f75676820616d\n        /* \"#utility.yul\":9215:9216   */\n      0x00\n        /* \"#utility.yul\":9207:9213   */\n      dup3\n        /* \"#utility.yul\":9203:9217   */\n      add\n        /* \"#utility.yul\":9196:9254   */\n      mstore\n        /* \"#utility.yul\":9288:9294   */\n      0x6f756e7400000000000000000000000000000000000000000000000000000000\n        /* \"#utility.yul\":9283:9285   */\n      0x20\n        /* \"#utility.yul\":9275:9281   */\n      dup3\n        /* \"#utility.yul\":9271:9286   */\n      add\n        /* \"#utility.yul\":9264:9295   */\n      mstore\n        /* \"#utility.yul\":9079:9302   */\n      pop\n      jump\t// out\n        /* \"#utility.yul\":9308:9487   */\n    tag_180:\n        /* \"#utility.yul\":9448:9479   */\n      0x2063616e27742072656e6f756e63654f776e6572736869702068657265000000\n        /* \"#utility.yul\":9444:9445   */\n      0x00\n        /* \"#utility.yul\":9436:9442   */\n      dup3\n        /* \"#utility.yul\":9432:9446   */\n      add\n        /* \"#utility.yul\":9425:9480   */\n      mstore\n        /* \"#utility.yul\":9308:9487   */\n      pop\n      jump\t// out\n        /* \"#utility.yul\":9493:9615   */\n    tag_127:\n        /* \"#utility.yul\":9566:9590   */\n      tag_234\n        /* \"#utility.yul\":9584:9589   */\n      dup2\n        /* \"#utility.yul\":9566:9590   */\n      tag_154\n      jump\t// in\n    tag_234:\n        /* \"#utility.yul\":9559:9564   */\n      dup2\n        /* \"#utility.yul\":9556:9591   */\n      eq\n        /* \"#utility.yul\":9546:9609   */\n      tag_235\n      jumpi\n        /* \"#utility.yul\":9605:9606   */\n      0x00\n        /* \"#utility.yul\":9602:9603   */\n      dup1\n        /* \"#utility.yul\":9595:9607   */\n      revert\n        /* \"#utility.yul\":9546:9609   */\n    tag_235:\n        /* \"#utility.yul\":9493:9615   */\n      pop\n      jump\t// out\n        /* \"#utility.yul\":9621:9759   */\n    tag_131:\n        /* \"#utility.yul\":9702:9734   */\n      tag_237\n        /* \"#utility.yul\":9728:9733   */\n      dup2\n        /* \"#utility.yul\":9702:9734   */\n      tag_219\n      jump\t// in\n    tag_237:\n        /* \"#utility.yul\":9695:9700   */\n      dup2\n        /* \"#utility.yul\":9692:9735   */\n      eq\n        /* \"#utility.yul\":9682:9753   */\n      tag_238\n      jumpi\n        /* \"#utility.yul\":9749:9750   */\n      0x00\n        /* \"#utility.yul\":9746:9747   */\n      dup1\n        /* \"#utility.yul\":9739:9751   */\n      revert\n        /* \"#utility.yul\":9682:9753   */\n    tag_238:\n        /* \"#utility.yul\":9621:9759   */\n      pop\n      jump\t// out\n        /* \"#utility.yul\":9765:9887   */\n    tag_135:\n        /* \"#utility.yul\":9838:9862   */\n      tag_240\n        /* \"#utility.yul\":9856:9861   */\n      dup2\n        /* \"#utility.yul\":9838:9862   */\n      tag_184\n      jump\t// in\n    tag_240:\n        /* \"#utility.yul\":9831:9836   */\n      dup2\n        /* \"#utility.yul\":9828:9863   */\n      eq\n        /* \"#utility.yul\":9818:9881   */\n      tag_241\n      jumpi\n        /* \"#utility.yul\":9877:9878   */\n      0x00\n        /* \"#utility.yul\":9874:9875   */\n      dup1\n        /* \"#utility.yul\":9867:9879   */\n      revert\n        /* \"#utility.yul\":9818:9881   */\n    tag_241:\n        /* \"#utility.yul\":9765:9887   */\n      pop\n      jump\t// out\n\n    auxdata: 0xa26469706673582212205863ab0650b5effbc17bd808461656dd5b52a4e129fa7621e86bafdd8fadc62864736f6c63430008070033\n}\n",
				"bytecode": {
					"linkReferences": {},
					"object": "608060405234801561001057600080fd5b5061002d61002261003260201b60201c565b61003a60201b60201c565b6100fe565b600033905090565b60008060009054906101000a900473ffffffffffffffffffffffffffffffffffffffff169050816000806101000a81548173ffffffffffffffffffffffffffffffffffffffff021916908373ffffffffffffffffffffffffffffffffffffffff1602179055508173ffffffffffffffffffffffffffffffffffffffff168173ffffffffffffffffffffffffffffffffffffffff167f8be0079c531659141344cd1fd0a4f28419497f9722a3daafe3b4186f6b6457e060405160405180910390a35050565b610f878061010d6000396000f3fe60806040526004361061008a5760003560e01c8063715018a611610059578063715018a61461017f5780638da5cb5b14610196578063c9616925146101c1578063f274c897146101ea578063f2fde38b14610213576100df565b8063310ec4a7146100e45780633e5beab91461010d57806352a90c421461014a5780636d26ec1814610175576100df565b366100df573373ffffffffffffffffffffffffffffffffffffffff167f27b15ed4cf832749ed39f33a64e4707ed60a761485e41ffec7343ecaddc0c02a346040516100d59190610c6c565b60405180910390a2005b600080fd5b3480156100f057600080fd5b5061010b60048036038101906101069190610aa4565b61023c565b005b34801561011957600080fd5b50610134600480360381019061012f9190610a37565b610333565b6040516101419190610c6c565b60405180910390f35b34801561015657600080fd5b5061015f61034b565b60405161016c9190610c6c565b60405180910390f35b61017d610351565b005b34801561018b57600080fd5b5061019461036c565b005b3480156101a257600080fd5b506101ab6103b0565b6040516101b89190610bb1565b60405180910390f35b3480156101cd57600080fd5b506101e860048036038101906101e39190610aa4565b6103d9565b005b3480156101f657600080fd5b50610211600480360381019061020c9190610a64565b61042a565b005b34801561021f57600080fd5b5061023a60048036038101906102359190610a37565b6105b0565b005b610244610635565b503373ffffffffffffffffffffffffffffffffffffffff168273ffffffffffffffffffffffffffffffffffffffff167f3691d1a86d99355e52b689ca70a7bdf6d80763237a6aa06e5fa43964eac7244b600160008673ffffffffffffffffffffffffffffffffffffffff1673ffffffffffffffffffffffffffffffffffffffff16815260200190815260200160002054846040516102e3929190610c87565b60405180910390a380600160008473ffffffffffffffffffffffffffffffffffffffff1673ffffffffffffffffffffffffffffffffffffffff168152602001908152602001600020819055505050565b60016020528060005260406000206000915090505481565b60025481565b34600260008282546103639190610cc1565b92505081905550565b610374610635565b506040517f08c379a00000000000000000000000000000000000000000000000000000000081526004016103a790610c4c565b60405180910390fd5b60008060009054906101000a900473ffffffffffffffffffffffffffffffffffffffff16905090565b6103e1610635565b5080600160008473ffffffffffffffffffffffffffffffffffffffff1673ffffffffffffffffffffffffffffffffffffffff168152602001908152602001600020819055505050565b806104336106b6565b8061047d575080600160003373ffffffffffffffffffffffffffffffffffffffff1673ffffffffffffffffffffffffffffffffffffffff1681526020019081526020016000205410155b6104bc576040517f08c379a00000000000000000000000000000000000000000000000000000000081526004016104b390610bec565b60405180910390fd5b478211156104ff576040517f08c379a00000000000000000000000000000000000000000000000000000000081526004016104f690610c2c565b60405180910390fd5b6105076106b6565b6105165761051533836106f3565b5b8273ffffffffffffffffffffffffffffffffffffffff167f7f51d406915971d4ac1c91af96be5187ea6ab64753785aad519a533def80a41e8360405161055c9190610c6c565b60405180910390a28273ffffffffffffffffffffffffffffffffffffffff166108fc839081150290604051600060405180830381858888f193505050501580156105aa573d6000803e3d6000fd5b50505050565b6105b8610635565b50600073ffffffffffffffffffffffffffffffffffffffff168173ffffffffffffffffffffffffffffffffffffffff161415610629576040517f08c379a000000000000000000000000000000000000000000000000000000000815260040161062090610bcc565b60405180910390fd5b61063281610916565b50565b600061063f6109da565b73ffffffffffffffffffffffffffffffffffffffff1661065d6103b0565b73ffffffffffffffffffffffffffffffffffffffff16146106b3576040517f08c379a00000000000000000000000000000000000000000000000000000000081526004016106aa90610c0c565b60405180910390fd5b90565b60003373ffffffffffffffffffffffffffffffffffffffff166106d76103b0565b73ffffffffffffffffffffffffffffffffffffffff1614905090565b806106fc6106b6565b80610746575080600160003373ffffffffffffffffffffffffffffffffffffffff1673ffffffffffffffffffffffffffffffffffffffff1681526020019081526020016000205410155b610785576040517f08c379a000000000000000000000000000000000000000000000000000000000815260040161077c90610bec565b60405180910390fd5b3373ffffffffffffffffffffffffffffffffffffffff168373ffffffffffffffffffffffffffffffffffffffff167f3691d1a86d99355e52b689ca70a7bdf6d80763237a6aa06e5fa43964eac7244b600160008773ffffffffffffffffffffffffffffffffffffffff1673ffffffffffffffffffffffffffffffffffffffff1681526020019081526020016000205461086686600160008a73ffffffffffffffffffffffffffffffffffffffff1673ffffffffffffffffffffffffffffffffffffffff168152602001908152602001600020546109e290919063ffffffff16565b604051610874929190610c87565b60405180910390a36108ce82600160008673ffffffffffffffffffffffffffffffffffffffff1673ffffffffffffffffffffffffffffffffffffffff168152602001908152602001600020546109e290919063ffffffff16565b600160008573ffffffffffffffffffffffffffffffffffffffff1673ffffffffffffffffffffffffffffffffffffffff16815260200190815260200160002081905550505050565b60008060009054906101000a900473ffffffffffffffffffffffffffffffffffffffff169050816000806101000a81548173ffffffffffffffffffffffffffffffffffffffff021916908373ffffffffffffffffffffffffffffffffffffffff1602179055508173ffffffffffffffffffffffffffffffffffffffff168173ffffffffffffffffffffffffffffffffffffffff167f8be0079c531659141344cd1fd0a4f28419497f9722a3daafe3b4186f6b6457e060405160405180910390a35050565b600033905090565b600081836109f09190610d17565b905092915050565b600081359050610a0781610f0c565b92915050565b600081359050610a1c81610f23565b92915050565b600081359050610a3181610f3a565b92915050565b600060208284031215610a4d57610a4c610dc8565b5b6000610a5b848285016109f8565b91505092915050565b60008060408385031215610a7b57610a7a610dc8565b5b6000610a8985828601610a0d565b9250506020610a9a85828601610a22565b9150509250929050565b60008060408385031215610abb57610aba610dc8565b5b6000610ac9858286016109f8565b9250506020610ada85828601610a22565b9150509250929050565b610aed81610d4b565b82525050565b6000610b00602683610cb0565b9150610b0b82610dcd565b604082019050919050565b6000610b23603083610cb0565b9150610b2e82610e1c565b604082019050919050565b6000610b46602083610cb0565b9150610b5182610e6b565b602082019050919050565b6000610b69602483610cb0565b9150610b7482610e94565b604082019050919050565b6000610b8c601d83610cb0565b9150610b9782610ee3565b602082019050919050565b610bab81610d8f565b82525050565b6000602082019050610bc66000830184610ae4565b92915050565b60006020820190508181036000830152610be581610af3565b9050919050565b60006020820190508181036000830152610c0581610b16565b9050919050565b60006020820190508181036000830152610c2581610b39565b9050919050565b60006020820190508181036000830152610c4581610b5c565b9050919050565b60006020820190508181036000830152610c6581610b7f565b9050919050565b6000602082019050610c816000830184610ba2565b92915050565b6000604082019050610c9c6000830185610ba2565b610ca96020830184610ba2565b9392505050565b600082825260208201905092915050565b6000610ccc82610d8f565b9150610cd783610d8f565b9250827fffffffffffffffffffffffffffffffffffffffffffffffffffffffffffffffff03821115610d0c57610d0b610d99565b5b828201905092915050565b6000610d2282610d8f565b9150610d2d83610d8f565b925082821015610d4057610d3f610d99565b5b828203905092915050565b6000610d5682610d6f565b9050919050565b6000610d6882610d6f565b9050919050565b600073ffffffffffffffffffffffffffffffffffffffff82169050919050565b6000819050919050565b7f4e487b7100000000000000000000000000000000000000000000000000000000600052601160045260246000fd5b600080fd5b7f4f776e61626c653a206e6577206f776e657220697320746865207a65726f206160008201527f6464726573730000000000000000000000000000000000000000000000000000602082015250565b7f596f7520617265206e6f7420616c6c6f7765642c20796f7520646f6e2774206860008201527f61766520656e6f75676820746f6b656e00000000000000000000000000000000602082015250565b7f4f776e61626c653a2063616c6c6572206973206e6f7420746865206f776e6572600082015250565b7f436f6e747261637420646f6573206e6f74206861766520656e6f75676820616d60008201527f6f756e7400000000000000000000000000000000000000000000000000000000602082015250565b7f2063616e27742072656e6f756e63654f776e6572736869702068657265000000600082015250565b610f1581610d4b565b8114610f2057600080fd5b50565b610f2c81610d5d565b8114610f3757600080fd5b50565b610f4381610d8f565b8114610f4e57600080fd5b5056fea26469706673582212205863ab0650b5effbc17bd808461656dd5b52a4e129fa7621e86bafdd8fadc62864736f6c63430008070033",
					"opcodes": "PUSH1 0x80 PUSH1 0x40 MSTORE CALLVALUE DUP1 ISZERO PUSH2 0x10 JUMPI PUSH1 0x0 DUP1 REVERT JUMPDEST POP PUSH2 0x2D PUSH2 0x22 PUSH2 0x32 PUSH1 0x20 SHL PUSH1 0x20 SHR JUMP JUMPDEST PUSH2 0x3A PUSH1 0x20 SHL PUSH1 0x20 SHR JUMP JUMPDEST PUSH2 0xFE JUMP JUMPDEST PUSH1 0x0 CALLER SWAP1 POP SWAP1 JUMP JUMPDEST PUSH1 0x0 DUP1 PUSH1 0x0 SWAP1 SLOAD SWAP1 PUSH2 0x100 EXP SWAP1 DIV PUSH20 0xFFFFFFFFFFFFFFFFFFFFFFFFFFFFFFFFFFFFFFFF AND SWAP1 POP DUP2 PUSH1 0x0 DUP1 PUSH2 0x100 EXP DUP2 SLOAD DUP2 PUSH20 0xFFFFFFFFFFFFFFFFFFFFFFFFFFFFFFFFFFFFFFFF MUL NOT AND SWAP1 DUP4 PUSH20 0xFFFFFFFFFFFFFFFFFFFFFFFFFFFFFFFFFFFFFFFF AND MUL OR SWAP1 SSTORE POP DUP2 PUSH20 0xFFFFFFFFFFFFFFFFFFFFFFFFFFFFFFFFFFFFFFFF AND DUP2 PUSH20 0xFFFFFFFFFFFFFFFFFFFFFFFFFFFFFFFFFFFFFFFF AND PUSH32 0x8BE0079C531659141344CD1FD0A4F28419497F9722A3DAAFE3B4186F6B6457E0 PUSH1 0x40 MLOAD PUSH1 0x40 MLOAD DUP1 SWAP2 SUB SWAP1 LOG3 POP POP JUMP JUMPDEST PUSH2 0xF87 DUP1 PUSH2 0x10D PUSH1 0x0 CODECOPY PUSH1 0x0 RETURN INVALID PUSH1 0x80 PUSH1 0x40 MSTORE PUSH1 0x4 CALLDATASIZE LT PUSH2 0x8A JUMPI PUSH1 0x0 CALLDATALOAD PUSH1 0xE0 SHR DUP1 PUSH4 0x715018A6 GT PUSH2 0x59 JUMPI DUP1 PUSH4 0x715018A6 EQ PUSH2 0x17F JUMPI DUP1 PUSH4 0x8DA5CB5B EQ PUSH2 0x196 JUMPI DUP1 PUSH4 0xC9616925 EQ PUSH2 0x1C1 JUMPI DUP1 PUSH4 0xF274C897 EQ PUSH2 0x1EA JUMPI DUP1 PUSH4 0xF2FDE38B EQ PUSH2 0x213 JUMPI PUSH2 0xDF JUMP JUMPDEST DUP1 PUSH4 0x310EC4A7 EQ PUSH2 0xE4 JUMPI DUP1 PUSH4 0x3E5BEAB9 EQ PUSH2 0x10D JUMPI DUP1 PUSH4 0x52A90C42 EQ PUSH2 0x14A JUMPI DUP1 PUSH4 0x6D26EC18 EQ PUSH2 0x175 JUMPI PUSH2 0xDF JUMP JUMPDEST CALLDATASIZE PUSH2 0xDF JUMPI CALLER PUSH20 0xFFFFFFFFFFFFFFFFFFFFFFFFFFFFFFFFFFFFFFFF AND PUSH32 0x27B15ED4CF832749ED39F33A64E4707ED60A761485E41FFEC7343ECADDC0C02A CALLVALUE PUSH1 0x40 MLOAD PUSH2 0xD5 SWAP2 SWAP1 PUSH2 0xC6C JUMP JUMPDEST PUSH1 0x40 MLOAD DUP1 SWAP2 SUB SWAP1 LOG2 STOP JUMPDEST PUSH1 0x0 DUP1 REVERT JUMPDEST CALLVALUE DUP1 ISZERO PUSH2 0xF0 JUMPI PUSH1 0x0 DUP1 REVERT JUMPDEST POP PUSH2 0x10B PUSH1 0x4 DUP1 CALLDATASIZE SUB DUP2 ADD SWAP1 PUSH2 0x106 SWAP2 SWAP1 PUSH2 0xAA4 JUMP JUMPDEST PUSH2 0x23C JUMP JUMPDEST STOP JUMPDEST CALLVALUE DUP1 ISZERO PUSH2 0x119 JUMPI PUSH1 0x0 DUP1 REVERT JUMPDEST POP PUSH2 0x134 PUSH1 0x4 DUP1 CALLDATASIZE SUB DUP2 ADD SWAP1 PUSH2 0x12F SWAP2 SWAP1 PUSH2 0xA37 JUMP JUMPDEST PUSH2 0x333 JUMP JUMPDEST PUSH1 0x40 MLOAD PUSH2 0x141 SWAP2 SWAP1 PUSH2 0xC6C JUMP JUMPDEST PUSH1 0x40 MLOAD DUP1 SWAP2 SUB SWAP1 RETURN JUMPDEST CALLVALUE DUP1 ISZERO PUSH2 0x156 JUMPI PUSH1 0x0 DUP1 REVERT JUMPDEST POP PUSH2 0x15F PUSH2 0x34B JUMP JUMPDEST PUSH1 0x40 MLOAD PUSH2 0x16C SWAP2 SWAP1 PUSH2 0xC6C JUMP JUMPDEST PUSH1 0x40 MLOAD DUP1 SWAP2 SUB SWAP1 RETURN JUMPDEST PUSH2 0x17D PUSH2 0x351 JUMP JUMPDEST STOP JUMPDEST CALLVALUE DUP1 ISZERO PUSH2 0x18B JUMPI PUSH1 0x0 DUP1 REVERT JUMPDEST POP PUSH2 0x194 PUSH2 0x36C JUMP JUMPDEST STOP JUMPDEST CALLVALUE DUP1 ISZERO PUSH2 0x1A2 JUMPI PUSH1 0x0 DUP1 REVERT JUMPDEST POP PUSH2 0x1AB PUSH2 0x3B0 JUMP JUMPDEST PUSH1 0x40 MLOAD PUSH2 0x1B8 SWAP2 SWAP1 PUSH2 0xBB1 JUMP JUMPDEST PUSH1 0x40 MLOAD DUP1 SWAP2 SUB SWAP1 RETURN JUMPDEST CALLVALUE DUP1 ISZERO PUSH2 0x1CD JUMPI PUSH1 0x0 DUP1 REVERT JUMPDEST POP PUSH2 0x1E8 PUSH1 0x4 DUP1 CALLDATASIZE SUB DUP2 ADD SWAP1 PUSH2 0x1E3 SWAP2 SWAP1 PUSH2 0xAA4 JUMP JUMPDEST PUSH2 0x3D9 JUMP JUMPDEST STOP JUMPDEST CALLVALUE DUP1 ISZERO PUSH2 0x1F6 JUMPI PUSH1 0x0 DUP1 REVERT JUMPDEST POP PUSH2 0x211 PUSH1 0x4 DUP1 CALLDATASIZE SUB DUP2 ADD SWAP1 PUSH2 0x20C SWAP2 SWAP1 PUSH2 0xA64 JUMP JUMPDEST PUSH2 0x42A JUMP JUMPDEST STOP JUMPDEST CALLVALUE DUP1 ISZERO PUSH2 0x21F JUMPI PUSH1 0x0 DUP1 REVERT JUMPDEST POP PUSH2 0x23A PUSH1 0x4 DUP1 CALLDATASIZE SUB DUP2 ADD SWAP1 PUSH2 0x235 SWAP2 SWAP1 PUSH2 0xA37 JUMP JUMPDEST PUSH2 0x5B0 JUMP JUMPDEST STOP JUMPDEST PUSH2 0x244 PUSH2 0x635 JUMP JUMPDEST POP CALLER PUSH20 0xFFFFFFFFFFFFFFFFFFFFFFFFFFFFFFFFFFFFFFFF AND DUP3 PUSH20 0xFFFFFFFFFFFFFFFFFFFFFFFFFFFFFFFFFFFFFFFF AND PUSH32 0x3691D1A86D99355E52B689CA70A7BDF6D80763237A6AA06E5FA43964EAC7244B PUSH1 0x1 PUSH1 0x0 DUP7 PUSH20 0xFFFFFFFFFFFFFFFFFFFFFFFFFFFFFFFFFFFFFFFF AND PUSH20 0xFFFFFFFFFFFFFFFFFFFFFFFFFFFFFFFFFFFFFFFF AND DUP2 MSTORE PUSH1 0x20 ADD SWAP1 DUP2 MSTORE PUSH1 0x20 ADD PUSH1 0x0 KECCAK256 SLOAD DUP5 PUSH1 0x40 MLOAD PUSH2 0x2E3 SWAP3 SWAP2 SWAP1 PUSH2 0xC87 JUMP JUMPDEST PUSH1 0x40 MLOAD DUP1 SWAP2 SUB SWAP1 LOG3 DUP1 PUSH1 0x1 PUSH1 0x0 DUP5 PUSH20 0xFFFFFFFFFFFFFFFFFFFFFFFFFFFFFFFFFFFFFFFF AND PUSH20 0xFFFFFFFFFFFFFFFFFFFFFFFFFFFFFFFFFFFFFFFF AND DUP2 MSTORE PUSH1 0x20 ADD SWAP1 DUP2 MSTORE PUSH1 0x20 ADD PUSH1 0x0 KECCAK256 DUP2 SWAP1 SSTORE POP POP POP JUMP JUMPDEST PUSH1 0x1 PUSH1 0x20 MSTORE DUP1 PUSH1 0x0 MSTORE PUSH1 0x40 PUSH1 0x0 KECCAK256 PUSH1 0x0 SWAP2 POP SWAP1 POP SLOAD DUP2 JUMP JUMPDEST PUSH1 0x2 SLOAD DUP2 JUMP JUMPDEST CALLVALUE PUSH1 0x2 PUSH1 0x0 DUP3 DUP3 SLOAD PUSH2 0x363 SWAP2 SWAP1 PUSH2 0xCC1 JUMP JUMPDEST SWAP3 POP POP DUP2 SWAP1 SSTORE POP JUMP JUMPDEST PUSH2 0x374 PUSH2 0x635 JUMP JUMPDEST POP PUSH1 0x40 MLOAD PUSH32 0x8C379A000000000000000000000000000000000000000000000000000000000 DUP2 MSTORE PUSH1 0x4 ADD PUSH2 0x3A7 SWAP1 PUSH2 0xC4C JUMP JUMPDEST PUSH1 0x40 MLOAD DUP1 SWAP2 SUB SWAP1 REVERT JUMPDEST PUSH1 0x0 DUP1 PUSH1 0x0 SWAP1 SLOAD SWAP1 PUSH2 0x100 EXP SWAP1 DIV PUSH20 0xFFFFFFFFFFFFFFFFFFFFFFFFFFFFFFFFFFFFFFFF AND SWAP1 POP SWAP1 JUMP JUMPDEST PUSH2 0x3E1 PUSH2 0x635 JUMP JUMPDEST POP DUP1 PUSH1 0x1 PUSH1 0x0 DUP5 PUSH20 0xFFFFFFFFFFFFFFFFFFFFFFFFFFFFFFFFFFFFFFFF AND PUSH20 0xFFFFFFFFFFFFFFFFFFFFFFFFFFFFFFFFFFFFFFFF AND DUP2 MSTORE PUSH1 0x20 ADD SWAP1 DUP2 MSTORE PUSH1 0x20 ADD PUSH1 0x0 KECCAK256 DUP2 SWAP1 SSTORE POP POP POP JUMP JUMPDEST DUP1 PUSH2 0x433 PUSH2 0x6B6 JUMP JUMPDEST DUP1 PUSH2 0x47D JUMPI POP DUP1 PUSH1 0x1 PUSH1 0x0 CALLER PUSH20 0xFFFFFFFFFFFFFFFFFFFFFFFFFFFFFFFFFFFFFFFF AND PUSH20 0xFFFFFFFFFFFFFFFFFFFFFFFFFFFFFFFFFFFFFFFF AND DUP2 MSTORE PUSH1 0x20 ADD SWAP1 DUP2 MSTORE PUSH1 0x20 ADD PUSH1 0x0 KECCAK256 SLOAD LT ISZERO JUMPDEST PUSH2 0x4BC JUMPI PUSH1 0x40 MLOAD PUSH32 0x8C379A000000000000000000000000000000000000000000000000000000000 DUP2 MSTORE PUSH1 0x4 ADD PUSH2 0x4B3 SWAP1 PUSH2 0xBEC JUMP JUMPDEST PUSH1 0x40 MLOAD DUP1 SWAP2 SUB SWAP1 REVERT JUMPDEST SELFBALANCE DUP3 GT ISZERO PUSH2 0x4FF JUMPI PUSH1 0x40 MLOAD PUSH32 0x8C379A000000000000000000000000000000000000000000000000000000000 DUP2 MSTORE PUSH1 0x4 ADD PUSH2 0x4F6 SWAP1 PUSH2 0xC2C JUMP JUMPDEST PUSH1 0x40 MLOAD DUP1 SWAP2 SUB SWAP1 REVERT JUMPDEST PUSH2 0x507 PUSH2 0x6B6 JUMP JUMPDEST PUSH2 0x516 JUMPI PUSH2 0x515 CALLER DUP4 PUSH2 0x6F3 JUMP JUMPDEST JUMPDEST DUP3 PUSH20 0xFFFFFFFFFFFFFFFFFFFFFFFFFFFFFFFFFFFFFFFF AND PUSH32 0x7F51D406915971D4AC1C91AF96BE5187EA6AB64753785AAD519A533DEF80A41E DUP4 PUSH1 0x40 MLOAD PUSH2 0x55C SWAP2 SWAP1 PUSH2 0xC6C JUMP JUMPDEST PUSH1 0x40 MLOAD DUP1 SWAP2 SUB SWAP1 LOG2 DUP3 PUSH20 0xFFFFFFFFFFFFFFFFFFFFFFFFFFFFFFFFFFFFFFFF AND PUSH2 0x8FC DUP4 SWAP1 DUP2 ISZERO MUL SWAP1 PUSH1 0x40 MLOAD PUSH1 0x0 PUSH1 0x40 MLOAD DUP1 DUP4 SUB DUP2 DUP6 DUP9 DUP9 CALL SWAP4 POP POP POP POP ISZERO DUP1 ISZERO PUSH2 0x5AA JUMPI RETURNDATASIZE PUSH1 0x0 DUP1 RETURNDATACOPY RETURNDATASIZE PUSH1 0x0 REVERT JUMPDEST POP POP POP POP JUMP JUMPDEST PUSH2 0x5B8 PUSH2 0x635 JUMP JUMPDEST POP PUSH1 0x0 PUSH20 0xFFFFFFFFFFFFFFFFFFFFFFFFFFFFFFFFFFFFFFFF AND DUP2 PUSH20 0xFFFFFFFFFFFFFFFFFFFFFFFFFFFFFFFFFFFFFFFF AND EQ ISZERO PUSH2 0x629 JUMPI PUSH1 0x40 MLOAD PUSH32 0x8C379A000000000000000000000000000000000000000000000000000000000 DUP2 MSTORE PUSH1 0x4 ADD PUSH2 0x620 SWAP1 PUSH2 0xBCC JUMP JUMPDEST PUSH1 0x40 MLOAD DUP1 SWAP2 SUB SWAP1 REVERT JUMPDEST PUSH2 0x632 DUP2 PUSH2 0x916 JUMP JUMPDEST POP JUMP JUMPDEST PUSH1 0x0 PUSH2 0x63F PUSH2 0x9DA JUMP JUMPDEST PUSH20 0xFFFFFFFFFFFFFFFFFFFFFFFFFFFFFFFFFFFFFFFF AND PUSH2 0x65D PUSH2 0x3B0 JUMP JUMPDEST PUSH20 0xFFFFFFFFFFFFFFFFFFFFFFFFFFFFFFFFFFFFFFFF AND EQ PUSH2 0x6B3 JUMPI PUSH1 0x40 MLOAD PUSH32 0x8C379A000000000000000000000000000000000000000000000000000000000 DUP2 MSTORE PUSH1 0x4 ADD PUSH2 0x6AA SWAP1 PUSH2 0xC0C JUMP JUMPDEST PUSH1 0x40 MLOAD DUP1 SWAP2 SUB SWAP1 REVERT JUMPDEST SWAP1 JUMP JUMPDEST PUSH1 0x0 CALLER PUSH20 0xFFFFFFFFFFFFFFFFFFFFFFFFFFFFFFFFFFFFFFFF AND PUSH2 0x6D7 PUSH2 0x3B0 JUMP JUMPDEST PUSH20 0xFFFFFFFFFFFFFFFFFFFFFFFFFFFFFFFFFFFFFFFF AND EQ SWAP1 POP SWAP1 JUMP JUMPDEST DUP1 PUSH2 0x6FC PUSH2 0x6B6 JUMP JUMPDEST DUP1 PUSH2 0x746 JUMPI POP DUP1 PUSH1 0x1 PUSH1 0x0 CALLER PUSH20 0xFFFFFFFFFFFFFFFFFFFFFFFFFFFFFFFFFFFFFFFF AND PUSH20 0xFFFFFFFFFFFFFFFFFFFFFFFFFFFFFFFFFFFFFFFF AND DUP2 MSTORE PUSH1 0x20 ADD SWAP1 DUP2 MSTORE PUSH1 0x20 ADD PUSH1 0x0 KECCAK256 SLOAD LT ISZERO JUMPDEST PUSH2 0x785 JUMPI PUSH1 0x40 MLOAD PUSH32 0x8C379A000000000000000000000000000000000000000000000000000000000 DUP2 MSTORE PUSH1 0x4 ADD PUSH2 0x77C SWAP1 PUSH2 0xBEC JUMP JUMPDEST PUSH1 0x40 MLOAD DUP1 SWAP2 SUB SWAP1 REVERT JUMPDEST CALLER PUSH20 0xFFFFFFFFFFFFFFFFFFFFFFFFFFFFFFFFFFFFFFFF AND DUP4 PUSH20 0xFFFFFFFFFFFFFFFFFFFFFFFFFFFFFFFFFFFFFFFF AND PUSH32 0x3691D1A86D99355E52B689CA70A7BDF6D80763237A6AA06E5FA43964EAC7244B PUSH1 0x1 PUSH1 0x0 DUP8 PUSH20 0xFFFFFFFFFFFFFFFFFFFFFFFFFFFFFFFFFFFFFFFF AND PUSH20 0xFFFFFFFFFFFFFFFFFFFFFFFFFFFFFFFFFFFFFFFF AND DUP2 MSTORE PUSH1 0x20 ADD SWAP1 DUP2 MSTORE PUSH1 0x20 ADD PUSH1 0x0 KECCAK256 SLOAD PUSH2 0x866 DUP7 PUSH1 0x1 PUSH1 0x0 DUP11 PUSH20 0xFFFFFFFFFFFFFFFFFFFFFFFFFFFFFFFFFFFFFFFF AND PUSH20 0xFFFFFFFFFFFFFFFFFFFFFFFFFFFFFFFFFFFFFFFF AND DUP2 MSTORE PUSH1 0x20 ADD SWAP1 DUP2 MSTORE PUSH1 0x20 ADD PUSH1 0x0 KECCAK256 SLOAD PUSH2 0x9E2 SWAP1 SWAP2 SWAP1 PUSH4 0xFFFFFFFF AND JUMP JUMPDEST PUSH1 0x40 MLOAD PUSH2 0x874 SWAP3 SWAP2 SWAP1 PUSH2 0xC87 JUMP JUMPDEST PUSH1 0x40 MLOAD DUP1 SWAP2 SUB SWAP1 LOG3 PUSH2 0x8CE DUP3 PUSH1 0x1 PUSH1 0x0 DUP7 PUSH20 0xFFFFFFFFFFFFFFFFFFFFFFFFFFFFFFFFFFFFFFFF AND PUSH20 0xFFFFFFFFFFFFFFFFFFFFFFFFFFFFFFFFFFFFFFFF AND DUP2 MSTORE PUSH1 0x20 ADD SWAP1 DUP2 MSTORE PUSH1 0x20 ADD PUSH1 0x0 KECCAK256 SLOAD PUSH2 0x9E2 SWAP1 SWAP2 SWAP1 PUSH4 0xFFFFFFFF AND JUMP JUMPDEST PUSH1 0x1 PUSH1 0x0 DUP6 PUSH20 0xFFFFFFFFFFFFFFFFFFFFFFFFFFFFFFFFFFFFFFFF AND PUSH20 0xFFFFFFFFFFFFFFFFFFFFFFFFFFFFFFFFFFFFFFFF AND DUP2 MSTORE PUSH1 0x20 ADD SWAP1 DUP2 MSTORE PUSH1 0x20 ADD PUSH1 0x0 KECCAK256 DUP2 SWAP1 SSTORE POP POP POP POP JUMP JUMPDEST PUSH1 0x0 DUP1 PUSH1 0x0 SWAP1 SLOAD SWAP1 PUSH2 0x100 EXP SWAP1 DIV PUSH20 0xFFFFFFFFFFFFFFFFFFFFFFFFFFFFFFFFFFFFFFFF AND SWAP1 POP DUP2 PUSH1 0x0 DUP1 PUSH2 0x100 EXP DUP2 SLOAD DUP2 PUSH20 0xFFFFFFFFFFFFFFFFFFFFFFFFFFFFFFFFFFFFFFFF MUL NOT AND SWAP1 DUP4 PUSH20 0xFFFFFFFFFFFFFFFFFFFFFFFFFFFFFFFFFFFFFFFF AND MUL OR SWAP1 SSTORE POP DUP2 PUSH20 0xFFFFFFFFFFFFFFFFFFFFFFFFFFFFFFFFFFFFFFFF AND DUP2 PUSH20 0xFFFFFFFFFFFFFFFFFFFFFFFFFFFFFFFFFFFFFFFF AND PUSH32 0x8BE0079C531659141344CD1FD0A4F28419497F9722A3DAAFE3B4186F6B6457E0 PUSH1 0x40 MLOAD PUSH1 0x40 MLOAD DUP1 SWAP2 SUB SWAP1 LOG3 POP POP JUMP JUMPDEST PUSH1 0x0 CALLER SWAP1 POP SWAP1 JUMP JUMPDEST PUSH1 0x0 DUP2 DUP4 PUSH2 0x9F0 SWAP2 SWAP1 PUSH2 0xD17 JUMP JUMPDEST SWAP1 POP SWAP3 SWAP2 POP POP JUMP JUMPDEST PUSH1 0x0 DUP2 CALLDATALOAD SWAP1 POP PUSH2 0xA07 DUP2 PUSH2 0xF0C JUMP JUMPDEST SWAP3 SWAP2 POP POP JUMP JUMPDEST PUSH1 0x0 DUP2 CALLDATALOAD SWAP1 POP PUSH2 0xA1C DUP2 PUSH2 0xF23 JUMP JUMPDEST SWAP3 SWAP2 POP POP JUMP JUMPDEST PUSH1 0x0 DUP2 CALLDATALOAD SWAP1 POP PUSH2 0xA31 DUP2 PUSH2 0xF3A JUMP JUMPDEST SWAP3 SWAP2 POP POP JUMP JUMPDEST PUSH1 0x0 PUSH1 0x20 DUP3 DUP5 SUB SLT ISZERO PUSH2 0xA4D JUMPI PUSH2 0xA4C PUSH2 0xDC8 JUMP JUMPDEST JUMPDEST PUSH1 0x0 PUSH2 0xA5B DUP5 DUP3 DUP6 ADD PUSH2 0x9F8 JUMP JUMPDEST SWAP2 POP POP SWAP3 SWAP2 POP POP JUMP JUMPDEST PUSH1 0x0 DUP1 PUSH1 0x40 DUP4 DUP6 SUB SLT ISZERO PUSH2 0xA7B JUMPI PUSH2 0xA7A PUSH2 0xDC8 JUMP JUMPDEST JUMPDEST PUSH1 0x0 PUSH2 0xA89 DUP6 DUP3 DUP7 ADD PUSH2 0xA0D JUMP JUMPDEST SWAP3 POP POP PUSH1 0x20 PUSH2 0xA9A DUP6 DUP3 DUP7 ADD PUSH2 0xA22 JUMP JUMPDEST SWAP2 POP POP SWAP3 POP SWAP3 SWAP1 POP JUMP JUMPDEST PUSH1 0x0 DUP1 PUSH1 0x40 DUP4 DUP6 SUB SLT ISZERO PUSH2 0xABB JUMPI PUSH2 0xABA PUSH2 0xDC8 JUMP JUMPDEST JUMPDEST PUSH1 0x0 PUSH2 0xAC9 DUP6 DUP3 DUP7 ADD PUSH2 0x9F8 JUMP JUMPDEST SWAP3 POP POP PUSH1 0x20 PUSH2 0xADA DUP6 DUP3 DUP7 ADD PUSH2 0xA22 JUMP JUMPDEST SWAP2 POP POP SWAP3 POP SWAP3 SWAP1 POP JUMP JUMPDEST PUSH2 0xAED DUP2 PUSH2 0xD4B JUMP JUMPDEST DUP3 MSTORE POP POP JUMP JUMPDEST PUSH1 0x0 PUSH2 0xB00 PUSH1 0x26 DUP4 PUSH2 0xCB0 JUMP JUMPDEST SWAP2 POP PUSH2 0xB0B DUP3 PUSH2 0xDCD JUMP JUMPDEST PUSH1 0x40 DUP3 ADD SWAP1 POP SWAP2 SWAP1 POP JUMP JUMPDEST PUSH1 0x0 PUSH2 0xB23 PUSH1 0x30 DUP4 PUSH2 0xCB0 JUMP JUMPDEST SWAP2 POP PUSH2 0xB2E DUP3 PUSH2 0xE1C JUMP JUMPDEST PUSH1 0x40 DUP3 ADD SWAP1 POP SWAP2 SWAP1 POP JUMP JUMPDEST PUSH1 0x0 PUSH2 0xB46 PUSH1 0x20 DUP4 PUSH2 0xCB0 JUMP JUMPDEST SWAP2 POP PUSH2 0xB51 DUP3 PUSH2 0xE6B JUMP JUMPDEST PUSH1 0x20 DUP3 ADD SWAP1 POP SWAP2 SWAP1 POP JUMP JUMPDEST PUSH1 0x0 PUSH2 0xB69 PUSH1 0x24 DUP4 PUSH2 0xCB0 JUMP JUMPDEST SWAP2 POP PUSH2 0xB74 DUP3 PUSH2 0xE94 JUMP JUMPDEST PUSH1 0x40 DUP3 ADD SWAP1 POP SWAP2 SWAP1 POP JUMP JUMPDEST PUSH1 0x0 PUSH2 0xB8C PUSH1 0x1D DUP4 PUSH2 0xCB0 JUMP JUMPDEST SWAP2 POP PUSH2 0xB97 DUP3 PUSH2 0xEE3 JUMP JUMPDEST PUSH1 0x20 DUP3 ADD SWAP1 POP SWAP2 SWAP1 POP JUMP JUMPDEST PUSH2 0xBAB DUP2 PUSH2 0xD8F JUMP JUMPDEST DUP3 MSTORE POP POP JUMP JUMPDEST PUSH1 0x0 PUSH1 0x20 DUP3 ADD SWAP1 POP PUSH2 0xBC6 PUSH1 0x0 DUP4 ADD DUP5 PUSH2 0xAE4 JUMP JUMPDEST SWAP3 SWAP2 POP POP JUMP JUMPDEST PUSH1 0x0 PUSH1 0x20 DUP3 ADD SWAP1 POP DUP2 DUP2 SUB PUSH1 0x0 DUP4 ADD MSTORE PUSH2 0xBE5 DUP2 PUSH2 0xAF3 JUMP JUMPDEST SWAP1 POP SWAP2 SWAP1 POP JUMP JUMPDEST PUSH1 0x0 PUSH1 0x20 DUP3 ADD SWAP1 POP DUP2 DUP2 SUB PUSH1 0x0 DUP4 ADD MSTORE PUSH2 0xC05 DUP2 PUSH2 0xB16 JUMP JUMPDEST SWAP1 POP SWAP2 SWAP1 POP JUMP JUMPDEST PUSH1 0x0 PUSH1 0x20 DUP3 ADD SWAP1 POP DUP2 DUP2 SUB PUSH1 0x0 DUP4 ADD MSTORE PUSH2 0xC25 DUP2 PUSH2 0xB39 JUMP JUMPDEST SWAP1 POP SWAP2 SWAP1 POP JUMP JUMPDEST PUSH1 0x0 PUSH1 0x20 DUP3 ADD SWAP1 POP DUP2 DUP2 SUB PUSH1 0x0 DUP4 ADD MSTORE PUSH2 0xC45 DUP2 PUSH2 0xB5C JUMP JUMPDEST SWAP1 POP SWAP2 SWAP1 POP JUMP JUMPDEST PUSH1 0x0 PUSH1 0x20 DUP3 ADD SWAP1 POP DUP2 DUP2 SUB PUSH1 0x0 DUP4 ADD MSTORE PUSH2 0xC65 DUP2 PUSH2 0xB7F JUMP JUMPDEST SWAP1 POP SWAP2 SWAP1 POP JUMP JUMPDEST PUSH1 0x0 PUSH1 0x20 DUP3 ADD SWAP1 POP PUSH2 0xC81 PUSH1 0x0 DUP4 ADD DUP5 PUSH2 0xBA2 JUMP JUMPDEST SWAP3 SWAP2 POP POP JUMP JUMPDEST PUSH1 0x0 PUSH1 0x40 DUP3 ADD SWAP1 POP PUSH2 0xC9C PUSH1 0x0 DUP4 ADD DUP6 PUSH2 0xBA2 JUMP JUMPDEST PUSH2 0xCA9 PUSH1 0x20 DUP4 ADD DUP5 PUSH2 0xBA2 JUMP JUMPDEST SWAP4 SWAP3 POP POP POP JUMP JUMPDEST PUSH1 0x0 DUP3 DUP3 MSTORE PUSH1 0x20 DUP3 ADD SWAP1 POP SWAP3 SWAP2 POP POP JUMP JUMPDEST PUSH1 0x0 PUSH2 0xCCC DUP3 PUSH2 0xD8F JUMP JUMPDEST SWAP2 POP PUSH2 0xCD7 DUP4 PUSH2 0xD8F JUMP JUMPDEST SWAP3 POP DUP3 PUSH32 0xFFFFFFFFFFFFFFFFFFFFFFFFFFFFFFFFFFFFFFFFFFFFFFFFFFFFFFFFFFFFFFFF SUB DUP3 GT ISZERO PUSH2 0xD0C JUMPI PUSH2 0xD0B PUSH2 0xD99 JUMP JUMPDEST JUMPDEST DUP3 DUP3 ADD SWAP1 POP SWAP3 SWAP2 POP POP JUMP JUMPDEST PUSH1 0x0 PUSH2 0xD22 DUP3 PUSH2 0xD8F JUMP JUMPDEST SWAP2 POP PUSH2 0xD2D DUP4 PUSH2 0xD8F JUMP JUMPDEST SWAP3 POP DUP3 DUP3 LT ISZERO PUSH2 0xD40 JUMPI PUSH2 0xD3F PUSH2 0xD99 JUMP JUMPDEST JUMPDEST DUP3 DUP3 SUB SWAP1 POP SWAP3 SWAP2 POP POP JUMP JUMPDEST PUSH1 0x0 PUSH2 0xD56 DUP3 PUSH2 0xD6F JUMP JUMPDEST SWAP1 POP SWAP2 SWAP1 POP JUMP JUMPDEST PUSH1 0x0 PUSH2 0xD68 DUP3 PUSH2 0xD6F JUMP JUMPDEST SWAP1 POP SWAP2 SWAP1 POP JUMP JUMPDEST PUSH1 0x0 PUSH20 0xFFFFFFFFFFFFFFFFFFFFFFFFFFFFFFFFFFFFFFFF DUP3 AND SWAP1 POP SWAP2 SWAP1 POP JUMP JUMPDEST PUSH1 0x0 DUP2 SWAP1 POP SWAP2 SWAP1 POP JUMP JUMPDEST PUSH32 0x4E487B7100000000000000000000000000000000000000000000000000000000 PUSH1 0x0 MSTORE PUSH1 0x11 PUSH1 0x4 MSTORE PUSH1 0x24 PUSH1 0x0 REVERT JUMPDEST PUSH1 0x0 DUP1 REVERT JUMPDEST PUSH32 0x4F776E61626C653A206E6577206F776E657220697320746865207A65726F2061 PUSH1 0x0 DUP3 ADD MSTORE PUSH32 0x6464726573730000000000000000000000000000000000000000000000000000 PUSH1 0x20 DUP3 ADD MSTORE POP JUMP JUMPDEST PUSH32 0x596F7520617265206E6F7420616C6C6F7765642C20796F7520646F6E27742068 PUSH1 0x0 DUP3 ADD MSTORE PUSH32 0x61766520656E6F75676820746F6B656E00000000000000000000000000000000 PUSH1 0x20 DUP3 ADD MSTORE POP JUMP JUMPDEST PUSH32 0x4F776E61626C653A2063616C6C6572206973206E6F7420746865206F776E6572 PUSH1 0x0 DUP3 ADD MSTORE POP JUMP JUMPDEST PUSH32 0x436F6E747261637420646F6573206E6F74206861766520656E6F75676820616D PUSH1 0x0 DUP3 ADD MSTORE PUSH32 0x6F756E7400000000000000000000000000000000000000000000000000000000 PUSH1 0x20 DUP3 ADD MSTORE POP JUMP JUMPDEST PUSH32 0x2063616E27742072656E6F756E63654F776E6572736869702068657265000000 PUSH1 0x0 DUP3 ADD MSTORE POP JUMP JUMPDEST PUSH2 0xF15 DUP2 PUSH2 0xD4B JUMP JUMPDEST DUP2 EQ PUSH2 0xF20 JUMPI PUSH1 0x0 DUP1 REVERT JUMPDEST POP JUMP JUMPDEST PUSH2 0xF2C DUP2 PUSH2 0xD5D JUMP JUMPDEST DUP2 EQ PUSH2 0xF37 JUMPI PUSH1 0x0 DUP1 REVERT JUMPDEST POP JUMP JUMPDEST PUSH2 0xF43 DUP2 PUSH2 0xD8F JUMP JUMPDEST DUP2 EQ PUSH2 0xF4E JUMPI PUSH1 0x0 DUP1 REVERT JUMPDEST POP JUMP INVALID LOG2 PUSH5 0x6970667358 0x22 SLT KECCAK256 PC PUSH4 0xAB0650B5 0xEF 0xFB 0xC1 PUSH28 0xD808461656DD5B52A4E129FA7621E86BAFDD8FADC62864736F6C6343 STOP ADDMOD SMOD STOP CALLER "
				},
				"gasEstimates": {
					"creation": {
						"codeDepositCost": "795000",
						"executionCost": "infinite",
						"totalCost": "infinite"
					},
					"external": {
						"addAlslowance(address,uint256)": "25148",
						"allowance(address)": "2837",
						"balanceReceived()": "2474",
						"owner()": "2544",
						"receiveMoney()": "infinite",
						"renounceOwnership()": "2706",
						"setAllowance(address,uint256)": "infinite",
						"transferOwnership(address)": "30843",
						"withdrawMoney(address,uint256)": "infinite"
					}
				},
				"methodIdentifiers": {
					"addAlslowance(address,uint256)": "c9616925",
					"allowance(address)": "3e5beab9",
					"balanceReceived()": "52a90c42",
					"owner()": "8da5cb5b",
					"receiveMoney()": "6d26ec18",
					"renounceOwnership()": "715018a6",
					"setAllowance(address,uint256)": "310ec4a7",
					"transferOwnership(address)": "f2fde38b",
					"withdrawMoney(address,uint256)": "f274c897"
				}
			},
			"storageLayout": {
				"storage": [
					{
						"astId": 241,
						"contract": "PracticeSimpleWallet.sol:sharedWallet",
						"label": "_owner",
						"offset": 0,
						"slot": "0",
						"type": "t_address"
					},
					{
						"astId": 22,
						"contract": "PracticeSimpleWallet.sol:sharedWallet",
						"label": "allowance",
						"offset": 0,
						"slot": "1",
						"type": "t_mapping(t_address,t_uint256)"
					},
					{
						"astId": 141,
						"contract": "PracticeSimpleWallet.sol:sharedWallet",
						"label": "balanceReceived",
						"offset": 0,
						"slot": "2",
						"type": "t_uint256"
					}
				],
				"types": {
					"t_address": {
						"encoding": "inplace",
						"label": "address",
						"numberOfBytes": "20"
					},
					"t_mapping(t_address,t_uint256)": {
						"encoding": "mapping",
						"key": "t_address",
						"label": "mapping(address => uint256)",
						"numberOfBytes": "32",
						"value": "t_uint256"
					},
					"t_uint256": {
						"encoding": "inplace",
						"label": "uint256",
						"numberOfBytes": "32"
					}
				}
			},
			"userdoc": {
				"kind": "user",
				"methods": {},
				"version": 1
			}
		}
	}
}