{
	"practice3.sol": {
		"Examples": {
			"abi": [
				{
					"inputs": [
						{
							"internalType": "address",
							"name": "",
							"type": "address"
						}
					],
					"name": "balanceReceived",
					"outputs": [
						{
							"internalType": "uint256",
							"name": "totalBalance",
							"type": "uint256"
						},
						{
							"internalType": "uint256",
							"name": "numPayments",
							"type": "uint256"
						}
					],
					"stateMutability": "view",
					"type": "function"
				},
				{
					"inputs": [],
					"name": "getBalance",
					"outputs": [
						{
							"internalType": "uint256",
							"name": "",
							"type": "uint256"
						}
					],
					"stateMutability": "view",
					"type": "function"
				},
				{
					"inputs": [],
					"name": "sendmoney",
					"outputs": [],
					"stateMutability": "payable",
					"type": "function"
				},
				{
					"inputs": [
						{
							"internalType": "address payable",
							"name": "dong",
							"type": "address"
						}
					],
					"name": "withdrawAllMoney",
					"outputs": [],
					"stateMutability": "nonpayable",
					"type": "function"
				},
				{
					"inputs": [
						{
							"internalType": "address payable",
							"name": "dinesh",
							"type": "address"
						},
						{
							"internalType": "uint256",
							"name": "amount",
							"type": "uint256"
						}
					],
					"name": "withdrawMoney",
					"outputs": [],
					"stateMutability": "nonpayable",
					"type": "function"
				}
			],
			"devdoc": {
				"kind": "dev",
				"methods": {},
				"version": 1
			},
			"evm": {
				"assembly": "    /* \"practice3.sol\":35:1079  contract Examples{\r... */\n  mstore(0x40, 0x80)\n  callvalue\n  dup1\n  iszero\n  tag_1\n  jumpi\n  0x00\n  dup1\n  revert\ntag_1:\n  pop\n  dataSize(sub_0)\n  dup1\n  dataOffset(sub_0)\n  0x00\n  codecopy\n  0x00\n  return\nstop\n\nsub_0: assembly {\n        /* \"practice3.sol\":35:1079  contract Examples{\r... */\n      mstore(0x40, 0x80)\n      jumpi(tag_1, lt(calldatasize, 0x04))\n      shr(0xe0, calldataload(0x00))\n      dup1\n      0x0adec93c\n      eq\n      tag_2\n      jumpi\n      dup1\n      0x12065fe0\n      eq\n      tag_3\n      jumpi\n      dup1\n      0x740b08ae\n      eq\n      tag_4\n      jumpi\n      dup1\n      0xd18a42e1\n      eq\n      tag_5\n      jumpi\n      dup1\n      0xf274c897\n      eq\n      tag_6\n      jumpi\n    tag_1:\n      0x00\n      dup1\n      revert\n        /* \"practice3.sol\":962:1070  function withdrawAllMoney( address payable dong) public{\r... */\n    tag_2:\n      callvalue\n      dup1\n      iszero\n      tag_7\n      jumpi\n      0x00\n      dup1\n      revert\n    tag_7:\n      pop\n      tag_8\n      0x04\n      dup1\n      calldatasize\n      sub\n      dup2\n      add\n      swap1\n      tag_9\n      swap2\n      swap1\n      tag_10\n      jump\t// in\n    tag_9:\n      tag_11\n      jump\t// in\n    tag_8:\n      stop\n        /* \"practice3.sol\":596:690  function getBalance() public view returns(uint){\r... */\n    tag_3:\n      callvalue\n      dup1\n      iszero\n      tag_12\n      jumpi\n      0x00\n      dup1\n      revert\n    tag_12:\n      pop\n      tag_13\n      tag_14\n      jump\t// in\n    tag_13:\n      mload(0x40)\n      tag_15\n      swap2\n      swap1\n      tag_16\n      jump\t// in\n    tag_15:\n      mload(0x40)\n      dup1\n      swap2\n      sub\n      swap1\n      return\n        /* \"practice3.sol\":316:588  function sendmoney() public payable{\r... */\n    tag_4:\n      tag_17\n      tag_18\n      jump\t// in\n    tag_17:\n      stop\n        /* \"practice3.sol\":259:307  mapping(address=>Balance) public balanceReceived */\n    tag_5:\n      callvalue\n      dup1\n      iszero\n      tag_19\n      jumpi\n      0x00\n      dup1\n      revert\n    tag_19:\n      pop\n      tag_20\n      0x04\n      dup1\n      calldatasize\n      sub\n      dup2\n      add\n      swap1\n      tag_21\n      swap2\n      swap1\n      tag_22\n      jump\t// in\n    tag_21:\n      tag_23\n      jump\t// in\n    tag_20:\n      mload(0x40)\n      tag_24\n      swap3\n      swap2\n      swap1\n      tag_25\n      jump\t// in\n    tag_24:\n      mload(0x40)\n      dup1\n      swap2\n      sub\n      swap1\n      return\n        /* \"practice3.sol\":698:954  function withdrawMoney(address payable dinesh,uint amount) public{\r... */\n    tag_6:\n      callvalue\n      dup1\n      iszero\n      tag_26\n      jumpi\n      0x00\n      dup1\n      revert\n    tag_26:\n      pop\n      tag_27\n      0x04\n      dup1\n      calldatasize\n      sub\n      dup2\n      add\n      swap1\n      tag_28\n      swap2\n      swap1\n      tag_29\n      jump\t// in\n    tag_28:\n      tag_30\n      jump\t// in\n    tag_27:\n      stop\n        /* \"practice3.sol\":962:1070  function withdrawAllMoney( address payable dong) public{\r... */\n    tag_11:\n        /* \"practice3.sol\":1028:1032  dong */\n      dup1\n        /* \"practice3.sol\":1028:1041  dong.transfer */\n      0xffffffffffffffffffffffffffffffffffffffff\n      and\n        /* \"practice3.sol\":1028:1064  dong.transfer(address(this).balance) */\n      0x08fc\n        /* \"practice3.sol\":1042:1063  address(this).balance */\n      selfbalance\n        /* \"practice3.sol\":1028:1064  dong.transfer(address(this).balance) */\n      swap1\n      dup2\n      iszero\n      mul\n      swap1\n      mload(0x40)\n      0x00\n      mload(0x40)\n      dup1\n      dup4\n      sub\n      dup2\n      dup6\n      dup9\n      dup9\n      call\n      swap4\n      pop\n      pop\n      pop\n      pop\n      iszero\n      dup1\n      iszero\n      tag_33\n      jumpi\n      returndatasize\n      0x00\n      dup1\n      returndatacopy\n      revert(0x00, returndatasize)\n    tag_33:\n      pop\n        /* \"practice3.sol\":962:1070  function withdrawAllMoney( address payable dong) public{\r... */\n      pop\n      jump\t// out\n        /* \"practice3.sol\":596:690  function getBalance() public view returns(uint){\r... */\n    tag_14:\n        /* \"practice3.sol\":638:642  uint */\n      0x00\n        /* \"practice3.sol\":661:682  address(this).balance */\n      selfbalance\n        /* \"practice3.sol\":654:682  return address(this).balance */\n      swap1\n      pop\n        /* \"practice3.sol\":596:690  function getBalance() public view returns(uint){\r... */\n      swap1\n      jump\t// out\n        /* \"practice3.sol\":316:588  function sendmoney() public payable{\r... */\n    tag_18:\n        /* \"practice3.sol\":403:412  msg.value */\n      callvalue\n        /* \"practice3.sol\":362:377  balanceReceived */\n      0x00\n        /* \"practice3.sol\":362:389  balanceReceived[msg.sender] */\n      dup1\n        /* \"practice3.sol\":378:388  msg.sender */\n      caller\n        /* \"practice3.sol\":362:389  balanceReceived[msg.sender] */\n      0xffffffffffffffffffffffffffffffffffffffff\n      and\n      0xffffffffffffffffffffffffffffffffffffffff\n      and\n      dup2\n      mstore\n      0x20\n      add\n      swap1\n      dup2\n      mstore\n      0x20\n      add\n      0x00\n      keccak256\n        /* \"practice3.sol\":362:402  balanceReceived[msg.sender].totalBalance */\n      0x00\n      add\n        /* \"practice3.sol\":362:412  balanceReceived[msg.sender].totalBalance=msg.value */\n      dup2\n      swap1\n      sstore\n      pop\n        /* \"practice3.sol\":425:447  Payment memory payment */\n      0x00\n        /* \"practice3.sol\":448:482  Payment(msg.value,block.timestamp) */\n      mload(0x40)\n      dup1\n      0x40\n      add\n      0x40\n      mstore\n      dup1\n        /* \"practice3.sol\":456:465  msg.value */\n      callvalue\n        /* \"practice3.sol\":448:482  Payment(msg.value,block.timestamp) */\n      dup2\n      mstore\n      0x20\n      add\n        /* \"practice3.sol\":466:481  block.timestamp */\n      timestamp\n        /* \"practice3.sol\":448:482  Payment(msg.value,block.timestamp) */\n      dup2\n      mstore\n      pop\n        /* \"practice3.sol\":425:482  Payment memory payment=Payment(msg.value,block.timestamp) */\n      swap1\n      pop\n        /* \"practice3.sol\":571:578  payment */\n      dup1\n        /* \"practice3.sol\":493:508  balanceReceived */\n      0x00\n        /* \"practice3.sol\":493:520  balanceReceived[msg.sender] */\n      dup1\n        /* \"practice3.sol\":509:519  msg.sender */\n      caller\n        /* \"practice3.sol\":493:520  balanceReceived[msg.sender] */\n      0xffffffffffffffffffffffffffffffffffffffff\n      and\n      0xffffffffffffffffffffffffffffffffffffffff\n      and\n      dup2\n      mstore\n      0x20\n      add\n      swap1\n      dup2\n      mstore\n      0x20\n      add\n      0x00\n      keccak256\n        /* \"practice3.sol\":493:529  balanceReceived[msg.sender].payments */\n      0x02\n      add\n        /* \"practice3.sol\":493:570  balanceReceived[msg.sender].payments[balanceReceived[msg.sender].numPayments] */\n      0x00\n        /* \"practice3.sol\":530:545  balanceReceived */\n      dup1\n        /* \"practice3.sol\":530:557  balanceReceived[msg.sender] */\n      0x00\n        /* \"practice3.sol\":546:556  msg.sender */\n      caller\n        /* \"practice3.sol\":530:557  balanceReceived[msg.sender] */\n      0xffffffffffffffffffffffffffffffffffffffff\n      and\n      0xffffffffffffffffffffffffffffffffffffffff\n      and\n      dup2\n      mstore\n      0x20\n      add\n      swap1\n      dup2\n      mstore\n      0x20\n      add\n      0x00\n      keccak256\n        /* \"practice3.sol\":530:569  balanceReceived[msg.sender].numPayments */\n      0x01\n      add\n      sload\n        /* \"practice3.sol\":493:570  balanceReceived[msg.sender].payments[balanceReceived[msg.sender].numPayments] */\n      dup2\n      mstore\n      0x20\n      add\n      swap1\n      dup2\n      mstore\n      0x20\n      add\n      0x00\n      keccak256\n        /* \"practice3.sol\":493:578  balanceReceived[msg.sender].payments[balanceReceived[msg.sender].numPayments]=payment */\n      0x00\n      dup3\n      add\n      mload\n      dup2\n      0x00\n      add\n      sstore\n      0x20\n      dup3\n      add\n      mload\n      dup2\n      0x01\n      add\n      sstore\n      swap1\n      pop\n      pop\n        /* \"practice3.sol\":351:588  {\r... */\n      pop\n        /* \"practice3.sol\":316:588  function sendmoney() public payable{\r... */\n      jump\t// out\n        /* \"practice3.sol\":259:307  mapping(address=>Balance) public balanceReceived */\n    tag_23:\n      mstore(0x20, 0x00)\n      dup1\n      0x00\n      mstore\n      keccak256(0x00, 0x40)\n      0x00\n      swap2\n      pop\n      swap1\n      pop\n      dup1\n      0x00\n      add\n      sload\n      swap1\n      dup1\n      0x01\n      add\n      sload\n      swap1\n      pop\n      dup3\n      jump\t// out\n        /* \"practice3.sol\":698:954  function withdrawMoney(address payable dinesh,uint amount) public{\r... */\n    tag_30:\n        /* \"practice3.sol\":790:805  balanceReceived */\n      0x00\n        /* \"practice3.sol\":790:817  balanceReceived[msg.sender] */\n      dup1\n        /* \"practice3.sol\":806:816  msg.sender */\n      caller\n        /* \"practice3.sol\":790:817  balanceReceived[msg.sender] */\n      0xffffffffffffffffffffffffffffffffffffffff\n      and\n      0xffffffffffffffffffffffffffffffffffffffff\n      and\n      dup2\n      mstore\n      0x20\n      add\n      swap1\n      dup2\n      mstore\n      0x20\n      add\n      0x00\n      keccak256\n        /* \"practice3.sol\":790:830  balanceReceived[msg.sender].totalBalance */\n      0x00\n      add\n      sload\n        /* \"practice3.sol\":782:788  amount */\n      dup2\n        /* \"practice3.sol\":782:830  amount<=balanceReceived[msg.sender].totalBalance */\n      gt\n      iszero\n        /* \"practice3.sol\":774:853  require(amount<=balanceReceived[msg.sender].totalBalance,\"Insuffient Balacnce\") */\n      tag_37\n      jumpi\n      mload(0x40)\n      0x08c379a000000000000000000000000000000000000000000000000000000000\n      dup2\n      mstore\n      0x04\n      add\n      tag_38\n      swap1\n      tag_39\n      jump\t// in\n    tag_38:\n      mload(0x40)\n      dup1\n      swap2\n      sub\n      swap1\n      revert\n    tag_37:\n        /* \"practice3.sol\":906:912  amount */\n      dup1\n        /* \"practice3.sol\":864:879  balanceReceived */\n      0x00\n        /* \"practice3.sol\":864:891  balanceReceived[msg.sender] */\n      dup1\n        /* \"practice3.sol\":880:890  msg.sender */\n      caller\n        /* \"practice3.sol\":864:891  balanceReceived[msg.sender] */\n      0xffffffffffffffffffffffffffffffffffffffff\n      and\n      0xffffffffffffffffffffffffffffffffffffffff\n      and\n      dup2\n      mstore\n      0x20\n      add\n      swap1\n      dup2\n      mstore\n      0x20\n      add\n      0x00\n      keccak256\n        /* \"practice3.sol\":864:904  balanceReceived[msg.sender].totalBalance */\n      0x00\n      add\n      0x00\n        /* \"practice3.sol\":864:912  balanceReceived[msg.sender].totalBalance-=amount */\n      dup3\n      dup3\n      sload\n      tag_40\n      swap2\n      swap1\n      tag_41\n      jump\t// in\n    tag_40:\n      swap3\n      pop\n      pop\n      dup2\n      swap1\n      sstore\n      pop\n        /* \"practice3.sol\":923:929  dinesh */\n      dup2\n        /* \"practice3.sol\":923:938  dinesh.transfer */\n      0xffffffffffffffffffffffffffffffffffffffff\n      and\n        /* \"practice3.sol\":923:946  dinesh.transfer(amount) */\n      0x08fc\n        /* \"practice3.sol\":939:945  amount */\n      dup3\n        /* \"practice3.sol\":923:946  dinesh.transfer(amount) */\n      swap1\n      dup2\n      iszero\n      mul\n      swap1\n      mload(0x40)\n      0x00\n      mload(0x40)\n      dup1\n      dup4\n      sub\n      dup2\n      dup6\n      dup9\n      dup9\n      call\n      swap4\n      pop\n      pop\n      pop\n      pop\n      iszero\n      dup1\n      iszero\n      tag_43\n      jumpi\n      returndatasize\n      0x00\n      dup1\n      returndatacopy\n      revert(0x00, returndatasize)\n    tag_43:\n      pop\n        /* \"practice3.sol\":698:954  function withdrawMoney(address payable dinesh,uint amount) public{\r... */\n      pop\n      pop\n      jump\t// out\n        /* \"#utility.yul\":7:146   */\n    tag_45:\n        /* \"#utility.yul\":53:58   */\n      0x00\n        /* \"#utility.yul\":91:97   */\n      dup2\n        /* \"#utility.yul\":78:98   */\n      calldataload\n        /* \"#utility.yul\":69:98   */\n      swap1\n      pop\n        /* \"#utility.yul\":107:140   */\n      tag_47\n        /* \"#utility.yul\":134:139   */\n      dup2\n        /* \"#utility.yul\":107:140   */\n      tag_48\n      jump\t// in\n    tag_47:\n        /* \"#utility.yul\":7:146   */\n      swap3\n      swap2\n      pop\n      pop\n      jump\t// out\n        /* \"#utility.yul\":152:307   */\n    tag_49:\n        /* \"#utility.yul\":206:211   */\n      0x00\n        /* \"#utility.yul\":244:250   */\n      dup2\n        /* \"#utility.yul\":231:251   */\n      calldataload\n        /* \"#utility.yul\":222:251   */\n      swap1\n      pop\n        /* \"#utility.yul\":260:301   */\n      tag_51\n        /* \"#utility.yul\":295:300   */\n      dup2\n        /* \"#utility.yul\":260:301   */\n      tag_52\n      jump\t// in\n    tag_51:\n        /* \"#utility.yul\":152:307   */\n      swap3\n      swap2\n      pop\n      pop\n      jump\t// out\n        /* \"#utility.yul\":313:452   */\n    tag_53:\n        /* \"#utility.yul\":359:364   */\n      0x00\n        /* \"#utility.yul\":397:403   */\n      dup2\n        /* \"#utility.yul\":384:404   */\n      calldataload\n        /* \"#utility.yul\":375:404   */\n      swap1\n      pop\n        /* \"#utility.yul\":413:446   */\n      tag_55\n        /* \"#utility.yul\":440:445   */\n      dup2\n        /* \"#utility.yul\":413:446   */\n      tag_56\n      jump\t// in\n    tag_55:\n        /* \"#utility.yul\":313:452   */\n      swap3\n      swap2\n      pop\n      pop\n      jump\t// out\n        /* \"#utility.yul\":458:787   */\n    tag_22:\n        /* \"#utility.yul\":517:523   */\n      0x00\n        /* \"#utility.yul\":566:568   */\n      0x20\n        /* \"#utility.yul\":554:563   */\n      dup3\n        /* \"#utility.yul\":545:552   */\n      dup5\n        /* \"#utility.yul\":541:564   */\n      sub\n        /* \"#utility.yul\":537:569   */\n      slt\n        /* \"#utility.yul\":534:653   */\n      iszero\n      tag_58\n      jumpi\n        /* \"#utility.yul\":572:651   */\n      tag_59\n      tag_60\n      jump\t// in\n    tag_59:\n        /* \"#utility.yul\":534:653   */\n    tag_58:\n        /* \"#utility.yul\":692:693   */\n      0x00\n        /* \"#utility.yul\":717:770   */\n      tag_61\n        /* \"#utility.yul\":762:769   */\n      dup5\n        /* \"#utility.yul\":753:759   */\n      dup3\n        /* \"#utility.yul\":742:751   */\n      dup6\n        /* \"#utility.yul\":738:760   */\n      add\n        /* \"#utility.yul\":717:770   */\n      tag_45\n      jump\t// in\n    tag_61:\n        /* \"#utility.yul\":707:770   */\n      swap2\n      pop\n        /* \"#utility.yul\":663:780   */\n      pop\n        /* \"#utility.yul\":458:787   */\n      swap3\n      swap2\n      pop\n      pop\n      jump\t// out\n        /* \"#utility.yul\":793:1138   */\n    tag_10:\n        /* \"#utility.yul\":860:866   */\n      0x00\n        /* \"#utility.yul\":909:911   */\n      0x20\n        /* \"#utility.yul\":897:906   */\n      dup3\n        /* \"#utility.yul\":888:895   */\n      dup5\n        /* \"#utility.yul\":884:907   */\n      sub\n        /* \"#utility.yul\":880:912   */\n      slt\n        /* \"#utility.yul\":877:996   */\n      iszero\n      tag_63\n      jumpi\n        /* \"#utility.yul\":915:994   */\n      tag_64\n      tag_60\n      jump\t// in\n    tag_64:\n        /* \"#utility.yul\":877:996   */\n    tag_63:\n        /* \"#utility.yul\":1035:1036   */\n      0x00\n        /* \"#utility.yul\":1060:1121   */\n      tag_65\n        /* \"#utility.yul\":1113:1120   */\n      dup5\n        /* \"#utility.yul\":1104:1110   */\n      dup3\n        /* \"#utility.yul\":1093:1102   */\n      dup6\n        /* \"#utility.yul\":1089:1111   */\n      add\n        /* \"#utility.yul\":1060:1121   */\n      tag_49\n      jump\t// in\n    tag_65:\n        /* \"#utility.yul\":1050:1121   */\n      swap2\n      pop\n        /* \"#utility.yul\":1006:1131   */\n      pop\n        /* \"#utility.yul\":793:1138   */\n      swap3\n      swap2\n      pop\n      pop\n      jump\t// out\n        /* \"#utility.yul\":1144:1634   */\n    tag_29:\n        /* \"#utility.yul\":1220:1226   */\n      0x00\n        /* \"#utility.yul\":1228:1234   */\n      dup1\n        /* \"#utility.yul\":1277:1279   */\n      0x40\n        /* \"#utility.yul\":1265:1274   */\n      dup4\n        /* \"#utility.yul\":1256:1263   */\n      dup6\n        /* \"#utility.yul\":1252:1275   */\n      sub\n        /* \"#utility.yul\":1248:1280   */\n      slt\n        /* \"#utility.yul\":1245:1364   */\n      iszero\n      tag_67\n      jumpi\n        /* \"#utility.yul\":1283:1362   */\n      tag_68\n      tag_60\n      jump\t// in\n    tag_68:\n        /* \"#utility.yul\":1245:1364   */\n    tag_67:\n        /* \"#utility.yul\":1403:1404   */\n      0x00\n        /* \"#utility.yul\":1428:1489   */\n      tag_69\n        /* \"#utility.yul\":1481:1488   */\n      dup6\n        /* \"#utility.yul\":1472:1478   */\n      dup3\n        /* \"#utility.yul\":1461:1470   */\n      dup7\n        /* \"#utility.yul\":1457:1479   */\n      add\n        /* \"#utility.yul\":1428:1489   */\n      tag_49\n      jump\t// in\n    tag_69:\n        /* \"#utility.yul\":1418:1489   */\n      swap3\n      pop\n        /* \"#utility.yul\":1374:1499   */\n      pop\n        /* \"#utility.yul\":1538:1540   */\n      0x20\n        /* \"#utility.yul\":1564:1617   */\n      tag_70\n        /* \"#utility.yul\":1609:1616   */\n      dup6\n        /* \"#utility.yul\":1600:1606   */\n      dup3\n        /* \"#utility.yul\":1589:1598   */\n      dup7\n        /* \"#utility.yul\":1585:1607   */\n      add\n        /* \"#utility.yul\":1564:1617   */\n      tag_53\n      jump\t// in\n    tag_70:\n        /* \"#utility.yul\":1554:1617   */\n      swap2\n      pop\n        /* \"#utility.yul\":1509:1627   */\n      pop\n        /* \"#utility.yul\":1144:1634   */\n      swap3\n      pop\n      swap3\n      swap1\n      pop\n      jump\t// out\n        /* \"#utility.yul\":1640:2006   */\n    tag_71:\n        /* \"#utility.yul\":1782:1785   */\n      0x00\n        /* \"#utility.yul\":1803:1870   */\n      tag_73\n        /* \"#utility.yul\":1867:1869   */\n      0x13\n        /* \"#utility.yul\":1862:1865   */\n      dup4\n        /* \"#utility.yul\":1803:1870   */\n      tag_74\n      jump\t// in\n    tag_73:\n        /* \"#utility.yul\":1796:1870   */\n      swap2\n      pop\n        /* \"#utility.yul\":1879:1972   */\n      tag_75\n        /* \"#utility.yul\":1968:1971   */\n      dup3\n        /* \"#utility.yul\":1879:1972   */\n      tag_76\n      jump\t// in\n    tag_75:\n        /* \"#utility.yul\":1997:1999   */\n      0x20\n        /* \"#utility.yul\":1992:1995   */\n      dup3\n        /* \"#utility.yul\":1988:2000   */\n      add\n        /* \"#utility.yul\":1981:2000   */\n      swap1\n      pop\n        /* \"#utility.yul\":1640:2006   */\n      swap2\n      swap1\n      pop\n      jump\t// out\n        /* \"#utility.yul\":2012:2130   */\n    tag_77:\n        /* \"#utility.yul\":2099:2123   */\n      tag_79\n        /* \"#utility.yul\":2117:2122   */\n      dup2\n        /* \"#utility.yul\":2099:2123   */\n      tag_80\n      jump\t// in\n    tag_79:\n        /* \"#utility.yul\":2094:2097   */\n      dup3\n        /* \"#utility.yul\":2087:2124   */\n      mstore\n        /* \"#utility.yul\":2012:2130   */\n      pop\n      pop\n      jump\t// out\n        /* \"#utility.yul\":2136:2555   */\n    tag_39:\n        /* \"#utility.yul\":2302:2306   */\n      0x00\n        /* \"#utility.yul\":2340:2342   */\n      0x20\n        /* \"#utility.yul\":2329:2338   */\n      dup3\n        /* \"#utility.yul\":2325:2343   */\n      add\n        /* \"#utility.yul\":2317:2343   */\n      swap1\n      pop\n        /* \"#utility.yul\":2389:2398   */\n      dup2\n        /* \"#utility.yul\":2383:2387   */\n      dup2\n        /* \"#utility.yul\":2379:2399   */\n      sub\n        /* \"#utility.yul\":2375:2376   */\n      0x00\n        /* \"#utility.yul\":2364:2373   */\n      dup4\n        /* \"#utility.yul\":2360:2377   */\n      add\n        /* \"#utility.yul\":2353:2400   */\n      mstore\n        /* \"#utility.yul\":2417:2548   */\n      tag_82\n        /* \"#utility.yul\":2543:2547   */\n      dup2\n        /* \"#utility.yul\":2417:2548   */\n      tag_71\n      jump\t// in\n    tag_82:\n        /* \"#utility.yul\":2409:2548   */\n      swap1\n      pop\n        /* \"#utility.yul\":2136:2555   */\n      swap2\n      swap1\n      pop\n      jump\t// out\n        /* \"#utility.yul\":2561:2783   */\n    tag_16:\n        /* \"#utility.yul\":2654:2658   */\n      0x00\n        /* \"#utility.yul\":2692:2694   */\n      0x20\n        /* \"#utility.yul\":2681:2690   */\n      dup3\n        /* \"#utility.yul\":2677:2695   */\n      add\n        /* \"#utility.yul\":2669:2695   */\n      swap1\n      pop\n        /* \"#utility.yul\":2705:2776   */\n      tag_84\n        /* \"#utility.yul\":2773:2774   */\n      0x00\n        /* \"#utility.yul\":2762:2771   */\n      dup4\n        /* \"#utility.yul\":2758:2775   */\n      add\n        /* \"#utility.yul\":2749:2755   */\n      dup5\n        /* \"#utility.yul\":2705:2776   */\n      tag_77\n      jump\t// in\n    tag_84:\n        /* \"#utility.yul\":2561:2783   */\n      swap3\n      swap2\n      pop\n      pop\n      jump\t// out\n        /* \"#utility.yul\":2789:3121   */\n    tag_25:\n        /* \"#utility.yul\":2910:2914   */\n      0x00\n        /* \"#utility.yul\":2948:2950   */\n      0x40\n        /* \"#utility.yul\":2937:2946   */\n      dup3\n        /* \"#utility.yul\":2933:2951   */\n      add\n        /* \"#utility.yul\":2925:2951   */\n      swap1\n      pop\n        /* \"#utility.yul\":2961:3032   */\n      tag_86\n        /* \"#utility.yul\":3029:3030   */\n      0x00\n        /* \"#utility.yul\":3018:3027   */\n      dup4\n        /* \"#utility.yul\":3014:3031   */\n      add\n        /* \"#utility.yul\":3005:3011   */\n      dup6\n        /* \"#utility.yul\":2961:3032   */\n      tag_77\n      jump\t// in\n    tag_86:\n        /* \"#utility.yul\":3042:3114   */\n      tag_87\n        /* \"#utility.yul\":3110:3112   */\n      0x20\n        /* \"#utility.yul\":3099:3108   */\n      dup4\n        /* \"#utility.yul\":3095:3113   */\n      add\n        /* \"#utility.yul\":3086:3092   */\n      dup5\n        /* \"#utility.yul\":3042:3114   */\n      tag_77\n      jump\t// in\n    tag_87:\n        /* \"#utility.yul\":2789:3121   */\n      swap4\n      swap3\n      pop\n      pop\n      pop\n      jump\t// out\n        /* \"#utility.yul\":3208:3377   */\n    tag_74:\n        /* \"#utility.yul\":3292:3303   */\n      0x00\n        /* \"#utility.yul\":3326:3332   */\n      dup3\n        /* \"#utility.yul\":3321:3324   */\n      dup3\n        /* \"#utility.yul\":3314:3333   */\n      mstore\n        /* \"#utility.yul\":3366:3370   */\n      0x20\n        /* \"#utility.yul\":3361:3364   */\n      dup3\n        /* \"#utility.yul\":3357:3371   */\n      add\n        /* \"#utility.yul\":3342:3371   */\n      swap1\n      pop\n        /* \"#utility.yul\":3208:3377   */\n      swap3\n      swap2\n      pop\n      pop\n      jump\t// out\n        /* \"#utility.yul\":3383:3574   */\n    tag_41:\n        /* \"#utility.yul\":3423:3427   */\n      0x00\n        /* \"#utility.yul\":3443:3463   */\n      tag_92\n        /* \"#utility.yul\":3461:3462   */\n      dup3\n        /* \"#utility.yul\":3443:3463   */\n      tag_80\n      jump\t// in\n    tag_92:\n        /* \"#utility.yul\":3438:3463   */\n      swap2\n      pop\n        /* \"#utility.yul\":3477:3497   */\n      tag_93\n        /* \"#utility.yul\":3495:3496   */\n      dup4\n        /* \"#utility.yul\":3477:3497   */\n      tag_80\n      jump\t// in\n    tag_93:\n        /* \"#utility.yul\":3472:3497   */\n      swap3\n      pop\n        /* \"#utility.yul\":3516:3517   */\n      dup3\n        /* \"#utility.yul\":3513:3514   */\n      dup3\n        /* \"#utility.yul\":3510:3518   */\n      lt\n        /* \"#utility.yul\":3507:3541   */\n      iszero\n      tag_94\n      jumpi\n        /* \"#utility.yul\":3521:3539   */\n      tag_95\n      tag_96\n      jump\t// in\n    tag_95:\n        /* \"#utility.yul\":3507:3541   */\n    tag_94:\n        /* \"#utility.yul\":3566:3567   */\n      dup3\n        /* \"#utility.yul\":3563:3564   */\n      dup3\n        /* \"#utility.yul\":3559:3568   */\n      sub\n        /* \"#utility.yul\":3551:3568   */\n      swap1\n      pop\n        /* \"#utility.yul\":3383:3574   */\n      swap3\n      swap2\n      pop\n      pop\n      jump\t// out\n        /* \"#utility.yul\":3580:3676   */\n    tag_97:\n        /* \"#utility.yul\":3617:3624   */\n      0x00\n        /* \"#utility.yul\":3646:3670   */\n      tag_99\n        /* \"#utility.yul\":3664:3669   */\n      dup3\n        /* \"#utility.yul\":3646:3670   */\n      tag_100\n      jump\t// in\n    tag_99:\n        /* \"#utility.yul\":3635:3670   */\n      swap1\n      pop\n        /* \"#utility.yul\":3580:3676   */\n      swap2\n      swap1\n      pop\n      jump\t// out\n        /* \"#utility.yul\":3682:3786   */\n    tag_101:\n        /* \"#utility.yul\":3727:3734   */\n      0x00\n        /* \"#utility.yul\":3756:3780   */\n      tag_103\n        /* \"#utility.yul\":3774:3779   */\n      dup3\n        /* \"#utility.yul\":3756:3780   */\n      tag_100\n      jump\t// in\n    tag_103:\n        /* \"#utility.yul\":3745:3780   */\n      swap1\n      pop\n        /* \"#utility.yul\":3682:3786   */\n      swap2\n      swap1\n      pop\n      jump\t// out\n        /* \"#utility.yul\":3792:3918   */\n    tag_100:\n        /* \"#utility.yul\":3829:3836   */\n      0x00\n        /* \"#utility.yul\":3869:3911   */\n      0xffffffffffffffffffffffffffffffffffffffff\n        /* \"#utility.yul\":3862:3867   */\n      dup3\n        /* \"#utility.yul\":3858:3912   */\n      and\n        /* \"#utility.yul\":3847:3912   */\n      swap1\n      pop\n        /* \"#utility.yul\":3792:3918   */\n      swap2\n      swap1\n      pop\n      jump\t// out\n        /* \"#utility.yul\":3924:4001   */\n    tag_80:\n        /* \"#utility.yul\":3961:3968   */\n      0x00\n        /* \"#utility.yul\":3990:3995   */\n      dup2\n        /* \"#utility.yul\":3979:3995   */\n      swap1\n      pop\n        /* \"#utility.yul\":3924:4001   */\n      swap2\n      swap1\n      pop\n      jump\t// out\n        /* \"#utility.yul\":4007:4187   */\n    tag_96:\n        /* \"#utility.yul\":4055:4132   */\n      0x4e487b7100000000000000000000000000000000000000000000000000000000\n        /* \"#utility.yul\":4052:4053   */\n      0x00\n        /* \"#utility.yul\":4045:4133   */\n      mstore\n        /* \"#utility.yul\":4152:4156   */\n      0x11\n        /* \"#utility.yul\":4149:4150   */\n      0x04\n        /* \"#utility.yul\":4142:4157   */\n      mstore\n        /* \"#utility.yul\":4176:4180   */\n      0x24\n        /* \"#utility.yul\":4173:4174   */\n      0x00\n        /* \"#utility.yul\":4166:4181   */\n      revert\n        /* \"#utility.yul\":4316:4433   */\n    tag_60:\n        /* \"#utility.yul\":4425:4426   */\n      0x00\n        /* \"#utility.yul\":4422:4423   */\n      dup1\n        /* \"#utility.yul\":4415:4427   */\n      revert\n        /* \"#utility.yul\":4439:4608   */\n    tag_76:\n        /* \"#utility.yul\":4579:4600   */\n      0x496e7375666669656e742042616c61636e636500000000000000000000000000\n        /* \"#utility.yul\":4575:4576   */\n      0x00\n        /* \"#utility.yul\":4567:4573   */\n      dup3\n        /* \"#utility.yul\":4563:4577   */\n      add\n        /* \"#utility.yul\":4556:4601   */\n      mstore\n        /* \"#utility.yul\":4439:4608   */\n      pop\n      jump\t// out\n        /* \"#utility.yul\":4614:4736   */\n    tag_48:\n        /* \"#utility.yul\":4687:4711   */\n      tag_112\n        /* \"#utility.yul\":4705:4710   */\n      dup2\n        /* \"#utility.yul\":4687:4711   */\n      tag_97\n      jump\t// in\n    tag_112:\n        /* \"#utility.yul\":4680:4685   */\n      dup2\n        /* \"#utility.yul\":4677:4712   */\n      eq\n        /* \"#utility.yul\":4667:4730   */\n      tag_113\n      jumpi\n        /* \"#utility.yul\":4726:4727   */\n      0x00\n        /* \"#utility.yul\":4723:4724   */\n      dup1\n        /* \"#utility.yul\":4716:4728   */\n      revert\n        /* \"#utility.yul\":4667:4730   */\n    tag_113:\n        /* \"#utility.yul\":4614:4736   */\n      pop\n      jump\t// out\n        /* \"#utility.yul\":4742:4880   */\n    tag_52:\n        /* \"#utility.yul\":4823:4855   */\n      tag_115\n        /* \"#utility.yul\":4849:4854   */\n      dup2\n        /* \"#utility.yul\":4823:4855   */\n      tag_101\n      jump\t// in\n    tag_115:\n        /* \"#utility.yul\":4816:4821   */\n      dup2\n        /* \"#utility.yul\":4813:4856   */\n      eq\n        /* \"#utility.yul\":4803:4874   */\n      tag_116\n      jumpi\n        /* \"#utility.yul\":4870:4871   */\n      0x00\n        /* \"#utility.yul\":4867:4868   */\n      dup1\n        /* \"#utility.yul\":4860:4872   */\n      revert\n        /* \"#utility.yul\":4803:4874   */\n    tag_116:\n        /* \"#utility.yul\":4742:4880   */\n      pop\n      jump\t// out\n        /* \"#utility.yul\":4886:5008   */\n    tag_56:\n        /* \"#utility.yul\":4959:4983   */\n      tag_118\n        /* \"#utility.yul\":4977:4982   */\n      dup2\n        /* \"#utility.yul\":4959:4983   */\n      tag_80\n      jump\t// in\n    tag_118:\n        /* \"#utility.yul\":4952:4957   */\n      dup2\n        /* \"#utility.yul\":4949:4984   */\n      eq\n        /* \"#utility.yul\":4939:5002   */\n      tag_119\n      jumpi\n        /* \"#utility.yul\":4998:4999   */\n      0x00\n        /* \"#utility.yul\":4995:4996   */\n      dup1\n        /* \"#utility.yul\":4988:5000   */\n      revert\n        /* \"#utility.yul\":4939:5002   */\n    tag_119:\n        /* \"#utility.yul\":4886:5008   */\n      pop\n      jump\t// out\n\n    auxdata: 0xa2646970667358221220f4efb88c277ac20dd310a21c7b0a53837775101596bf70e7c02704f2f35a888a64736f6c63430008070033\n}\n",
				"bytecode": {
					"linkReferences": {},
					"object": "608060405234801561001057600080fd5b50610698806100206000396000f3fe60806040526004361061004a5760003560e01c80630adec93c1461004f57806312065fe014610078578063740b08ae146100a3578063d18a42e1146100ad578063f274c897146100eb575b600080fd5b34801561005b57600080fd5b506100766004803603810190610071919061042a565b610114565b005b34801561008457600080fd5b5061008d61015e565b60405161009a91906104e9565b60405180910390f35b6100ab610166565b005b3480156100b957600080fd5b506100d460048036038101906100cf91906103fd565b610273565b6040516100e2929190610504565b60405180910390f35b3480156100f757600080fd5b50610112600480360381019061010d9190610457565b610297565b005b8073ffffffffffffffffffffffffffffffffffffffff166108fc479081150290604051600060405180830381858888f1935050505015801561015a573d6000803e3d6000fd5b5050565b600047905090565b346000803373ffffffffffffffffffffffffffffffffffffffff1673ffffffffffffffffffffffffffffffffffffffff1681526020019081526020016000206000018190555060006040518060400160405280348152602001428152509050806000803373ffffffffffffffffffffffffffffffffffffffff1673ffffffffffffffffffffffffffffffffffffffff16815260200190815260200160002060020160008060003373ffffffffffffffffffffffffffffffffffffffff1673ffffffffffffffffffffffffffffffffffffffff168152602001908152602001600020600101548152602001908152602001600020600082015181600001556020820151816001015590505050565b60006020528060005260406000206000915090508060000154908060010154905082565b6000803373ffffffffffffffffffffffffffffffffffffffff1673ffffffffffffffffffffffffffffffffffffffff1681526020019081526020016000206000015481111561031b576040517f08c379a0000000000000000000000000000000000000000000000000000000008152600401610312906104c9565b60405180910390fd5b806000803373ffffffffffffffffffffffffffffffffffffffff1673ffffffffffffffffffffffffffffffffffffffff168152602001908152602001600020600001600082825461036c919061053e565b925050819055508173ffffffffffffffffffffffffffffffffffffffff166108fc829081150290604051600060405180830381858888f193505050501580156103b9573d6000803e3d6000fd5b505050565b6000813590506103cd8161061d565b92915050565b6000813590506103e281610634565b92915050565b6000813590506103f78161064b565b92915050565b600060208284031215610413576104126105ef565b5b6000610421848285016103be565b91505092915050565b6000602082840312156104405761043f6105ef565b5b600061044e848285016103d3565b91505092915050565b6000806040838503121561046e5761046d6105ef565b5b600061047c858286016103d3565b925050602061048d858286016103e8565b9150509250929050565b60006104a460138361052d565b91506104af826105f4565b602082019050919050565b6104c3816105b6565b82525050565b600060208201905081810360008301526104e281610497565b9050919050565b60006020820190506104fe60008301846104ba565b92915050565b600060408201905061051960008301856104ba565b61052660208301846104ba565b9392505050565b600082825260208201905092915050565b6000610549826105b6565b9150610554836105b6565b925082821015610567576105666105c0565b5b828203905092915050565b600061057d82610596565b9050919050565b600061058f82610596565b9050919050565b600073ffffffffffffffffffffffffffffffffffffffff82169050919050565b6000819050919050565b7f4e487b7100000000000000000000000000000000000000000000000000000000600052601160045260246000fd5b600080fd5b7f496e7375666669656e742042616c61636e636500000000000000000000000000600082015250565b61062681610572565b811461063157600080fd5b50565b61063d81610584565b811461064857600080fd5b50565b610654816105b6565b811461065f57600080fd5b5056fea2646970667358221220f4efb88c277ac20dd310a21c7b0a53837775101596bf70e7c02704f2f35a888a64736f6c63430008070033",
					"opcodes": "PUSH1 0x80 PUSH1 0x40 MSTORE CALLVALUE DUP1 ISZERO PUSH2 0x10 JUMPI PUSH1 0x0 DUP1 REVERT JUMPDEST POP PUSH2 0x698 DUP1 PUSH2 0x20 PUSH1 0x0 CODECOPY PUSH1 0x0 RETURN INVALID PUSH1 0x80 PUSH1 0x40 MSTORE PUSH1 0x4 CALLDATASIZE LT PUSH2 0x4A JUMPI PUSH1 0x0 CALLDATALOAD PUSH1 0xE0 SHR DUP1 PUSH4 0xADEC93C EQ PUSH2 0x4F JUMPI DUP1 PUSH4 0x12065FE0 EQ PUSH2 0x78 JUMPI DUP1 PUSH4 0x740B08AE EQ PUSH2 0xA3 JUMPI DUP1 PUSH4 0xD18A42E1 EQ PUSH2 0xAD JUMPI DUP1 PUSH4 0xF274C897 EQ PUSH2 0xEB JUMPI JUMPDEST PUSH1 0x0 DUP1 REVERT JUMPDEST CALLVALUE DUP1 ISZERO PUSH2 0x5B JUMPI PUSH1 0x0 DUP1 REVERT JUMPDEST POP PUSH2 0x76 PUSH1 0x4 DUP1 CALLDATASIZE SUB DUP2 ADD SWAP1 PUSH2 0x71 SWAP2 SWAP1 PUSH2 0x42A JUMP JUMPDEST PUSH2 0x114 JUMP JUMPDEST STOP JUMPDEST CALLVALUE DUP1 ISZERO PUSH2 0x84 JUMPI PUSH1 0x0 DUP1 REVERT JUMPDEST POP PUSH2 0x8D PUSH2 0x15E JUMP JUMPDEST PUSH1 0x40 MLOAD PUSH2 0x9A SWAP2 SWAP1 PUSH2 0x4E9 JUMP JUMPDEST PUSH1 0x40 MLOAD DUP1 SWAP2 SUB SWAP1 RETURN JUMPDEST PUSH2 0xAB PUSH2 0x166 JUMP JUMPDEST STOP JUMPDEST CALLVALUE DUP1 ISZERO PUSH2 0xB9 JUMPI PUSH1 0x0 DUP1 REVERT JUMPDEST POP PUSH2 0xD4 PUSH1 0x4 DUP1 CALLDATASIZE SUB DUP2 ADD SWAP1 PUSH2 0xCF SWAP2 SWAP1 PUSH2 0x3FD JUMP JUMPDEST PUSH2 0x273 JUMP JUMPDEST PUSH1 0x40 MLOAD PUSH2 0xE2 SWAP3 SWAP2 SWAP1 PUSH2 0x504 JUMP JUMPDEST PUSH1 0x40 MLOAD DUP1 SWAP2 SUB SWAP1 RETURN JUMPDEST CALLVALUE DUP1 ISZERO PUSH2 0xF7 JUMPI PUSH1 0x0 DUP1 REVERT JUMPDEST POP PUSH2 0x112 PUSH1 0x4 DUP1 CALLDATASIZE SUB DUP2 ADD SWAP1 PUSH2 0x10D SWAP2 SWAP1 PUSH2 0x457 JUMP JUMPDEST PUSH2 0x297 JUMP JUMPDEST STOP JUMPDEST DUP1 PUSH20 0xFFFFFFFFFFFFFFFFFFFFFFFFFFFFFFFFFFFFFFFF AND PUSH2 0x8FC SELFBALANCE SWAP1 DUP2 ISZERO MUL SWAP1 PUSH1 0x40 MLOAD PUSH1 0x0 PUSH1 0x40 MLOAD DUP1 DUP4 SUB DUP2 DUP6 DUP9 DUP9 CALL SWAP4 POP POP POP POP ISZERO DUP1 ISZERO PUSH2 0x15A JUMPI RETURNDATASIZE PUSH1 0x0 DUP1 RETURNDATACOPY RETURNDATASIZE PUSH1 0x0 REVERT JUMPDEST POP POP JUMP JUMPDEST PUSH1 0x0 SELFBALANCE SWAP1 POP SWAP1 JUMP JUMPDEST CALLVALUE PUSH1 0x0 DUP1 CALLER PUSH20 0xFFFFFFFFFFFFFFFFFFFFFFFFFFFFFFFFFFFFFFFF AND PUSH20 0xFFFFFFFFFFFFFFFFFFFFFFFFFFFFFFFFFFFFFFFF AND DUP2 MSTORE PUSH1 0x20 ADD SWAP1 DUP2 MSTORE PUSH1 0x20 ADD PUSH1 0x0 KECCAK256 PUSH1 0x0 ADD DUP2 SWAP1 SSTORE POP PUSH1 0x0 PUSH1 0x40 MLOAD DUP1 PUSH1 0x40 ADD PUSH1 0x40 MSTORE DUP1 CALLVALUE DUP2 MSTORE PUSH1 0x20 ADD TIMESTAMP DUP2 MSTORE POP SWAP1 POP DUP1 PUSH1 0x0 DUP1 CALLER PUSH20 0xFFFFFFFFFFFFFFFFFFFFFFFFFFFFFFFFFFFFFFFF AND PUSH20 0xFFFFFFFFFFFFFFFFFFFFFFFFFFFFFFFFFFFFFFFF AND DUP2 MSTORE PUSH1 0x20 ADD SWAP1 DUP2 MSTORE PUSH1 0x20 ADD PUSH1 0x0 KECCAK256 PUSH1 0x2 ADD PUSH1 0x0 DUP1 PUSH1 0x0 CALLER PUSH20 0xFFFFFFFFFFFFFFFFFFFFFFFFFFFFFFFFFFFFFFFF AND PUSH20 0xFFFFFFFFFFFFFFFFFFFFFFFFFFFFFFFFFFFFFFFF AND DUP2 MSTORE PUSH1 0x20 ADD SWAP1 DUP2 MSTORE PUSH1 0x20 ADD PUSH1 0x0 KECCAK256 PUSH1 0x1 ADD SLOAD DUP2 MSTORE PUSH1 0x20 ADD SWAP1 DUP2 MSTORE PUSH1 0x20 ADD PUSH1 0x0 KECCAK256 PUSH1 0x0 DUP3 ADD MLOAD DUP2 PUSH1 0x0 ADD SSTORE PUSH1 0x20 DUP3 ADD MLOAD DUP2 PUSH1 0x1 ADD SSTORE SWAP1 POP POP POP JUMP JUMPDEST PUSH1 0x0 PUSH1 0x20 MSTORE DUP1 PUSH1 0x0 MSTORE PUSH1 0x40 PUSH1 0x0 KECCAK256 PUSH1 0x0 SWAP2 POP SWAP1 POP DUP1 PUSH1 0x0 ADD SLOAD SWAP1 DUP1 PUSH1 0x1 ADD SLOAD SWAP1 POP DUP3 JUMP JUMPDEST PUSH1 0x0 DUP1 CALLER PUSH20 0xFFFFFFFFFFFFFFFFFFFFFFFFFFFFFFFFFFFFFFFF AND PUSH20 0xFFFFFFFFFFFFFFFFFFFFFFFFFFFFFFFFFFFFFFFF AND DUP2 MSTORE PUSH1 0x20 ADD SWAP1 DUP2 MSTORE PUSH1 0x20 ADD PUSH1 0x0 KECCAK256 PUSH1 0x0 ADD SLOAD DUP2 GT ISZERO PUSH2 0x31B JUMPI PUSH1 0x40 MLOAD PUSH32 0x8C379A000000000000000000000000000000000000000000000000000000000 DUP2 MSTORE PUSH1 0x4 ADD PUSH2 0x312 SWAP1 PUSH2 0x4C9 JUMP JUMPDEST PUSH1 0x40 MLOAD DUP1 SWAP2 SUB SWAP1 REVERT JUMPDEST DUP1 PUSH1 0x0 DUP1 CALLER PUSH20 0xFFFFFFFFFFFFFFFFFFFFFFFFFFFFFFFFFFFFFFFF AND PUSH20 0xFFFFFFFFFFFFFFFFFFFFFFFFFFFFFFFFFFFFFFFF AND DUP2 MSTORE PUSH1 0x20 ADD SWAP1 DUP2 MSTORE PUSH1 0x20 ADD PUSH1 0x0 KECCAK256 PUSH1 0x0 ADD PUSH1 0x0 DUP3 DUP3 SLOAD PUSH2 0x36C SWAP2 SWAP1 PUSH2 0x53E JUMP JUMPDEST SWAP3 POP POP DUP2 SWAP1 SSTORE POP DUP2 PUSH20 0xFFFFFFFFFFFFFFFFFFFFFFFFFFFFFFFFFFFFFFFF AND PUSH2 0x8FC DUP3 SWAP1 DUP2 ISZERO MUL SWAP1 PUSH1 0x40 MLOAD PUSH1 0x0 PUSH1 0x40 MLOAD DUP1 DUP4 SUB DUP2 DUP6 DUP9 DUP9 CALL SWAP4 POP POP POP POP ISZERO DUP1 ISZERO PUSH2 0x3B9 JUMPI RETURNDATASIZE PUSH1 0x0 DUP1 RETURNDATACOPY RETURNDATASIZE PUSH1 0x0 REVERT JUMPDEST POP POP POP JUMP JUMPDEST PUSH1 0x0 DUP2 CALLDATALOAD SWAP1 POP PUSH2 0x3CD DUP2 PUSH2 0x61D JUMP JUMPDEST SWAP3 SWAP2 POP POP JUMP JUMPDEST PUSH1 0x0 DUP2 CALLDATALOAD SWAP1 POP PUSH2 0x3E2 DUP2 PUSH2 0x634 JUMP JUMPDEST SWAP3 SWAP2 POP POP JUMP JUMPDEST PUSH1 0x0 DUP2 CALLDATALOAD SWAP1 POP PUSH2 0x3F7 DUP2 PUSH2 0x64B JUMP JUMPDEST SWAP3 SWAP2 POP POP JUMP JUMPDEST PUSH1 0x0 PUSH1 0x20 DUP3 DUP5 SUB SLT ISZERO PUSH2 0x413 JUMPI PUSH2 0x412 PUSH2 0x5EF JUMP JUMPDEST JUMPDEST PUSH1 0x0 PUSH2 0x421 DUP5 DUP3 DUP6 ADD PUSH2 0x3BE JUMP JUMPDEST SWAP2 POP POP SWAP3 SWAP2 POP POP JUMP JUMPDEST PUSH1 0x0 PUSH1 0x20 DUP3 DUP5 SUB SLT ISZERO PUSH2 0x440 JUMPI PUSH2 0x43F PUSH2 0x5EF JUMP JUMPDEST JUMPDEST PUSH1 0x0 PUSH2 0x44E DUP5 DUP3 DUP6 ADD PUSH2 0x3D3 JUMP JUMPDEST SWAP2 POP POP SWAP3 SWAP2 POP POP JUMP JUMPDEST PUSH1 0x0 DUP1 PUSH1 0x40 DUP4 DUP6 SUB SLT ISZERO PUSH2 0x46E JUMPI PUSH2 0x46D PUSH2 0x5EF JUMP JUMPDEST JUMPDEST PUSH1 0x0 PUSH2 0x47C DUP6 DUP3 DUP7 ADD PUSH2 0x3D3 JUMP JUMPDEST SWAP3 POP POP PUSH1 0x20 PUSH2 0x48D DUP6 DUP3 DUP7 ADD PUSH2 0x3E8 JUMP JUMPDEST SWAP2 POP POP SWAP3 POP SWAP3 SWAP1 POP JUMP JUMPDEST PUSH1 0x0 PUSH2 0x4A4 PUSH1 0x13 DUP4 PUSH2 0x52D JUMP JUMPDEST SWAP2 POP PUSH2 0x4AF DUP3 PUSH2 0x5F4 JUMP JUMPDEST PUSH1 0x20 DUP3 ADD SWAP1 POP SWAP2 SWAP1 POP JUMP JUMPDEST PUSH2 0x4C3 DUP2 PUSH2 0x5B6 JUMP JUMPDEST DUP3 MSTORE POP POP JUMP JUMPDEST PUSH1 0x0 PUSH1 0x20 DUP3 ADD SWAP1 POP DUP2 DUP2 SUB PUSH1 0x0 DUP4 ADD MSTORE PUSH2 0x4E2 DUP2 PUSH2 0x497 JUMP JUMPDEST SWAP1 POP SWAP2 SWAP1 POP JUMP JUMPDEST PUSH1 0x0 PUSH1 0x20 DUP3 ADD SWAP1 POP PUSH2 0x4FE PUSH1 0x0 DUP4 ADD DUP5 PUSH2 0x4BA JUMP JUMPDEST SWAP3 SWAP2 POP POP JUMP JUMPDEST PUSH1 0x0 PUSH1 0x40 DUP3 ADD SWAP1 POP PUSH2 0x519 PUSH1 0x0 DUP4 ADD DUP6 PUSH2 0x4BA JUMP JUMPDEST PUSH2 0x526 PUSH1 0x20 DUP4 ADD DUP5 PUSH2 0x4BA JUMP JUMPDEST SWAP4 SWAP3 POP POP POP JUMP JUMPDEST PUSH1 0x0 DUP3 DUP3 MSTORE PUSH1 0x20 DUP3 ADD SWAP1 POP SWAP3 SWAP2 POP POP JUMP JUMPDEST PUSH1 0x0 PUSH2 0x549 DUP3 PUSH2 0x5B6 JUMP JUMPDEST SWAP2 POP PUSH2 0x554 DUP4 PUSH2 0x5B6 JUMP JUMPDEST SWAP3 POP DUP3 DUP3 LT ISZERO PUSH2 0x567 JUMPI PUSH2 0x566 PUSH2 0x5C0 JUMP JUMPDEST JUMPDEST DUP3 DUP3 SUB SWAP1 POP SWAP3 SWAP2 POP POP JUMP JUMPDEST PUSH1 0x0 PUSH2 0x57D DUP3 PUSH2 0x596 JUMP JUMPDEST SWAP1 POP SWAP2 SWAP1 POP JUMP JUMPDEST PUSH1 0x0 PUSH2 0x58F DUP3 PUSH2 0x596 JUMP JUMPDEST SWAP1 POP SWAP2 SWAP1 POP JUMP JUMPDEST PUSH1 0x0 PUSH20 0xFFFFFFFFFFFFFFFFFFFFFFFFFFFFFFFFFFFFFFFF DUP3 AND SWAP1 POP SWAP2 SWAP1 POP JUMP JUMPDEST PUSH1 0x0 DUP2 SWAP1 POP SWAP2 SWAP1 POP JUMP JUMPDEST PUSH32 0x4E487B7100000000000000000000000000000000000000000000000000000000 PUSH1 0x0 MSTORE PUSH1 0x11 PUSH1 0x4 MSTORE PUSH1 0x24 PUSH1 0x0 REVERT JUMPDEST PUSH1 0x0 DUP1 REVERT JUMPDEST PUSH32 0x496E7375666669656E742042616C61636E636500000000000000000000000000 PUSH1 0x0 DUP3 ADD MSTORE POP JUMP JUMPDEST PUSH2 0x626 DUP2 PUSH2 0x572 JUMP JUMPDEST DUP2 EQ PUSH2 0x631 JUMPI PUSH1 0x0 DUP1 REVERT JUMPDEST POP JUMP JUMPDEST PUSH2 0x63D DUP2 PUSH2 0x584 JUMP JUMPDEST DUP2 EQ PUSH2 0x648 JUMPI PUSH1 0x0 DUP1 REVERT JUMPDEST POP JUMP JUMPDEST PUSH2 0x654 DUP2 PUSH2 0x5B6 JUMP JUMPDEST DUP2 EQ PUSH2 0x65F JUMPI PUSH1 0x0 DUP1 REVERT JUMPDEST POP JUMP INVALID LOG2 PUSH5 0x6970667358 0x22 SLT KECCAK256 DELEGATECALL 0xEF 0xB8 DUP13 0x27 PUSH27 0xC20DD310A21C7B0A53837775101596BF70E7C02704F2F35A888A64 PUSH20 0x6F6C634300080700330000000000000000000000 "
				},
				"gasEstimates": {
					"creation": {
						"codeDepositCost": "337600",
						"executionCost": "374",
						"totalCost": "337974"
					},
					"external": {
						"balanceReceived(address)": "infinite",
						"getBalance()": "339",
						"sendmoney()": "69040",
						"withdrawAllMoney(address)": "infinite",
						"withdrawMoney(address,uint256)": "infinite"
					}
				},
				"methodIdentifiers": {
					"balanceReceived(address)": "d18a42e1",
					"getBalance()": "12065fe0",
					"sendmoney()": "740b08ae",
					"withdrawAllMoney(address)": "0adec93c",
					"withdrawMoney(address,uint256)": "f274c897"
				}
			},
			"storageLayout": {
				"storage": [
					{
						"astId": 21,
						"contract": "practice3.sol:Examples",
						"label": "balanceReceived",
						"offset": 0,
						"slot": "0",
						"type": "t_mapping(t_address,t_struct(Balance)16_storage)"
					}
				],
				"types": {
					"t_address": {
						"encoding": "inplace",
						"label": "address",
						"numberOfBytes": "20"
					},
					"t_mapping(t_address,t_struct(Balance)16_storage)": {
						"encoding": "mapping",
						"key": "t_address",
						"label": "mapping(address => struct Examples.Balance)",
						"numberOfBytes": "32",
						"value": "t_struct(Balance)16_storage"
					},
					"t_mapping(t_uint256,t_struct(Payment)6_storage)": {
						"encoding": "mapping",
						"key": "t_uint256",
						"label": "mapping(uint256 => struct Examples.Payment)",
						"numberOfBytes": "32",
						"value": "t_struct(Payment)6_storage"
					},
					"t_struct(Balance)16_storage": {
						"encoding": "inplace",
						"label": "struct Examples.Balance",
						"members": [
							{
								"astId": 8,
								"contract": "practice3.sol:Examples",
								"label": "totalBalance",
								"offset": 0,
								"slot": "0",
								"type": "t_uint256"
							},
							{
								"astId": 10,
								"contract": "practice3.sol:Examples",
								"label": "numPayments",
								"offset": 0,
								"slot": "1",
								"type": "t_uint256"
							},
							{
								"astId": 15,
								"contract": "practice3.sol:Examples",
								"label": "payments",
								"offset": 0,
								"slot": "2",
								"type": "t_mapping(t_uint256,t_struct(Payment)6_storage)"
							}
						],
						"numberOfBytes": "96"
					},
					"t_struct(Payment)6_storage": {
						"encoding": "inplace",
						"label": "struct Examples.Payment",
						"members": [
							{
								"astId": 3,
								"contract": "practice3.sol:Examples",
								"label": "amount",
								"offset": 0,
								"slot": "0",
								"type": "t_uint256"
							},
							{
								"astId": 5,
								"contract": "practice3.sol:Examples",
								"label": "timestamp",
								"offset": 0,
								"slot": "1",
								"type": "t_uint256"
							}
						],
						"numberOfBytes": "64"
					},
					"t_uint256": {
						"encoding": "inplace",
						"label": "uint256",
						"numberOfBytes": "32"
					}
				}
			},
			"userdoc": {
				"kind": "user",
				"methods": {},
				"version": 1
			}
		}
	}
}