{
	"exceptionExample.sol": {
		"ExceptionExample": {
			"abi": [
				{
					"inputs": [
						{
							"internalType": "address",
							"name": "",
							"type": "address"
						}
					],
					"name": "balanceReceived",
					"outputs": [
						{
							"internalType": "uint256",
							"name": "",
							"type": "uint256"
						}
					],
					"stateMutability": "view",
					"type": "function"
				},
				{
					"inputs": [],
					"name": "receiveMoney",
					"outputs": [],
					"stateMutability": "payable",
					"type": "function"
				},
				{
					"inputs": [
						{
							"internalType": "address payable",
							"name": "dinesh",
							"type": "address"
						},
						{
							"internalType": "uint256",
							"name": "amount",
							"type": "uint256"
						}
					],
					"name": "withdrawMoney",
					"outputs": [],
					"stateMutability": "nonpayable",
					"type": "function"
				},
				{
					"stateMutability": "payable",
					"type": "receive"
				}
			],
			"devdoc": {
				"kind": "dev",
				"methods": {},
				"version": 1
			},
			"evm": {
				"assembly": "    /* \"exceptionExample.sol\":33:705  contract ExceptionExample{\r... */\n  mstore(0x40, 0x80)\n  callvalue\n  dup1\n  iszero\n  tag_1\n  jumpi\n  0x00\n  dup1\n  revert\ntag_1:\n  pop\n  dataSize(sub_0)\n  dup1\n  dataOffset(sub_0)\n  0x00\n  codecopy\n  0x00\n  return\nstop\n\nsub_0: assembly {\n        /* \"exceptionExample.sol\":33:705  contract ExceptionExample{\r... */\n      mstore(0x40, 0x80)\n      jumpi(tag_1, lt(calldatasize, 0x04))\n      shr(0xe0, calldataload(0x00))\n      dup1\n      0x6d26ec18\n      eq\n      tag_3\n      jumpi\n      dup1\n      0xd18a42e1\n      eq\n      tag_4\n      jumpi\n      dup1\n      0xf274c897\n      eq\n      tag_5\n      jumpi\n      jump(tag_2)\n    tag_1:\n      jumpi(tag_2, calldatasize)\n        /* \"exceptionExample.sol\":680:694  receiveMoney() */\n      tag_8\n        /* \"exceptionExample.sol\":680:692  receiveMoney */\n      tag_9\n        /* \"exceptionExample.sol\":680:694  receiveMoney() */\n      jump\t// in\n    tag_8:\n        /* \"exceptionExample.sol\":33:705  contract ExceptionExample{\r... */\n      stop\n    tag_2:\n      0x00\n      dup1\n      revert\n        /* \"exceptionExample.sol\":121:311  function receiveMoney() public payable{\r... */\n    tag_3:\n      tag_10\n      tag_9\n      jump\t// in\n    tag_10:\n      stop\n        /* \"exceptionExample.sol\":67:112  mapping(address=>uint) public balanceReceived */\n    tag_4:\n      callvalue\n      dup1\n      iszero\n      tag_11\n      jumpi\n      0x00\n      dup1\n      revert\n    tag_11:\n      pop\n      tag_12\n      0x04\n      dup1\n      calldatasize\n      sub\n      dup2\n      add\n      swap1\n      tag_13\n      swap2\n      swap1\n      tag_14\n      jump\t// in\n    tag_13:\n      tag_15\n      jump\t// in\n    tag_12:\n      mload(0x40)\n      tag_16\n      swap2\n      swap1\n      tag_17\n      jump\t// in\n    tag_16:\n      mload(0x40)\n      dup1\n      swap2\n      sub\n      swap1\n      return\n        /* \"exceptionExample.sol\":319:630  function withdrawMoney(address payable dinesh, uint amount ) public{\r... */\n    tag_5:\n      callvalue\n      dup1\n      iszero\n      tag_18\n      jumpi\n      0x00\n      dup1\n      revert\n    tag_18:\n      pop\n      tag_19\n      0x04\n      dup1\n      calldatasize\n      sub\n      dup2\n      add\n      swap1\n      tag_20\n      swap2\n      swap1\n      tag_21\n      jump\t// in\n    tag_20:\n      tag_22\n      jump\t// in\n    tag_19:\n      stop\n        /* \"exceptionExample.sol\":121:311  function receiveMoney() public payable{\r... */\n    tag_9:\n        /* \"exceptionExample.sol\":218:233  balanceReceived */\n      0x00\n        /* \"exceptionExample.sol\":218:245  balanceReceived[msg.sender] */\n      dup1\n        /* \"exceptionExample.sol\":234:244  msg.sender */\n      caller\n        /* \"exceptionExample.sol\":218:245  balanceReceived[msg.sender] */\n      0xffffffffffffffffffffffffffffffffffffffff\n      and\n      0xffffffffffffffffffffffffffffffffffffffff\n      and\n      dup2\n      mstore\n      0x20\n      add\n      swap1\n      dup2\n      mstore\n      0x20\n      add\n      0x00\n      keccak256\n      sload\n        /* \"exceptionExample.sol\":205:214  msg.value */\n      callvalue\n        /* \"exceptionExample.sol\":177:192  balanceReceived */\n      0x00\n        /* \"exceptionExample.sol\":177:204  balanceReceived[msg.sender] */\n      dup1\n        /* \"exceptionExample.sol\":193:203  msg.sender */\n      caller\n        /* \"exceptionExample.sol\":177:204  balanceReceived[msg.sender] */\n      0xffffffffffffffffffffffffffffffffffffffff\n      and\n      0xffffffffffffffffffffffffffffffffffffffff\n      and\n      dup2\n      mstore\n      0x20\n      add\n      swap1\n      dup2\n      mstore\n      0x20\n      add\n      0x00\n      keccak256\n      sload\n        /* \"exceptionExample.sol\":177:214  balanceReceived[msg.sender]+msg.value */\n      tag_24\n      swap2\n      swap1\n      tag_25\n      jump\t// in\n    tag_24:\n        /* \"exceptionExample.sol\":177:245  balanceReceived[msg.sender]+msg.value >= balanceReceived[msg.sender] */\n      lt\n      iszero\n        /* \"exceptionExample.sol\":170:246  assert(balanceReceived[msg.sender]+msg.value >= balanceReceived[msg.sender]) */\n      tag_26\n      jumpi\n      tag_27\n      tag_28\n      jump\t// in\n    tag_27:\n    tag_26:\n        /* \"exceptionExample.sol\":291:300  msg.value */\n      callvalue\n        /* \"exceptionExample.sol\":257:272  balanceReceived */\n      0x00\n        /* \"exceptionExample.sol\":257:284  balanceReceived[msg.sender] */\n      dup1\n        /* \"exceptionExample.sol\":273:283  msg.sender */\n      caller\n        /* \"exceptionExample.sol\":257:284  balanceReceived[msg.sender] */\n      0xffffffffffffffffffffffffffffffffffffffff\n      and\n      0xffffffffffffffffffffffffffffffffffffffff\n      and\n      dup2\n      mstore\n      0x20\n      add\n      swap1\n      dup2\n      mstore\n      0x20\n      add\n      0x00\n      keccak256\n      0x00\n        /* \"exceptionExample.sol\":257:301  balanceReceived[msg.sender]+=uint(msg.value) */\n      dup3\n      dup3\n      sload\n      tag_29\n      swap2\n      swap1\n      tag_25\n      jump\t// in\n    tag_29:\n      swap3\n      pop\n      pop\n      dup2\n      swap1\n      sstore\n      pop\n        /* \"exceptionExample.sol\":121:311  function receiveMoney() public payable{\r... */\n      jump\t// out\n        /* \"exceptionExample.sol\":67:112  mapping(address=>uint) public balanceReceived */\n    tag_15:\n      mstore(0x20, 0x00)\n      dup1\n      0x00\n      mstore\n      keccak256(0x00, 0x40)\n      0x00\n      swap2\n      pop\n      swap1\n      pop\n      sload\n      dup2\n      jump\t// out\n        /* \"exceptionExample.sol\":319:630  function withdrawMoney(address payable dinesh, uint amount ) public{\r... */\n    tag_22:\n        /* \"exceptionExample.sol\":434:440  amount */\n      dup1\n        /* \"exceptionExample.sol\":405:420  balanceReceived */\n      0x00\n        /* \"exceptionExample.sol\":405:432  balanceReceived[msg.sender] */\n      dup1\n        /* \"exceptionExample.sol\":421:431  msg.sender */\n      caller\n        /* \"exceptionExample.sol\":405:432  balanceReceived[msg.sender] */\n      0xffffffffffffffffffffffffffffffffffffffff\n      and\n      0xffffffffffffffffffffffffffffffffffffffff\n      and\n      dup2\n      mstore\n      0x20\n      add\n      swap1\n      dup2\n      mstore\n      0x20\n      add\n      0x00\n      keccak256\n      sload\n        /* \"exceptionExample.sol\":405:440  balanceReceived[msg.sender]>=amount */\n      lt\n      iszero\n        /* \"exceptionExample.sol\":397:460  require(balanceReceived[msg.sender]>=amount,\"Insuffient Ether\") */\n      tag_31\n      jumpi\n      mload(0x40)\n      0x08c379a000000000000000000000000000000000000000000000000000000000\n      dup2\n      mstore\n      0x04\n      add\n      tag_32\n      swap1\n      tag_33\n      jump\t// in\n    tag_32:\n      mload(0x40)\n      dup1\n      swap2\n      sub\n      swap1\n      revert\n    tag_31:\n        /* \"exceptionExample.sol\":535:541  amount */\n      dup1\n        /* \"exceptionExample.sol\":507:522  balanceReceived */\n      0x00\n        /* \"exceptionExample.sol\":507:534  balanceReceived[msg.sender] */\n      dup1\n        /* \"exceptionExample.sol\":523:533  msg.sender */\n      caller\n        /* \"exceptionExample.sol\":507:534  balanceReceived[msg.sender] */\n      0xffffffffffffffffffffffffffffffffffffffff\n      and\n      0xffffffffffffffffffffffffffffffffffffffff\n      and\n      dup2\n      mstore\n      0x20\n      add\n      swap1\n      dup2\n      mstore\n      0x20\n      add\n      0x00\n      keccak256\n      sload\n        /* \"exceptionExample.sol\":507:541  balanceReceived[msg.sender]-amount */\n      tag_34\n      swap2\n      swap1\n      tag_35\n      jump\t// in\n    tag_34:\n        /* \"exceptionExample.sol\":478:493  balanceReceived */\n      0x00\n        /* \"exceptionExample.sol\":478:505  balanceReceived[msg.sender] */\n      dup1\n        /* \"exceptionExample.sol\":494:504  msg.sender */\n      caller\n        /* \"exceptionExample.sol\":478:505  balanceReceived[msg.sender] */\n      0xffffffffffffffffffffffffffffffffffffffff\n      and\n      0xffffffffffffffffffffffffffffffffffffffff\n      and\n      dup2\n      mstore\n      0x20\n      add\n      swap1\n      dup2\n      mstore\n      0x20\n      add\n      0x00\n      keccak256\n      sload\n        /* \"exceptionExample.sol\":478:541  balanceReceived[msg.sender]>=balanceReceived[msg.sender]-amount */\n      lt\n      iszero\n        /* \"exceptionExample.sol\":471:542  assert(balanceReceived[msg.sender]>=balanceReceived[msg.sender]-amount) */\n      tag_36\n      jumpi\n      tag_37\n      tag_28\n      jump\t// in\n    tag_37:\n    tag_36:\n        /* \"exceptionExample.sol\":582:588  amount */\n      dup1\n        /* \"exceptionExample.sol\":553:568  balanceReceived */\n      0x00\n        /* \"exceptionExample.sol\":553:580  balanceReceived[msg.sender] */\n      dup1\n        /* \"exceptionExample.sol\":569:579  msg.sender */\n      caller\n        /* \"exceptionExample.sol\":553:580  balanceReceived[msg.sender] */\n      0xffffffffffffffffffffffffffffffffffffffff\n      and\n      0xffffffffffffffffffffffffffffffffffffffff\n      and\n      dup2\n      mstore\n      0x20\n      add\n      swap1\n      dup2\n      mstore\n      0x20\n      add\n      0x00\n      keccak256\n      0x00\n        /* \"exceptionExample.sol\":553:588  balanceReceived[msg.sender]-=amount */\n      dup3\n      dup3\n      sload\n      tag_38\n      swap2\n      swap1\n      tag_35\n      jump\t// in\n    tag_38:\n      swap3\n      pop\n      pop\n      dup2\n      swap1\n      sstore\n      pop\n        /* \"exceptionExample.sol\":599:605  dinesh */\n      dup2\n        /* \"exceptionExample.sol\":599:614  dinesh.transfer */\n      0xffffffffffffffffffffffffffffffffffffffff\n      and\n        /* \"exceptionExample.sol\":599:622  dinesh.transfer(amount) */\n      0x08fc\n        /* \"exceptionExample.sol\":615:621  amount */\n      dup3\n        /* \"exceptionExample.sol\":599:622  dinesh.transfer(amount) */\n      swap1\n      dup2\n      iszero\n      mul\n      swap1\n      mload(0x40)\n      0x00\n      mload(0x40)\n      dup1\n      dup4\n      sub\n      dup2\n      dup6\n      dup9\n      dup9\n      call\n      swap4\n      pop\n      pop\n      pop\n      pop\n      iszero\n      dup1\n      iszero\n      tag_40\n      jumpi\n      returndatasize\n      0x00\n      dup1\n      returndatacopy\n      revert(0x00, returndatasize)\n    tag_40:\n      pop\n        /* \"exceptionExample.sol\":319:630  function withdrawMoney(address payable dinesh, uint amount ) public{\r... */\n      pop\n      pop\n      jump\t// out\n        /* \"#utility.yul\":7:146   */\n    tag_42:\n        /* \"#utility.yul\":53:58   */\n      0x00\n        /* \"#utility.yul\":91:97   */\n      dup2\n        /* \"#utility.yul\":78:98   */\n      calldataload\n        /* \"#utility.yul\":69:98   */\n      swap1\n      pop\n        /* \"#utility.yul\":107:140   */\n      tag_44\n        /* \"#utility.yul\":134:139   */\n      dup2\n        /* \"#utility.yul\":107:140   */\n      tag_45\n      jump\t// in\n    tag_44:\n        /* \"#utility.yul\":7:146   */\n      swap3\n      swap2\n      pop\n      pop\n      jump\t// out\n        /* \"#utility.yul\":152:307   */\n    tag_46:\n        /* \"#utility.yul\":206:211   */\n      0x00\n        /* \"#utility.yul\":244:250   */\n      dup2\n        /* \"#utility.yul\":231:251   */\n      calldataload\n        /* \"#utility.yul\":222:251   */\n      swap1\n      pop\n        /* \"#utility.yul\":260:301   */\n      tag_48\n        /* \"#utility.yul\":295:300   */\n      dup2\n        /* \"#utility.yul\":260:301   */\n      tag_49\n      jump\t// in\n    tag_48:\n        /* \"#utility.yul\":152:307   */\n      swap3\n      swap2\n      pop\n      pop\n      jump\t// out\n        /* \"#utility.yul\":313:452   */\n    tag_50:\n        /* \"#utility.yul\":359:364   */\n      0x00\n        /* \"#utility.yul\":397:403   */\n      dup2\n        /* \"#utility.yul\":384:404   */\n      calldataload\n        /* \"#utility.yul\":375:404   */\n      swap1\n      pop\n        /* \"#utility.yul\":413:446   */\n      tag_52\n        /* \"#utility.yul\":440:445   */\n      dup2\n        /* \"#utility.yul\":413:446   */\n      tag_53\n      jump\t// in\n    tag_52:\n        /* \"#utility.yul\":313:452   */\n      swap3\n      swap2\n      pop\n      pop\n      jump\t// out\n        /* \"#utility.yul\":458:787   */\n    tag_14:\n        /* \"#utility.yul\":517:523   */\n      0x00\n        /* \"#utility.yul\":566:568   */\n      0x20\n        /* \"#utility.yul\":554:563   */\n      dup3\n        /* \"#utility.yul\":545:552   */\n      dup5\n        /* \"#utility.yul\":541:564   */\n      sub\n        /* \"#utility.yul\":537:569   */\n      slt\n        /* \"#utility.yul\":534:653   */\n      iszero\n      tag_55\n      jumpi\n        /* \"#utility.yul\":572:651   */\n      tag_56\n      tag_57\n      jump\t// in\n    tag_56:\n        /* \"#utility.yul\":534:653   */\n    tag_55:\n        /* \"#utility.yul\":692:693   */\n      0x00\n        /* \"#utility.yul\":717:770   */\n      tag_58\n        /* \"#utility.yul\":762:769   */\n      dup5\n        /* \"#utility.yul\":753:759   */\n      dup3\n        /* \"#utility.yul\":742:751   */\n      dup6\n        /* \"#utility.yul\":738:760   */\n      add\n        /* \"#utility.yul\":717:770   */\n      tag_42\n      jump\t// in\n    tag_58:\n        /* \"#utility.yul\":707:770   */\n      swap2\n      pop\n        /* \"#utility.yul\":663:780   */\n      pop\n        /* \"#utility.yul\":458:787   */\n      swap3\n      swap2\n      pop\n      pop\n      jump\t// out\n        /* \"#utility.yul\":793:1283   */\n    tag_21:\n        /* \"#utility.yul\":869:875   */\n      0x00\n        /* \"#utility.yul\":877:883   */\n      dup1\n        /* \"#utility.yul\":926:928   */\n      0x40\n        /* \"#utility.yul\":914:923   */\n      dup4\n        /* \"#utility.yul\":905:912   */\n      dup6\n        /* \"#utility.yul\":901:924   */\n      sub\n        /* \"#utility.yul\":897:929   */\n      slt\n        /* \"#utility.yul\":894:1013   */\n      iszero\n      tag_60\n      jumpi\n        /* \"#utility.yul\":932:1011   */\n      tag_61\n      tag_57\n      jump\t// in\n    tag_61:\n        /* \"#utility.yul\":894:1013   */\n    tag_60:\n        /* \"#utility.yul\":1052:1053   */\n      0x00\n        /* \"#utility.yul\":1077:1138   */\n      tag_62\n        /* \"#utility.yul\":1130:1137   */\n      dup6\n        /* \"#utility.yul\":1121:1127   */\n      dup3\n        /* \"#utility.yul\":1110:1119   */\n      dup7\n        /* \"#utility.yul\":1106:1128   */\n      add\n        /* \"#utility.yul\":1077:1138   */\n      tag_46\n      jump\t// in\n    tag_62:\n        /* \"#utility.yul\":1067:1138   */\n      swap3\n      pop\n        /* \"#utility.yul\":1023:1148   */\n      pop\n        /* \"#utility.yul\":1187:1189   */\n      0x20\n        /* \"#utility.yul\":1213:1266   */\n      tag_63\n        /* \"#utility.yul\":1258:1265   */\n      dup6\n        /* \"#utility.yul\":1249:1255   */\n      dup3\n        /* \"#utility.yul\":1238:1247   */\n      dup7\n        /* \"#utility.yul\":1234:1256   */\n      add\n        /* \"#utility.yul\":1213:1266   */\n      tag_50\n      jump\t// in\n    tag_63:\n        /* \"#utility.yul\":1203:1266   */\n      swap2\n      pop\n        /* \"#utility.yul\":1158:1276   */\n      pop\n        /* \"#utility.yul\":793:1283   */\n      swap3\n      pop\n      swap3\n      swap1\n      pop\n      jump\t// out\n        /* \"#utility.yul\":1289:1655   */\n    tag_64:\n        /* \"#utility.yul\":1431:1434   */\n      0x00\n        /* \"#utility.yul\":1452:1519   */\n      tag_66\n        /* \"#utility.yul\":1516:1518   */\n      0x10\n        /* \"#utility.yul\":1511:1514   */\n      dup4\n        /* \"#utility.yul\":1452:1519   */\n      tag_67\n      jump\t// in\n    tag_66:\n        /* \"#utility.yul\":1445:1519   */\n      swap2\n      pop\n        /* \"#utility.yul\":1528:1621   */\n      tag_68\n        /* \"#utility.yul\":1617:1620   */\n      dup3\n        /* \"#utility.yul\":1528:1621   */\n      tag_69\n      jump\t// in\n    tag_68:\n        /* \"#utility.yul\":1646:1648   */\n      0x20\n        /* \"#utility.yul\":1641:1644   */\n      dup3\n        /* \"#utility.yul\":1637:1649   */\n      add\n        /* \"#utility.yul\":1630:1649   */\n      swap1\n      pop\n        /* \"#utility.yul\":1289:1655   */\n      swap2\n      swap1\n      pop\n      jump\t// out\n        /* \"#utility.yul\":1661:1779   */\n    tag_70:\n        /* \"#utility.yul\":1748:1772   */\n      tag_72\n        /* \"#utility.yul\":1766:1771   */\n      dup2\n        /* \"#utility.yul\":1748:1772   */\n      tag_73\n      jump\t// in\n    tag_72:\n        /* \"#utility.yul\":1743:1746   */\n      dup3\n        /* \"#utility.yul\":1736:1773   */\n      mstore\n        /* \"#utility.yul\":1661:1779   */\n      pop\n      pop\n      jump\t// out\n        /* \"#utility.yul\":1785:2204   */\n    tag_33:\n        /* \"#utility.yul\":1951:1955   */\n      0x00\n        /* \"#utility.yul\":1989:1991   */\n      0x20\n        /* \"#utility.yul\":1978:1987   */\n      dup3\n        /* \"#utility.yul\":1974:1992   */\n      add\n        /* \"#utility.yul\":1966:1992   */\n      swap1\n      pop\n        /* \"#utility.yul\":2038:2047   */\n      dup2\n        /* \"#utility.yul\":2032:2036   */\n      dup2\n        /* \"#utility.yul\":2028:2048   */\n      sub\n        /* \"#utility.yul\":2024:2025   */\n      0x00\n        /* \"#utility.yul\":2013:2022   */\n      dup4\n        /* \"#utility.yul\":2009:2026   */\n      add\n        /* \"#utility.yul\":2002:2049   */\n      mstore\n        /* \"#utility.yul\":2066:2197   */\n      tag_75\n        /* \"#utility.yul\":2192:2196   */\n      dup2\n        /* \"#utility.yul\":2066:2197   */\n      tag_64\n      jump\t// in\n    tag_75:\n        /* \"#utility.yul\":2058:2197   */\n      swap1\n      pop\n        /* \"#utility.yul\":1785:2204   */\n      swap2\n      swap1\n      pop\n      jump\t// out\n        /* \"#utility.yul\":2210:2432   */\n    tag_17:\n        /* \"#utility.yul\":2303:2307   */\n      0x00\n        /* \"#utility.yul\":2341:2343   */\n      0x20\n        /* \"#utility.yul\":2330:2339   */\n      dup3\n        /* \"#utility.yul\":2326:2344   */\n      add\n        /* \"#utility.yul\":2318:2344   */\n      swap1\n      pop\n        /* \"#utility.yul\":2354:2425   */\n      tag_77\n        /* \"#utility.yul\":2422:2423   */\n      0x00\n        /* \"#utility.yul\":2411:2420   */\n      dup4\n        /* \"#utility.yul\":2407:2424   */\n      add\n        /* \"#utility.yul\":2398:2404   */\n      dup5\n        /* \"#utility.yul\":2354:2425   */\n      tag_70\n      jump\t// in\n    tag_77:\n        /* \"#utility.yul\":2210:2432   */\n      swap3\n      swap2\n      pop\n      pop\n      jump\t// out\n        /* \"#utility.yul\":2519:2688   */\n    tag_67:\n        /* \"#utility.yul\":2603:2614   */\n      0x00\n        /* \"#utility.yul\":2637:2643   */\n      dup3\n        /* \"#utility.yul\":2632:2635   */\n      dup3\n        /* \"#utility.yul\":2625:2644   */\n      mstore\n        /* \"#utility.yul\":2677:2681   */\n      0x20\n        /* \"#utility.yul\":2672:2675   */\n      dup3\n        /* \"#utility.yul\":2668:2682   */\n      add\n        /* \"#utility.yul\":2653:2682   */\n      swap1\n      pop\n        /* \"#utility.yul\":2519:2688   */\n      swap3\n      swap2\n      pop\n      pop\n      jump\t// out\n        /* \"#utility.yul\":2694:2999   */\n    tag_25:\n        /* \"#utility.yul\":2734:2737   */\n      0x00\n        /* \"#utility.yul\":2753:2773   */\n      tag_82\n        /* \"#utility.yul\":2771:2772   */\n      dup3\n        /* \"#utility.yul\":2753:2773   */\n      tag_73\n      jump\t// in\n    tag_82:\n        /* \"#utility.yul\":2748:2773   */\n      swap2\n      pop\n        /* \"#utility.yul\":2787:2807   */\n      tag_83\n        /* \"#utility.yul\":2805:2806   */\n      dup4\n        /* \"#utility.yul\":2787:2807   */\n      tag_73\n      jump\t// in\n    tag_83:\n        /* \"#utility.yul\":2782:2807   */\n      swap3\n      pop\n        /* \"#utility.yul\":2941:2942   */\n      dup3\n        /* \"#utility.yul\":2873:2939   */\n      0xffffffffffffffffffffffffffffffffffffffffffffffffffffffffffffffff\n        /* \"#utility.yul\":2869:2943   */\n      sub\n        /* \"#utility.yul\":2866:2867   */\n      dup3\n        /* \"#utility.yul\":2863:2944   */\n      gt\n        /* \"#utility.yul\":2860:2967   */\n      iszero\n      tag_84\n      jumpi\n        /* \"#utility.yul\":2947:2965   */\n      tag_85\n      tag_86\n      jump\t// in\n    tag_85:\n        /* \"#utility.yul\":2860:2967   */\n    tag_84:\n        /* \"#utility.yul\":2991:2992   */\n      dup3\n        /* \"#utility.yul\":2988:2989   */\n      dup3\n        /* \"#utility.yul\":2984:2993   */\n      add\n        /* \"#utility.yul\":2977:2993   */\n      swap1\n      pop\n        /* \"#utility.yul\":2694:2999   */\n      swap3\n      swap2\n      pop\n      pop\n      jump\t// out\n        /* \"#utility.yul\":3005:3196   */\n    tag_35:\n        /* \"#utility.yul\":3045:3049   */\n      0x00\n        /* \"#utility.yul\":3065:3085   */\n      tag_88\n        /* \"#utility.yul\":3083:3084   */\n      dup3\n        /* \"#utility.yul\":3065:3085   */\n      tag_73\n      jump\t// in\n    tag_88:\n        /* \"#utility.yul\":3060:3085   */\n      swap2\n      pop\n        /* \"#utility.yul\":3099:3119   */\n      tag_89\n        /* \"#utility.yul\":3117:3118   */\n      dup4\n        /* \"#utility.yul\":3099:3119   */\n      tag_73\n      jump\t// in\n    tag_89:\n        /* \"#utility.yul\":3094:3119   */\n      swap3\n      pop\n        /* \"#utility.yul\":3138:3139   */\n      dup3\n        /* \"#utility.yul\":3135:3136   */\n      dup3\n        /* \"#utility.yul\":3132:3140   */\n      lt\n        /* \"#utility.yul\":3129:3163   */\n      iszero\n      tag_90\n      jumpi\n        /* \"#utility.yul\":3143:3161   */\n      tag_91\n      tag_86\n      jump\t// in\n    tag_91:\n        /* \"#utility.yul\":3129:3163   */\n    tag_90:\n        /* \"#utility.yul\":3188:3189   */\n      dup3\n        /* \"#utility.yul\":3185:3186   */\n      dup3\n        /* \"#utility.yul\":3181:3190   */\n      sub\n        /* \"#utility.yul\":3173:3190   */\n      swap1\n      pop\n        /* \"#utility.yul\":3005:3196   */\n      swap3\n      swap2\n      pop\n      pop\n      jump\t// out\n        /* \"#utility.yul\":3202:3298   */\n    tag_92:\n        /* \"#utility.yul\":3239:3246   */\n      0x00\n        /* \"#utility.yul\":3268:3292   */\n      tag_94\n        /* \"#utility.yul\":3286:3291   */\n      dup3\n        /* \"#utility.yul\":3268:3292   */\n      tag_95\n      jump\t// in\n    tag_94:\n        /* \"#utility.yul\":3257:3292   */\n      swap1\n      pop\n        /* \"#utility.yul\":3202:3298   */\n      swap2\n      swap1\n      pop\n      jump\t// out\n        /* \"#utility.yul\":3304:3408   */\n    tag_96:\n        /* \"#utility.yul\":3349:3356   */\n      0x00\n        /* \"#utility.yul\":3378:3402   */\n      tag_98\n        /* \"#utility.yul\":3396:3401   */\n      dup3\n        /* \"#utility.yul\":3378:3402   */\n      tag_95\n      jump\t// in\n    tag_98:\n        /* \"#utility.yul\":3367:3402   */\n      swap1\n      pop\n        /* \"#utility.yul\":3304:3408   */\n      swap2\n      swap1\n      pop\n      jump\t// out\n        /* \"#utility.yul\":3414:3540   */\n    tag_95:\n        /* \"#utility.yul\":3451:3458   */\n      0x00\n        /* \"#utility.yul\":3491:3533   */\n      0xffffffffffffffffffffffffffffffffffffffff\n        /* \"#utility.yul\":3484:3489   */\n      dup3\n        /* \"#utility.yul\":3480:3534   */\n      and\n        /* \"#utility.yul\":3469:3534   */\n      swap1\n      pop\n        /* \"#utility.yul\":3414:3540   */\n      swap2\n      swap1\n      pop\n      jump\t// out\n        /* \"#utility.yul\":3546:3623   */\n    tag_73:\n        /* \"#utility.yul\":3583:3590   */\n      0x00\n        /* \"#utility.yul\":3612:3617   */\n      dup2\n        /* \"#utility.yul\":3601:3617   */\n      swap1\n      pop\n        /* \"#utility.yul\":3546:3623   */\n      swap2\n      swap1\n      pop\n      jump\t// out\n        /* \"#utility.yul\":3629:3809   */\n    tag_28:\n        /* \"#utility.yul\":3677:3754   */\n      0x4e487b7100000000000000000000000000000000000000000000000000000000\n        /* \"#utility.yul\":3674:3675   */\n      0x00\n        /* \"#utility.yul\":3667:3755   */\n      mstore\n        /* \"#utility.yul\":3774:3778   */\n      0x01\n        /* \"#utility.yul\":3771:3772   */\n      0x04\n        /* \"#utility.yul\":3764:3779   */\n      mstore\n        /* \"#utility.yul\":3798:3802   */\n      0x24\n        /* \"#utility.yul\":3795:3796   */\n      0x00\n        /* \"#utility.yul\":3788:3803   */\n      revert\n        /* \"#utility.yul\":3815:3995   */\n    tag_86:\n        /* \"#utility.yul\":3863:3940   */\n      0x4e487b7100000000000000000000000000000000000000000000000000000000\n        /* \"#utility.yul\":3860:3861   */\n      0x00\n        /* \"#utility.yul\":3853:3941   */\n      mstore\n        /* \"#utility.yul\":3960:3964   */\n      0x11\n        /* \"#utility.yul\":3957:3958   */\n      0x04\n        /* \"#utility.yul\":3950:3965   */\n      mstore\n        /* \"#utility.yul\":3984:3988   */\n      0x24\n        /* \"#utility.yul\":3981:3982   */\n      0x00\n        /* \"#utility.yul\":3974:3989   */\n      revert\n        /* \"#utility.yul\":4124:4241   */\n    tag_57:\n        /* \"#utility.yul\":4233:4234   */\n      0x00\n        /* \"#utility.yul\":4230:4231   */\n      dup1\n        /* \"#utility.yul\":4223:4235   */\n      revert\n        /* \"#utility.yul\":4247:4413   */\n    tag_69:\n        /* \"#utility.yul\":4387:4405   */\n      0x496e7375666669656e7420457468657200000000000000000000000000000000\n        /* \"#utility.yul\":4383:4384   */\n      0x00\n        /* \"#utility.yul\":4375:4381   */\n      dup3\n        /* \"#utility.yul\":4371:4385   */\n      add\n        /* \"#utility.yul\":4364:4406   */\n      mstore\n        /* \"#utility.yul\":4247:4413   */\n      pop\n      jump\t// out\n        /* \"#utility.yul\":4419:4541   */\n    tag_45:\n        /* \"#utility.yul\":4492:4516   */\n      tag_108\n        /* \"#utility.yul\":4510:4515   */\n      dup2\n        /* \"#utility.yul\":4492:4516   */\n      tag_92\n      jump\t// in\n    tag_108:\n        /* \"#utility.yul\":4485:4490   */\n      dup2\n        /* \"#utility.yul\":4482:4517   */\n      eq\n        /* \"#utility.yul\":4472:4535   */\n      tag_109\n      jumpi\n        /* \"#utility.yul\":4531:4532   */\n      0x00\n        /* \"#utility.yul\":4528:4529   */\n      dup1\n        /* \"#utility.yul\":4521:4533   */\n      revert\n        /* \"#utility.yul\":4472:4535   */\n    tag_109:\n        /* \"#utility.yul\":4419:4541   */\n      pop\n      jump\t// out\n        /* \"#utility.yul\":4547:4685   */\n    tag_49:\n        /* \"#utility.yul\":4628:4660   */\n      tag_111\n        /* \"#utility.yul\":4654:4659   */\n      dup2\n        /* \"#utility.yul\":4628:4660   */\n      tag_96\n      jump\t// in\n    tag_111:\n        /* \"#utility.yul\":4621:4626   */\n      dup2\n        /* \"#utility.yul\":4618:4661   */\n      eq\n        /* \"#utility.yul\":4608:4679   */\n      tag_112\n      jumpi\n        /* \"#utility.yul\":4675:4676   */\n      0x00\n        /* \"#utility.yul\":4672:4673   */\n      dup1\n        /* \"#utility.yul\":4665:4677   */\n      revert\n        /* \"#utility.yul\":4608:4679   */\n    tag_112:\n        /* \"#utility.yul\":4547:4685   */\n      pop\n      jump\t// out\n        /* \"#utility.yul\":4691:4813   */\n    tag_53:\n        /* \"#utility.yul\":4764:4788   */\n      tag_114\n        /* \"#utility.yul\":4782:4787   */\n      dup2\n        /* \"#utility.yul\":4764:4788   */\n      tag_73\n      jump\t// in\n    tag_114:\n        /* \"#utility.yul\":4757:4762   */\n      dup2\n        /* \"#utility.yul\":4754:4789   */\n      eq\n        /* \"#utility.yul\":4744:4807   */\n      tag_115\n      jumpi\n        /* \"#utility.yul\":4803:4804   */\n      0x00\n        /* \"#utility.yul\":4800:4801   */\n      dup1\n        /* \"#utility.yul\":4793:4805   */\n      revert\n        /* \"#utility.yul\":4744:4807   */\n    tag_115:\n        /* \"#utility.yul\":4691:4813   */\n      pop\n      jump\t// out\n\n    auxdata: 0xa26469706673582212201323138064126a2c71b0304d192d88f303bc9212ca0e4c403df1ca9ebf6bb43864736f6c63430008070033\n}\n",
				"bytecode": {
					"linkReferences": {},
					"object": "608060405234801561001057600080fd5b50610685806100206000396000f3fe6080604052600436106100385760003560e01c80636d26ec181461004c578063d18a42e114610056578063f274c8971461009357610047565b36610047576100456100bc565b005b600080fd5b6100546100bc565b005b34801561006257600080fd5b5061007d600480360381019061007891906103bb565b6101ab565b60405161008a919061047a565b60405180910390f35b34801561009f57600080fd5b506100ba60048036038101906100b591906103e8565b6101c3565b005b6000803373ffffffffffffffffffffffffffffffffffffffff1673ffffffffffffffffffffffffffffffffffffffff16815260200190815260200160002054346000803373ffffffffffffffffffffffffffffffffffffffff1673ffffffffffffffffffffffffffffffffffffffff1681526020019081526020016000205461014591906104a6565b10156101545761015361057e565b5b346000803373ffffffffffffffffffffffffffffffffffffffff1673ffffffffffffffffffffffffffffffffffffffff16815260200190815260200160002060008282546101a291906104a6565b92505081905550565b60006020528060005260406000206000915090505481565b806000803373ffffffffffffffffffffffffffffffffffffffff1673ffffffffffffffffffffffffffffffffffffffff168152602001908152602001600020541015610244576040517f08c379a000000000000000000000000000000000000000000000000000000000815260040161023b9061045a565b60405180910390fd5b806000803373ffffffffffffffffffffffffffffffffffffffff1673ffffffffffffffffffffffffffffffffffffffff1681526020019081526020016000205461028e91906104fc565b6000803373ffffffffffffffffffffffffffffffffffffffff1673ffffffffffffffffffffffffffffffffffffffff1681526020019081526020016000205410156102dc576102db61057e565b5b806000803373ffffffffffffffffffffffffffffffffffffffff1673ffffffffffffffffffffffffffffffffffffffff168152602001908152602001600020600082825461032a91906104fc565b925050819055508173ffffffffffffffffffffffffffffffffffffffff166108fc829081150290604051600060405180830381858888f19350505050158015610377573d6000803e3d6000fd5b505050565b60008135905061038b8161060a565b92915050565b6000813590506103a081610621565b92915050565b6000813590506103b581610638565b92915050565b6000602082840312156103d1576103d06105dc565b5b60006103df8482850161037c565b91505092915050565b600080604083850312156103ff576103fe6105dc565b5b600061040d85828601610391565b925050602061041e858286016103a6565b9150509250929050565b6000610435601083610495565b9150610440826105e1565b602082019050919050565b61045481610574565b82525050565b6000602082019050818103600083015261047381610428565b9050919050565b600060208201905061048f600083018461044b565b92915050565b600082825260208201905092915050565b60006104b182610574565b91506104bc83610574565b9250827fffffffffffffffffffffffffffffffffffffffffffffffffffffffffffffffff038211156104f1576104f06105ad565b5b828201905092915050565b600061050782610574565b915061051283610574565b925082821015610525576105246105ad565b5b828203905092915050565b600061053b82610554565b9050919050565b600061054d82610554565b9050919050565b600073ffffffffffffffffffffffffffffffffffffffff82169050919050565b6000819050919050565b7f4e487b7100000000000000000000000000000000000000000000000000000000600052600160045260246000fd5b7f4e487b7100000000000000000000000000000000000000000000000000000000600052601160045260246000fd5b600080fd5b7f496e7375666669656e7420457468657200000000000000000000000000000000600082015250565b61061381610530565b811461061e57600080fd5b50565b61062a81610542565b811461063557600080fd5b50565b61064181610574565b811461064c57600080fd5b5056fea26469706673582212201323138064126a2c71b0304d192d88f303bc9212ca0e4c403df1ca9ebf6bb43864736f6c63430008070033",
					"opcodes": "PUSH1 0x80 PUSH1 0x40 MSTORE CALLVALUE DUP1 ISZERO PUSH2 0x10 JUMPI PUSH1 0x0 DUP1 REVERT JUMPDEST POP PUSH2 0x685 DUP1 PUSH2 0x20 PUSH1 0x0 CODECOPY PUSH1 0x0 RETURN INVALID PUSH1 0x80 PUSH1 0x40 MSTORE PUSH1 0x4 CALLDATASIZE LT PUSH2 0x38 JUMPI PUSH1 0x0 CALLDATALOAD PUSH1 0xE0 SHR DUP1 PUSH4 0x6D26EC18 EQ PUSH2 0x4C JUMPI DUP1 PUSH4 0xD18A42E1 EQ PUSH2 0x56 JUMPI DUP1 PUSH4 0xF274C897 EQ PUSH2 0x93 JUMPI PUSH2 0x47 JUMP JUMPDEST CALLDATASIZE PUSH2 0x47 JUMPI PUSH2 0x45 PUSH2 0xBC JUMP JUMPDEST STOP JUMPDEST PUSH1 0x0 DUP1 REVERT JUMPDEST PUSH2 0x54 PUSH2 0xBC JUMP JUMPDEST STOP JUMPDEST CALLVALUE DUP1 ISZERO PUSH2 0x62 JUMPI PUSH1 0x0 DUP1 REVERT JUMPDEST POP PUSH2 0x7D PUSH1 0x4 DUP1 CALLDATASIZE SUB DUP2 ADD SWAP1 PUSH2 0x78 SWAP2 SWAP1 PUSH2 0x3BB JUMP JUMPDEST PUSH2 0x1AB JUMP JUMPDEST PUSH1 0x40 MLOAD PUSH2 0x8A SWAP2 SWAP1 PUSH2 0x47A JUMP JUMPDEST PUSH1 0x40 MLOAD DUP1 SWAP2 SUB SWAP1 RETURN JUMPDEST CALLVALUE DUP1 ISZERO PUSH2 0x9F JUMPI PUSH1 0x0 DUP1 REVERT JUMPDEST POP PUSH2 0xBA PUSH1 0x4 DUP1 CALLDATASIZE SUB DUP2 ADD SWAP1 PUSH2 0xB5 SWAP2 SWAP1 PUSH2 0x3E8 JUMP JUMPDEST PUSH2 0x1C3 JUMP JUMPDEST STOP JUMPDEST PUSH1 0x0 DUP1 CALLER PUSH20 0xFFFFFFFFFFFFFFFFFFFFFFFFFFFFFFFFFFFFFFFF AND PUSH20 0xFFFFFFFFFFFFFFFFFFFFFFFFFFFFFFFFFFFFFFFF AND DUP2 MSTORE PUSH1 0x20 ADD SWAP1 DUP2 MSTORE PUSH1 0x20 ADD PUSH1 0x0 KECCAK256 SLOAD CALLVALUE PUSH1 0x0 DUP1 CALLER PUSH20 0xFFFFFFFFFFFFFFFFFFFFFFFFFFFFFFFFFFFFFFFF AND PUSH20 0xFFFFFFFFFFFFFFFFFFFFFFFFFFFFFFFFFFFFFFFF AND DUP2 MSTORE PUSH1 0x20 ADD SWAP1 DUP2 MSTORE PUSH1 0x20 ADD PUSH1 0x0 KECCAK256 SLOAD PUSH2 0x145 SWAP2 SWAP1 PUSH2 0x4A6 JUMP JUMPDEST LT ISZERO PUSH2 0x154 JUMPI PUSH2 0x153 PUSH2 0x57E JUMP JUMPDEST JUMPDEST CALLVALUE PUSH1 0x0 DUP1 CALLER PUSH20 0xFFFFFFFFFFFFFFFFFFFFFFFFFFFFFFFFFFFFFFFF AND PUSH20 0xFFFFFFFFFFFFFFFFFFFFFFFFFFFFFFFFFFFFFFFF AND DUP2 MSTORE PUSH1 0x20 ADD SWAP1 DUP2 MSTORE PUSH1 0x20 ADD PUSH1 0x0 KECCAK256 PUSH1 0x0 DUP3 DUP3 SLOAD PUSH2 0x1A2 SWAP2 SWAP1 PUSH2 0x4A6 JUMP JUMPDEST SWAP3 POP POP DUP2 SWAP1 SSTORE POP JUMP JUMPDEST PUSH1 0x0 PUSH1 0x20 MSTORE DUP1 PUSH1 0x0 MSTORE PUSH1 0x40 PUSH1 0x0 KECCAK256 PUSH1 0x0 SWAP2 POP SWAP1 POP SLOAD DUP2 JUMP JUMPDEST DUP1 PUSH1 0x0 DUP1 CALLER PUSH20 0xFFFFFFFFFFFFFFFFFFFFFFFFFFFFFFFFFFFFFFFF AND PUSH20 0xFFFFFFFFFFFFFFFFFFFFFFFFFFFFFFFFFFFFFFFF AND DUP2 MSTORE PUSH1 0x20 ADD SWAP1 DUP2 MSTORE PUSH1 0x20 ADD PUSH1 0x0 KECCAK256 SLOAD LT ISZERO PUSH2 0x244 JUMPI PUSH1 0x40 MLOAD PUSH32 0x8C379A000000000000000000000000000000000000000000000000000000000 DUP2 MSTORE PUSH1 0x4 ADD PUSH2 0x23B SWAP1 PUSH2 0x45A JUMP JUMPDEST PUSH1 0x40 MLOAD DUP1 SWAP2 SUB SWAP1 REVERT JUMPDEST DUP1 PUSH1 0x0 DUP1 CALLER PUSH20 0xFFFFFFFFFFFFFFFFFFFFFFFFFFFFFFFFFFFFFFFF AND PUSH20 0xFFFFFFFFFFFFFFFFFFFFFFFFFFFFFFFFFFFFFFFF AND DUP2 MSTORE PUSH1 0x20 ADD SWAP1 DUP2 MSTORE PUSH1 0x20 ADD PUSH1 0x0 KECCAK256 SLOAD PUSH2 0x28E SWAP2 SWAP1 PUSH2 0x4FC JUMP JUMPDEST PUSH1 0x0 DUP1 CALLER PUSH20 0xFFFFFFFFFFFFFFFFFFFFFFFFFFFFFFFFFFFFFFFF AND PUSH20 0xFFFFFFFFFFFFFFFFFFFFFFFFFFFFFFFFFFFFFFFF AND DUP2 MSTORE PUSH1 0x20 ADD SWAP1 DUP2 MSTORE PUSH1 0x20 ADD PUSH1 0x0 KECCAK256 SLOAD LT ISZERO PUSH2 0x2DC JUMPI PUSH2 0x2DB PUSH2 0x57E JUMP JUMPDEST JUMPDEST DUP1 PUSH1 0x0 DUP1 CALLER PUSH20 0xFFFFFFFFFFFFFFFFFFFFFFFFFFFFFFFFFFFFFFFF AND PUSH20 0xFFFFFFFFFFFFFFFFFFFFFFFFFFFFFFFFFFFFFFFF AND DUP2 MSTORE PUSH1 0x20 ADD SWAP1 DUP2 MSTORE PUSH1 0x20 ADD PUSH1 0x0 KECCAK256 PUSH1 0x0 DUP3 DUP3 SLOAD PUSH2 0x32A SWAP2 SWAP1 PUSH2 0x4FC JUMP JUMPDEST SWAP3 POP POP DUP2 SWAP1 SSTORE POP DUP2 PUSH20 0xFFFFFFFFFFFFFFFFFFFFFFFFFFFFFFFFFFFFFFFF AND PUSH2 0x8FC DUP3 SWAP1 DUP2 ISZERO MUL SWAP1 PUSH1 0x40 MLOAD PUSH1 0x0 PUSH1 0x40 MLOAD DUP1 DUP4 SUB DUP2 DUP6 DUP9 DUP9 CALL SWAP4 POP POP POP POP ISZERO DUP1 ISZERO PUSH2 0x377 JUMPI RETURNDATASIZE PUSH1 0x0 DUP1 RETURNDATACOPY RETURNDATASIZE PUSH1 0x0 REVERT JUMPDEST POP POP POP JUMP JUMPDEST PUSH1 0x0 DUP2 CALLDATALOAD SWAP1 POP PUSH2 0x38B DUP2 PUSH2 0x60A JUMP JUMPDEST SWAP3 SWAP2 POP POP JUMP JUMPDEST PUSH1 0x0 DUP2 CALLDATALOAD SWAP1 POP PUSH2 0x3A0 DUP2 PUSH2 0x621 JUMP JUMPDEST SWAP3 SWAP2 POP POP JUMP JUMPDEST PUSH1 0x0 DUP2 CALLDATALOAD SWAP1 POP PUSH2 0x3B5 DUP2 PUSH2 0x638 JUMP JUMPDEST SWAP3 SWAP2 POP POP JUMP JUMPDEST PUSH1 0x0 PUSH1 0x20 DUP3 DUP5 SUB SLT ISZERO PUSH2 0x3D1 JUMPI PUSH2 0x3D0 PUSH2 0x5DC JUMP JUMPDEST JUMPDEST PUSH1 0x0 PUSH2 0x3DF DUP5 DUP3 DUP6 ADD PUSH2 0x37C JUMP JUMPDEST SWAP2 POP POP SWAP3 SWAP2 POP POP JUMP JUMPDEST PUSH1 0x0 DUP1 PUSH1 0x40 DUP4 DUP6 SUB SLT ISZERO PUSH2 0x3FF JUMPI PUSH2 0x3FE PUSH2 0x5DC JUMP JUMPDEST JUMPDEST PUSH1 0x0 PUSH2 0x40D DUP6 DUP3 DUP7 ADD PUSH2 0x391 JUMP JUMPDEST SWAP3 POP POP PUSH1 0x20 PUSH2 0x41E DUP6 DUP3 DUP7 ADD PUSH2 0x3A6 JUMP JUMPDEST SWAP2 POP POP SWAP3 POP SWAP3 SWAP1 POP JUMP JUMPDEST PUSH1 0x0 PUSH2 0x435 PUSH1 0x10 DUP4 PUSH2 0x495 JUMP JUMPDEST SWAP2 POP PUSH2 0x440 DUP3 PUSH2 0x5E1 JUMP JUMPDEST PUSH1 0x20 DUP3 ADD SWAP1 POP SWAP2 SWAP1 POP JUMP JUMPDEST PUSH2 0x454 DUP2 PUSH2 0x574 JUMP JUMPDEST DUP3 MSTORE POP POP JUMP JUMPDEST PUSH1 0x0 PUSH1 0x20 DUP3 ADD SWAP1 POP DUP2 DUP2 SUB PUSH1 0x0 DUP4 ADD MSTORE PUSH2 0x473 DUP2 PUSH2 0x428 JUMP JUMPDEST SWAP1 POP SWAP2 SWAP1 POP JUMP JUMPDEST PUSH1 0x0 PUSH1 0x20 DUP3 ADD SWAP1 POP PUSH2 0x48F PUSH1 0x0 DUP4 ADD DUP5 PUSH2 0x44B JUMP JUMPDEST SWAP3 SWAP2 POP POP JUMP JUMPDEST PUSH1 0x0 DUP3 DUP3 MSTORE PUSH1 0x20 DUP3 ADD SWAP1 POP SWAP3 SWAP2 POP POP JUMP JUMPDEST PUSH1 0x0 PUSH2 0x4B1 DUP3 PUSH2 0x574 JUMP JUMPDEST SWAP2 POP PUSH2 0x4BC DUP4 PUSH2 0x574 JUMP JUMPDEST SWAP3 POP DUP3 PUSH32 0xFFFFFFFFFFFFFFFFFFFFFFFFFFFFFFFFFFFFFFFFFFFFFFFFFFFFFFFFFFFFFFFF SUB DUP3 GT ISZERO PUSH2 0x4F1 JUMPI PUSH2 0x4F0 PUSH2 0x5AD JUMP JUMPDEST JUMPDEST DUP3 DUP3 ADD SWAP1 POP SWAP3 SWAP2 POP POP JUMP JUMPDEST PUSH1 0x0 PUSH2 0x507 DUP3 PUSH2 0x574 JUMP JUMPDEST SWAP2 POP PUSH2 0x512 DUP4 PUSH2 0x574 JUMP JUMPDEST SWAP3 POP DUP3 DUP3 LT ISZERO PUSH2 0x525 JUMPI PUSH2 0x524 PUSH2 0x5AD JUMP JUMPDEST JUMPDEST DUP3 DUP3 SUB SWAP1 POP SWAP3 SWAP2 POP POP JUMP JUMPDEST PUSH1 0x0 PUSH2 0x53B DUP3 PUSH2 0x554 JUMP JUMPDEST SWAP1 POP SWAP2 SWAP1 POP JUMP JUMPDEST PUSH1 0x0 PUSH2 0x54D DUP3 PUSH2 0x554 JUMP JUMPDEST SWAP1 POP SWAP2 SWAP1 POP JUMP JUMPDEST PUSH1 0x0 PUSH20 0xFFFFFFFFFFFFFFFFFFFFFFFFFFFFFFFFFFFFFFFF DUP3 AND SWAP1 POP SWAP2 SWAP1 POP JUMP JUMPDEST PUSH1 0x0 DUP2 SWAP1 POP SWAP2 SWAP1 POP JUMP JUMPDEST PUSH32 0x4E487B7100000000000000000000000000000000000000000000000000000000 PUSH1 0x0 MSTORE PUSH1 0x1 PUSH1 0x4 MSTORE PUSH1 0x24 PUSH1 0x0 REVERT JUMPDEST PUSH32 0x4E487B7100000000000000000000000000000000000000000000000000000000 PUSH1 0x0 MSTORE PUSH1 0x11 PUSH1 0x4 MSTORE PUSH1 0x24 PUSH1 0x0 REVERT JUMPDEST PUSH1 0x0 DUP1 REVERT JUMPDEST PUSH32 0x496E7375666669656E7420457468657200000000000000000000000000000000 PUSH1 0x0 DUP3 ADD MSTORE POP JUMP JUMPDEST PUSH2 0x613 DUP2 PUSH2 0x530 JUMP JUMPDEST DUP2 EQ PUSH2 0x61E JUMPI PUSH1 0x0 DUP1 REVERT JUMPDEST POP JUMP JUMPDEST PUSH2 0x62A DUP2 PUSH2 0x542 JUMP JUMPDEST DUP2 EQ PUSH2 0x635 JUMPI PUSH1 0x0 DUP1 REVERT JUMPDEST POP JUMP JUMPDEST PUSH2 0x641 DUP2 PUSH2 0x574 JUMP JUMPDEST DUP2 EQ PUSH2 0x64C JUMPI PUSH1 0x0 DUP1 REVERT JUMPDEST POP JUMP INVALID LOG2 PUSH5 0x6970667358 0x22 SLT KECCAK256 SGT 0x23 SGT DUP1 PUSH5 0x126A2C71B0 ADDRESS 0x4D NOT 0x2D DUP9 RETURN SUB 0xBC SWAP3 SLT 0xCA 0xE 0x4C BLOCKHASH RETURNDATASIZE CALL 0xCA SWAP15 0xBF PUSH12 0xB43864736F6C634300080700 CALLER "
				},
				"gasEstimates": {
					"creation": {
						"codeDepositCost": "333800",
						"executionCost": "374",
						"totalCost": "334174"
					},
					"external": {
						"balanceReceived(address)": "2814",
						"receiveMoney()": "infinite",
						"withdrawMoney(address,uint256)": "infinite"
					}
				},
				"methodIdentifiers": {
					"balanceReceived(address)": "d18a42e1",
					"receiveMoney()": "6d26ec18",
					"withdrawMoney(address,uint256)": "f274c897"
				}
			},
			"storageLayout": {
				"storage": [
					{
						"astId": 5,
						"contract": "exceptionExample.sol:ExceptionExample",
						"label": "balanceReceived",
						"offset": 0,
						"slot": "0",
						"type": "t_mapping(t_address,t_uint256)"
					}
				],
				"types": {
					"t_address": {
						"encoding": "inplace",
						"label": "address",
						"numberOfBytes": "20"
					},
					"t_mapping(t_address,t_uint256)": {
						"encoding": "mapping",
						"key": "t_address",
						"label": "mapping(address => uint256)",
						"numberOfBytes": "32",
						"value": "t_uint256"
					},
					"t_uint256": {
						"encoding": "inplace",
						"label": "uint256",
						"numberOfBytes": "32"
					}
				}
			},
			"userdoc": {
				"kind": "user",
				"methods": {},
				"version": 1
			}
		}
	}
}